{
  "contractName": "Doctor",
  "abi": [
    {
      "inputs": [],
      "stateMutability": "nonpayable",
      "type": "constructor"
    },
    {
      "inputs": [
        {
          "internalType": "uint256",
          "name": "",
          "type": "uint256"
        }
      ],
      "name": "Doctors",
      "outputs": [
        {
          "internalType": "uint256",
          "name": "id",
          "type": "uint256"
        },
        {
          "internalType": "string",
          "name": "name",
          "type": "string"
        },
        {
          "internalType": "uint256",
          "name": "hospitalId",
          "type": "uint256"
        },
        {
          "internalType": "string",
          "name": "position",
          "type": "string"
        },
        {
          "internalType": "string",
          "name": "speciality",
          "type": "string"
        },
        {
          "internalType": "string",
          "name": "qualification",
          "type": "string"
        },
        {
          "internalType": "string",
          "name": "email",
          "type": "string"
        },
        {
          "internalType": "string",
          "name": "phoneNumber",
          "type": "string"
        },
        {
          "internalType": "string",
          "name": "gender",
          "type": "string"
        }
      ],
      "stateMutability": "view",
      "type": "function",
      "constant": true
    },
    {
      "inputs": [],
      "name": "doctorsCount",
      "outputs": [
        {
          "internalType": "uint256",
          "name": "",
          "type": "uint256"
        }
      ],
      "stateMutability": "view",
      "type": "function",
      "constant": true
    }
  ],
  "bytecode": "0x608060405234801561001057600080fd5b5061071d806100206000396000f3fe608060405234801561001057600080fd5b50600436106100365760003560e01c806304bb9bc01461003b5780632715167214610059575b600080fd5b610043610091565b60405161005091906104b6565b60405180910390f35b610073600480360381019061006e9190610502565b610097565b604051610088999897969594939291906105c8565b60405180910390f35b60015481565b60006020528060005260406000206000915090508060000154908060010180546100c0906106b5565b80601f01602080910402602001604051908101604052809291908181526020018280546100ec906106b5565b80156101395780601f1061010e57610100808354040283529160200191610139565b820191906000526020600020905b81548152906001019060200180831161011c57829003601f168201915b505050505090806002015490806003018054610154906106b5565b80601f0160208091040260200160405190810160405280929190818152602001828054610180906106b5565b80156101cd5780601f106101a2576101008083540402835291602001916101cd565b820191906000526020600020905b8154815290600101906020018083116101b057829003601f168201915b5050505050908060040180546101e2906106b5565b80601f016020809104026020016040519081016040528092919081815260200182805461020e906106b5565b801561025b5780601f106102305761010080835404028352916020019161025b565b820191906000526020600020905b81548152906001019060200180831161023e57829003601f168201915b505050505090806005018054610270906106b5565b80601f016020809104026020016040519081016040528092919081815260200182805461029c906106b5565b80156102e95780601f106102be576101008083540402835291602001916102e9565b820191906000526020600020905b8154815290600101906020018083116102cc57829003601f168201915b5050505050908060060180546102fe906106b5565b80601f016020809104026020016040519081016040528092919081815260200182805461032a906106b5565b80156103775780601f1061034c57610100808354040283529160200191610377565b820191906000526020600020905b81548152906001019060200180831161035a57829003601f168201915b50505050509080600701805461038c906106b5565b80601f01602080910402602001604051908101604052809291908181526020018280546103b8906106b5565b80156104055780601f106103da57610100808354040283529160200191610405565b820191906000526020600020905b8154815290600101906020018083116103e857829003601f168201915b50505050509080600801805461041a906106b5565b80601f0160208091040260200160405190810160405280929190818152602001828054610446906106b5565b80156104935780601f1061046857610100808354040283529160200191610493565b820191906000526020600020905b81548152906001019060200180831161047657829003601f168201915b5050505050905089565b6000819050919050565b6104b08161049d565b82525050565b60006020820190506104cb60008301846104a7565b92915050565b600080fd5b6104df8161049d565b81146104ea57600080fd5b50565b6000813590506104fc816104d6565b92915050565b600060208284031215610518576105176104d1565b5b6000610526848285016104ed565b91505092915050565b600081519050919050565b600082825260208201905092915050565b60005b8381101561056957808201518184015260208101905061054e565b83811115610578576000848401525b50505050565b6000601f19601f8301169050919050565b600061059a8261052f565b6105a4818561053a565b93506105b481856020860161054b565b6105bd8161057e565b840191505092915050565b6000610120820190506105de600083018c6104a7565b81810360208301526105f0818b61058f565b90506105ff604083018a6104a7565b8181036060830152610611818961058f565b90508181036080830152610625818861058f565b905081810360a0830152610639818761058f565b905081810360c083015261064d818661058f565b905081810360e0830152610661818561058f565b9050818103610100830152610676818461058f565b90509a9950505050505050505050565b7f4e487b7100000000000000000000000000000000000000000000000000000000600052602260045260246000fd5b600060028204905060018216806106cd57607f821691505b602082108114156106e1576106e0610686565b5b5091905056fea2646970667358221220ccf0e62fc3cb879896a0f8313e20e2f6940e433e8d762e1d3acf058510080b3364736f6c634300080a0033",
  "immutableReferences": {},
  "source": "// SPDX-License-Identifier: MIT\r\npragma solidity >=0.4.22 <0.9.0;\r\n\r\ncontract Doctor {\r\n    \r\n    struct structDoctor {\r\n        uint id;\r\n        string name;\r\n        uint hospitalId;\r\n        string position;\r\n        string speciality;\r\n        string qualification;\r\n        string email;\r\n        string phoneNumber;\r\n        string gender;\r\n\r\n    }\r\n\r\n    mapping(uint => structDoctor) public Doctors;\r\n\r\n    constructor () {   }\r\n\r\n    //Hold doctor count\r\n    uint public doctorsCount;\r\n\r\n     function addDoctor (string memory _name, uint _hospitalId, string memory _position, \r\n                         string memory _speciality, string memory _qualification, string memory _email, \r\n                         string memory _phoneNumber, string memory _gender) private {\r\n        doctorsCount ++;\r\n        Doctors[doctorsCount] = structDoctor(doctorsCount, _name,_hospitalId,_position,_speciality,_qualification,_email,_phoneNumber,_gender);\r\n    }\r\n}\r\n",
  "sourcePath": "D:\\Documents\\Custom Office Templates\\Final Year Project\\decentralized-patient-centered-health-records-and-exchange\\decentralized-patient-centered-health-records-and-exchange\\contracts\\Doctor.sol",
  "compiler": {
    "name": "solc",
    "version": "0.8.10+commit.fc410830.Emscripten.clang"
  },
  "schemaVersion": "3.4.3",
  "updatedAt": "2022-01-23T13:15:01.093Z",
  "networkType": "ethereum",
  "devdoc": {
    "kind": "dev",
    "methods": {},
    "version": 1
  },
  "userdoc": {
    "kind": "user",
    "methods": {},
    "version": 1
  }
}