{
  "contractName": "Hospital",
  "abi": [
    {
      "inputs": [],
      "stateMutability": "nonpayable",
      "type": "constructor"
    },
    {
      "inputs": [
        {
          "internalType": "uint256",
          "name": "",
          "type": "uint256"
        }
      ],
      "name": "Hospitals",
      "outputs": [
        {
          "internalType": "uint256",
          "name": "id",
          "type": "uint256"
        },
        {
          "internalType": "string",
          "name": "name",
          "type": "string"
        },
        {
          "internalType": "string",
          "name": "location",
          "type": "string"
        },
        {
          "internalType": "string",
          "name": "city",
          "type": "string"
        },
        {
          "internalType": "string",
          "name": "state",
          "type": "string"
        },
        {
          "internalType": "string",
          "name": "postalCode",
          "type": "string"
        },
        {
          "internalType": "string",
          "name": "country",
          "type": "string"
        },
        {
          "internalType": "string",
          "name": "phoneNumber",
          "type": "string"
        }
      ],
      "stateMutability": "view",
      "type": "function",
      "constant": true
    },
    {
      "inputs": [],
      "name": "getCount",
      "outputs": [
        {
          "internalType": "uint256",
          "name": "",
          "type": "uint256"
        }
      ],
      "stateMutability": "view",
      "type": "function",
      "constant": true
    },
    {
      "inputs": [
        {
          "internalType": "string",
          "name": "_name",
          "type": "string"
        },
        {
          "internalType": "string",
          "name": "_location",
          "type": "string"
        },
        {
          "internalType": "string",
          "name": "_city",
          "type": "string"
        },
        {
          "internalType": "string",
          "name": "_state",
          "type": "string"
        },
        {
          "internalType": "string",
          "name": "_postalCode",
          "type": "string"
        },
        {
          "internalType": "string",
          "name": "_country",
          "type": "string"
        },
        {
          "internalType": "string",
          "name": "_phoneNumber",
          "type": "string"
        }
      ],
      "name": "CreateHospital",
      "outputs": [
        {
          "internalType": "bool",
          "name": "",
          "type": "bool"
        }
      ],
      "stateMutability": "nonpayable",
      "type": "function"
    },
    {
      "inputs": [
        {
          "internalType": "uint256",
          "name": "_id",
          "type": "uint256"
        },
        {
          "internalType": "string",
          "name": "_name",
          "type": "string"
        },
        {
          "internalType": "string",
          "name": "_location",
          "type": "string"
        },
        {
          "internalType": "string",
          "name": "_city",
          "type": "string"
        },
        {
          "internalType": "string",
          "name": "_state",
          "type": "string"
        },
        {
          "internalType": "string",
          "name": "_postalCode",
          "type": "string"
        },
        {
          "internalType": "string",
          "name": "_country",
          "type": "string"
        },
        {
          "internalType": "string",
          "name": "_phoneNumber",
          "type": "string"
        }
      ],
      "name": "updateHospital",
      "outputs": [
        {
          "internalType": "bool",
          "name": "",
          "type": "bool"
        }
      ],
      "stateMutability": "nonpayable",
      "type": "function"
    },
    {
      "inputs": [
        {
          "internalType": "string",
          "name": "_name",
          "type": "string"
        }
      ],
      "name": "checkHospital",
      "outputs": [
        {
          "internalType": "bool",
          "name": "",
          "type": "bool"
        }
      ],
      "stateMutability": "view",
      "type": "function",
      "constant": true
    },
    {
      "inputs": [],
      "name": "getAll",
      "outputs": [
        {
          "components": [
            {
              "internalType": "uint256",
              "name": "id",
              "type": "uint256"
            },
            {
              "internalType": "string",
              "name": "name",
              "type": "string"
            },
            {
              "internalType": "string",
              "name": "location",
              "type": "string"
            },
            {
              "internalType": "string",
              "name": "city",
              "type": "string"
            },
            {
              "internalType": "string",
              "name": "state",
              "type": "string"
            },
            {
              "internalType": "string",
              "name": "postalCode",
              "type": "string"
            },
            {
              "internalType": "string",
              "name": "country",
              "type": "string"
            },
            {
              "internalType": "string",
              "name": "phoneNumber",
              "type": "string"
            }
          ],
          "internalType": "struct Hospital.structHospital[]",
          "name": "",
          "type": "tuple[]"
        }
      ],
      "stateMutability": "view",
      "type": "function",
      "constant": true
    }
  ],
  "bytecode": "0x6080604052600080553480156200001557600080fd5b50620001a06040518060400160405280600481526020017f6e616d65000000000000000000000000000000000000000000000000000000008152506040518060400160405280600881526020017f6c6f636174696f6e0000000000000000000000000000000000000000000000008152506040518060400160405280600481526020017f63697479000000000000000000000000000000000000000000000000000000008152506040518060400160405280600581526020017f73746174650000000000000000000000000000000000000000000000000000008152506040518060400160405280600a81526020017f706f7374616c636f6465000000000000000000000000000000000000000000008152506040518060400160405280600781526020017f636f756e747279000000000000000000000000000000000000000000000000008152506040518060400160405280600b81526020017f70686f6e654e756d6265720000000000000000000000000000000000000000008152506200064860201b60201c565b506200032b6040518060400160405280600581526020017f6e616d65310000000000000000000000000000000000000000000000000000008152506040518060400160405280600981526020017f6c6f636174696f6e3100000000000000000000000000000000000000000000008152506040518060400160405280600581526020017f63697479310000000000000000000000000000000000000000000000000000008152506040518060400160405280600681526020017f73746174653100000000000000000000000000000000000000000000000000008152506040518060400160405280600b81526020017f706f7374616c636f6465310000000000000000000000000000000000000000008152506040518060400160405280600881526020017f636f756e747279310000000000000000000000000000000000000000000000008152506040518060400160405280600c81526020017f70686f6e654e756d6265723100000000000000000000000000000000000000008152506200064860201b60201c565b50620004b66040518060400160405280600581526020017f6e616d65320000000000000000000000000000000000000000000000000000008152506040518060400160405280600981526020017f6c6f636174696f6e3100000000000000000000000000000000000000000000008152506040518060400160405280600581526020017f63697479310000000000000000000000000000000000000000000000000000008152506040518060400160405280600681526020017f73746174653100000000000000000000000000000000000000000000000000008152506040518060400160405280600b81526020017f706f7374616c636f6465310000000000000000000000000000000000000000008152506040518060400160405280600881526020017f636f756e747279310000000000000000000000000000000000000000000000008152506040518060400160405280600c81526020017f70686f6e654e756d6265723100000000000000000000000000000000000000008152506200064860201b60201c565b50620006416040518060400160405280600581526020017f6e616d65330000000000000000000000000000000000000000000000000000008152506040518060400160405280600981526020017f6c6f636174696f6e3100000000000000000000000000000000000000000000008152506040518060400160405280600581526020017f63697479310000000000000000000000000000000000000000000000000000008152506040518060400160405280600681526020017f73746174653100000000000000000000000000000000000000000000000000008152506040518060400160405280600b81526020017f706f7374616c636f6465310000000000000000000000000000000000000000008152506040518060400160405280600881526020017f636f756e747279310000000000000000000000000000000000000000000000008152506040518060400160405280600c81526020017f70686f6e654e756d6265723100000000000000000000000000000000000000008152506200064860201b60201c565b5062000b67565b60006200065b88620007c960201b60201c565b620007b9576040518061010001604052806000548152602001898152602001888152602001878152602001868152602001858152602001848152602001838152506001600080548152602001908152602001600020600082015181600001556020820151816001019080519060200190620006d892919062000876565b506040820151816002019080519060200190620006f792919062000876565b5060608201518160030190805190602001906200071692919062000876565b5060808201518160040190805190602001906200073592919062000876565b5060a08201518160050190805190602001906200075492919062000876565b5060c08201518160060190805190602001906200077392919062000876565b5060e08201518160070190805190602001906200079292919062000876565b50905050600080815480929190620007aa906200095f565b919050555060019050620007be565b600090505b979650505050505050565b600080600090505b6000548110156200086b5782604051602001620007ef919062000a30565b60405160208183030381529060405280519060200120600160008381526020019081526020016000206001016040516020016200082d919062000b4e565b6040516020818303038152906040528051906020012014156200085557600191505062000871565b808062000862906200095f565b915050620007d1565b50600090505b919050565b828054620008849062000a78565b90600052602060002090601f016020900481019282620008a85760008555620008f4565b82601f10620008c357805160ff1916838001178555620008f4565b82800160010185558215620008f4579182015b82811115620008f3578251825591602001919060010190620008d6565b5b50905062000903919062000907565b5090565b5b808211156200092257600081600090555060010162000908565b5090565b7f4e487b7100000000000000000000000000000000000000000000000000000000600052601160045260246000fd5b6000819050919050565b60006200096c8262000955565b91507fffffffffffffffffffffffffffffffffffffffffffffffffffffffffffffffff821415620009a257620009a162000926565b5b600182019050919050565b600081519050919050565b600081905092915050565b60005b83811015620009e3578082015181840152602081019050620009c6565b83811115620009f3576000848401525b50505050565b600062000a0682620009ad565b62000a128185620009b8565b935062000a24818560208601620009c3565b80840191505092915050565b600062000a3e8284620009f9565b915081905092915050565b7f4e487b7100000000000000000000000000000000000000000000000000000000600052602260045260246000fd5b6000600282049050600182168062000a9157607f821691505b6020821081141562000aa85762000aa762000a49565b5b50919050565b60008190508160005260206000209050919050565b6000815462000ad28162000a78565b62000ade8186620009b8565b9450600182166000811462000afc576001811462000b0e5762000b45565b60ff1983168652818601935062000b45565b62000b198562000aae565b60005b8381101562000b3d5781548189015260018201915060208101905062000b1c565b838801955050505b50505092915050565b600062000b5c828462000ac3565b915081905092915050565b611a738062000b776000396000f3fe608060405234801561001057600080fd5b50600436106100625760003560e01c806321e59781146100675780634020f1351461009757806353ed5143146100c75780638cc5aaa2146100e5578063a87d942c14610115578063b758944114610133575b600080fd5b610081600480360381019061007c91906110a1565b61016a565b60405161008e9190611236565b60405180910390f35b6100b160048036038101906100ac9190611251565b610342565b6040516100be9190611236565b60405180910390f35b6100cf6103e5565b6040516100dc91906114cd565b60405180910390f35b6100ff60048036038101906100fa91906114ef565b6108b9565b60405161010c9190611236565b60405180910390f35b61011d610a20565b60405161012a9190611664565b60405180910390f35b61014d6004803603810190610148919061167f565b610a29565b6040516101619897969594939291906116f6565b60405180910390f35b600080600090505b600054811015610330578960405160200161018d91906117c6565b6040516020818303038152906040528051906020012060016000838152602001908152602001600020600001546040516020016101ca91906117c6565b60405160208183030381529060405280519060200120141561031d5788600160008381526020019081526020016000206001019080519060200190610210929190610e29565b508760016000838152602001908152602001600020600201908051906020019061023b929190610e29565b5086600160008381526020019081526020016000206003019080519060200190610266929190610e29565b5085600160008381526020019081526020016000206004019080519060200190610291929190610e29565b50846001600083815260200190815260200160002060050190805190602001906102bc929190610e29565b50836001600083815260200190815260200160002060060190805190602001906102e7929190610e29565b5082600160008381526020019081526020016000206007019080519060200190610312929190610e29565b506001915050610336565b808061032890611810565b915050610172565b50600090505b98975050505050505050565b600080600090505b6000548110156103da57826040516020016103659190611895565b60405160208183030381529060405280519060200120600160008381526020019081526020016000206001016040516020016103a191906119a1565b6040516020818303038152906040528051906020012014156103c75760019150506103e0565b80806103d290611810565b91505061034a565b50600090505b919050565b6060600060016000546103f891906119b8565b67ffffffffffffffff81111561041157610410610f76565b5b60405190808252806020026020018201604052801561044a57816020015b610437610eaf565b81526020019060019003908161042f5790505b50905060005b60005481116108b157600160008281526020019081526020016000206040518061010001604052908160008201548152602001600182018054610492906118db565b80601f01602080910402602001604051908101604052809291908181526020018280546104be906118db565b801561050b5780601f106104e05761010080835404028352916020019161050b565b820191906000526020600020905b8154815290600101906020018083116104ee57829003601f168201915b50505050508152602001600282018054610524906118db565b80601f0160208091040260200160405190810160405280929190818152602001828054610550906118db565b801561059d5780601f106105725761010080835404028352916020019161059d565b820191906000526020600020905b81548152906001019060200180831161058057829003601f168201915b505050505081526020016003820180546105b6906118db565b80601f01602080910402602001604051908101604052809291908181526020018280546105e2906118db565b801561062f5780601f106106045761010080835404028352916020019161062f565b820191906000526020600020905b81548152906001019060200180831161061257829003601f168201915b50505050508152602001600482018054610648906118db565b80601f0160208091040260200160405190810160405280929190818152602001828054610674906118db565b80156106c15780601f10610696576101008083540402835291602001916106c1565b820191906000526020600020905b8154815290600101906020018083116106a457829003601f168201915b505050505081526020016005820180546106da906118db565b80601f0160208091040260200160405190810160405280929190818152602001828054610706906118db565b80156107535780601f1061072857610100808354040283529160200191610753565b820191906000526020600020905b81548152906001019060200180831161073657829003601f168201915b5050505050815260200160068201805461076c906118db565b80601f0160208091040260200160405190810160405280929190818152602001828054610798906118db565b80156107e55780601f106107ba576101008083540402835291602001916107e5565b820191906000526020600020905b8154815290600101906020018083116107c857829003601f168201915b505050505081526020016007820180546107fe906118db565b80601f016020809104026020016040519081016040528092919081815260200182805461082a906118db565b80156108775780601f1061084c57610100808354040283529160200191610877565b820191906000526020600020905b81548152906001019060200180831161085a57829003601f168201915b50505050508152505082828151811061089357610892611a0e565b5b602002602001018190525080806108a990611810565b915050610450565b508091505090565b60006108c488610342565b610a1057604051806101000160405280600054815260200189815260200188815260200187815260200186815260200185815260200184815260200183815250600160008054815260200190815260200160002060008201518160000155602082015181600101908051906020019061093e929190610e29565b50604082015181600201908051906020019061095b929190610e29565b506060820151816003019080519060200190610978929190610e29565b506080820151816004019080519060200190610995929190610e29565b5060a08201518160050190805190602001906109b2929190610e29565b5060c08201518160060190805190602001906109cf929190610e29565b5060e08201518160070190805190602001906109ec929190610e29565b50905050600080815480929190610a0290611810565b919050555060019050610a15565b600090505b979650505050505050565b60008054905090565b6001602052806000526040600020600091509050806000015490806001018054610a52906118db565b80601f0160208091040260200160405190810160405280929190818152602001828054610a7e906118db565b8015610acb5780601f10610aa057610100808354040283529160200191610acb565b820191906000526020600020905b815481529060010190602001808311610aae57829003601f168201915b505050505090806002018054610ae0906118db565b80601f0160208091040260200160405190810160405280929190818152602001828054610b0c906118db565b8015610b595780601f10610b2e57610100808354040283529160200191610b59565b820191906000526020600020905b815481529060010190602001808311610b3c57829003601f168201915b505050505090806003018054610b6e906118db565b80601f0160208091040260200160405190810160405280929190818152602001828054610b9a906118db565b8015610be75780601f10610bbc57610100808354040283529160200191610be7565b820191906000526020600020905b815481529060010190602001808311610bca57829003601f168201915b505050505090806004018054610bfc906118db565b80601f0160208091040260200160405190810160405280929190818152602001828054610c28906118db565b8015610c755780601f10610c4a57610100808354040283529160200191610c75565b820191906000526020600020905b815481529060010190602001808311610c5857829003601f168201915b505050505090806005018054610c8a906118db565b80601f0160208091040260200160405190810160405280929190818152602001828054610cb6906118db565b8015610d035780601f10610cd857610100808354040283529160200191610d03565b820191906000526020600020905b815481529060010190602001808311610ce657829003601f168201915b505050505090806006018054610d18906118db565b80601f0160208091040260200160405190810160405280929190818152602001828054610d44906118db565b8015610d915780601f10610d6657610100808354040283529160200191610d91565b820191906000526020600020905b815481529060010190602001808311610d7457829003601f168201915b505050505090806007018054610da6906118db565b80601f0160208091040260200160405190810160405280929190818152602001828054610dd2906118db565b8015610e1f5780601f10610df457610100808354040283529160200191610e1f565b820191906000526020600020905b815481529060010190602001808311610e0257829003601f168201915b5050505050905088565b828054610e35906118db565b90600052602060002090601f016020900481019282610e575760008555610e9e565b82601f10610e7057805160ff1916838001178555610e9e565b82800160010185558215610e9e579182015b82811115610e9d578251825591602001919060010190610e82565b5b509050610eab9190610ef4565b5090565b60405180610100016040528060008152602001606081526020016060815260200160608152602001606081526020016060815260200160608152602001606081525090565b5b80821115610f0d576000816000905550600101610ef5565b5090565b6000604051905090565b600080fd5b600080fd5b6000819050919050565b610f3881610f25565b8114610f4357600080fd5b50565b600081359050610f5581610f2f565b92915050565b600080fd5b600080fd5b6000601f19601f8301169050919050565b7f4e487b7100000000000000000000000000000000000000000000000000000000600052604160045260246000fd5b610fae82610f65565b810181811067ffffffffffffffff82111715610fcd57610fcc610f76565b5b80604052505050565b6000610fe0610f11565b9050610fec8282610fa5565b919050565b600067ffffffffffffffff82111561100c5761100b610f76565b5b61101582610f65565b9050602081019050919050565b82818337600083830152505050565b600061104461103f84610ff1565b610fd6565b9050828152602081018484840111156110605761105f610f60565b5b61106b848285611022565b509392505050565b600082601f83011261108857611087610f5b565b5b8135611098848260208601611031565b91505092915050565b600080600080600080600080610100898b0312156110c2576110c1610f1b565b5b60006110d08b828c01610f46565b985050602089013567ffffffffffffffff8111156110f1576110f0610f20565b5b6110fd8b828c01611073565b975050604089013567ffffffffffffffff81111561111e5761111d610f20565b5b61112a8b828c01611073565b965050606089013567ffffffffffffffff81111561114b5761114a610f20565b5b6111578b828c01611073565b955050608089013567ffffffffffffffff81111561117857611177610f20565b5b6111848b828c01611073565b94505060a089013567ffffffffffffffff8111156111a5576111a4610f20565b5b6111b18b828c01611073565b93505060c089013567ffffffffffffffff8111156111d2576111d1610f20565b5b6111de8b828c01611073565b92505060e089013567ffffffffffffffff8111156111ff576111fe610f20565b5b61120b8b828c01611073565b9150509295985092959890939650565b60008115159050919050565b6112308161121b565b82525050565b600060208201905061124b6000830184611227565b92915050565b60006020828403121561126757611266610f1b565b5b600082013567ffffffffffffffff81111561128557611284610f20565b5b61129184828501611073565b91505092915050565b600081519050919050565b600082825260208201905092915050565b6000819050602082019050919050565b6112cf81610f25565b82525050565b600081519050919050565b600082825260208201905092915050565b60005b8381101561130f5780820151818401526020810190506112f4565b8381111561131e576000848401525b50505050565b600061132f826112d5565b61133981856112e0565b93506113498185602086016112f1565b61135281610f65565b840191505092915050565b60006101008301600083015161137660008601826112c6565b506020830151848203602086015261138e8282611324565b915050604083015184820360408601526113a88282611324565b915050606083015184820360608601526113c28282611324565b915050608083015184820360808601526113dc8282611324565b91505060a083015184820360a08601526113f68282611324565b91505060c083015184820360c08601526114108282611324565b91505060e083015184820360e086015261142a8282611324565b9150508091505092915050565b6000611443838361135d565b905092915050565b6000602082019050919050565b60006114638261129a565b61146d81856112a5565b93508360208202850161147f856112b6565b8060005b858110156114bb578484038952815161149c8582611437565b94506114a78361144b565b925060208a01995050600181019050611483565b50829750879550505050505092915050565b600060208201905081810360008301526114e78184611458565b905092915050565b600080600080600080600060e0888a03121561150e5761150d610f1b565b5b600088013567ffffffffffffffff81111561152c5761152b610f20565b5b6115388a828b01611073565b975050602088013567ffffffffffffffff81111561155957611558610f20565b5b6115658a828b01611073565b965050604088013567ffffffffffffffff81111561158657611585610f20565b5b6115928a828b01611073565b955050606088013567ffffffffffffffff8111156115b3576115b2610f20565b5b6115bf8a828b01611073565b945050608088013567ffffffffffffffff8111156115e0576115df610f20565b5b6115ec8a828b01611073565b93505060a088013567ffffffffffffffff81111561160d5761160c610f20565b5b6116198a828b01611073565b92505060c088013567ffffffffffffffff81111561163a57611639610f20565b5b6116468a828b01611073565b91505092959891949750929550565b61165e81610f25565b82525050565b60006020820190506116796000830184611655565b92915050565b60006020828403121561169557611694610f1b565b5b60006116a384828501610f46565b91505092915050565b600082825260208201905092915050565b60006116c8826112d5565b6116d281856116ac565b93506116e28185602086016112f1565b6116eb81610f65565b840191505092915050565b60006101008201905061170c600083018b611655565b818103602083015261171e818a6116bd565b9050818103604083015261173281896116bd565b9050818103606083015261174681886116bd565b9050818103608083015261175a81876116bd565b905081810360a083015261176e81866116bd565b905081810360c083015261178281856116bd565b905081810360e083015261179681846116bd565b90509998505050505050505050565b6000819050919050565b6117c06117bb82610f25565b6117a5565b82525050565b60006117d282846117af565b60208201915081905092915050565b7f4e487b7100000000000000000000000000000000000000000000000000000000600052601160045260246000fd5b600061181b82610f25565b91507fffffffffffffffffffffffffffffffffffffffffffffffffffffffffffffffff82141561184e5761184d6117e1565b5b600182019050919050565b600081905092915050565b600061186f826112d5565b6118798185611859565b93506118898185602086016112f1565b80840191505092915050565b60006118a18284611864565b915081905092915050565b7f4e487b7100000000000000000000000000000000000000000000000000000000600052602260045260246000fd5b600060028204905060018216806118f357607f821691505b60208210811415611907576119066118ac565b5b50919050565b60008190508160005260206000209050919050565b6000815461192f816118db565b6119398186611859565b94506001821660008114611954576001811461196557611998565b60ff19831686528186019350611998565b61196e8561190d565b60005b8381101561199057815481890152600182019150602081019050611971565b838801955050505b50505092915050565b60006119ad8284611922565b915081905092915050565b60006119c382610f25565b91506119ce83610f25565b9250827fffffffffffffffffffffffffffffffffffffffffffffffffffffffffffffffff03821115611a0357611a026117e1565b5b828201905092915050565b7f4e487b7100000000000000000000000000000000000000000000000000000000600052603260045260246000fdfea264697066735822122050a10127dfc1887c08428575bdcce7f1b22b9f98f4874aa3f5f90095b5c56a7464736f6c634300080a0033",
  "immutableReferences": {},
  "source": "// SPDX-License-Identifier: MIT\r\npragma solidity >=0.4.22 <0.9.0;\r\n\r\ncontract Hospital {\r\n    \r\n    struct structHospital{\r\n        uint id;\r\n        string name;\r\n        string location;\r\n        string city;\r\n        string state;\r\n        string postalCode;\r\n        string country;\r\n        string phoneNumber;\r\n    }\r\n    uint hospitalCount = 0;\r\n\r\n    mapping(uint => structHospital) public Hospitals;\r\n\r\n\r\n    constructor ()\r\n    {\r\n        CreateHospital(\"name\",\"location\",\"city\",\"state\",\"postalcode\",\"country\",\"phoneNumber\");\r\n        CreateHospital(\"name1\",\"location1\",\"city1\",\"state1\",\"postalcode1\",\"country1\",\"phoneNumber1\");\r\n        CreateHospital(\"name2\",\"location1\",\"city1\",\"state1\",\"postalcode1\",\"country1\",\"phoneNumber1\");\r\n        CreateHospital(\"name3\",\"location1\",\"city1\",\"state1\",\"postalcode1\",\"country1\",\"phoneNumber1\");\r\n\r\n    }\r\n    function getCount() public view returns(uint)\r\n    {\r\n        return hospitalCount;\r\n    }\r\n    function CreateHospital(string memory _name, string memory _location, string memory _city, string memory _state, \r\n                            string memory _postalCode, string memory _country, string memory _phoneNumber)  public  returns (bool)\r\n    {\r\n\r\n        \r\n       if(!checkHospital(_name))\r\n       {\r\n           Hospitals[hospitalCount] = structHospital(hospitalCount, _name, _location, _city, _state,_postalCode, _country, _phoneNumber);\r\n           hospitalCount ++;\r\n\r\n           return true;\r\n       }\r\n        else {\r\n            return false; // Hospital with the same name already exist\r\n        }\r\n    }\r\n    function updateHospital(uint _id, string memory _name, string memory _location, string memory _city, string memory _state, \r\n                            string memory _postalCode, string memory _country, string memory _phoneNumber)  public  returns (bool)\r\n    {\r\n         for(uint i = 0; i < hospitalCount; i++){\r\n\r\n            if(keccak256(abi.encodePacked(Hospitals[i].id)) == keccak256(abi.encodePacked(_id)) )\r\n            {\r\n                Hospitals[i].name = _name;\r\n                Hospitals[i].location = _location;\r\n                Hospitals[i].city = _city;\r\n                Hospitals[i].state = _state;\r\n                Hospitals[i].postalCode = _postalCode;\r\n                Hospitals[i].country = _country;\r\n                Hospitals[i].phoneNumber = _phoneNumber;\r\n                return true; // record updated successfully\r\n            }\r\n        }\r\n        return false; // invalid hospital name\r\n    }\r\n    function checkHospital(string memory _name) public view  returns (bool)\r\n    {\r\n        for(uint i = 0; i < hospitalCount; i++){\r\n\r\n            if(keccak256(abi.encodePacked(Hospitals[i].name)) == keccak256(abi.encodePacked(_name)) )\r\n            {\r\n                return true;\r\n            }\r\n        }\r\n        return false;\r\n    }\r\n    function getAll() public view returns (structHospital[] memory)\r\n    {\r\n        structHospital[] memory hospitalList = new structHospital[](hospitalCount+1);\r\n        for (uint i = 0; i <= hospitalCount; i++) \r\n        {\r\n            hospitalList[i] = Hospitals[i];\r\n        }\r\n        return hospitalList;\r\n    }\r\n    \r\n}\r\n",
  "sourcePath": "G:\\Projects\\Blockchain\\decentralized-patient-centered-health-records-and-exchange\\contracts\\Hospital.sol",
  "compiler": {
    "name": "solc",
    "version": "0.8.10+commit.fc410830.Emscripten.clang"
  },
  "schemaVersion": "3.4.3",
  "updatedAt": "2022-01-21T16:41:40.079Z",
  "networkType": "ethereum",
  "devdoc": {
    "kind": "dev",
    "methods": {},
    "version": 1
  },
  "userdoc": {
    "kind": "user",
    "methods": {},
    "version": 1
  }
}