{
  "contractName": "Hospital",
  "abi": [
    {
      "inputs": [],
      "stateMutability": "nonpayable",
      "type": "constructor"
    },
    {
      "inputs": [
        {
          "internalType": "uint256",
          "name": "",
          "type": "uint256"
        }
      ],
      "name": "Hospitals",
      "outputs": [
        {
          "internalType": "uint256",
          "name": "id",
          "type": "uint256"
        },
        {
          "internalType": "string",
          "name": "name",
          "type": "string"
        },
        {
          "internalType": "string",
          "name": "email",
          "type": "string"
        },
        {
          "internalType": "string",
          "name": "city",
          "type": "string"
        },
        {
          "internalType": "string",
          "name": "state",
          "type": "string"
        },
        {
          "internalType": "string",
          "name": "postalAddress",
          "type": "string"
        },
        {
          "internalType": "string",
          "name": "country",
          "type": "string"
        },
        {
          "internalType": "string",
          "name": "phoneNumber",
          "type": "string"
        },
        {
          "internalType": "string",
          "name": "accountAddress",
          "type": "string"
        }
      ],
      "stateMutability": "view",
      "type": "function",
      "constant": true
    },
    {
      "inputs": [],
      "name": "getCount",
      "outputs": [
        {
          "internalType": "uint256",
          "name": "",
          "type": "uint256"
        }
      ],
      "stateMutability": "view",
      "type": "function",
      "constant": true
    },
    {
      "inputs": [
        {
          "internalType": "string",
          "name": "_name",
          "type": "string"
        },
        {
          "internalType": "string",
          "name": "_email",
          "type": "string"
        },
        {
          "internalType": "string",
          "name": "_city",
          "type": "string"
        },
        {
          "internalType": "string",
          "name": "_state",
          "type": "string"
        },
        {
          "internalType": "string",
          "name": "_postalAddress",
          "type": "string"
        },
        {
          "internalType": "string",
          "name": "_country",
          "type": "string"
        },
        {
          "internalType": "string",
          "name": "_phoneNumber",
          "type": "string"
        },
        {
          "internalType": "string",
          "name": "_accountAddress",
          "type": "string"
        }
      ],
      "name": "CreateHospital",
      "outputs": [
        {
          "internalType": "bool",
          "name": "",
          "type": "bool"
        }
      ],
      "stateMutability": "nonpayable",
      "type": "function"
    },
    {
      "inputs": [
        {
          "internalType": "string",
          "name": "_id",
          "type": "string"
        },
        {
          "internalType": "string",
          "name": "_name",
          "type": "string"
        },
        {
          "internalType": "string",
          "name": "_location",
          "type": "string"
        },
        {
          "internalType": "string",
          "name": "_city",
          "type": "string"
        },
        {
          "internalType": "string",
          "name": "_state",
          "type": "string"
        },
        {
          "internalType": "string",
          "name": "_postalCode",
          "type": "string"
        },
        {
          "internalType": "string",
          "name": "_country",
          "type": "string"
        },
        {
          "internalType": "string",
          "name": "_phoneNumber",
          "type": "string"
        }
      ],
      "name": "updateHospital",
      "outputs": [
        {
          "internalType": "bool",
          "name": "",
          "type": "bool"
        }
      ],
      "stateMutability": "nonpayable",
      "type": "function"
    },
    {
      "inputs": [
        {
          "internalType": "string",
          "name": "_address",
          "type": "string"
        }
      ],
      "name": "checkHospital",
      "outputs": [
        {
          "internalType": "bool",
          "name": "",
          "type": "bool"
        }
      ],
      "stateMutability": "view",
      "type": "function",
      "constant": true
    },
    {
      "inputs": [],
      "name": "getAll",
      "outputs": [
        {
          "components": [
            {
              "internalType": "uint256",
              "name": "id",
              "type": "uint256"
            },
            {
              "internalType": "string",
              "name": "name",
              "type": "string"
            },
            {
              "internalType": "string",
              "name": "email",
              "type": "string"
            },
            {
              "internalType": "string",
              "name": "city",
              "type": "string"
            },
            {
              "internalType": "string",
              "name": "state",
              "type": "string"
            },
            {
              "internalType": "string",
              "name": "postalAddress",
              "type": "string"
            },
            {
              "internalType": "string",
              "name": "country",
              "type": "string"
            },
            {
              "internalType": "string",
              "name": "phoneNumber",
              "type": "string"
            },
            {
              "internalType": "string",
              "name": "accountAddress",
              "type": "string"
            }
          ],
          "internalType": "struct Hospital.structHospital[]",
          "name": "",
          "type": "tuple[]"
        }
      ],
      "stateMutability": "view",
      "type": "function",
      "constant": true
    },
    {
      "inputs": [
        {
          "internalType": "string",
          "name": "_address",
          "type": "string"
        }
      ],
      "name": "getHospital",
      "outputs": [
        {
          "internalType": "string",
          "name": "",
          "type": "string"
        },
        {
          "internalType": "string",
          "name": "",
          "type": "string"
        },
        {
          "internalType": "string",
          "name": "",
          "type": "string"
        },
        {
          "internalType": "string",
          "name": "",
          "type": "string"
        },
        {
          "internalType": "string",
          "name": "",
          "type": "string"
        },
        {
          "internalType": "string",
          "name": "",
          "type": "string"
        },
        {
          "internalType": "string",
          "name": "",
          "type": "string"
        }
      ],
      "stateMutability": "view",
      "type": "function",
      "constant": true
    }
  ],
  "bytecode": "0x60806040526000805534801561001457600080fd5b50612132806100246000396000f3fe608060405234801561001057600080fd5b506004361061007d5760003560e01c80639166df581161005b5780639166df5814610100578063a87d942c14610136578063b758944114610154578063df6346ca1461018c5761007d565b80630108721e146100825780634020f135146100b257806353ed5143146100e2575b600080fd5b61009c60048036038101906100979190611772565b6101bc565b6040516100a99190611923565b60405180910390f35b6100cc60048036038101906100c7919061193e565b61032d565b6040516100d99190611923565b60405180910390f35b6100ea6103d0565b6040516100f79190611be0565b60405180910390f35b61011a6004803603810190610115919061193e565b610936565b60405161012d9796959493929190611c4c565b60405180910390f35b61013e610f06565b60405161014b9190611cfb565b60405180910390f35b61016e60048036038101906101699190611d42565b610f0f565b60405161018399989796959493929190611d6f565b60405180910390f35b6101a660048036038101906101a19190611772565b61139d565b6040516101b39190611923565b60405180910390f35b600080600090505b60005481101561031b57896040516020016101df9190611e70565b604051602081830303815290604052805190602001206001600083815260200190815260200160002060080160405160200161021b9190611f7c565b60405160208183030381529060405280519060200120141561030857600060016000838152602001908152602001600020905089816001019080519060200190610266929190611529565b508881600201908051906020019061027f929190611529565b5087816003019080519060200190610298929190611529565b50868160040190805190602001906102b1929190611529565b50858160050190805190602001906102ca929190611529565b50848160060190805190602001906102e3929190611529565b50838160070190805190602001906102fc929190611529565b50600192505050610321565b808061031390611fc2565b9150506101c4565b50600090505b98975050505050505050565b600080600090505b6000548110156103c557826040516020016103509190611e70565b604051602081830303815290604052805190602001206001600083815260200190815260200160002060080160405160200161038c9190611f7c565b6040516020818303038152906040528051906020012014156103b25760019150506103cb565b80806103bd90611fc2565b915050610335565b50600090505b919050565b6060600060016000546103e3919061200b565b67ffffffffffffffff8111156103fc576103fb611647565b5b60405190808252806020026020018201604052801561043557816020015b6104226115af565b81526020019060019003908161041a5790505b50905060005b600054811161092e5760016000828152602001908152602001600020604051806101200160405290816000820154815260200160018201805461047d90611eb6565b80601f01602080910402602001604051908101604052809291908181526020018280546104a990611eb6565b80156104f65780601f106104cb576101008083540402835291602001916104f6565b820191906000526020600020905b8154815290600101906020018083116104d957829003601f168201915b5050505050815260200160028201805461050f90611eb6565b80601f016020809104026020016040519081016040528092919081815260200182805461053b90611eb6565b80156105885780601f1061055d57610100808354040283529160200191610588565b820191906000526020600020905b81548152906001019060200180831161056b57829003601f168201915b505050505081526020016003820180546105a190611eb6565b80601f01602080910402602001604051908101604052809291908181526020018280546105cd90611eb6565b801561061a5780601f106105ef5761010080835404028352916020019161061a565b820191906000526020600020905b8154815290600101906020018083116105fd57829003601f168201915b5050505050815260200160048201805461063390611eb6565b80601f016020809104026020016040519081016040528092919081815260200182805461065f90611eb6565b80156106ac5780601f10610681576101008083540402835291602001916106ac565b820191906000526020600020905b81548152906001019060200180831161068f57829003601f168201915b505050505081526020016005820180546106c590611eb6565b80601f01602080910402602001604051908101604052809291908181526020018280546106f190611eb6565b801561073e5780601f106107135761010080835404028352916020019161073e565b820191906000526020600020905b81548152906001019060200180831161072157829003601f168201915b5050505050815260200160068201805461075790611eb6565b80601f016020809104026020016040519081016040528092919081815260200182805461078390611eb6565b80156107d05780601f106107a5576101008083540402835291602001916107d0565b820191906000526020600020905b8154815290600101906020018083116107b357829003601f168201915b505050505081526020016007820180546107e990611eb6565b80601f016020809104026020016040519081016040528092919081815260200182805461081590611eb6565b80156108625780601f1061083757610100808354040283529160200191610862565b820191906000526020600020905b81548152906001019060200180831161084557829003601f168201915b5050505050815260200160088201805461087b90611eb6565b80601f01602080910402602001604051908101604052809291908181526020018280546108a790611eb6565b80156108f45780601f106108c9576101008083540402835291602001916108f4565b820191906000526020600020905b8154815290600101906020018083116108d757829003601f168201915b5050505050815250508282815181106109105761090f612061565b5b6020026020010181905250808061092690611fc2565b91505061043b565b508091505090565b606080606080606080606060005b600054811015610ebf578860405160200161095f9190611e70565b604051602081830303815290604052805190602001206001600083815260200190815260200160002060080160405160200161099b9190611f7c565b604051602081830303815290604052805190602001201415610eac5760006001600083815260200190815260200160002060405180610120016040529081600082015481526020016001820180546109f290611eb6565b80601f0160208091040260200160405190810160405280929190818152602001828054610a1e90611eb6565b8015610a6b5780601f10610a4057610100808354040283529160200191610a6b565b820191906000526020600020905b815481529060010190602001808311610a4e57829003601f168201915b50505050508152602001600282018054610a8490611eb6565b80601f0160208091040260200160405190810160405280929190818152602001828054610ab090611eb6565b8015610afd5780601f10610ad257610100808354040283529160200191610afd565b820191906000526020600020905b815481529060010190602001808311610ae057829003601f168201915b50505050508152602001600382018054610b1690611eb6565b80601f0160208091040260200160405190810160405280929190818152602001828054610b4290611eb6565b8015610b8f5780601f10610b6457610100808354040283529160200191610b8f565b820191906000526020600020905b815481529060010190602001808311610b7257829003601f168201915b50505050508152602001600482018054610ba890611eb6565b80601f0160208091040260200160405190810160405280929190818152602001828054610bd490611eb6565b8015610c215780601f10610bf657610100808354040283529160200191610c21565b820191906000526020600020905b815481529060010190602001808311610c0457829003601f168201915b50505050508152602001600582018054610c3a90611eb6565b80601f0160208091040260200160405190810160405280929190818152602001828054610c6690611eb6565b8015610cb35780601f10610c8857610100808354040283529160200191610cb3565b820191906000526020600020905b815481529060010190602001808311610c9657829003601f168201915b50505050508152602001600682018054610ccc90611eb6565b80601f0160208091040260200160405190810160405280929190818152602001828054610cf890611eb6565b8015610d455780601f10610d1a57610100808354040283529160200191610d45565b820191906000526020600020905b815481529060010190602001808311610d2857829003601f168201915b50505050508152602001600782018054610d5e90611eb6565b80601f0160208091040260200160405190810160405280929190818152602001828054610d8a90611eb6565b8015610dd75780601f10610dac57610100808354040283529160200191610dd7565b820191906000526020600020905b815481529060010190602001808311610dba57829003601f168201915b50505050508152602001600882018054610df090611eb6565b80601f0160208091040260200160405190810160405280929190818152602001828054610e1c90611eb6565b8015610e695780601f10610e3e57610100808354040283529160200191610e69565b820191906000526020600020905b815481529060010190602001808311610e4c57829003601f168201915b505050505081525050905080602001518160400151826060015183608001518460a001518560c001518660e0015198509850985098509850985098505050610efb565b8080610eb790611fc2565b915050610944565b506040517f08c379a0000000000000000000000000000000000000000000000000000000008152600401610ef2906120dc565b60405180910390fd5b919395979092949650565b60008054905090565b6001602052806000526040600020600091509050806000015490806001018054610f3890611eb6565b80601f0160208091040260200160405190810160405280929190818152602001828054610f6490611eb6565b8015610fb15780601f10610f8657610100808354040283529160200191610fb1565b820191906000526020600020905b815481529060010190602001808311610f9457829003601f168201915b505050505090806002018054610fc690611eb6565b80601f0160208091040260200160405190810160405280929190818152602001828054610ff290611eb6565b801561103f5780601f106110145761010080835404028352916020019161103f565b820191906000526020600020905b81548152906001019060200180831161102257829003601f168201915b50505050509080600301805461105490611eb6565b80601f016020809104026020016040519081016040528092919081815260200182805461108090611eb6565b80156110cd5780601f106110a2576101008083540402835291602001916110cd565b820191906000526020600020905b8154815290600101906020018083116110b057829003601f168201915b5050505050908060040180546110e290611eb6565b80601f016020809104026020016040519081016040528092919081815260200182805461110e90611eb6565b801561115b5780601f106111305761010080835404028352916020019161115b565b820191906000526020600020905b81548152906001019060200180831161113e57829003601f168201915b50505050509080600501805461117090611eb6565b80601f016020809104026020016040519081016040528092919081815260200182805461119c90611eb6565b80156111e95780601f106111be576101008083540402835291602001916111e9565b820191906000526020600020905b8154815290600101906020018083116111cc57829003601f168201915b5050505050908060060180546111fe90611eb6565b80601f016020809104026020016040519081016040528092919081815260200182805461122a90611eb6565b80156112775780601f1061124c57610100808354040283529160200191611277565b820191906000526020600020905b81548152906001019060200180831161125a57829003601f168201915b50505050509080600701805461128c90611eb6565b80601f01602080910402602001604051908101604052809291908181526020018280546112b890611eb6565b80156113055780601f106112da57610100808354040283529160200191611305565b820191906000526020600020905b8154815290600101906020018083116112e857829003601f168201915b50505050509080600801805461131a90611eb6565b80601f016020809104026020016040519081016040528092919081815260200182805461134690611eb6565b80156113935780601f1061136857610100808354040283529160200191611393565b820191906000526020600020905b81548152906001019060200180831161137657829003601f168201915b5050505050905089565b60006113a88261032d565b6115185760405180610120016040528060005481526020018a8152602001898152602001888152602001878152602001868152602001858152602001848152602001838152506001600080548152602001908152602001600020600082015181600001556020820151816001019080519060200190611428929190611529565b506040820151816002019080519060200190611445929190611529565b506060820151816003019080519060200190611462929190611529565b50608082015181600401908051906020019061147f929190611529565b5060a082015181600501908051906020019061149c929190611529565b5060c08201518160060190805190602001906114b9929190611529565b5060e08201518160070190805190602001906114d6929190611529565b506101008201518160080190805190602001906114f4929190611529565b5090505060008081548092919061150a90611fc2565b91905055506001905061151d565b600090505b98975050505050505050565b82805461153590611eb6565b90600052602060002090601f016020900481019282611557576000855561159e565b82601f1061157057805160ff191683800117855561159e565b8280016001018555821561159e579182015b8281111561159d578251825591602001919060010190611582565b5b5090506115ab91906115fb565b5090565b6040518061012001604052806000815260200160608152602001606081526020016060815260200160608152602001606081526020016060815260200160608152602001606081525090565b5b808211156116145760008160009055506001016115fc565b5090565b6000604051905090565b600080fd5b600080fd5b600080fd5b600080fd5b6000601f19601f8301169050919050565b7f4e487b7100000000000000000000000000000000000000000000000000000000600052604160045260246000fd5b61167f82611636565b810181811067ffffffffffffffff8211171561169e5761169d611647565b5b80604052505050565b60006116b1611618565b90506116bd8282611676565b919050565b600067ffffffffffffffff8211156116dd576116dc611647565b5b6116e682611636565b9050602081019050919050565b82818337600083830152505050565b6000611715611710846116c2565b6116a7565b90508281526020810184848401111561173157611730611631565b5b61173c8482856116f3565b509392505050565b600082601f8301126117595761175861162c565b5b8135611769848260208601611702565b91505092915050565b600080600080600080600080610100898b03121561179357611792611622565b5b600089013567ffffffffffffffff8111156117b1576117b0611627565b5b6117bd8b828c01611744565b985050602089013567ffffffffffffffff8111156117de576117dd611627565b5b6117ea8b828c01611744565b975050604089013567ffffffffffffffff81111561180b5761180a611627565b5b6118178b828c01611744565b965050606089013567ffffffffffffffff81111561183857611837611627565b5b6118448b828c01611744565b955050608089013567ffffffffffffffff81111561186557611864611627565b5b6118718b828c01611744565b94505060a089013567ffffffffffffffff81111561189257611891611627565b5b61189e8b828c01611744565b93505060c089013567ffffffffffffffff8111156118bf576118be611627565b5b6118cb8b828c01611744565b92505060e089013567ffffffffffffffff8111156118ec576118eb611627565b5b6118f88b828c01611744565b9150509295985092959890939650565b60008115159050919050565b61191d81611908565b82525050565b60006020820190506119386000830184611914565b92915050565b60006020828403121561195457611953611622565b5b600082013567ffffffffffffffff81111561197257611971611627565b5b61197e84828501611744565b91505092915050565b600081519050919050565b600082825260208201905092915050565b6000819050602082019050919050565b6000819050919050565b6119c6816119b3565b82525050565b600081519050919050565b600082825260208201905092915050565b60005b83811015611a065780820151818401526020810190506119eb565b83811115611a15576000848401525b50505050565b6000611a26826119cc565b611a3081856119d7565b9350611a408185602086016119e8565b611a4981611636565b840191505092915050565b600061012083016000830151611a6d60008601826119bd565b5060208301518482036020860152611a858282611a1b565b91505060408301518482036040860152611a9f8282611a1b565b91505060608301518482036060860152611ab98282611a1b565b91505060808301518482036080860152611ad38282611a1b565b91505060a083015184820360a0860152611aed8282611a1b565b91505060c083015184820360c0860152611b078282611a1b565b91505060e083015184820360e0860152611b218282611a1b565b915050610100830151848203610100860152611b3d8282611a1b565b9150508091505092915050565b6000611b568383611a54565b905092915050565b6000602082019050919050565b6000611b7682611987565b611b808185611992565b935083602082028501611b92856119a3565b8060005b85811015611bce5784840389528151611baf8582611b4a565b9450611bba83611b5e565b925060208a01995050600181019050611b96565b50829750879550505050505092915050565b60006020820190508181036000830152611bfa8184611b6b565b905092915050565b600082825260208201905092915050565b6000611c1e826119cc565b611c288185611c02565b9350611c388185602086016119e8565b611c4181611636565b840191505092915050565b600060e0820190508181036000830152611c66818a611c13565b90508181036020830152611c7a8189611c13565b90508181036040830152611c8e8188611c13565b90508181036060830152611ca28187611c13565b90508181036080830152611cb68186611c13565b905081810360a0830152611cca8185611c13565b905081810360c0830152611cde8184611c13565b905098975050505050505050565b611cf5816119b3565b82525050565b6000602082019050611d106000830184611cec565b92915050565b611d1f816119b3565b8114611d2a57600080fd5b50565b600081359050611d3c81611d16565b92915050565b600060208284031215611d5857611d57611622565b5b6000611d6684828501611d2d565b91505092915050565b600061012082019050611d85600083018c611cec565b8181036020830152611d97818b611c13565b90508181036040830152611dab818a611c13565b90508181036060830152611dbf8189611c13565b90508181036080830152611dd38188611c13565b905081810360a0830152611de78187611c13565b905081810360c0830152611dfb8186611c13565b905081810360e0830152611e0f8185611c13565b9050818103610100830152611e248184611c13565b90509a9950505050505050505050565b600081905092915050565b6000611e4a826119cc565b611e548185611e34565b9350611e648185602086016119e8565b80840191505092915050565b6000611e7c8284611e3f565b915081905092915050565b7f4e487b7100000000000000000000000000000000000000000000000000000000600052602260045260246000fd5b60006002820490506001821680611ece57607f821691505b60208210811415611ee257611ee1611e87565b5b50919050565b60008190508160005260206000209050919050565b60008154611f0a81611eb6565b611f148186611e34565b94506001821660008114611f2f5760018114611f4057611f73565b60ff19831686528186019350611f73565b611f4985611ee8565b60005b83811015611f6b57815481890152600182019150602081019050611f4c565b838801955050505b50505092915050565b6000611f888284611efd565b915081905092915050565b7f4e487b7100000000000000000000000000000000000000000000000000000000600052601160045260246000fd5b6000611fcd826119b3565b91507fffffffffffffffffffffffffffffffffffffffffffffffffffffffffffffffff82141561200057611fff611f93565b5b600182019050919050565b6000612016826119b3565b9150612021836119b3565b9250827fffffffffffffffffffffffffffffffffffffffffffffffffffffffffffffffff0382111561205657612055611f93565b5b828201905092915050565b7f4e487b7100000000000000000000000000000000000000000000000000000000600052603260045260246000fd5b7f4e6f7420666f756e640000000000000000000000000000000000000000000000600082015250565b60006120c6600983611c02565b91506120d182612090565b602082019050919050565b600060208201905081810360008301526120f5816120b9565b905091905056fea26469706673582212206206d57a66287a1ad561c6c9f4a38703046e0957d867f004839bbc3738546ff064736f6c634300080a0033",
  "immutableReferences": {},
  "source": "// SPDX-License-Identifier: MIT\r\npragma solidity >=0.4.22 <0.9.0;\r\n\r\ncontract Hospital {\r\n    \r\n    struct structHospital{\r\n        uint id;\r\n        string name;\r\n        string email;\r\n        string city;\r\n        string state;\r\n        string postalAddress;\r\n        string country;\r\n        string phoneNumber;\r\n        string accountAddress;\r\n    }\r\n    uint hospitalCount = 0;\r\n\r\n    mapping(uint => structHospital) public Hospitals;\r\n\r\n\r\n    constructor ()\r\n    {\r\n\r\n    }\r\n    function getCount() public view returns(uint)\r\n    {\r\n        return hospitalCount;\r\n    }\r\n    function CreateHospital(string memory _name, string memory _email, string memory _city, string memory _state, \r\n                            string memory _postalAddress, string memory _country, string memory _phoneNumber, string memory _accountAddress)  public  returns (bool)\r\n    {\r\n\r\n        \r\n       if(!checkHospital(_accountAddress))\r\n       {\r\n           Hospitals[hospitalCount] = structHospital(hospitalCount, _name, _email, _city, _state,_postalAddress, _country, _phoneNumber, _accountAddress);\r\n           hospitalCount ++;\r\n\r\n           return true;\r\n       }\r\n        else {\r\n            return false; // Hospital with the same name already exist\r\n        }\r\n    }\r\n    function updateHospital(string memory _id, string memory _name, string memory _location, string memory _city, string memory _state, \r\n                            string memory _postalCode, string memory _country, string memory _phoneNumber)  public  returns (bool)\r\n    {\r\n         for(uint i = 0; i < hospitalCount; i++){\r\n\r\n            if(keccak256(abi.encodePacked(Hospitals[i].accountAddress)) == keccak256(abi.encodePacked(_id)) )\r\n            {\r\n                structHospital storage hospital = Hospitals[i];\r\n                hospital.name = _name;\r\n                hospital.email = _location;\r\n                hospital.city = _city;\r\n                hospital.state = _state;\r\n                hospital.postalAddress = _postalCode;\r\n                hospital.country = _country;\r\n                hospital.phoneNumber = _phoneNumber;\r\n                \r\n                return true; // record updated successfully\r\n            }\r\n        }\r\n        return false; // invalid hospital name\r\n    }\r\n    function checkHospital(string memory _address) public view  returns (bool)\r\n    {\r\n        for(uint i = 0; i < hospitalCount; i++){\r\n\r\n            if(keccak256(abi.encodePacked(Hospitals[i].accountAddress)) == keccak256(abi.encodePacked(_address)) )\r\n            {\r\n                return true;\r\n            }\r\n        }\r\n        return false;\r\n    }\r\n    function getAll() public view returns (structHospital[] memory)\r\n    {\r\n        structHospital[] memory hospitalList = new structHospital[](hospitalCount+1);\r\n        for (uint i = 0; i <= hospitalCount; i++) \r\n        {\r\n            hospitalList[i] = Hospitals[i];\r\n        }\r\n        return hospitalList;\r\n    }\r\n    function getHospital(string memory _address) public view returns (string memory,\r\n        string memory,\r\n        string memory,\r\n        string memory,\r\n        string memory,\r\n        string memory,\r\n        string memory)\r\n    {\r\n        for (uint i = 0; i < hospitalCount; i++) \r\n        {\r\n            if(keccak256(abi.encodePacked(Hospitals[i].accountAddress)) == keccak256(abi.encodePacked(_address)) )\r\n            {\r\n                structHospital memory hospital = Hospitals[i];\r\n                return (hospital.name, hospital.email, hospital.city, hospital.state, hospital.postalAddress, hospital.country, hospital.phoneNumber);\r\n            }\r\n        }\r\n        revert(\"Not found\");\r\n    }\r\n    \r\n}\r\n",
  "sourcePath": "D:\\Documents\\Custom Office Templates\\Final Year Project\\decentralized-patient-centered-health-records-and-exchange\\decentralized-patient-centered-health-records-and-exchange\\contracts\\Hospital.sol",
  "compiler": {
    "name": "solc",
    "version": "0.8.10+commit.fc410830.Emscripten.clang"
  },
  "schemaVersion": "3.4.3",
  "updatedAt": "2022-01-29T16:53:25.036Z",
  "networkType": "ethereum",
  "devdoc": {
    "kind": "dev",
    "methods": {},
    "version": 1
  },
  "userdoc": {
    "kind": "user",
    "methods": {},
    "version": 1
  }
}