{
  "contractName": "Hospital",
  "abi": [
    {
      "inputs": [],
      "stateMutability": "nonpayable",
      "type": "constructor"
    },
    {
      "inputs": [
        {
          "internalType": "uint256",
          "name": "",
          "type": "uint256"
        }
      ],
      "name": "Hospitals",
      "outputs": [
        {
          "internalType": "uint256",
          "name": "id",
          "type": "uint256"
        },
        {
          "internalType": "string",
          "name": "name",
          "type": "string"
        },
        {
          "internalType": "string",
          "name": "location",
          "type": "string"
        },
        {
          "internalType": "string",
          "name": "city",
          "type": "string"
        },
        {
          "internalType": "string",
          "name": "state",
          "type": "string"
        },
        {
          "internalType": "string",
          "name": "postalCode",
          "type": "string"
        },
        {
          "internalType": "string",
          "name": "country",
          "type": "string"
        },
        {
          "internalType": "string",
          "name": "phoneNumber",
          "type": "string"
        }
      ],
      "stateMutability": "view",
      "type": "function",
      "constant": true
    }
  ],
  "bytecode": "0x608060405234801561001057600080fd5b506106bd806100206000396000f3fe608060405234801561001057600080fd5b506004361061002b5760003560e01c8063b758944114610030575b600080fd5b61004a600480360381019061004591906104a2565b610067565b60405161005e989796959493929190610577565b60405180910390f35b600060205280600052604060002060009150905080600001549080600101805461009090610655565b80601f01602080910402602001604051908101604052809291908181526020018280546100bc90610655565b80156101095780601f106100de57610100808354040283529160200191610109565b820191906000526020600020905b8154815290600101906020018083116100ec57829003601f168201915b50505050509080600201805461011e90610655565b80601f016020809104026020016040519081016040528092919081815260200182805461014a90610655565b80156101975780601f1061016c57610100808354040283529160200191610197565b820191906000526020600020905b81548152906001019060200180831161017a57829003601f168201915b5050505050908060030180546101ac90610655565b80601f01602080910402602001604051908101604052809291908181526020018280546101d890610655565b80156102255780601f106101fa57610100808354040283529160200191610225565b820191906000526020600020905b81548152906001019060200180831161020857829003601f168201915b50505050509080600401805461023a90610655565b80601f016020809104026020016040519081016040528092919081815260200182805461026690610655565b80156102b35780601f10610288576101008083540402835291602001916102b3565b820191906000526020600020905b81548152906001019060200180831161029657829003601f168201915b5050505050908060050180546102c890610655565b80601f01602080910402602001604051908101604052809291908181526020018280546102f490610655565b80156103415780601f1061031657610100808354040283529160200191610341565b820191906000526020600020905b81548152906001019060200180831161032457829003601f168201915b50505050509080600601805461035690610655565b80601f016020809104026020016040519081016040528092919081815260200182805461038290610655565b80156103cf5780601f106103a4576101008083540402835291602001916103cf565b820191906000526020600020905b8154815290600101906020018083116103b257829003601f168201915b5050505050908060070180546103e490610655565b80601f016020809104026020016040519081016040528092919081815260200182805461041090610655565b801561045d5780601f106104325761010080835404028352916020019161045d565b820191906000526020600020905b81548152906001019060200180831161044057829003601f168201915b5050505050905088565b600080fd5b6000819050919050565b61047f8161046c565b811461048a57600080fd5b50565b60008135905061049c81610476565b92915050565b6000602082840312156104b8576104b7610467565b5b60006104c68482850161048d565b91505092915050565b6104d88161046c565b82525050565b600081519050919050565b600082825260208201905092915050565b60005b838110156105185780820151818401526020810190506104fd565b83811115610527576000848401525b50505050565b6000601f19601f8301169050919050565b6000610549826104de565b61055381856104e9565b93506105638185602086016104fa565b61056c8161052d565b840191505092915050565b60006101008201905061058d600083018b6104cf565b818103602083015261059f818a61053e565b905081810360408301526105b3818961053e565b905081810360608301526105c7818861053e565b905081810360808301526105db818761053e565b905081810360a08301526105ef818661053e565b905081810360c0830152610603818561053e565b905081810360e0830152610617818461053e565b90509998505050505050505050565b7f4e487b7100000000000000000000000000000000000000000000000000000000600052602260045260246000fd5b6000600282049050600182168061066d57607f821691505b6020821081141561068157610680610626565b5b5091905056fea26469706673582212206c6e1f50929e4d1b4031ae9b520404226b268403c588a92ac156839bf7e58f4464736f6c634300080a0033",
  "immutableReferences": {},
  "source": "// SPDX-License-Identifier: MIT\r\npragma solidity >=0.4.22 <0.9.0;\r\n\r\ncontract Hospital {\r\n    \r\n    struct structHospital{\r\n        uint id;\r\n        string name;\r\n        string location;\r\n        string city;\r\n        string state;\r\n        string postalCode;\r\n        string country;\r\n        string phoneNumber;\r\n    }\r\n\r\n    mapping(uint => structHospital) public Hospitals;\r\n\r\n\r\n    constructor () {\r\n    }\r\n}\r\n",
  "sourcePath": "D:\\Documents\\Custom Office Templates\\Final Year Project\\decentralized-patient-centered-health-records-and-exchange\\decentralized-patient-centered-health-records-and-exchange\\contracts\\Hospital.sol",
  "compiler": {
    "name": "solc",
    "version": "0.8.10+commit.fc410830.Emscripten.clang"
  },
  "schemaVersion": "3.4.3",
  "updatedAt": "2022-01-01T13:18:35.134Z",
  "networkType": "ethereum",
  "devdoc": {
    "kind": "dev",
    "methods": {},
    "version": 1
  },
  "userdoc": {
    "kind": "user",
    "methods": {},
    "version": 1
  }
}