{
  "contractName": "Hospital",
  "abi": [
    {
      "inputs": [],
      "stateMutability": "nonpayable",
      "type": "constructor"
    },
    {
      "inputs": [
        {
          "internalType": "uint256",
          "name": "",
          "type": "uint256"
        }
      ],
      "name": "Hospitals",
      "outputs": [
        {
          "internalType": "uint256",
          "name": "id",
          "type": "uint256"
        },
        {
          "internalType": "string",
          "name": "name",
          "type": "string"
        },
        {
          "internalType": "string",
          "name": "email",
          "type": "string"
        },
        {
          "internalType": "string",
          "name": "city",
          "type": "string"
        },
        {
          "internalType": "string",
          "name": "state",
          "type": "string"
        },
        {
          "internalType": "string",
          "name": "postalAddress",
          "type": "string"
        },
        {
          "internalType": "string",
          "name": "country",
          "type": "string"
        },
        {
          "internalType": "string",
          "name": "phoneNumber",
          "type": "string"
        },
        {
          "internalType": "string",
          "name": "accountAddress",
          "type": "string"
        }
      ],
      "stateMutability": "view",
      "type": "function",
      "constant": true
    },
    {
      "inputs": [],
      "name": "getCount",
      "outputs": [
        {
          "internalType": "uint256",
          "name": "",
          "type": "uint256"
        }
      ],
      "stateMutability": "view",
      "type": "function",
      "constant": true
    },
    {
      "inputs": [
        {
          "internalType": "string",
          "name": "_name",
          "type": "string"
        },
        {
          "internalType": "string",
          "name": "_email",
          "type": "string"
        },
        {
          "internalType": "string",
          "name": "_city",
          "type": "string"
        },
        {
          "internalType": "string",
          "name": "_state",
          "type": "string"
        },
        {
          "internalType": "string",
          "name": "_postalAddress",
          "type": "string"
        },
        {
          "internalType": "string",
          "name": "_country",
          "type": "string"
        },
        {
          "internalType": "string",
          "name": "_phoneNumber",
          "type": "string"
        },
        {
          "internalType": "string",
          "name": "_accountAddress",
          "type": "string"
        }
      ],
      "name": "CreateHospital",
      "outputs": [
        {
          "internalType": "bool",
          "name": "",
          "type": "bool"
        }
      ],
      "stateMutability": "nonpayable",
      "type": "function"
    },
    {
      "inputs": [
        {
          "internalType": "uint256",
          "name": "_id",
          "type": "uint256"
        },
        {
          "internalType": "string",
          "name": "_name",
          "type": "string"
        },
        {
          "internalType": "string",
          "name": "_location",
          "type": "string"
        },
        {
          "internalType": "string",
          "name": "_city",
          "type": "string"
        },
        {
          "internalType": "string",
          "name": "_state",
          "type": "string"
        },
        {
          "internalType": "string",
          "name": "_postalCode",
          "type": "string"
        },
        {
          "internalType": "string",
          "name": "_country",
          "type": "string"
        },
        {
          "internalType": "string",
          "name": "_phoneNumber",
          "type": "string"
        }
      ],
      "name": "updateHospital",
      "outputs": [
        {
          "internalType": "bool",
          "name": "",
          "type": "bool"
        }
      ],
      "stateMutability": "nonpayable",
      "type": "function"
    },
    {
      "inputs": [
        {
          "internalType": "string",
          "name": "_address",
          "type": "string"
        }
      ],
      "name": "checkHospital",
      "outputs": [
        {
          "internalType": "bool",
          "name": "",
          "type": "bool"
        }
      ],
      "stateMutability": "view",
      "type": "function",
      "constant": true
    },
    {
      "inputs": [],
      "name": "getAll",
      "outputs": [
        {
          "components": [
            {
              "internalType": "uint256",
              "name": "id",
              "type": "uint256"
            },
            {
              "internalType": "string",
              "name": "name",
              "type": "string"
            },
            {
              "internalType": "string",
              "name": "email",
              "type": "string"
            },
            {
              "internalType": "string",
              "name": "city",
              "type": "string"
            },
            {
              "internalType": "string",
              "name": "state",
              "type": "string"
            },
            {
              "internalType": "string",
              "name": "postalAddress",
              "type": "string"
            },
            {
              "internalType": "string",
              "name": "country",
              "type": "string"
            },
            {
              "internalType": "string",
              "name": "phoneNumber",
              "type": "string"
            },
            {
              "internalType": "string",
              "name": "accountAddress",
              "type": "string"
            }
          ],
          "internalType": "struct Hospital.structHospital[]",
          "name": "",
          "type": "tuple[]"
        }
      ],
      "stateMutability": "view",
      "type": "function",
      "constant": true
    }
  ],
  "bytecode": "0x60806040526000805534801561001457600080fd5b50611c22806100246000396000f3fe608060405234801561001057600080fd5b50600436106100625760003560e01c806321e59781146100675780634020f1351461009757806353ed5143146100c7578063a87d942c146100e5578063b758944114610103578063df6346ca1461013b575b600080fd5b610081600480360381019061007c91906111ee565b61016b565b60405161008e9190611383565b60405180910390f35b6100b160048036038101906100ac919061139e565b610343565b6040516100be9190611383565b60405180910390f35b6100cf6103e6565b6040516100dc9190611636565b60405180910390f35b6100ed61094c565b6040516100fa9190611667565b60405180910390f35b61011d60048036038101906101189190611682565b610955565b604051610132999897969594939291906116f9565b60405180910390f35b610155600480360381019061015091906117be565b610de3565b6040516101629190611383565b60405180910390f35b600080600090505b600054811015610331578960405160200161018e9190611975565b6040516020818303038152906040528051906020012060016000838152602001908152602001600020600001546040516020016101cb9190611975565b60405160208183030381529060405280519060200120141561031e5788600160008381526020019081526020016000206001019080519060200190610211929190610f6f565b508760016000838152602001908152602001600020600201908051906020019061023c929190610f6f565b5086600160008381526020019081526020016000206003019080519060200190610267929190610f6f565b5085600160008381526020019081526020016000206004019080519060200190610292929190610f6f565b50846001600083815260200190815260200160002060050190805190602001906102bd929190610f6f565b50836001600083815260200190815260200160002060060190805190602001906102e8929190610f6f565b5082600160008381526020019081526020016000206007019080519060200190610313929190610f6f565b506001915050610337565b8080610329906119bf565b915050610173565b50600090505b98975050505050505050565b600080600090505b6000548110156103db57826040516020016103669190611a44565b60405160208183030381529060405280519060200120600160008381526020019081526020016000206008016040516020016103a29190611b50565b6040516020818303038152906040528051906020012014156103c85760019150506103e1565b80806103d3906119bf565b91505061034b565b50600090505b919050565b6060600060016000546103f99190611b67565b67ffffffffffffffff811115610412576104116110c3565b5b60405190808252806020026020018201604052801561044b57816020015b610438610ff5565b8152602001906001900390816104305790505b50905060005b60005481116109445760016000828152602001908152602001600020604051806101200160405290816000820154815260200160018201805461049390611a8a565b80601f01602080910402602001604051908101604052809291908181526020018280546104bf90611a8a565b801561050c5780601f106104e15761010080835404028352916020019161050c565b820191906000526020600020905b8154815290600101906020018083116104ef57829003601f168201915b5050505050815260200160028201805461052590611a8a565b80601f016020809104026020016040519081016040528092919081815260200182805461055190611a8a565b801561059e5780601f106105735761010080835404028352916020019161059e565b820191906000526020600020905b81548152906001019060200180831161058157829003601f168201915b505050505081526020016003820180546105b790611a8a565b80601f01602080910402602001604051908101604052809291908181526020018280546105e390611a8a565b80156106305780601f1061060557610100808354040283529160200191610630565b820191906000526020600020905b81548152906001019060200180831161061357829003601f168201915b5050505050815260200160048201805461064990611a8a565b80601f016020809104026020016040519081016040528092919081815260200182805461067590611a8a565b80156106c25780601f10610697576101008083540402835291602001916106c2565b820191906000526020600020905b8154815290600101906020018083116106a557829003601f168201915b505050505081526020016005820180546106db90611a8a565b80601f016020809104026020016040519081016040528092919081815260200182805461070790611a8a565b80156107545780601f1061072957610100808354040283529160200191610754565b820191906000526020600020905b81548152906001019060200180831161073757829003601f168201915b5050505050815260200160068201805461076d90611a8a565b80601f016020809104026020016040519081016040528092919081815260200182805461079990611a8a565b80156107e65780601f106107bb576101008083540402835291602001916107e6565b820191906000526020600020905b8154815290600101906020018083116107c957829003601f168201915b505050505081526020016007820180546107ff90611a8a565b80601f016020809104026020016040519081016040528092919081815260200182805461082b90611a8a565b80156108785780601f1061084d57610100808354040283529160200191610878565b820191906000526020600020905b81548152906001019060200180831161085b57829003601f168201915b5050505050815260200160088201805461089190611a8a565b80601f01602080910402602001604051908101604052809291908181526020018280546108bd90611a8a565b801561090a5780601f106108df5761010080835404028352916020019161090a565b820191906000526020600020905b8154815290600101906020018083116108ed57829003601f168201915b50505050508152505082828151811061092657610925611bbd565b5b6020026020010181905250808061093c906119bf565b915050610451565b508091505090565b60008054905090565b600160205280600052604060002060009150905080600001549080600101805461097e90611a8a565b80601f01602080910402602001604051908101604052809291908181526020018280546109aa90611a8a565b80156109f75780601f106109cc576101008083540402835291602001916109f7565b820191906000526020600020905b8154815290600101906020018083116109da57829003601f168201915b505050505090806002018054610a0c90611a8a565b80601f0160208091040260200160405190810160405280929190818152602001828054610a3890611a8a565b8015610a855780601f10610a5a57610100808354040283529160200191610a85565b820191906000526020600020905b815481529060010190602001808311610a6857829003601f168201915b505050505090806003018054610a9a90611a8a565b80601f0160208091040260200160405190810160405280929190818152602001828054610ac690611a8a565b8015610b135780601f10610ae857610100808354040283529160200191610b13565b820191906000526020600020905b815481529060010190602001808311610af657829003601f168201915b505050505090806004018054610b2890611a8a565b80601f0160208091040260200160405190810160405280929190818152602001828054610b5490611a8a565b8015610ba15780601f10610b7657610100808354040283529160200191610ba1565b820191906000526020600020905b815481529060010190602001808311610b8457829003601f168201915b505050505090806005018054610bb690611a8a565b80601f0160208091040260200160405190810160405280929190818152602001828054610be290611a8a565b8015610c2f5780601f10610c0457610100808354040283529160200191610c2f565b820191906000526020600020905b815481529060010190602001808311610c1257829003601f168201915b505050505090806006018054610c4490611a8a565b80601f0160208091040260200160405190810160405280929190818152602001828054610c7090611a8a565b8015610cbd5780601f10610c9257610100808354040283529160200191610cbd565b820191906000526020600020905b815481529060010190602001808311610ca057829003601f168201915b505050505090806007018054610cd290611a8a565b80601f0160208091040260200160405190810160405280929190818152602001828054610cfe90611a8a565b8015610d4b5780601f10610d2057610100808354040283529160200191610d4b565b820191906000526020600020905b815481529060010190602001808311610d2e57829003601f168201915b505050505090806008018054610d6090611a8a565b80601f0160208091040260200160405190810160405280929190818152602001828054610d8c90611a8a565b8015610dd95780601f10610dae57610100808354040283529160200191610dd9565b820191906000526020600020905b815481529060010190602001808311610dbc57829003601f168201915b5050505050905089565b6000610dee82610343565b610f5e5760405180610120016040528060005481526020018a8152602001898152602001888152602001878152602001868152602001858152602001848152602001838152506001600080548152602001908152602001600020600082015181600001556020820151816001019080519060200190610e6e929190610f6f565b506040820151816002019080519060200190610e8b929190610f6f565b506060820151816003019080519060200190610ea8929190610f6f565b506080820151816004019080519060200190610ec5929190610f6f565b5060a0820151816005019080519060200190610ee2929190610f6f565b5060c0820151816006019080519060200190610eff929190610f6f565b5060e0820151816007019080519060200190610f1c929190610f6f565b50610100820151816008019080519060200190610f3a929190610f6f565b50905050600080815480929190610f50906119bf565b919050555060019050610f63565b600090505b98975050505050505050565b828054610f7b90611a8a565b90600052602060002090601f016020900481019282610f9d5760008555610fe4565b82601f10610fb657805160ff1916838001178555610fe4565b82800160010185558215610fe4579182015b82811115610fe3578251825591602001919060010190610fc8565b5b509050610ff19190611041565b5090565b6040518061012001604052806000815260200160608152602001606081526020016060815260200160608152602001606081526020016060815260200160608152602001606081525090565b5b8082111561105a576000816000905550600101611042565b5090565b6000604051905090565b600080fd5b600080fd5b6000819050919050565b61108581611072565b811461109057600080fd5b50565b6000813590506110a28161107c565b92915050565b600080fd5b600080fd5b6000601f19601f8301169050919050565b7f4e487b7100000000000000000000000000000000000000000000000000000000600052604160045260246000fd5b6110fb826110b2565b810181811067ffffffffffffffff8211171561111a576111196110c3565b5b80604052505050565b600061112d61105e565b905061113982826110f2565b919050565b600067ffffffffffffffff821115611159576111586110c3565b5b611162826110b2565b9050602081019050919050565b82818337600083830152505050565b600061119161118c8461113e565b611123565b9050828152602081018484840111156111ad576111ac6110ad565b5b6111b884828561116f565b509392505050565b600082601f8301126111d5576111d46110a8565b5b81356111e584826020860161117e565b91505092915050565b600080600080600080600080610100898b03121561120f5761120e611068565b5b600061121d8b828c01611093565b985050602089013567ffffffffffffffff81111561123e5761123d61106d565b5b61124a8b828c016111c0565b975050604089013567ffffffffffffffff81111561126b5761126a61106d565b5b6112778b828c016111c0565b965050606089013567ffffffffffffffff8111156112985761129761106d565b5b6112a48b828c016111c0565b955050608089013567ffffffffffffffff8111156112c5576112c461106d565b5b6112d18b828c016111c0565b94505060a089013567ffffffffffffffff8111156112f2576112f161106d565b5b6112fe8b828c016111c0565b93505060c089013567ffffffffffffffff81111561131f5761131e61106d565b5b61132b8b828c016111c0565b92505060e089013567ffffffffffffffff81111561134c5761134b61106d565b5b6113588b828c016111c0565b9150509295985092959890939650565b60008115159050919050565b61137d81611368565b82525050565b60006020820190506113986000830184611374565b92915050565b6000602082840312156113b4576113b3611068565b5b600082013567ffffffffffffffff8111156113d2576113d161106d565b5b6113de848285016111c0565b91505092915050565b600081519050919050565b600082825260208201905092915050565b6000819050602082019050919050565b61141c81611072565b82525050565b600081519050919050565b600082825260208201905092915050565b60005b8381101561145c578082015181840152602081019050611441565b8381111561146b576000848401525b50505050565b600061147c82611422565b611486818561142d565b935061149681856020860161143e565b61149f816110b2565b840191505092915050565b6000610120830160008301516114c36000860182611413565b50602083015184820360208601526114db8282611471565b915050604083015184820360408601526114f58282611471565b9150506060830151848203606086015261150f8282611471565b915050608083015184820360808601526115298282611471565b91505060a083015184820360a08601526115438282611471565b91505060c083015184820360c086015261155d8282611471565b91505060e083015184820360e08601526115778282611471565b9150506101008301518482036101008601526115938282611471565b9150508091505092915050565b60006115ac83836114aa565b905092915050565b6000602082019050919050565b60006115cc826113e7565b6115d681856113f2565b9350836020820285016115e885611403565b8060005b85811015611624578484038952815161160585826115a0565b9450611610836115b4565b925060208a019950506001810190506115ec565b50829750879550505050505092915050565b6000602082019050818103600083015261165081846115c1565b905092915050565b61166181611072565b82525050565b600060208201905061167c6000830184611658565b92915050565b60006020828403121561169857611697611068565b5b60006116a684828501611093565b91505092915050565b600082825260208201905092915050565b60006116cb82611422565b6116d581856116af565b93506116e581856020860161143e565b6116ee816110b2565b840191505092915050565b60006101208201905061170f600083018c611658565b8181036020830152611721818b6116c0565b90508181036040830152611735818a6116c0565b9050818103606083015261174981896116c0565b9050818103608083015261175d81886116c0565b905081810360a083015261177181876116c0565b905081810360c083015261178581866116c0565b905081810360e083015261179981856116c0565b90508181036101008301526117ae81846116c0565b90509a9950505050505050505050565b600080600080600080600080610100898b0312156117df576117de611068565b5b600089013567ffffffffffffffff8111156117fd576117fc61106d565b5b6118098b828c016111c0565b985050602089013567ffffffffffffffff81111561182a5761182961106d565b5b6118368b828c016111c0565b975050604089013567ffffffffffffffff8111156118575761185661106d565b5b6118638b828c016111c0565b965050606089013567ffffffffffffffff8111156118845761188361106d565b5b6118908b828c016111c0565b955050608089013567ffffffffffffffff8111156118b1576118b061106d565b5b6118bd8b828c016111c0565b94505060a089013567ffffffffffffffff8111156118de576118dd61106d565b5b6118ea8b828c016111c0565b93505060c089013567ffffffffffffffff81111561190b5761190a61106d565b5b6119178b828c016111c0565b92505060e089013567ffffffffffffffff8111156119385761193761106d565b5b6119448b828c016111c0565b9150509295985092959890939650565b6000819050919050565b61196f61196a82611072565b611954565b82525050565b6000611981828461195e565b60208201915081905092915050565b7f4e487b7100000000000000000000000000000000000000000000000000000000600052601160045260246000fd5b60006119ca82611072565b91507fffffffffffffffffffffffffffffffffffffffffffffffffffffffffffffffff8214156119fd576119fc611990565b5b600182019050919050565b600081905092915050565b6000611a1e82611422565b611a288185611a08565b9350611a3881856020860161143e565b80840191505092915050565b6000611a508284611a13565b915081905092915050565b7f4e487b7100000000000000000000000000000000000000000000000000000000600052602260045260246000fd5b60006002820490506001821680611aa257607f821691505b60208210811415611ab657611ab5611a5b565b5b50919050565b60008190508160005260206000209050919050565b60008154611ade81611a8a565b611ae88186611a08565b94506001821660008114611b035760018114611b1457611b47565b60ff19831686528186019350611b47565b611b1d85611abc565b60005b83811015611b3f57815481890152600182019150602081019050611b20565b838801955050505b50505092915050565b6000611b5c8284611ad1565b915081905092915050565b6000611b7282611072565b9150611b7d83611072565b9250827fffffffffffffffffffffffffffffffffffffffffffffffffffffffffffffffff03821115611bb257611bb1611990565b5b828201905092915050565b7f4e487b7100000000000000000000000000000000000000000000000000000000600052603260045260246000fdfea26469706673582212209b2dec7ad300751a89bd39090a9eaf58519f0789517db0c8df3f3d69e7a9b3d264736f6c634300080a0033",
  "immutableReferences": {},
  "source": "// SPDX-License-Identifier: MIT\r\npragma solidity >=0.4.22 <0.9.0;\r\n\r\ncontract Hospital {\r\n    \r\n    struct structHospital{\r\n        uint id;\r\n        string name;\r\n        string email;\r\n        string city;\r\n        string state;\r\n        string postalAddress;\r\n        string country;\r\n        string phoneNumber;\r\n        string accountAddress;\r\n    }\r\n    uint hospitalCount = 0;\r\n\r\n    mapping(uint => structHospital) public Hospitals;\r\n\r\n\r\n    constructor ()\r\n    {\r\n\r\n    }\r\n    function getCount() public view returns(uint)\r\n    {\r\n        return hospitalCount;\r\n    }\r\n    function CreateHospital(string memory _name, string memory _email, string memory _city, string memory _state, \r\n                            string memory _postalAddress, string memory _country, string memory _phoneNumber, string memory _accountAddress)  public  returns (bool)\r\n    {\r\n\r\n        \r\n       if(!checkHospital(_accountAddress))\r\n       {\r\n           Hospitals[hospitalCount] = structHospital(hospitalCount, _name, _email, _city, _state,_postalAddress, _country, _phoneNumber, _accountAddress);\r\n           hospitalCount ++;\r\n\r\n           return true;\r\n       }\r\n        else {\r\n            return false; // Hospital with the same name already exist\r\n        }\r\n    }\r\n    function updateHospital(uint _id, string memory _name, string memory _location, string memory _city, string memory _state, \r\n                            string memory _postalCode, string memory _country, string memory _phoneNumber)  public  returns (bool)\r\n    {\r\n         for(uint i = 0; i < hospitalCount; i++){\r\n\r\n            if(keccak256(abi.encodePacked(Hospitals[i].id)) == keccak256(abi.encodePacked(_id)) )\r\n            {\r\n                Hospitals[i].name = _name;\r\n                Hospitals[i].email = _location;\r\n                Hospitals[i].city = _city;\r\n                Hospitals[i].state = _state;\r\n                Hospitals[i].postalAddress = _postalCode;\r\n                Hospitals[i].country = _country;\r\n                Hospitals[i].phoneNumber = _phoneNumber;\r\n                return true; // record updated successfully\r\n            }\r\n        }\r\n        return false; // invalid hospital name\r\n    }\r\n    function checkHospital(string memory _address) public view  returns (bool)\r\n    {\r\n        for(uint i = 0; i < hospitalCount; i++){\r\n\r\n            if(keccak256(abi.encodePacked(Hospitals[i].accountAddress)) == keccak256(abi.encodePacked(_address)) )\r\n            {\r\n                return true;\r\n            }\r\n        }\r\n        return false;\r\n    }\r\n    function getAll() public view returns (structHospital[] memory)\r\n    {\r\n        structHospital[] memory hospitalList = new structHospital[](hospitalCount+1);\r\n        for (uint i = 0; i <= hospitalCount; i++) \r\n        {\r\n            hospitalList[i] = Hospitals[i];\r\n        }\r\n        return hospitalList;\r\n    }\r\n    \r\n}\r\n",
  "sourcePath": "D:\\Documents\\Custom Office Templates\\Final Year Project\\decentralized-patient-centered-health-records-and-exchange\\decentralized-patient-centered-health-records-and-exchange\\contracts\\Hospital.sol",
  "compiler": {
    "name": "solc",
    "version": "0.8.10+commit.fc410830.Emscripten.clang"
  },
  "schemaVersion": "3.4.3",
  "updatedAt": "2022-01-22T12:07:08.647Z",
  "networkType": "ethereum",
  "devdoc": {
    "kind": "dev",
    "methods": {},
    "version": 1
  },
  "userdoc": {
    "kind": "user",
    "methods": {},
    "version": 1
  }
}