{
  "contractName": "Patient",
  "abi": [
    {
      "inputs": [],
      "stateMutability": "nonpayable",
      "type": "constructor"
    },
    {
      "inputs": [
        {
          "internalType": "uint256",
          "name": "",
          "type": "uint256"
        }
      ],
      "name": "Patients",
      "outputs": [
        {
          "internalType": "uint256",
          "name": "id",
          "type": "uint256"
        },
        {
          "internalType": "string",
          "name": "fullName",
          "type": "string"
        },
        {
          "internalType": "string",
          "name": "dateOfBirth",
          "type": "string"
        },
        {
          "internalType": "string",
          "name": "CNIC",
          "type": "string"
        },
        {
          "internalType": "uint256",
          "name": "hospitalId",
          "type": "uint256"
        },
        {
          "internalType": "string",
          "name": "PhoneNo",
          "type": "string"
        },
        {
          "internalType": "string",
          "name": "email",
          "type": "string"
        },
        {
          "internalType": "string",
          "name": "status",
          "type": "string"
        },
        {
          "internalType": "string",
          "name": "gender",
          "type": "string"
        },
        {
          "internalType": "uint256",
          "name": "CommonMedialConditionId",
          "type": "uint256"
        }
      ],
      "stateMutability": "view",
      "type": "function",
      "constant": true
    }
  ],
  "bytecode": "0x608060405234801561001057600080fd5b506106e9806100206000396000f3fe608060405234801561001057600080fd5b506004361061002b5760003560e01c8063a198283514610030575b600080fd5b61004a600480360381019061004591906104b0565b610069565b6040516100609a99989796959493929190610585565b60405180910390f35b600060205280600052604060002060009150905080600001549080600101805461009290610681565b80601f01602080910402602001604051908101604052809291908181526020018280546100be90610681565b801561010b5780601f106100e05761010080835404028352916020019161010b565b820191906000526020600020905b8154815290600101906020018083116100ee57829003601f168201915b50505050509080600201805461012090610681565b80601f016020809104026020016040519081016040528092919081815260200182805461014c90610681565b80156101995780601f1061016e57610100808354040283529160200191610199565b820191906000526020600020905b81548152906001019060200180831161017c57829003601f168201915b5050505050908060030180546101ae90610681565b80601f01602080910402602001604051908101604052809291908181526020018280546101da90610681565b80156102275780601f106101fc57610100808354040283529160200191610227565b820191906000526020600020905b81548152906001019060200180831161020a57829003601f168201915b50505050509080600401549080600501805461024290610681565b80601f016020809104026020016040519081016040528092919081815260200182805461026e90610681565b80156102bb5780601f10610290576101008083540402835291602001916102bb565b820191906000526020600020905b81548152906001019060200180831161029e57829003601f168201915b5050505050908060060180546102d090610681565b80601f01602080910402602001604051908101604052809291908181526020018280546102fc90610681565b80156103495780601f1061031e57610100808354040283529160200191610349565b820191906000526020600020905b81548152906001019060200180831161032c57829003601f168201915b50505050509080600701805461035e90610681565b80601f016020809104026020016040519081016040528092919081815260200182805461038a90610681565b80156103d75780601f106103ac576101008083540402835291602001916103d7565b820191906000526020600020905b8154815290600101906020018083116103ba57829003601f168201915b5050505050908060080180546103ec90610681565b80601f016020809104026020016040519081016040528092919081815260200182805461041890610681565b80156104655780601f1061043a57610100808354040283529160200191610465565b820191906000526020600020905b81548152906001019060200180831161044857829003601f168201915b505050505090806009015490508a565b600080fd5b6000819050919050565b61048d8161047a565b811461049857600080fd5b50565b6000813590506104aa81610484565b92915050565b6000602082840312156104c6576104c5610475565b5b60006104d48482850161049b565b91505092915050565b6104e68161047a565b82525050565b600081519050919050565b600082825260208201905092915050565b60005b8381101561052657808201518184015260208101905061050b565b83811115610535576000848401525b50505050565b6000601f19601f8301169050919050565b6000610557826104ec565b61056181856104f7565b9350610571818560208601610508565b61057a8161053b565b840191505092915050565b60006101408201905061059b600083018d6104dd565b81810360208301526105ad818c61054c565b905081810360408301526105c1818b61054c565b905081810360608301526105d5818a61054c565b90506105e460808301896104dd565b81810360a08301526105f6818861054c565b905081810360c083015261060a818761054c565b905081810360e083015261061e818661054c565b9050818103610100830152610633818561054c565b90506106436101208301846104dd565b9b9a5050505050505050505050565b7f4e487b7100000000000000000000000000000000000000000000000000000000600052602260045260246000fd5b6000600282049050600182168061069957607f821691505b602082108114156106ad576106ac610652565b5b5091905056fea26469706673582212204273d027a3c2808ef08ef325cf1fa0e4d2af5257d2cc952c3a26c74c8364904664736f6c634300080a0033",
  "immutableReferences": {},
  "source": "// SPDX-License-Identifier: MIT\r\npragma solidity >=0.4.22 <0.9.0;\r\n\r\ncontract Patient {\r\n    \r\n    struct structPatient{\r\n        uint id;\r\n        string fullName;\r\n        string dateOfBirth;\r\n        string CNIC;\r\n        uint hospitalId;\r\n        string PhoneNo;\r\n        string email;\r\n        string status;\r\n        string gender;\r\n        uint CommonMedialConditionId;\r\n    }\r\n    mapping(uint => structPatient) public Patients;\r\n\r\n    constructor () {\r\n\r\n    }\r\n}\r\n",
  "sourcePath": "G:\\Projects\\Blockchain\\decentralized-patient-centered-health-records-and-exchange\\contracts\\Patient.sol",
  "compiler": {
    "name": "solc",
    "version": "0.8.10+commit.fc410830.Emscripten.clang"
  },
  "schemaVersion": "3.4.3",
  "updatedAt": "2022-01-05T05:49:45.631Z",
  "networkType": "ethereum",
  "devdoc": {
    "kind": "dev",
    "methods": {},
    "version": 1
  },
  "userdoc": {
    "kind": "user",
    "methods": {},
    "version": 1
  }
}