{
  "contractName": "Patient",
  "abi": [
    {
      "inputs": [],
      "stateMutability": "nonpayable",
      "type": "constructor"
    },
    {
      "inputs": [
        {
          "internalType": "uint256",
          "name": "",
          "type": "uint256"
        }
      ],
      "name": "PatientReports",
      "outputs": [
        {
          "internalType": "uint256",
          "name": "reportId",
          "type": "uint256"
        },
        {
          "internalType": "address",
          "name": "patientAddress",
          "type": "address"
        },
        {
          "internalType": "string",
          "name": "Tittle",
          "type": "string"
        },
        {
          "internalType": "string",
          "name": "Description",
          "type": "string"
        },
        {
          "internalType": "string",
          "name": "Report",
          "type": "string"
        }
      ],
      "stateMutability": "view",
      "type": "function",
      "constant": true
    },
    {
      "inputs": [
        {
          "internalType": "uint256",
          "name": "",
          "type": "uint256"
        }
      ],
      "name": "Patients",
      "outputs": [
        {
          "internalType": "uint256",
          "name": "id",
          "type": "uint256"
        },
        {
          "internalType": "string",
          "name": "fullName",
          "type": "string"
        },
        {
          "internalType": "string",
          "name": "dateOfBirth",
          "type": "string"
        },
        {
          "internalType": "string",
          "name": "CNIC",
          "type": "string"
        },
        {
          "internalType": "uint256",
          "name": "hospitalId",
          "type": "uint256"
        },
        {
          "internalType": "string",
          "name": "PhoneNo",
          "type": "string"
        },
        {
          "internalType": "string",
          "name": "email",
          "type": "string"
        },
        {
          "internalType": "string",
          "name": "status",
          "type": "string"
        },
        {
          "internalType": "string",
          "name": "gender",
          "type": "string"
        }
      ],
      "stateMutability": "view",
      "type": "function",
      "constant": true
    },
    {
      "inputs": [],
      "name": "patientCount",
      "outputs": [
        {
          "internalType": "uint256",
          "name": "",
          "type": "uint256"
        }
      ],
      "stateMutability": "view",
      "type": "function",
      "constant": true
    },
    {
      "inputs": [],
      "name": "reportCount",
      "outputs": [
        {
          "internalType": "uint256",
          "name": "",
          "type": "uint256"
        }
      ],
      "stateMutability": "view",
      "type": "function",
      "constant": true
    },
    {
      "inputs": [
        {
          "internalType": "string",
          "name": "_fullname",
          "type": "string"
        },
        {
          "internalType": "string",
          "name": "_dateOfBirth",
          "type": "string"
        },
        {
          "internalType": "string",
          "name": "_cnic",
          "type": "string"
        },
        {
          "internalType": "uint256",
          "name": "_hospitalId",
          "type": "uint256"
        },
        {
          "internalType": "string",
          "name": "_phoneNo",
          "type": "string"
        },
        {
          "internalType": "string",
          "name": "_email",
          "type": "string"
        },
        {
          "internalType": "string",
          "name": "_status",
          "type": "string"
        },
        {
          "internalType": "string",
          "name": "_gender",
          "type": "string"
        }
      ],
      "name": "AddPatient",
      "outputs": [
        {
          "internalType": "bool",
          "name": "",
          "type": "bool"
        }
      ],
      "stateMutability": "nonpayable",
      "type": "function"
    },
    {
      "inputs": [],
      "name": "getAll",
      "outputs": [
        {
          "components": [
            {
              "internalType": "uint256",
              "name": "id",
              "type": "uint256"
            },
            {
              "internalType": "string",
              "name": "fullName",
              "type": "string"
            },
            {
              "internalType": "string",
              "name": "dateOfBirth",
              "type": "string"
            },
            {
              "internalType": "string",
              "name": "CNIC",
              "type": "string"
            },
            {
              "internalType": "uint256",
              "name": "hospitalId",
              "type": "uint256"
            },
            {
              "internalType": "string",
              "name": "PhoneNo",
              "type": "string"
            },
            {
              "internalType": "string",
              "name": "email",
              "type": "string"
            },
            {
              "internalType": "string",
              "name": "status",
              "type": "string"
            },
            {
              "internalType": "string",
              "name": "gender",
              "type": "string"
            }
          ],
          "internalType": "struct Patient.structPatient[]",
          "name": "",
          "type": "tuple[]"
        }
      ],
      "stateMutability": "view",
      "type": "function",
      "constant": true
    },
    {
      "inputs": [
        {
          "internalType": "address",
          "name": "_patientAddress",
          "type": "address"
        },
        {
          "internalType": "string",
          "name": "_tittle",
          "type": "string"
        },
        {
          "internalType": "string",
          "name": "_description",
          "type": "string"
        },
        {
          "internalType": "string",
          "name": "_report",
          "type": "string"
        }
      ],
      "name": "addReport",
      "outputs": [
        {
          "internalType": "bool",
          "name": "",
          "type": "bool"
        }
      ],
      "stateMutability": "nonpayable",
      "type": "function"
    },
    {
      "inputs": [
        {
          "internalType": "address",
          "name": "_patientAddress",
          "type": "address"
        }
      ],
      "name": "getReport",
      "outputs": [
        {
          "components": [
            {
              "internalType": "uint256",
              "name": "reportId",
              "type": "uint256"
            },
            {
              "internalType": "address",
              "name": "patientAddress",
              "type": "address"
            },
            {
              "internalType": "string",
              "name": "Tittle",
              "type": "string"
            },
            {
              "internalType": "string",
              "name": "Description",
              "type": "string"
            },
            {
              "internalType": "string",
              "name": "Report",
              "type": "string"
            }
          ],
          "internalType": "struct Patient.structPatientReport[]",
          "name": "",
          "type": "tuple[]"
        }
      ],
      "stateMutability": "view",
      "type": "function",
      "constant": true
    },
    {
      "inputs": [
        {
          "internalType": "address",
          "name": "_patientAddress",
          "type": "address"
        }
      ],
      "name": "getReportCount",
      "outputs": [
        {
          "internalType": "uint256",
          "name": "",
          "type": "uint256"
        }
      ],
      "stateMutability": "view",
      "type": "function",
      "constant": true
    }
  ],
  "bytecode": "0x60806040526000805560006001553480156200001a57600080fd5b50620001a76040518060400160405280600981526020017f416264756c4d6f697a00000000000000000000000000000000000000000000008152506040518060400160405280600a81526020017f30382f30352f32303235000000000000000000000000000000000000000000008152506040518060400160405280600e81526020017f343234303131323331323331323300000000000000000000000000000000000081525060016040518060400160405280600c81526020017f39323331343233313331313100000000000000000000000000000000000000008152506040518060400160405280601381526020017f616264756c6d6f697a40676d61696c2e636f6d000000000000000000000000008152506040518060400160405280600781526020017f6865616c746879000000000000000000000000000000000000000000000000008152506040518060400160405280600481526020017f6d616c6500000000000000000000000000000000000000000000000000000000815250620001ae60201b60201c565b50620004bc565b600060405180610120016040528060005481526020018a81526020018981526020018881526020018781526020018681526020018581526020018481526020018381525060026000805481526020019081526020016000206000820151816000015560208201518160010190805190602001906200022e92919062000320565b5060408201518160020190805190602001906200024d92919062000320565b5060608201518160030190805190602001906200026c92919062000320565b506080820151816004015560a08201518160050190805190602001906200029592919062000320565b5060c0820151816006019080519060200190620002b492919062000320565b5060e0820151816007019080519060200190620002d392919062000320565b50610100820151816008019080519060200190620002f392919062000320565b509050506000808154809291906200030b9062000409565b91905055506001905098975050505050505050565b8280546200032e9062000486565b90600052602060002090601f0160209004810192826200035257600085556200039e565b82601f106200036d57805160ff19168380011785556200039e565b828001600101855582156200039e579182015b828111156200039d57825182559160200191906001019062000380565b5b509050620003ad9190620003b1565b5090565b5b80821115620003cc576000816000905550600101620003b2565b5090565b7f4e487b7100000000000000000000000000000000000000000000000000000000600052601160045260246000fd5b6000819050919050565b60006200041682620003ff565b91507fffffffffffffffffffffffffffffffffffffffffffffffffffffffffffffffff8214156200044c576200044b620003d0565b5b600182019050919050565b7f4e487b7100000000000000000000000000000000000000000000000000000000600052602260045260246000fd5b600060028204905060018216806200049f57607f821691505b60208210811415620004b657620004b562000457565b5b50919050565b61211e80620004cc6000396000f3fe608060405234801561001057600080fd5b50600436106100925760003560e01c80639e22a893116100665780639e22a89314610133578063a0303c4114610163578063a198283514610181578063a3bdae3e146101b9578063c22b5bb6146101e957610092565b80620c0bc214610097578063185c6f84146100c757806353ed5143146100e557806371f2d08c14610103575b600080fd5b6100b160048036038101906100ac919061167a565b61021d565b6040516100be919061180f565b60405180910390f35b6100cf61037f565b6040516100dc9190611839565b60405180910390f35b6100ed610385565b6040516100fa9190611a9c565b60405180910390f35b61011d60048036038101906101189190611b1c565b610864565b60405161012a919061180f565b60405180910390f35b61014d60048036038101906101489190611bd7565b610989565b60405161015a9190611839565b60405180910390f35b61016b610a53565b6040516101789190611839565b60405180910390f35b61019b60048036038101906101969190611c04565b610a59565b6040516101b099989796959493929190611c7b565b60405180910390f35b6101d360048036038101906101ce9190611bd7565b610e5f565b6040516101e09190611e8e565b60405180910390f35b61020360048036038101906101fe9190611c04565b6111c8565b604051610214959493929190611ebf565b60405180910390f35b600060405180610120016040528060005481526020018a815260200189815260200188815260200187815260200186815260200185815260200184815260200183815250600260008054815260200190815260200160002060008201518160000155602082015181600101908051906020019061029b9291906113b6565b5060408201518160020190805190602001906102b89291906113b6565b5060608201518160030190805190602001906102d59291906113b6565b506080820151816004015560a08201518160050190805190602001906102fc9291906113b6565b5060c08201518160060190805190602001906103199291906113b6565b5060e08201518160070190805190602001906103369291906113b6565b506101008201518160080190805190602001906103549291906113b6565b5090505060008081548092919061036a90611f56565b91905055506001905098975050505050505050565b60015481565b6060600060016000546103989190611f9f565b67ffffffffffffffff8111156103b1576103b0611519565b5b6040519080825280602002602001820160405280156103ea57816020015b6103d761143c565b8152602001906001900390816103cf5790505b50905060005b60005481101561085c5760026000828152602001908152602001600020604051806101200160405290816000820154815260200160018201805461043390612024565b80601f016020809104026020016040519081016040528092919081815260200182805461045f90612024565b80156104ac5780601f10610481576101008083540402835291602001916104ac565b820191906000526020600020905b81548152906001019060200180831161048f57829003601f168201915b505050505081526020016002820180546104c590612024565b80601f01602080910402602001604051908101604052809291908181526020018280546104f190612024565b801561053e5780601f106105135761010080835404028352916020019161053e565b820191906000526020600020905b81548152906001019060200180831161052157829003601f168201915b5050505050815260200160038201805461055790612024565b80601f016020809104026020016040519081016040528092919081815260200182805461058390612024565b80156105d05780601f106105a5576101008083540402835291602001916105d0565b820191906000526020600020905b8154815290600101906020018083116105b357829003601f168201915b50505050508152602001600482015481526020016005820180546105f390612024565b80601f016020809104026020016040519081016040528092919081815260200182805461061f90612024565b801561066c5780601f106106415761010080835404028352916020019161066c565b820191906000526020600020905b81548152906001019060200180831161064f57829003601f168201915b5050505050815260200160068201805461068590612024565b80601f01602080910402602001604051908101604052809291908181526020018280546106b190612024565b80156106fe5780601f106106d3576101008083540402835291602001916106fe565b820191906000526020600020905b8154815290600101906020018083116106e157829003601f168201915b5050505050815260200160078201805461071790612024565b80601f016020809104026020016040519081016040528092919081815260200182805461074390612024565b80156107905780601f1061076557610100808354040283529160200191610790565b820191906000526020600020905b81548152906001019060200180831161077357829003601f168201915b505050505081526020016008820180546107a990612024565b80601f01602080910402602001604051908101604052809291908181526020018280546107d590612024565b80156108225780601f106107f757610100808354040283529160200191610822565b820191906000526020600020905b81548152906001019060200180831161080557829003601f168201915b50505050508152505082828151811061083e5761083d612056565b5b6020026020010181905250808061085490611f56565b9150506103f0565b508091505090565b60006040518060a0016040528060015481526020018673ffffffffffffffffffffffffffffffffffffffff168152602001858152602001848152602001838152506003600060015481526020019081526020016000206000820151816000015560208201518160010160006101000a81548173ffffffffffffffffffffffffffffffffffffffff021916908373ffffffffffffffffffffffffffffffffffffffff16021790555060408201518160020190805190602001906109279291906113b6565b5060608201518160030190805190602001906109449291906113b6565b5060808201518160040190805190602001906109619291906113b6565b509050506001600081548092919061097890611f56565b919050555060019050949350505050565b6000806000905060005b600054811015610a4957836040516020016109ae91906120cd565b604051602081830303815290604052805190602001206003600083815260200190815260200160002060010160009054906101000a900473ffffffffffffffffffffffffffffffffffffffff16604051602001610a0b91906120cd565b604051602081830303815290604052805190602001201415610a36578180610a3290611f56565b9250505b8080610a4190611f56565b915050610993565b5080915050919050565b60005481565b6002602052806000526040600020600091509050806000015490806001018054610a8290612024565b80601f0160208091040260200160405190810160405280929190818152602001828054610aae90612024565b8015610afb5780601f10610ad057610100808354040283529160200191610afb565b820191906000526020600020905b815481529060010190602001808311610ade57829003601f168201915b505050505090806002018054610b1090612024565b80601f0160208091040260200160405190810160405280929190818152602001828054610b3c90612024565b8015610b895780601f10610b5e57610100808354040283529160200191610b89565b820191906000526020600020905b815481529060010190602001808311610b6c57829003601f168201915b505050505090806003018054610b9e90612024565b80601f0160208091040260200160405190810160405280929190818152602001828054610bca90612024565b8015610c175780601f10610bec57610100808354040283529160200191610c17565b820191906000526020600020905b815481529060010190602001808311610bfa57829003601f168201915b505050505090806004015490806005018054610c3290612024565b80601f0160208091040260200160405190810160405280929190818152602001828054610c5e90612024565b8015610cab5780601f10610c8057610100808354040283529160200191610cab565b820191906000526020600020905b815481529060010190602001808311610c8e57829003601f168201915b505050505090806006018054610cc090612024565b80601f0160208091040260200160405190810160405280929190818152602001828054610cec90612024565b8015610d395780601f10610d0e57610100808354040283529160200191610d39565b820191906000526020600020905b815481529060010190602001808311610d1c57829003601f168201915b505050505090806007018054610d4e90612024565b80601f0160208091040260200160405190810160405280929190818152602001828054610d7a90612024565b8015610dc75780601f10610d9c57610100808354040283529160200191610dc7565b820191906000526020600020905b815481529060010190602001808311610daa57829003601f168201915b505050505090806008018054610ddc90612024565b80601f0160208091040260200160405190810160405280929190818152602001828054610e0890612024565b8015610e555780601f10610e2a57610100808354040283529160200191610e55565b820191906000526020600020905b815481529060010190602001808311610e3857829003601f168201915b5050505050905089565b60606000610e6c83610989565b67ffffffffffffffff811115610e8557610e84611519565b5b604051908082528060200260200182016040528015610ebe57816020015b610eab611488565b815260200190600190039081610ea35790505b50905060005b6000548110156111be5783604051602001610edf91906120cd565b604051602081830303815290604052805190602001206003600083815260200190815260200160002060010160009054906101000a900473ffffffffffffffffffffffffffffffffffffffff16604051602001610f3c91906120cd565b6040516020818303038152906040528051906020012014156111ab57600360008281526020019081526020016000206040518060a0016040529081600082015481526020016001820160009054906101000a900473ffffffffffffffffffffffffffffffffffffffff1673ffffffffffffffffffffffffffffffffffffffff1673ffffffffffffffffffffffffffffffffffffffff168152602001600282018054610fe690612024565b80601f016020809104026020016040519081016040528092919081815260200182805461101290612024565b801561105f5780601f106110345761010080835404028352916020019161105f565b820191906000526020600020905b81548152906001019060200180831161104257829003601f168201915b5050505050815260200160038201805461107890612024565b80601f01602080910402602001604051908101604052809291908181526020018280546110a490612024565b80156110f15780601f106110c6576101008083540402835291602001916110f1565b820191906000526020600020905b8154815290600101906020018083116110d457829003601f168201915b5050505050815260200160048201805461110a90612024565b80601f016020809104026020016040519081016040528092919081815260200182805461113690612024565b80156111835780601f1061115857610100808354040283529160200191611183565b820191906000526020600020905b81548152906001019060200180831161116657829003601f168201915b50505050508152505082828151811061119f5761119e612056565b5b60200260200101819052505b80806111b690611f56565b915050610ec4565b5080915050919050565b60036020528060005260406000206000915090508060000154908060010160009054906101000a900473ffffffffffffffffffffffffffffffffffffffff169080600201805461121790612024565b80601f016020809104026020016040519081016040528092919081815260200182805461124390612024565b80156112905780601f1061126557610100808354040283529160200191611290565b820191906000526020600020905b81548152906001019060200180831161127357829003601f168201915b5050505050908060030180546112a590612024565b80601f01602080910402602001604051908101604052809291908181526020018280546112d190612024565b801561131e5780601f106112f35761010080835404028352916020019161131e565b820191906000526020600020905b81548152906001019060200180831161130157829003601f168201915b50505050509080600401805461133390612024565b80601f016020809104026020016040519081016040528092919081815260200182805461135f90612024565b80156113ac5780601f10611381576101008083540402835291602001916113ac565b820191906000526020600020905b81548152906001019060200180831161138f57829003601f168201915b5050505050905085565b8280546113c290612024565b90600052602060002090601f0160209004810192826113e4576000855561142b565b82601f106113fd57805160ff191683800117855561142b565b8280016001018555821561142b579182015b8281111561142a57825182559160200191906001019061140f565b5b50905061143891906114cd565b5090565b6040518061012001604052806000815260200160608152602001606081526020016060815260200160008152602001606081526020016060815260200160608152602001606081525090565b6040518060a0016040528060008152602001600073ffffffffffffffffffffffffffffffffffffffff1681526020016060815260200160608152602001606081525090565b5b808211156114e65760008160009055506001016114ce565b5090565b6000604051905090565b600080fd5b600080fd5b600080fd5b600080fd5b6000601f19601f8301169050919050565b7f4e487b7100000000000000000000000000000000000000000000000000000000600052604160045260246000fd5b61155182611508565b810181811067ffffffffffffffff821117156115705761156f611519565b5b80604052505050565b60006115836114ea565b905061158f8282611548565b919050565b600067ffffffffffffffff8211156115af576115ae611519565b5b6115b882611508565b9050602081019050919050565b82818337600083830152505050565b60006115e76115e284611594565b611579565b90508281526020810184848401111561160357611602611503565b5b61160e8482856115c5565b509392505050565b600082601f83011261162b5761162a6114fe565b5b813561163b8482602086016115d4565b91505092915050565b6000819050919050565b61165781611644565b811461166257600080fd5b50565b6000813590506116748161164e565b92915050565b600080600080600080600080610100898b03121561169b5761169a6114f4565b5b600089013567ffffffffffffffff8111156116b9576116b86114f9565b5b6116c58b828c01611616565b985050602089013567ffffffffffffffff8111156116e6576116e56114f9565b5b6116f28b828c01611616565b975050604089013567ffffffffffffffff811115611713576117126114f9565b5b61171f8b828c01611616565b96505060606117308b828c01611665565b955050608089013567ffffffffffffffff811115611751576117506114f9565b5b61175d8b828c01611616565b94505060a089013567ffffffffffffffff81111561177e5761177d6114f9565b5b61178a8b828c01611616565b93505060c089013567ffffffffffffffff8111156117ab576117aa6114f9565b5b6117b78b828c01611616565b92505060e089013567ffffffffffffffff8111156117d8576117d76114f9565b5b6117e48b828c01611616565b9150509295985092959890939650565b60008115159050919050565b611809816117f4565b82525050565b60006020820190506118246000830184611800565b92915050565b61183381611644565b82525050565b600060208201905061184e600083018461182a565b92915050565b600081519050919050565b600082825260208201905092915050565b6000819050602082019050919050565b61188981611644565b82525050565b600081519050919050565b600082825260208201905092915050565b60005b838110156118c95780820151818401526020810190506118ae565b838111156118d8576000848401525b50505050565b60006118e98261188f565b6118f3818561189a565b93506119038185602086016118ab565b61190c81611508565b840191505092915050565b6000610120830160008301516119306000860182611880565b506020830151848203602086015261194882826118de565b9150506040830151848203604086015261196282826118de565b9150506060830151848203606086015261197c82826118de565b91505060808301516119916080860182611880565b5060a083015184820360a08601526119a982826118de565b91505060c083015184820360c08601526119c382826118de565b91505060e083015184820360e08601526119dd82826118de565b9150506101008301518482036101008601526119f982826118de565b9150508091505092915050565b6000611a128383611917565b905092915050565b6000602082019050919050565b6000611a3282611854565b611a3c818561185f565b935083602082028501611a4e85611870565b8060005b85811015611a8a5784840389528151611a6b8582611a06565b9450611a7683611a1a565b925060208a01995050600181019050611a52565b50829750879550505050505092915050565b60006020820190508181036000830152611ab68184611a27565b905092915050565b600073ffffffffffffffffffffffffffffffffffffffff82169050919050565b6000611ae982611abe565b9050919050565b611af981611ade565b8114611b0457600080fd5b50565b600081359050611b1681611af0565b92915050565b60008060008060808587031215611b3657611b356114f4565b5b6000611b4487828801611b07565b945050602085013567ffffffffffffffff811115611b6557611b646114f9565b5b611b7187828801611616565b935050604085013567ffffffffffffffff811115611b9257611b916114f9565b5b611b9e87828801611616565b925050606085013567ffffffffffffffff811115611bbf57611bbe6114f9565b5b611bcb87828801611616565b91505092959194509250565b600060208284031215611bed57611bec6114f4565b5b6000611bfb84828501611b07565b91505092915050565b600060208284031215611c1a57611c196114f4565b5b6000611c2884828501611665565b91505092915050565b600082825260208201905092915050565b6000611c4d8261188f565b611c578185611c31565b9350611c678185602086016118ab565b611c7081611508565b840191505092915050565b600061012082019050611c91600083018c61182a565b8181036020830152611ca3818b611c42565b90508181036040830152611cb7818a611c42565b90508181036060830152611ccb8189611c42565b9050611cda608083018861182a565b81810360a0830152611cec8187611c42565b905081810360c0830152611d008186611c42565b905081810360e0830152611d148185611c42565b9050818103610100830152611d298184611c42565b90509a9950505050505050505050565b600081519050919050565b600082825260208201905092915050565b6000819050602082019050919050565b611d6e81611ade565b82525050565b600060a083016000830151611d8c6000860182611880565b506020830151611d9f6020860182611d65565b5060408301518482036040860152611db782826118de565b91505060608301518482036060860152611dd182826118de565b91505060808301518482036080860152611deb82826118de565b9150508091505092915050565b6000611e048383611d74565b905092915050565b6000602082019050919050565b6000611e2482611d39565b611e2e8185611d44565b935083602082028501611e4085611d55565b8060005b85811015611e7c5784840389528151611e5d8582611df8565b9450611e6883611e0c565b925060208a01995050600181019050611e44565b50829750879550505050505092915050565b60006020820190508181036000830152611ea88184611e19565b905092915050565b611eb981611ade565b82525050565b600060a082019050611ed4600083018861182a565b611ee16020830187611eb0565b8181036040830152611ef38186611c42565b90508181036060830152611f078185611c42565b90508181036080830152611f1b8184611c42565b90509695505050505050565b7f4e487b7100000000000000000000000000000000000000000000000000000000600052601160045260246000fd5b6000611f6182611644565b91507fffffffffffffffffffffffffffffffffffffffffffffffffffffffffffffffff821415611f9457611f93611f27565b5b600182019050919050565b6000611faa82611644565b9150611fb583611644565b9250827fffffffffffffffffffffffffffffffffffffffffffffffffffffffffffffffff03821115611fea57611fe9611f27565b5b828201905092915050565b7f4e487b7100000000000000000000000000000000000000000000000000000000600052602260045260246000fd5b6000600282049050600182168061203c57607f821691505b602082108114156120505761204f611ff5565b5b50919050565b7f4e487b7100000000000000000000000000000000000000000000000000000000600052603260045260246000fd5b60008160601b9050919050565b600061209d82612085565b9050919050565b60006120af82612092565b9050919050565b6120c76120c282611ade565b6120a4565b82525050565b60006120d982846120b6565b6014820191508190509291505056fea264697066735822122037952eb4b6779420b448001cc0b215c88a01ee6a7f655e2569aff04981361cfb64736f6c634300080a0033",
  "immutableReferences": {},
  "source": "// SPDX-License-Identifier: MIT\r\npragma solidity >=0.4.22 <0.9.0;\r\n\r\ncontract Patient {\r\n    \r\n    struct structPatient{\r\n        uint id;\r\n        string fullName;\r\n        string dateOfBirth;\r\n        string CNIC;\r\n        uint hospitalId;\r\n        string PhoneNo;\r\n        string email;\r\n        string status;\r\n        string gender;\r\n       // commonMedicalConditions MedicalConditions;\r\n    }\r\n    struct commonMedicalConditions{\r\n        bool AlcoholDependence;\r\n        bool DurgDependence;\r\n        bool SeizureCerebral;\r\n        bool SeizureAlcoholRelated;\r\n        bool HeatDisease;\r\n        bool Blackout;\r\n        bool Stroke;\r\n        bool VisualImpairment;\r\n        bool VisualAcuityImpairment;\r\n        bool VisualFieldImpairment;\r\n        bool Diabetes;\r\n        bool MentalOrEmotionalIllness;\r\n        bool DementiaOrAlzheimer;\r\n        bool SleepApnea;\r\n        bool Narcolesy;\r\n        bool MotorFucntionAbilityImpaired;\r\n        bool Other;\r\n    }\r\n    struct structPatientReport{\r\n        uint reportId;\r\n        address patientAddress;\r\n        string Tittle;\r\n        string Description;\r\n        string Report;\r\n    }\r\n    uint public patientCount = 0;\r\n    uint public reportCount = 0;\r\n\r\n    mapping(uint => structPatient) public Patients;\r\n    mapping(uint => structPatientReport) public PatientReports;\r\n\r\n\r\n    constructor () {\r\n        AddPatient(\"AbdulMoiz\", \"08/05/2025\", \"42401123123123\", 1, \"923142313111\", \"abdulmoiz@gmail.com\", \"healthy\", \"male\");\r\n    }\r\n     function AddPatient( string memory _fullname, string memory _dateOfBirth, string memory _cnic, \r\n                        uint _hospitalId, string memory _phoneNo, string memory _email, string memory _status, string memory _gender) public returns (bool)\r\n    {\r\n            Patients[patientCount] = structPatient( patientCount,_fullname, _dateOfBirth,  _cnic,  _hospitalId, _phoneNo, _email,  _status, _gender); \r\n            patientCount ++;\r\n            return true;\r\n      \r\n    }\r\n    function getAll() public view returns (structPatient[] memory)\r\n    {\r\n        structPatient[] memory hospitalList = new structPatient[](patientCount+1);\r\n        for (uint i = 0; i <patientCount; i++) \r\n        {\r\n            hospitalList[i] = Patients[i];\r\n        }\r\n        return hospitalList;\r\n    }\r\n    function addReport(address _patientAddress, string memory _tittle, string memory _description, string memory _report) public returns (bool) {\r\n            \r\n            PatientReports[reportCount] = structPatientReport(reportCount,_patientAddress, _tittle,  _description,  _report); \r\n            reportCount ++;\r\n            return true;\r\n    }\r\n    function getReport(address _patientAddress) public view returns(structPatientReport[] memory)\r\n    {\r\n        structPatientReport[] memory patientReport = new structPatientReport[](getReportCount(_patientAddress));\r\n        for (uint i = 0; i <patientCount; i++) \r\n        {\r\n             if(keccak256(abi.encodePacked(PatientReports[i].patientAddress)) == keccak256(abi.encodePacked(_patientAddress)))\r\n             {\r\n                patientReport[i] = PatientReports[i];\r\n             }\r\n        }\r\n        return patientReport;\r\n    }\r\n    function getReportCount(address _patientAddress) public view returns(uint) {\r\n       \r\n        uint count = 0;\r\n        for (uint i = 0; i <patientCount; i++) \r\n        {\r\n             if(keccak256(abi.encodePacked(PatientReports[i].patientAddress)) == keccak256(abi.encodePacked(_patientAddress))) count++;\r\n        }\r\n        return count;\r\n    }\r\n}\r\n",
  "sourcePath": "G:\\Projects\\Blockchain\\decentralized-patient-centered-health-records-and-exchange\\contracts\\Patient.sol",
  "compiler": {
    "name": "solc",
    "version": "0.8.10+commit.fc410830.Emscripten.clang"
  },
  "schemaVersion": "3.4.3",
  "updatedAt": "2022-01-21T12:17:56.510Z",
  "networkType": "ethereum",
  "devdoc": {
    "kind": "dev",
    "methods": {},
    "version": 1
  },
  "userdoc": {
    "kind": "user",
    "methods": {},
    "version": 1
  }
}