{
  "contractName": "Patient",
  "abi": [
    {
      "inputs": [],
      "stateMutability": "nonpayable",
      "type": "constructor"
    },
    {
      "inputs": [
        {
          "internalType": "uint256",
          "name": "",
          "type": "uint256"
        }
      ],
      "name": "Patients",
      "outputs": [
        {
          "internalType": "uint256",
          "name": "id",
          "type": "uint256"
        },
        {
          "internalType": "string",
          "name": "fullName",
          "type": "string"
        },
        {
          "internalType": "string",
          "name": "dateOfBirth",
          "type": "string"
        },
        {
          "internalType": "string",
          "name": "CNIC",
          "type": "string"
        },
        {
          "internalType": "uint256",
          "name": "hospitalId",
          "type": "uint256"
        },
        {
          "internalType": "string",
          "name": "PhoneNo",
          "type": "string"
        },
        {
          "internalType": "string",
          "name": "email",
          "type": "string"
        },
        {
          "internalType": "string",
          "name": "status",
          "type": "string"
        },
        {
          "internalType": "string",
          "name": "gender",
          "type": "string"
        }
      ],
      "stateMutability": "view",
      "type": "function",
      "constant": true
    },
    {
      "inputs": [
        {
          "internalType": "string",
          "name": "_fullname",
          "type": "string"
        },
        {
          "internalType": "string",
          "name": "_dateOfBirth",
          "type": "string"
        },
        {
          "internalType": "string",
          "name": "_cnic",
          "type": "string"
        },
        {
          "internalType": "uint256",
          "name": "_hospitalId",
          "type": "uint256"
        },
        {
          "internalType": "string",
          "name": "_phoneNo",
          "type": "string"
        },
        {
          "internalType": "string",
          "name": "_email",
          "type": "string"
        },
        {
          "internalType": "string",
          "name": "_status",
          "type": "string"
        },
        {
          "internalType": "string",
          "name": "_gender",
          "type": "string"
        }
      ],
      "name": "AddPatient",
      "outputs": [
        {
          "internalType": "bool",
          "name": "",
          "type": "bool"
        }
      ],
      "stateMutability": "nonpayable",
      "type": "function"
    },
    {
      "inputs": [],
      "name": "getAll",
      "outputs": [
        {
          "components": [
            {
              "internalType": "uint256",
              "name": "id",
              "type": "uint256"
            },
            {
              "internalType": "string",
              "name": "fullName",
              "type": "string"
            },
            {
              "internalType": "string",
              "name": "dateOfBirth",
              "type": "string"
            },
            {
              "internalType": "string",
              "name": "CNIC",
              "type": "string"
            },
            {
              "internalType": "uint256",
              "name": "hospitalId",
              "type": "uint256"
            },
            {
              "internalType": "string",
              "name": "PhoneNo",
              "type": "string"
            },
            {
              "internalType": "string",
              "name": "email",
              "type": "string"
            },
            {
              "internalType": "string",
              "name": "status",
              "type": "string"
            },
            {
              "internalType": "string",
              "name": "gender",
              "type": "string"
            }
          ],
          "internalType": "struct Patient.structPatient[]",
          "name": "",
          "type": "tuple[]"
        }
      ],
      "stateMutability": "view",
      "type": "function",
      "constant": true
    }
  ],
  "bytecode": "0x6080604052600080553480156200001557600080fd5b50620001a26040518060400160405280600981526020017f416264756c4d6f697a00000000000000000000000000000000000000000000008152506040518060400160405280600a81526020017f30382f30352f32303235000000000000000000000000000000000000000000008152506040518060400160405280600e81526020017f343234303131323331323331323300000000000000000000000000000000000081525060016040518060400160405280600c81526020017f39323331343233313331313100000000000000000000000000000000000000008152506040518060400160405280601381526020017f616264756c6d6f697a40676d61696c2e636f6d000000000000000000000000008152506040518060400160405280600781526020017f6865616c746879000000000000000000000000000000000000000000000000008152506040518060400160405280600481526020017f6d616c6500000000000000000000000000000000000000000000000000000000815250620001a960201b60201c565b50620004b7565b600060405180610120016040528060005481526020018a8152602001898152602001888152602001878152602001868152602001858152602001848152602001838152506001600080548152602001908152602001600020600082015181600001556020820151816001019080519060200190620002299291906200031b565b506040820151816002019080519060200190620002489291906200031b565b506060820151816003019080519060200190620002679291906200031b565b506080820151816004015560a0820151816005019080519060200190620002909291906200031b565b5060c0820151816006019080519060200190620002af9291906200031b565b5060e0820151816007019080519060200190620002ce9291906200031b565b50610100820151816008019080519060200190620002ee9291906200031b565b50905050600080815480929190620003069062000404565b91905055506001905098975050505050505050565b828054620003299062000481565b90600052602060002090601f0160209004810192826200034d576000855562000399565b82601f106200036857805160ff191683800117855562000399565b8280016001018555821562000399579182015b82811115620003985782518255916020019190600101906200037b565b5b509050620003a89190620003ac565b5090565b5b80821115620003c7576000816000905550600101620003ad565b5090565b7f4e487b7100000000000000000000000000000000000000000000000000000000600052601160045260246000fd5b6000819050919050565b60006200041182620003fa565b91507fffffffffffffffffffffffffffffffffffffffffffffffffffffffffffffffff821415620004475762000446620003cb565b5b600182019050919050565b7f4e487b7100000000000000000000000000000000000000000000000000000000600052602260045260246000fd5b600060028204905060018216806200049a57607f821691505b60208210811415620004b157620004b062000452565b5b50919050565b61148380620004c76000396000f3fe608060405234801561001057600080fd5b50600436106100405760003560e01c80620c0bc21461004557806353ed514314610075578063a198283514610093575b600080fd5b61005f600480360381019061005a9190610d91565b6100cb565b60405161006c9190610f26565b60405180910390f35b61007d61022d565b60405161008a9190611189565b60405180910390f35b6100ad60048036038101906100a891906111ab565b61070c565b6040516100c299989796959493929190611231565b60405180910390f35b600060405180610120016040528060005481526020018a8152602001898152602001888152602001878152602001868152602001858152602001848152602001838152506001600080548152602001908152602001600020600082015181600001556020820151816001019080519060200190610149929190610b12565b506040820151816002019080519060200190610166929190610b12565b506060820151816003019080519060200190610183929190610b12565b506080820151816004015560a08201518160050190805190602001906101aa929190610b12565b5060c08201518160060190805190602001906101c7929190610b12565b5060e08201518160070190805190602001906101e4929190610b12565b50610100820151816008019080519060200190610202929190610b12565b509050506000808154809291906102189061131e565b91905055506001905098975050505050505050565b6060600060016000546102409190611367565b67ffffffffffffffff81111561025957610258610c30565b5b60405190808252806020026020018201604052801561029257816020015b61027f610b98565b8152602001906001900390816102775790505b50905060005b600054811015610704576001600082815260200190815260200160002060405180610120016040529081600082015481526020016001820180546102db906113ec565b80601f0160208091040260200160405190810160405280929190818152602001828054610307906113ec565b80156103545780601f1061032957610100808354040283529160200191610354565b820191906000526020600020905b81548152906001019060200180831161033757829003601f168201915b5050505050815260200160028201805461036d906113ec565b80601f0160208091040260200160405190810160405280929190818152602001828054610399906113ec565b80156103e65780601f106103bb576101008083540402835291602001916103e6565b820191906000526020600020905b8154815290600101906020018083116103c957829003601f168201915b505050505081526020016003820180546103ff906113ec565b80601f016020809104026020016040519081016040528092919081815260200182805461042b906113ec565b80156104785780601f1061044d57610100808354040283529160200191610478565b820191906000526020600020905b81548152906001019060200180831161045b57829003601f168201915b505050505081526020016004820154815260200160058201805461049b906113ec565b80601f01602080910402602001604051908101604052809291908181526020018280546104c7906113ec565b80156105145780601f106104e957610100808354040283529160200191610514565b820191906000526020600020905b8154815290600101906020018083116104f757829003601f168201915b5050505050815260200160068201805461052d906113ec565b80601f0160208091040260200160405190810160405280929190818152602001828054610559906113ec565b80156105a65780601f1061057b576101008083540402835291602001916105a6565b820191906000526020600020905b81548152906001019060200180831161058957829003601f168201915b505050505081526020016007820180546105bf906113ec565b80601f01602080910402602001604051908101604052809291908181526020018280546105eb906113ec565b80156106385780601f1061060d57610100808354040283529160200191610638565b820191906000526020600020905b81548152906001019060200180831161061b57829003601f168201915b50505050508152602001600882018054610651906113ec565b80601f016020809104026020016040519081016040528092919081815260200182805461067d906113ec565b80156106ca5780601f1061069f576101008083540402835291602001916106ca565b820191906000526020600020905b8154815290600101906020018083116106ad57829003601f168201915b5050505050815250508282815181106106e6576106e561141e565b5b602002602001018190525080806106fc9061131e565b915050610298565b508091505090565b6001602052806000526040600020600091509050806000015490806001018054610735906113ec565b80601f0160208091040260200160405190810160405280929190818152602001828054610761906113ec565b80156107ae5780601f10610783576101008083540402835291602001916107ae565b820191906000526020600020905b81548152906001019060200180831161079157829003601f168201915b5050505050908060020180546107c3906113ec565b80601f01602080910402602001604051908101604052809291908181526020018280546107ef906113ec565b801561083c5780601f106108115761010080835404028352916020019161083c565b820191906000526020600020905b81548152906001019060200180831161081f57829003601f168201915b505050505090806003018054610851906113ec565b80601f016020809104026020016040519081016040528092919081815260200182805461087d906113ec565b80156108ca5780601f1061089f576101008083540402835291602001916108ca565b820191906000526020600020905b8154815290600101906020018083116108ad57829003601f168201915b5050505050908060040154908060050180546108e5906113ec565b80601f0160208091040260200160405190810160405280929190818152602001828054610911906113ec565b801561095e5780601f106109335761010080835404028352916020019161095e565b820191906000526020600020905b81548152906001019060200180831161094157829003601f168201915b505050505090806006018054610973906113ec565b80601f016020809104026020016040519081016040528092919081815260200182805461099f906113ec565b80156109ec5780601f106109c1576101008083540402835291602001916109ec565b820191906000526020600020905b8154815290600101906020018083116109cf57829003601f168201915b505050505090806007018054610a01906113ec565b80601f0160208091040260200160405190810160405280929190818152602001828054610a2d906113ec565b8015610a7a5780601f10610a4f57610100808354040283529160200191610a7a565b820191906000526020600020905b815481529060010190602001808311610a5d57829003601f168201915b505050505090806008018054610a8f906113ec565b80601f0160208091040260200160405190810160405280929190818152602001828054610abb906113ec565b8015610b085780601f10610add57610100808354040283529160200191610b08565b820191906000526020600020905b815481529060010190602001808311610aeb57829003601f168201915b5050505050905089565b828054610b1e906113ec565b90600052602060002090601f016020900481019282610b405760008555610b87565b82601f10610b5957805160ff1916838001178555610b87565b82800160010185558215610b87579182015b82811115610b86578251825591602001919060010190610b6b565b5b509050610b949190610be4565b5090565b6040518061012001604052806000815260200160608152602001606081526020016060815260200160008152602001606081526020016060815260200160608152602001606081525090565b5b80821115610bfd576000816000905550600101610be5565b5090565b6000604051905090565b600080fd5b600080fd5b600080fd5b600080fd5b6000601f19601f8301169050919050565b7f4e487b7100000000000000000000000000000000000000000000000000000000600052604160045260246000fd5b610c6882610c1f565b810181811067ffffffffffffffff82111715610c8757610c86610c30565b5b80604052505050565b6000610c9a610c01565b9050610ca68282610c5f565b919050565b600067ffffffffffffffff821115610cc657610cc5610c30565b5b610ccf82610c1f565b9050602081019050919050565b82818337600083830152505050565b6000610cfe610cf984610cab565b610c90565b905082815260208101848484011115610d1a57610d19610c1a565b5b610d25848285610cdc565b509392505050565b600082601f830112610d4257610d41610c15565b5b8135610d52848260208601610ceb565b91505092915050565b6000819050919050565b610d6e81610d5b565b8114610d7957600080fd5b50565b600081359050610d8b81610d65565b92915050565b600080600080600080600080610100898b031215610db257610db1610c0b565b5b600089013567ffffffffffffffff811115610dd057610dcf610c10565b5b610ddc8b828c01610d2d565b985050602089013567ffffffffffffffff811115610dfd57610dfc610c10565b5b610e098b828c01610d2d565b975050604089013567ffffffffffffffff811115610e2a57610e29610c10565b5b610e368b828c01610d2d565b9650506060610e478b828c01610d7c565b955050608089013567ffffffffffffffff811115610e6857610e67610c10565b5b610e748b828c01610d2d565b94505060a089013567ffffffffffffffff811115610e9557610e94610c10565b5b610ea18b828c01610d2d565b93505060c089013567ffffffffffffffff811115610ec257610ec1610c10565b5b610ece8b828c01610d2d565b92505060e089013567ffffffffffffffff811115610eef57610eee610c10565b5b610efb8b828c01610d2d565b9150509295985092959890939650565b60008115159050919050565b610f2081610f0b565b82525050565b6000602082019050610f3b6000830184610f17565b92915050565b600081519050919050565b600082825260208201905092915050565b6000819050602082019050919050565b610f7681610d5b565b82525050565b600081519050919050565b600082825260208201905092915050565b60005b83811015610fb6578082015181840152602081019050610f9b565b83811115610fc5576000848401525b50505050565b6000610fd682610f7c565b610fe08185610f87565b9350610ff0818560208601610f98565b610ff981610c1f565b840191505092915050565b60006101208301600083015161101d6000860182610f6d565b50602083015184820360208601526110358282610fcb565b9150506040830151848203604086015261104f8282610fcb565b915050606083015184820360608601526110698282610fcb565b915050608083015161107e6080860182610f6d565b5060a083015184820360a08601526110968282610fcb565b91505060c083015184820360c08601526110b08282610fcb565b91505060e083015184820360e08601526110ca8282610fcb565b9150506101008301518482036101008601526110e68282610fcb565b9150508091505092915050565b60006110ff8383611004565b905092915050565b6000602082019050919050565b600061111f82610f41565b6111298185610f4c565b93508360208202850161113b85610f5d565b8060005b85811015611177578484038952815161115885826110f3565b945061116383611107565b925060208a0199505060018101905061113f565b50829750879550505050505092915050565b600060208201905081810360008301526111a38184611114565b905092915050565b6000602082840312156111c1576111c0610c0b565b5b60006111cf84828501610d7c565b91505092915050565b6111e181610d5b565b82525050565b600082825260208201905092915050565b600061120382610f7c565b61120d81856111e7565b935061121d818560208601610f98565b61122681610c1f565b840191505092915050565b600061012082019050611247600083018c6111d8565b8181036020830152611259818b6111f8565b9050818103604083015261126d818a6111f8565b9050818103606083015261128181896111f8565b905061129060808301886111d8565b81810360a08301526112a281876111f8565b905081810360c08301526112b681866111f8565b905081810360e08301526112ca81856111f8565b90508181036101008301526112df81846111f8565b90509a9950505050505050505050565b7f4e487b7100000000000000000000000000000000000000000000000000000000600052601160045260246000fd5b600061132982610d5b565b91507fffffffffffffffffffffffffffffffffffffffffffffffffffffffffffffffff82141561135c5761135b6112ef565b5b600182019050919050565b600061137282610d5b565b915061137d83610d5b565b9250827fffffffffffffffffffffffffffffffffffffffffffffffffffffffffffffffff038211156113b2576113b16112ef565b5b828201905092915050565b7f4e487b7100000000000000000000000000000000000000000000000000000000600052602260045260246000fd5b6000600282049050600182168061140457607f821691505b60208210811415611418576114176113bd565b5b50919050565b7f4e487b7100000000000000000000000000000000000000000000000000000000600052603260045260246000fdfea2646970667358221220317874e4eaf377b257282885c25e45e87dff2645d0eb979a9b0661924e60999e64736f6c634300080a0033",
  "immutableReferences": {},
  "source": "// SPDX-License-Identifier: MIT\r\npragma solidity >=0.4.22 <0.9.0;\r\n\r\ncontract Patient {\r\n    \r\n    struct structPatient{\r\n        uint id;\r\n        string fullName;\r\n        string dateOfBirth;\r\n        string CNIC;\r\n        uint hospitalId;\r\n        string PhoneNo;\r\n        string email;\r\n        string status;\r\n        string gender;\r\n       // commonMedicalConditions MedicalConditions;\r\n    }\r\n    struct commonMedicalConditions{\r\n        bool AlcoholDependence;\r\n        bool DurgDependence;\r\n        bool SeizureCerebral;\r\n        bool SeizureAlcoholRelated;\r\n        bool HeatDisease;\r\n        bool Blackout;\r\n        bool Stroke;\r\n        bool VisualImpairment;\r\n        bool VisualAcuityImpairment;\r\n        bool VisualFieldImpairment;\r\n        bool Diabetes;\r\n        bool MentalOrEmotionalIllness;\r\n        bool DementiaOrAlzheimer;\r\n        bool SleepApnea;\r\n        bool Narcolesy;\r\n        bool MotorFucntionAbilityImpaired;\r\n        bool Other;\r\n    }\r\n    uint patientCount =0;\r\n    mapping(uint => structPatient) public Patients;\r\n\r\n    constructor () {\r\n        AddPatient(\"AbdulMoiz\", \"08/05/2025\", \"42401123123123\", 1, \"923142313111\", \"abdulmoiz@gmail.com\", \"healthy\", \"male\");\r\n    }\r\n     function AddPatient( string memory _fullname, string memory _dateOfBirth, string memory _cnic, \r\n                        uint _hospitalId, string memory _phoneNo, string memory _email, string memory _status, string memory _gender) public returns (bool)\r\n    {\r\n            Patients[patientCount] = structPatient( patientCount,_fullname, _dateOfBirth,  _cnic,  _hospitalId, _phoneNo, _email,  _status, _gender); \r\n            patientCount ++;\r\n            return true;\r\n      \r\n    }\r\n    function getAll() public view returns (structPatient[] memory)\r\n    {\r\n        structPatient[] memory hospitalList = new structPatient[](patientCount+1);\r\n        for (uint i = 0; i <patientCount; i++) \r\n        {\r\n            hospitalList[i] = Patients[i];\r\n        }\r\n        return hospitalList;\r\n    }\r\n}\r\n",
  "sourcePath": "G:\\Projects\\Blockchain\\decentralized-patient-centered-health-records-and-exchange\\contracts\\Patient.sol",
  "compiler": {
    "name": "solc",
    "version": "0.8.10+commit.fc410830.Emscripten.clang"
  },
  "schemaVersion": "3.4.3",
  "updatedAt": "2022-01-06T12:13:32.292Z",
  "networkType": "ethereum",
  "devdoc": {
    "kind": "dev",
    "methods": {},
    "version": 1
  },
  "userdoc": {
    "kind": "user",
    "methods": {},
    "version": 1
  }
}