{
  "contractName": "Patient",
  "abi": [
    {
      "inputs": [],
      "stateMutability": "nonpayable",
      "type": "constructor"
    },
    {
      "inputs": [
        {
          "internalType": "uint256",
          "name": "",
          "type": "uint256"
        }
      ],
      "name": "MedicalConditions",
      "outputs": [
        {
          "internalType": "bool",
          "name": "AlcoholOrDrugDependence",
          "type": "bool"
        },
        {
          "internalType": "bool",
          "name": "Seizure",
          "type": "bool"
        },
        {
          "internalType": "bool",
          "name": "HeartDisease",
          "type": "bool"
        },
        {
          "internalType": "bool",
          "name": "Blackout",
          "type": "bool"
        },
        {
          "internalType": "bool",
          "name": "Stroke",
          "type": "bool"
        },
        {
          "internalType": "bool",
          "name": "VisualFieldOrAcuityImpairment",
          "type": "bool"
        },
        {
          "internalType": "bool",
          "name": "Diabetes",
          "type": "bool"
        },
        {
          "internalType": "bool",
          "name": "MentalOrEmotionalIllness",
          "type": "bool"
        },
        {
          "internalType": "bool",
          "name": "DementiaOrAlzheimer",
          "type": "bool"
        },
        {
          "internalType": "bool",
          "name": "SleepApneaOrNarcolepsy",
          "type": "bool"
        },
        {
          "internalType": "string",
          "name": "other",
          "type": "string"
        }
      ],
      "stateMutability": "view",
      "type": "function",
      "constant": true
    },
    {
      "inputs": [
        {
          "internalType": "uint256",
          "name": "",
          "type": "uint256"
        }
      ],
      "name": "PatientReports",
      "outputs": [
        {
          "internalType": "uint256",
          "name": "reportId",
          "type": "uint256"
        },
        {
          "internalType": "address",
          "name": "patientAddress",
          "type": "address"
        },
        {
          "internalType": "string",
          "name": "Title",
          "type": "string"
        },
        {
          "internalType": "string",
          "name": "Description",
          "type": "string"
        },
        {
          "internalType": "string",
          "name": "Report",
          "type": "string"
        }
      ],
      "stateMutability": "view",
      "type": "function",
      "constant": true
    },
    {
      "inputs": [
        {
          "internalType": "uint256",
          "name": "",
          "type": "uint256"
        }
      ],
      "name": "Patients",
      "outputs": [
        {
          "internalType": "uint256",
          "name": "id",
          "type": "uint256"
        },
        {
          "internalType": "string",
          "name": "fullName",
          "type": "string"
        },
        {
          "internalType": "string",
          "name": "dateOfBirth",
          "type": "string"
        },
        {
          "internalType": "string",
          "name": "CNIC",
          "type": "string"
        },
        {
          "internalType": "string",
          "name": "creatorAddress",
          "type": "string"
        },
        {
          "internalType": "string",
          "name": "PhoneNo",
          "type": "string"
        },
        {
          "internalType": "string",
          "name": "email",
          "type": "string"
        },
        {
          "internalType": "string",
          "name": "status",
          "type": "string"
        },
        {
          "internalType": "string",
          "name": "gender",
          "type": "string"
        },
        {
          "internalType": "address",
          "name": "accountAddress",
          "type": "address"
        },
        {
          "internalType": "uint256",
          "name": "dateCreated",
          "type": "uint256"
        }
      ],
      "stateMutability": "view",
      "type": "function",
      "constant": true
    },
    {
      "inputs": [],
      "name": "currentId",
      "outputs": [
        {
          "internalType": "uint256",
          "name": "",
          "type": "uint256"
        }
      ],
      "stateMutability": "view",
      "type": "function",
      "constant": true
    },
    {
      "inputs": [],
      "name": "patientCount",
      "outputs": [
        {
          "internalType": "uint256",
          "name": "",
          "type": "uint256"
        }
      ],
      "stateMutability": "view",
      "type": "function",
      "constant": true
    },
    {
      "inputs": [],
      "name": "reportCount",
      "outputs": [
        {
          "internalType": "uint256",
          "name": "",
          "type": "uint256"
        }
      ],
      "stateMutability": "view",
      "type": "function",
      "constant": true
    },
    {
      "inputs": [
        {
          "internalType": "string",
          "name": "_fullName",
          "type": "string"
        },
        {
          "internalType": "string",
          "name": "_dateOfBirth",
          "type": "string"
        },
        {
          "internalType": "string",
          "name": "_cnic",
          "type": "string"
        },
        {
          "internalType": "string",
          "name": "_hospitalId",
          "type": "string"
        },
        {
          "internalType": "string",
          "name": "_phoneNo",
          "type": "string"
        },
        {
          "internalType": "string",
          "name": "_email",
          "type": "string"
        },
        {
          "internalType": "string",
          "name": "_status",
          "type": "string"
        },
        {
          "internalType": "string",
          "name": "_gender",
          "type": "string"
        },
        {
          "internalType": "address",
          "name": "_accountAddress",
          "type": "address"
        }
      ],
      "name": "AddPatient",
      "outputs": [
        {
          "internalType": "bool",
          "name": "",
          "type": "bool"
        }
      ],
      "stateMutability": "nonpayable",
      "type": "function"
    },
    {
      "inputs": [
        {
          "internalType": "bool",
          "name": "_dependence",
          "type": "bool"
        },
        {
          "internalType": "bool",
          "name": "_seizure",
          "type": "bool"
        },
        {
          "internalType": "bool",
          "name": "_heartDisease",
          "type": "bool"
        },
        {
          "internalType": "bool",
          "name": "_blackout",
          "type": "bool"
        },
        {
          "internalType": "bool",
          "name": "_stroke",
          "type": "bool"
        },
        {
          "internalType": "bool",
          "name": "_VFAI",
          "type": "bool"
        },
        {
          "internalType": "bool",
          "name": "_diabetes",
          "type": "bool"
        },
        {
          "internalType": "bool",
          "name": "_mentalIllness",
          "type": "bool"
        },
        {
          "internalType": "bool",
          "name": "_dementia",
          "type": "bool"
        },
        {
          "internalType": "bool",
          "name": "_sleepApneaOrNarcolepsy",
          "type": "bool"
        },
        {
          "internalType": "string",
          "name": "_other",
          "type": "string"
        }
      ],
      "name": "AddMedicalCondition",
      "outputs": [
        {
          "internalType": "bool",
          "name": "",
          "type": "bool"
        }
      ],
      "stateMutability": "nonpayable",
      "type": "function"
    },
    {
      "inputs": [],
      "name": "getPatientCount",
      "outputs": [
        {
          "internalType": "uint256",
          "name": "",
          "type": "uint256"
        }
      ],
      "stateMutability": "view",
      "type": "function",
      "constant": true
    },
    {
      "inputs": [
        {
          "internalType": "uint256",
          "name": "id",
          "type": "uint256"
        }
      ],
      "name": "getPatientNameAddress",
      "outputs": [
        {
          "internalType": "string",
          "name": "",
          "type": "string"
        },
        {
          "internalType": "address",
          "name": "",
          "type": "address"
        }
      ],
      "stateMutability": "view",
      "type": "function",
      "constant": true
    },
    {
      "inputs": [
        {
          "internalType": "address",
          "name": "_patientAddress",
          "type": "address"
        },
        {
          "internalType": "string",
          "name": "_tittle",
          "type": "string"
        },
        {
          "internalType": "string",
          "name": "_description",
          "type": "string"
        },
        {
          "internalType": "string",
          "name": "_report",
          "type": "string"
        }
      ],
      "name": "addReport",
      "outputs": [
        {
          "internalType": "bool",
          "name": "",
          "type": "bool"
        }
      ],
      "stateMutability": "nonpayable",
      "type": "function"
    },
    {
      "inputs": [
        {
          "internalType": "address",
          "name": "_patientAddress",
          "type": "address"
        }
      ],
      "name": "getReport",
      "outputs": [
        {
          "components": [
            {
              "internalType": "uint256",
              "name": "reportId",
              "type": "uint256"
            },
            {
              "internalType": "address",
              "name": "patientAddress",
              "type": "address"
            },
            {
              "internalType": "string",
              "name": "Title",
              "type": "string"
            },
            {
              "internalType": "string",
              "name": "Description",
              "type": "string"
            },
            {
              "internalType": "string",
              "name": "Report",
              "type": "string"
            }
          ],
          "internalType": "struct Patient.structPatientReport[]",
          "name": "",
          "type": "tuple[]"
        }
      ],
      "stateMutability": "view",
      "type": "function",
      "constant": true
    },
    {
      "inputs": [
        {
          "internalType": "address",
          "name": "_patientAddress",
          "type": "address"
        }
      ],
      "name": "getReportCount",
      "outputs": [
        {
          "internalType": "uint256",
          "name": "",
          "type": "uint256"
        }
      ],
      "stateMutability": "view",
      "type": "function",
      "constant": true
    },
    {
      "inputs": [
        {
          "internalType": "address",
          "name": "_address",
          "type": "address"
        }
      ],
      "name": "getPatient",
      "outputs": [
        {
          "internalType": "string",
          "name": "",
          "type": "string"
        },
        {
          "internalType": "string",
          "name": "",
          "type": "string"
        },
        {
          "internalType": "string",
          "name": "",
          "type": "string"
        },
        {
          "internalType": "string",
          "name": "",
          "type": "string"
        },
        {
          "internalType": "string",
          "name": "",
          "type": "string"
        },
        {
          "internalType": "string",
          "name": "",
          "type": "string"
        },
        {
          "internalType": "string",
          "name": "",
          "type": "string"
        },
        {
          "internalType": "uint256",
          "name": "id",
          "type": "uint256"
        },
        {
          "internalType": "string",
          "name": "",
          "type": "string"
        },
        {
          "internalType": "uint256",
          "name": "",
          "type": "uint256"
        }
      ],
      "stateMutability": "view",
      "type": "function",
      "constant": true
    },
    {
      "inputs": [
        {
          "internalType": "uint256",
          "name": "id",
          "type": "uint256"
        }
      ],
      "name": "getPatientConditions",
      "outputs": [
        {
          "internalType": "bool",
          "name": "",
          "type": "bool"
        },
        {
          "internalType": "bool",
          "name": "",
          "type": "bool"
        },
        {
          "internalType": "bool",
          "name": "",
          "type": "bool"
        },
        {
          "internalType": "bool",
          "name": "",
          "type": "bool"
        },
        {
          "internalType": "bool",
          "name": "",
          "type": "bool"
        },
        {
          "internalType": "bool",
          "name": "",
          "type": "bool"
        },
        {
          "internalType": "bool",
          "name": "",
          "type": "bool"
        },
        {
          "internalType": "bool",
          "name": "",
          "type": "bool"
        },
        {
          "internalType": "bool",
          "name": "",
          "type": "bool"
        },
        {
          "internalType": "bool",
          "name": "",
          "type": "bool"
        },
        {
          "internalType": "string",
          "name": "",
          "type": "string"
        }
      ],
      "stateMutability": "view",
      "type": "function",
      "constant": true
    },
    {
      "inputs": [
        {
          "internalType": "string",
          "name": "_id",
          "type": "string"
        },
        {
          "internalType": "string",
          "name": "_name",
          "type": "string"
        },
        {
          "internalType": "string",
          "name": "_dob",
          "type": "string"
        },
        {
          "internalType": "string",
          "name": "_cnic",
          "type": "string"
        },
        {
          "internalType": "string",
          "name": "_number",
          "type": "string"
        },
        {
          "internalType": "string",
          "name": "_email",
          "type": "string"
        },
        {
          "internalType": "string",
          "name": "_status",
          "type": "string"
        },
        {
          "internalType": "string",
          "name": "_gender",
          "type": "string"
        }
      ],
      "name": "updatePatient",
      "outputs": [
        {
          "internalType": "bool",
          "name": "",
          "type": "bool"
        }
      ],
      "stateMutability": "nonpayable",
      "type": "function"
    },
    {
      "inputs": [
        {
          "internalType": "bool",
          "name": "_dependence",
          "type": "bool"
        },
        {
          "internalType": "bool",
          "name": "_seizure",
          "type": "bool"
        },
        {
          "internalType": "bool",
          "name": "_heartDisease",
          "type": "bool"
        },
        {
          "internalType": "bool",
          "name": "_blackout",
          "type": "bool"
        },
        {
          "internalType": "bool",
          "name": "_stroke",
          "type": "bool"
        },
        {
          "internalType": "bool",
          "name": "_VFAI",
          "type": "bool"
        },
        {
          "internalType": "bool",
          "name": "_diabetes",
          "type": "bool"
        },
        {
          "internalType": "bool",
          "name": "_mentalIllness",
          "type": "bool"
        },
        {
          "internalType": "bool",
          "name": "_dementia",
          "type": "bool"
        },
        {
          "internalType": "bool",
          "name": "_sleepApneaOrNarcolepsy",
          "type": "bool"
        },
        {
          "internalType": "string",
          "name": "_other",
          "type": "string"
        }
      ],
      "name": "updateConditions",
      "outputs": [
        {
          "internalType": "bool",
          "name": "",
          "type": "bool"
        }
      ],
      "stateMutability": "nonpayable",
      "type": "function"
    }
  ],
  "bytecode": "0x6080604052600080556000600155600060025534801561001e57600080fd5b506133298061002e6000396000f3fe608060405234801561001057600080fd5b506004361061010b5760003560e01c8063a3bdae3e116100a2578063c22b5bb611610071578063c22b5bb614610338578063e00dd1611461036c578063fcc420791461038a578063fdf023a6146103ba578063fe0d3dec146103f45761010b565b8063a3bdae3e14610281578063a55f363e146102b1578063b5368e20146102e1578063c190665b1461031a5761010b565b806389c2e7c7116100de57806389c2e7c7146101bf5780639e22a893146101f9578063a0303c4114610229578063a1982835146102475761010b565b8063185c6f841461011057806319674c521461012e5780633331f46b1461015e57806371f2d08c1461018f575b600080fd5b610118610424565b604051610125919061239b565b60405180910390f35b61014860048036038101906101439190612510565b61042a565b60405161015591906126c1565b60405180910390f35b61017860048036038101906101739190612708565b6105c7565b6040516101869291906127fe565b60405180910390f35b6101a960048036038101906101a4919061285a565b6106ad565b6040516101b691906126c1565b60405180910390f35b6101d960048036038101906101d49190612708565b6107d2565b6040516101f09b9a99989796959493929190612915565b60405180910390f35b610213600480360381019061020e91906129c7565b610936565b604051610220919061239b565b60405180910390f35b610231610a00565b60405161023e919061239b565b60405180910390f35b610261600480360381019061025c9190612708565b610a06565b6040516102789b9a999897969594939291906129f4565b60405180910390f35b61029b600480360381019061029691906129c7565b610ec0565b6040516102a89190612c85565b60405180910390f35b6102cb60048036038101906102c69190612cd3565b611229565b6040516102d891906126c1565b60405180910390f35b6102fb60048036038101906102f691906129c7565b611390565b6040516103119a99989796959493929190612de3565b60405180910390f35b6103226119e3565b60405161032f919061239b565b60405180910390f35b610352600480360381019061034d9190612708565b6119ec565b604051610363959493929190612eb7565b60405180910390f35b610374611bda565b604051610381919061239b565b60405180910390f35b6103a4600480360381019061039f9190612f1f565b611be0565b6040516103b191906126c1565b60405180910390f35b6103d460048036038101906103cf9190612708565b611df3565b6040516103eb9b9a99989796959493929190612915565b60405180910390f35b61040e60048036038101906104099190612cd3565b612027565b60405161041b91906126c1565b60405180910390f35b60015481565b600080600090505b6000548110156105b5578960405160200161044d9190613105565b604051602081830303815290604052805190602001206003600083815260200190815260200160002060090160009054906101000a900473ffffffffffffffffffffffffffffffffffffffff166040516020016104aa9190613164565b6040516020818303038152906040528051906020012014156105a2576000600360008381526020019081526020016000209050898160010190805190602001906104f592919061222a565b508881600201908051906020019061050e92919061222a565b508781600301908051906020019061052792919061222a565b508681600501908051906020019061054092919061222a565b508581600601908051906020019061055992919061222a565b508481600701908051906020019061057292919061222a565b508381600801908051906020019061058b92919061222a565b5080600001546002819055506001925050506105bb565b80806105ad906131ae565b915050610432565b50600090505b98975050505050505050565b60606000600360008481526020019081526020016000206001016003600085815260200190815260200160002060090160009054906101000a900473ffffffffffffffffffffffffffffffffffffffff1681805461062490613226565b80601f016020809104026020016040519081016040528092919081815260200182805461065090613226565b801561069d5780601f106106725761010080835404028352916020019161069d565b820191906000526020600020905b81548152906001019060200180831161068057829003601f168201915b5050505050915091509150915091565b60006040518060a0016040528060015481526020018673ffffffffffffffffffffffffffffffffffffffff168152602001858152602001848152602001838152506005600060015481526020019081526020016000206000820151816000015560208201518160010160006101000a81548173ffffffffffffffffffffffffffffffffffffffff021916908373ffffffffffffffffffffffffffffffffffffffff160217905550604082015181600201908051906020019061077092919061222a565b50606082015181600301908051906020019061078d92919061222a565b5060808201518160040190805190602001906107aa92919061222a565b50905050600160008154809291906107c1906131ae565b919050555060019050949350505050565b60046020528060005260406000206000915090508060000160009054906101000a900460ff16908060000160019054906101000a900460ff16908060000160029054906101000a900460ff16908060000160039054906101000a900460ff16908060000160049054906101000a900460ff16908060000160059054906101000a900460ff16908060000160069054906101000a900460ff16908060000160079054906101000a900460ff16908060000160089054906101000a900460ff16908060000160099054906101000a900460ff16908060010180546108b390613226565b80601f01602080910402602001604051908101604052809291908181526020018280546108df90613226565b801561092c5780601f106109015761010080835404028352916020019161092c565b820191906000526020600020905b81548152906001019060200180831161090f57829003601f168201915b505050505090508b565b6000806000905060005b6000548110156109f6578360405160200161095b9190613164565b604051602081830303815290604052805190602001206005600083815260200190815260200160002060010160009054906101000a900473ffffffffffffffffffffffffffffffffffffffff166040516020016109b89190613164565b6040516020818303038152906040528051906020012014156109e35781806109df906131ae565b9250505b80806109ee906131ae565b915050610940565b5080915050919050565b60005481565b6003602052806000526040600020600091509050806000015490806001018054610a2f90613226565b80601f0160208091040260200160405190810160405280929190818152602001828054610a5b90613226565b8015610aa85780601f10610a7d57610100808354040283529160200191610aa8565b820191906000526020600020905b815481529060010190602001808311610a8b57829003601f168201915b505050505090806002018054610abd90613226565b80601f0160208091040260200160405190810160405280929190818152602001828054610ae990613226565b8015610b365780601f10610b0b57610100808354040283529160200191610b36565b820191906000526020600020905b815481529060010190602001808311610b1957829003601f168201915b505050505090806003018054610b4b90613226565b80601f0160208091040260200160405190810160405280929190818152602001828054610b7790613226565b8015610bc45780601f10610b9957610100808354040283529160200191610bc4565b820191906000526020600020905b815481529060010190602001808311610ba757829003601f168201915b505050505090806004018054610bd990613226565b80601f0160208091040260200160405190810160405280929190818152602001828054610c0590613226565b8015610c525780601f10610c2757610100808354040283529160200191610c52565b820191906000526020600020905b815481529060010190602001808311610c3557829003601f168201915b505050505090806005018054610c6790613226565b80601f0160208091040260200160405190810160405280929190818152602001828054610c9390613226565b8015610ce05780601f10610cb557610100808354040283529160200191610ce0565b820191906000526020600020905b815481529060010190602001808311610cc357829003601f168201915b505050505090806006018054610cf590613226565b80601f0160208091040260200160405190810160405280929190818152602001828054610d2190613226565b8015610d6e5780601f10610d4357610100808354040283529160200191610d6e565b820191906000526020600020905b815481529060010190602001808311610d5157829003601f168201915b505050505090806007018054610d8390613226565b80601f0160208091040260200160405190810160405280929190818152602001828054610daf90613226565b8015610dfc5780601f10610dd157610100808354040283529160200191610dfc565b820191906000526020600020905b815481529060010190602001808311610ddf57829003601f168201915b505050505090806008018054610e1190613226565b80601f0160208091040260200160405190810160405280929190818152602001828054610e3d90613226565b8015610e8a5780601f10610e5f57610100808354040283529160200191610e8a565b820191906000526020600020905b815481529060010190602001808311610e6d57829003601f168201915b5050505050908060090160009054906101000a900473ffffffffffffffffffffffffffffffffffffffff169080600a015490508b565b60606000610ecd83610936565b67ffffffffffffffff811115610ee657610ee56123e5565b5b604051908082528060200260200182016040528015610f1f57816020015b610f0c6122b0565b815260200190600190039081610f045790505b50905060005b60005481101561121f5783604051602001610f409190613164565b604051602081830303815290604052805190602001206005600083815260200190815260200160002060010160009054906101000a900473ffffffffffffffffffffffffffffffffffffffff16604051602001610f9d9190613164565b60405160208183030381529060405280519060200120141561120c57600560008281526020019081526020016000206040518060a0016040529081600082015481526020016001820160009054906101000a900473ffffffffffffffffffffffffffffffffffffffff1673ffffffffffffffffffffffffffffffffffffffff1673ffffffffffffffffffffffffffffffffffffffff16815260200160028201805461104790613226565b80601f016020809104026020016040519081016040528092919081815260200182805461107390613226565b80156110c05780601f10611095576101008083540402835291602001916110c0565b820191906000526020600020905b8154815290600101906020018083116110a357829003601f168201915b505050505081526020016003820180546110d990613226565b80601f016020809104026020016040519081016040528092919081815260200182805461110590613226565b80156111525780601f1061112757610100808354040283529160200191611152565b820191906000526020600020905b81548152906001019060200180831161113557829003601f168201915b5050505050815260200160048201805461116b90613226565b80601f016020809104026020016040519081016040528092919081815260200182805461119790613226565b80156111e45780601f106111b9576101008083540402835291602001916111e4565b820191906000526020600020905b8154815290600101906020018083116111c757829003601f168201915b505050505081525050828281518110611200576111ff613258565b5b60200260200101819052505b8080611217906131ae565b915050610f25565b5080915050919050565b60008060046000600254815260200190815260200160002090508c8160000160006101000a81548160ff0219169083151502179055508b8160000160016101000a81548160ff0219169083151502179055508a8160000160026101000a81548160ff021916908315150217905550898160000160036101000a81548160ff021916908315150217905550888160000160046101000a81548160ff021916908315150217905550878160000160056101000a81548160ff021916908315150217905550868160000160066101000a81548160ff021916908315150217905550858160000160076101000a81548160ff021916908315150217905550848160000160086101000a81548160ff021916908315150217905550838160000160096101000a81548160ff0219169083151502179055508281600101908051906020019061137392919061222a565b50600060028190555060019150509b9a5050505050505050505050565b606080606080606080606060006060600080600090505b60005481101561199a578b73ffffffffffffffffffffffffffffffffffffffff166003600083815260200190815260200160002060090160009054906101000a900473ffffffffffffffffffffffffffffffffffffffff1673ffffffffffffffffffffffffffffffffffffffff16141561198757600060036000838152602001908152602001600020604051806101600160405290816000820154815260200160018201805461145690613226565b80601f016020809104026020016040519081016040528092919081815260200182805461148290613226565b80156114cf5780601f106114a4576101008083540402835291602001916114cf565b820191906000526020600020905b8154815290600101906020018083116114b257829003601f168201915b505050505081526020016002820180546114e890613226565b80601f016020809104026020016040519081016040528092919081815260200182805461151490613226565b80156115615780601f1061153657610100808354040283529160200191611561565b820191906000526020600020905b81548152906001019060200180831161154457829003601f168201915b5050505050815260200160038201805461157a90613226565b80601f01602080910402602001604051908101604052809291908181526020018280546115a690613226565b80156115f35780601f106115c8576101008083540402835291602001916115f3565b820191906000526020600020905b8154815290600101906020018083116115d657829003601f168201915b5050505050815260200160048201805461160c90613226565b80601f016020809104026020016040519081016040528092919081815260200182805461163890613226565b80156116855780601f1061165a57610100808354040283529160200191611685565b820191906000526020600020905b81548152906001019060200180831161166857829003601f168201915b5050505050815260200160058201805461169e90613226565b80601f01602080910402602001604051908101604052809291908181526020018280546116ca90613226565b80156117175780601f106116ec57610100808354040283529160200191611717565b820191906000526020600020905b8154815290600101906020018083116116fa57829003601f168201915b5050505050815260200160068201805461173090613226565b80601f016020809104026020016040519081016040528092919081815260200182805461175c90613226565b80156117a95780601f1061177e576101008083540402835291602001916117a9565b820191906000526020600020905b81548152906001019060200180831161178c57829003601f168201915b505050505081526020016007820180546117c290613226565b80601f01602080910402602001604051908101604052809291908181526020018280546117ee90613226565b801561183b5780601f106118105761010080835404028352916020019161183b565b820191906000526020600020905b81548152906001019060200180831161181e57829003601f168201915b5050505050815260200160088201805461185490613226565b80601f016020809104026020016040519081016040528092919081815260200182805461188090613226565b80156118cd5780601f106118a2576101008083540402835291602001916118cd565b820191906000526020600020905b8154815290600101906020018083116118b057829003601f168201915b505050505081526020016009820160009054906101000a900473ffffffffffffffffffffffffffffffffffffffff1673ffffffffffffffffffffffffffffffffffffffff1673ffffffffffffffffffffffffffffffffffffffff168152602001600a8201548152505090508060200151816040015182606001518360a001518460c001518560e00151866101000151876000015188608001518961014001519b509b509b509b509b509b509b509b509b509b5050506119d6565b8080611992906131ae565b9150506113a7565b506040517f08c379a00000000000000000000000000000000000000000000000000000000081526004016119cd906132d3565b60405180910390fd5b9193959799509193959799565b60008054905090565b60056020528060005260406000206000915090508060000154908060010160009054906101000a900473ffffffffffffffffffffffffffffffffffffffff1690806002018054611a3b90613226565b80601f0160208091040260200160405190810160405280929190818152602001828054611a6790613226565b8015611ab45780601f10611a8957610100808354040283529160200191611ab4565b820191906000526020600020905b815481529060010190602001808311611a9757829003601f168201915b505050505090806003018054611ac990613226565b80601f0160208091040260200160405190810160405280929190818152602001828054611af590613226565b8015611b425780601f10611b1757610100808354040283529160200191611b42565b820191906000526020600020905b815481529060010190602001808311611b2557829003601f168201915b505050505090806004018054611b5790613226565b80601f0160208091040260200160405190810160405280929190818152602001828054611b8390613226565b8015611bd05780601f10611ba557610100808354040283529160200191611bd0565b820191906000526020600020905b815481529060010190602001808311611bb357829003601f168201915b5050505050905085565b60025481565b6000611bea6122f5565b6000548160000181815250508a8160200181905250898160400181905250888160600181905250878160800181905250868160a00181905250858160c00181905250848160e00181905250838161010001819052508281610120019073ffffffffffffffffffffffffffffffffffffffff16908173ffffffffffffffffffffffffffffffffffffffff16815250504281610140018181525050806003600080548152602001908152602001600020600082015181600001556020820151816001019080519060200190611cbe92919061222a565b506040820151816002019080519060200190611cdb92919061222a565b506060820151816003019080519060200190611cf892919061222a565b506080820151816004019080519060200190611d1592919061222a565b5060a0820151816005019080519060200190611d3292919061222a565b5060c0820151816006019080519060200190611d4f92919061222a565b5060e0820151816007019080519060200190611d6c92919061222a565b50610100820151816008019080519060200190611d8a92919061222a565b506101208201518160090160006101000a81548173ffffffffffffffffffffffffffffffffffffffff021916908373ffffffffffffffffffffffffffffffffffffffff16021790555061014082015181600a015590505060019150509998505050505050505050565b60008060008060008060008060008060606000600460008e8152602001908152602001600020604051806101600160405290816000820160009054906101000a900460ff161515151581526020016000820160019054906101000a900460ff161515151581526020016000820160029054906101000a900460ff161515151581526020016000820160039054906101000a900460ff161515151581526020016000820160049054906101000a900460ff161515151581526020016000820160059054906101000a900460ff161515151581526020016000820160069054906101000a900460ff161515151581526020016000820160079054906101000a900460ff161515151581526020016000820160089054906101000a900460ff161515151581526020016000820160099054906101000a900460ff16151515158152602001600182018054611f4390613226565b80601f0160208091040260200160405190810160405280929190818152602001828054611f6f90613226565b8015611fbc5780601f10611f9157610100808354040283529160200191611fbc565b820191906000526020600020905b815481529060010190602001808311611f9f57829003601f168201915b5050505050815250509050806000015181602001518260400151836060015184608001518560a001518660c001518760e001518861010001518961012001518a61014001519b509b509b509b509b509b509b509b509b509b509b505091939597999b90929496989a50565b60006040518061016001604052808d151581526020018c151581526020018b151581526020018a1515815260200189151581526020018815158152602001871515815260200186151581526020018515158152602001841515815260200183815250600460008054815260200190815260200160002060008201518160000160006101000a81548160ff02191690831515021790555060208201518160000160016101000a81548160ff02191690831515021790555060408201518160000160026101000a81548160ff02191690831515021790555060608201518160000160036101000a81548160ff02191690831515021790555060808201518160000160046101000a81548160ff02191690831515021790555060a08201518160000160056101000a81548160ff02191690831515021790555060c08201518160000160066101000a81548160ff02191690831515021790555060e08201518160000160076101000a81548160ff0219169083151502179055506101008201518160000160086101000a81548160ff0219169083151502179055506101208201518160000160096101000a81548160ff0219169083151502179055506101408201518160010190805190602001906121fc92919061222a565b50905050600080815480929190612212906131ae565b9190505550600190509b9a5050505050505050505050565b82805461223690613226565b90600052602060002090601f016020900481019282612258576000855561229f565b82601f1061227157805160ff191683800117855561229f565b8280016001018555821561229f579182015b8281111561229e578251825591602001919060010190612283565b5b5090506122ac9190612365565b5090565b6040518060a0016040528060008152602001600073ffffffffffffffffffffffffffffffffffffffff1681526020016060815260200160608152602001606081525090565b604051806101600160405280600081526020016060815260200160608152602001606081526020016060815260200160608152602001606081526020016060815260200160608152602001600073ffffffffffffffffffffffffffffffffffffffff168152602001600081525090565b5b8082111561237e576000816000905550600101612366565b5090565b6000819050919050565b61239581612382565b82525050565b60006020820190506123b0600083018461238c565b92915050565b6000604051905090565b600080fd5b600080fd5b600080fd5b600080fd5b6000601f19601f8301169050919050565b7f4e487b7100000000000000000000000000000000000000000000000000000000600052604160045260246000fd5b61241d826123d4565b810181811067ffffffffffffffff8211171561243c5761243b6123e5565b5b80604052505050565b600061244f6123b6565b905061245b8282612414565b919050565b600067ffffffffffffffff82111561247b5761247a6123e5565b5b612484826123d4565b9050602081019050919050565b82818337600083830152505050565b60006124b36124ae84612460565b612445565b9050828152602081018484840111156124cf576124ce6123cf565b5b6124da848285612491565b509392505050565b600082601f8301126124f7576124f66123ca565b5b81356125078482602086016124a0565b91505092915050565b600080600080600080600080610100898b031215612531576125306123c0565b5b600089013567ffffffffffffffff81111561254f5761254e6123c5565b5b61255b8b828c016124e2565b985050602089013567ffffffffffffffff81111561257c5761257b6123c5565b5b6125888b828c016124e2565b975050604089013567ffffffffffffffff8111156125a9576125a86123c5565b5b6125b58b828c016124e2565b965050606089013567ffffffffffffffff8111156125d6576125d56123c5565b5b6125e28b828c016124e2565b955050608089013567ffffffffffffffff811115612603576126026123c5565b5b61260f8b828c016124e2565b94505060a089013567ffffffffffffffff8111156126305761262f6123c5565b5b61263c8b828c016124e2565b93505060c089013567ffffffffffffffff81111561265d5761265c6123c5565b5b6126698b828c016124e2565b92505060e089013567ffffffffffffffff81111561268a576126896123c5565b5b6126968b828c016124e2565b9150509295985092959890939650565b60008115159050919050565b6126bb816126a6565b82525050565b60006020820190506126d660008301846126b2565b92915050565b6126e581612382565b81146126f057600080fd5b50565b600081359050612702816126dc565b92915050565b60006020828403121561271e5761271d6123c0565b5b600061272c848285016126f3565b91505092915050565b600081519050919050565b600082825260208201905092915050565b60005b8381101561276f578082015181840152602081019050612754565b8381111561277e576000848401525b50505050565b600061278f82612735565b6127998185612740565b93506127a9818560208601612751565b6127b2816123d4565b840191505092915050565b600073ffffffffffffffffffffffffffffffffffffffff82169050919050565b60006127e8826127bd565b9050919050565b6127f8816127dd565b82525050565b600060408201905081810360008301526128188185612784565b905061282760208301846127ef565b9392505050565b612837816127dd565b811461284257600080fd5b50565b6000813590506128548161282e565b92915050565b60008060008060808587031215612874576128736123c0565b5b600061288287828801612845565b945050602085013567ffffffffffffffff8111156128a3576128a26123c5565b5b6128af878288016124e2565b935050604085013567ffffffffffffffff8111156128d0576128cf6123c5565b5b6128dc878288016124e2565b925050606085013567ffffffffffffffff8111156128fd576128fc6123c5565b5b612909878288016124e2565b91505092959194509250565b60006101608201905061292b600083018e6126b2565b612938602083018d6126b2565b612945604083018c6126b2565b612952606083018b6126b2565b61295f608083018a6126b2565b61296c60a08301896126b2565b61297960c08301886126b2565b61298660e08301876126b2565b6129946101008301866126b2565b6129a26101208301856126b2565b8181036101408301526129b58184612784565b90509c9b505050505050505050505050565b6000602082840312156129dd576129dc6123c0565b5b60006129eb84828501612845565b91505092915050565b600061016082019050612a0a600083018e61238c565b8181036020830152612a1c818d612784565b90508181036040830152612a30818c612784565b90508181036060830152612a44818b612784565b90508181036080830152612a58818a612784565b905081810360a0830152612a6c8189612784565b905081810360c0830152612a808188612784565b905081810360e0830152612a948187612784565b9050818103610100830152612aa98186612784565b9050612ab96101208301856127ef565b612ac761014083018461238c565b9c9b505050505050505050505050565b600081519050919050565b600082825260208201905092915050565b6000819050602082019050919050565b612b0c81612382565b82525050565b612b1b816127dd565b82525050565b600082825260208201905092915050565b6000612b3d82612735565b612b478185612b21565b9350612b57818560208601612751565b612b60816123d4565b840191505092915050565b600060a083016000830151612b836000860182612b03565b506020830151612b966020860182612b12565b5060408301518482036040860152612bae8282612b32565b91505060608301518482036060860152612bc88282612b32565b91505060808301518482036080860152612be28282612b32565b9150508091505092915050565b6000612bfb8383612b6b565b905092915050565b6000602082019050919050565b6000612c1b82612ad7565b612c258185612ae2565b935083602082028501612c3785612af3565b8060005b85811015612c735784840389528151612c548582612bef565b9450612c5f83612c03565b925060208a01995050600181019050612c3b565b50829750879550505050505092915050565b60006020820190508181036000830152612c9f8184612c10565b905092915050565b612cb0816126a6565b8114612cbb57600080fd5b50565b600081359050612ccd81612ca7565b92915050565b60008060008060008060008060008060006101608c8e031215612cf957612cf86123c0565b5b6000612d078e828f01612cbe565b9b50506020612d188e828f01612cbe565b9a50506040612d298e828f01612cbe565b9950506060612d3a8e828f01612cbe565b9850506080612d4b8e828f01612cbe565b97505060a0612d5c8e828f01612cbe565b96505060c0612d6d8e828f01612cbe565b95505060e0612d7e8e828f01612cbe565b945050610100612d908e828f01612cbe565b935050610120612da28e828f01612cbe565b9250506101408c013567ffffffffffffffff811115612dc457612dc36123c5565b5b612dd08e828f016124e2565b9150509295989b509295989b9093969950565b6000610140820190508181036000830152612dfe818d612784565b90508181036020830152612e12818c612784565b90508181036040830152612e26818b612784565b90508181036060830152612e3a818a612784565b90508181036080830152612e4e8189612784565b905081810360a0830152612e628188612784565b905081810360c0830152612e768187612784565b9050612e8560e083018661238c565b818103610100830152612e988185612784565b9050612ea861012083018461238c565b9b9a5050505050505050505050565b600060a082019050612ecc600083018861238c565b612ed960208301876127ef565b8181036040830152612eeb8186612784565b90508181036060830152612eff8185612784565b90508181036080830152612f138184612784565b90509695505050505050565b60008060008060008060008060006101208a8c031215612f4257612f416123c0565b5b60008a013567ffffffffffffffff811115612f6057612f5f6123c5565b5b612f6c8c828d016124e2565b99505060208a013567ffffffffffffffff811115612f8d57612f8c6123c5565b5b612f998c828d016124e2565b98505060408a013567ffffffffffffffff811115612fba57612fb96123c5565b5b612fc68c828d016124e2565b97505060608a013567ffffffffffffffff811115612fe757612fe66123c5565b5b612ff38c828d016124e2565b96505060808a013567ffffffffffffffff811115613014576130136123c5565b5b6130208c828d016124e2565b95505060a08a013567ffffffffffffffff811115613041576130406123c5565b5b61304d8c828d016124e2565b94505060c08a013567ffffffffffffffff81111561306e5761306d6123c5565b5b61307a8c828d016124e2565b93505060e08a013567ffffffffffffffff81111561309b5761309a6123c5565b5b6130a78c828d016124e2565b9250506101006130b98c828d01612845565b9150509295985092959850929598565b600081905092915050565b60006130df82612735565b6130e981856130c9565b93506130f9818560208601612751565b80840191505092915050565b600061311182846130d4565b915081905092915050565b60008160601b9050919050565b60006131348261311c565b9050919050565b600061314682613129565b9050919050565b61315e613159826127dd565b61313b565b82525050565b6000613170828461314d565b60148201915081905092915050565b7f4e487b7100000000000000000000000000000000000000000000000000000000600052601160045260246000fd5b60006131b982612382565b91507fffffffffffffffffffffffffffffffffffffffffffffffffffffffffffffffff8214156131ec576131eb61317f565b5b600182019050919050565b7f4e487b7100000000000000000000000000000000000000000000000000000000600052602260045260246000fd5b6000600282049050600182168061323e57607f821691505b60208210811415613252576132516131f7565b5b50919050565b7f4e487b7100000000000000000000000000000000000000000000000000000000600052603260045260246000fd5b7f4e6f7420666f756e640000000000000000000000000000000000000000000000600082015250565b60006132bd600983612740565b91506132c882613287565b602082019050919050565b600060208201905081810360008301526132ec816132b0565b905091905056fea26469706673582212202880faa0577f2b586d53a2d81a4a02c1a8ca0c260cc73fa54d6bb7b128eab95364736f6c634300080a0033",
  "immutableReferences": {},
  "source": "// SPDX-License-Identifier: MIT\r\npragma solidity >=0.4.22 <0.9.0;\r\n\r\ncontract Patient {\r\n    \r\n    struct structPatient{\r\n        uint id;\r\n        string fullName;\r\n        string dateOfBirth;\r\n        string CNIC;\r\n        string creatorAddress;\r\n        string PhoneNo;\r\n        string email;\r\n        string status;\r\n        string gender;\r\n        address accountAddress;\r\n        uint dateCreated;\r\n    }\r\n    struct commonMedicalConditions{\r\n        bool AlcoholOrDrugDependence;\r\n        bool Seizure;\r\n        bool HeartDisease;\r\n        bool Blackout;\r\n        bool Stroke;\r\n        bool VisualFieldOrAcuityImpairment;\r\n        bool Diabetes;\r\n        bool MentalOrEmotionalIllness;\r\n        bool DementiaOrAlzheimer;\r\n        bool SleepApneaOrNarcolepsy;\r\n        string other;\r\n    }\r\n    struct structPatientReport{\r\n        uint reportId;\r\n        address patientAddress;\r\n        string Title;\r\n        string Description;\r\n        string Report;\r\n    }\r\n    uint public patientCount = 0;\r\n    uint public reportCount = 0;\r\n    uint public currentId = 0;\r\n\r\n    mapping(uint => structPatient) public Patients;\r\n    mapping(uint => commonMedicalConditions) public MedicalConditions;\r\n    mapping(uint => structPatientReport) public PatientReports;\r\n\r\n    constructor () {\r\n    }\r\n     function AddPatient(string memory _fullName, string memory _dateOfBirth, string memory _cnic, \r\n                        string memory _hospitalId, string memory _phoneNo, string memory _email, string memory _status, string memory _gender, address _accountAddress) public returns (bool)\r\n    {\r\n            structPatient memory patient;\r\n            patient.id = patientCount;\r\n            patient.fullName = _fullName;\r\n            patient.dateOfBirth = _dateOfBirth;\r\n            patient.CNIC = _cnic;\r\n            patient.creatorAddress = _hospitalId;\r\n            patient.PhoneNo = _phoneNo;\r\n            patient.email = _email;\r\n            patient.status = _status;\r\n            patient.gender = _gender;\r\n            patient.accountAddress = _accountAddress;\r\n            patient.dateCreated = block.timestamp;\r\n            Patients[patientCount] = patient;  \r\n            return true;\r\n      \r\n    }\r\n\r\n    function AddMedicalCondition(bool _dependence, bool _seizure, bool _heartDisease, bool _blackout, bool _stroke, bool _VFAI, bool _diabetes, bool _mentalIllness, bool _dementia, bool _sleepApneaOrNarcolepsy, string memory _other) public returns (bool)\r\n    {\r\n        MedicalConditions[patientCount] = commonMedicalConditions(_dependence, _seizure, _heartDisease, _blackout, _stroke, _VFAI, _diabetes, _mentalIllness, _dementia, _sleepApneaOrNarcolepsy, _other);\r\n        patientCount++;\r\n        return true;\r\n    }\r\n\r\n    function getPatientCount() public view returns (uint) {\r\n        return patientCount;\r\n    }\r\n\r\n    function getPatientNameAddress(uint id) public view returns (string memory, address)\r\n    {\r\n        return (Patients[id].fullName, Patients[id].accountAddress);\r\n    }\r\n    function addReport(address _patientAddress, string memory _tittle, string memory _description, string memory _report) public returns (bool) {\r\n            \r\n            PatientReports[reportCount] = structPatientReport(reportCount,_patientAddress, _tittle,  _description,  _report); \r\n            reportCount ++;\r\n            return true;\r\n    }\r\n    function getReport(address _patientAddress) public view returns(structPatientReport[] memory)\r\n    {\r\n        structPatientReport[] memory patientReport = new structPatientReport[](getReportCount(_patientAddress));\r\n        for (uint i = 0; i <patientCount; i++) \r\n        {\r\n             if(keccak256(abi.encodePacked(PatientReports[i].patientAddress)) == keccak256(abi.encodePacked(_patientAddress)))\r\n             {\r\n                patientReport[i] = PatientReports[i];\r\n             }\r\n        }\r\n        return patientReport;\r\n    }\r\n    function getReportCount(address _patientAddress) public view returns(uint) {\r\n       \r\n        uint count = 0;\r\n        for (uint i = 0; i <patientCount; i++) \r\n        {\r\n             if(keccak256(abi.encodePacked(PatientReports[i].patientAddress)) == keccak256(abi.encodePacked(_patientAddress))) count++;\r\n        }\r\n        return count;\r\n    }\r\n\r\n\r\n    function getPatient(address _address) public view returns (string memory,\r\n        string memory,\r\n        string memory,\r\n        string memory,\r\n        string memory,\r\n        string memory,\r\n        string memory, uint id, string memory, uint)\r\n    {\r\n        for (uint i = 0; i < patientCount; i++) \r\n        {\r\n            if(Patients[i].accountAddress == _address)\r\n            {\r\n                structPatient memory patient = Patients[i];\r\n                return (patient.fullName, patient.dateOfBirth, patient.CNIC, patient.PhoneNo, patient.email, patient.status, patient.gender, patient.id, patient.creatorAddress, patient.dateCreated);\r\n            }\r\n        }\r\n        revert(\"Not found\");\r\n    }\r\n\r\n    function getPatientConditions(uint id) public view returns (bool, bool, bool, bool, bool, bool, bool, bool, bool, bool, string memory) {\r\n        commonMedicalConditions memory conditions = MedicalConditions[id];\r\n        return (conditions.AlcoholOrDrugDependence, conditions.Seizure, conditions.HeartDisease, conditions.Blackout, conditions.Stroke, conditions.VisualFieldOrAcuityImpairment, conditions.Diabetes, conditions.MentalOrEmotionalIllness, conditions.DementiaOrAlzheimer, conditions.SleepApneaOrNarcolepsy, conditions.other);\r\n    }\r\n\r\n    function updatePatient(string memory _id, string memory _name, string memory _dob, string memory _cnic, string memory _number, \r\n                            string memory _email, string memory _status, string memory _gender)  public  returns (bool)\r\n    {\r\n         for(uint i = 0; i < patientCount; i++){\r\n\r\n            if(keccak256(abi.encodePacked(Patients[i].accountAddress)) == keccak256(abi.encodePacked(_id)) )\r\n            {\r\n                structPatient storage patient = Patients[i];\r\n                patient.fullName = _name;\r\n                patient.dateOfBirth = _dob;\r\n                patient.CNIC = _cnic;\r\n                patient.PhoneNo = _number;\r\n                patient.email = _email;\r\n                patient.status = _status;\r\n                patient.gender = _gender;\r\n                currentId = patient.id;\r\n                return true; // record updated successfully\r\n            }\r\n        }\r\n        return false; \r\n    }\r\n\r\n    function updateConditions(bool _dependence, bool _seizure, bool _heartDisease, bool _blackout, bool _stroke, bool _VFAI, bool _diabetes, bool _mentalIllness, bool _dementia, bool _sleepApneaOrNarcolepsy, string memory _other) public returns (bool)\r\n    {\r\n         commonMedicalConditions storage conditions = MedicalConditions[currentId];\r\n         conditions.AlcoholOrDrugDependence = _dependence;\r\n         conditions.Seizure = _seizure;\r\n         conditions.HeartDisease = _heartDisease;\r\n         conditions.Blackout = _blackout;\r\n         conditions.Stroke = _stroke;\r\n         conditions.VisualFieldOrAcuityImpairment = _VFAI;\r\n         conditions.Diabetes = _diabetes;\r\n         conditions.MentalOrEmotionalIllness = _mentalIllness;\r\n         conditions.DementiaOrAlzheimer = _dementia;\r\n         conditions.SleepApneaOrNarcolepsy = _sleepApneaOrNarcolepsy;\r\n         conditions.other = _other;\r\n         currentId = 0;\r\n         return true;\r\n    }\r\n}\r\n",
  "sourcePath": "D:\\Documents\\Custom Office Templates\\Final Year Project\\decentralized-patient-centered-health-records-and-exchange\\decentralized-patient-centered-health-records-and-exchange\\contracts\\Patient.sol",
  "compiler": {
    "name": "solc",
    "version": "0.8.10+commit.fc410830.Emscripten.clang"
  },
  "schemaVersion": "3.4.3",
  "updatedAt": "2022-01-29T16:53:25.072Z",
  "networkType": "ethereum",
  "devdoc": {
    "kind": "dev",
    "methods": {},
    "version": 1
  },
  "userdoc": {
    "kind": "user",
    "methods": {},
    "version": 1
  }
}