{
  "contractName": "Patient",
  "abi": [
    {
      "inputs": [],
      "stateMutability": "nonpayable",
      "type": "constructor"
    },
    {
      "inputs": [
        {
          "internalType": "uint256",
          "name": "",
          "type": "uint256"
        }
      ],
      "name": "MedicalConditions",
      "outputs": [
        {
          "internalType": "bool",
          "name": "AlcoholOrDrugDependence",
          "type": "bool"
        },
        {
          "internalType": "bool",
          "name": "Seizure",
          "type": "bool"
        },
        {
          "internalType": "bool",
          "name": "HeartDisease",
          "type": "bool"
        },
        {
          "internalType": "bool",
          "name": "Blackout",
          "type": "bool"
        },
        {
          "internalType": "bool",
          "name": "Stroke",
          "type": "bool"
        },
        {
          "internalType": "bool",
          "name": "VisualFieldOrAcuityImpairment",
          "type": "bool"
        },
        {
          "internalType": "bool",
          "name": "Diabetes",
          "type": "bool"
        },
        {
          "internalType": "bool",
          "name": "MentalOrEmotionalIllness",
          "type": "bool"
        },
        {
          "internalType": "bool",
          "name": "DementiaOrAlzheimer",
          "type": "bool"
        },
        {
          "internalType": "bool",
          "name": "SleepApneaOrNarcolepsy",
          "type": "bool"
        },
        {
          "internalType": "string",
          "name": "other",
          "type": "string"
        }
      ],
      "stateMutability": "view",
      "type": "function",
      "constant": true
    },
    {
      "inputs": [
        {
          "internalType": "uint256",
          "name": "",
          "type": "uint256"
        }
      ],
      "name": "PatientReports",
      "outputs": [
        {
          "internalType": "uint256",
          "name": "reportId",
          "type": "uint256"
        },
        {
          "internalType": "address",
          "name": "patientAddress",
          "type": "address"
        },
        {
          "internalType": "string",
          "name": "Title",
          "type": "string"
        },
        {
          "internalType": "string",
          "name": "Description",
          "type": "string"
        },
        {
          "internalType": "string",
          "name": "Report",
          "type": "string"
        }
      ],
      "stateMutability": "view",
      "type": "function",
      "constant": true
    },
    {
      "inputs": [
        {
          "internalType": "uint256",
          "name": "",
          "type": "uint256"
        }
      ],
      "name": "Patients",
      "outputs": [
        {
          "internalType": "uint256",
          "name": "id",
          "type": "uint256"
        },
        {
          "internalType": "string",
          "name": "fullName",
          "type": "string"
        },
        {
          "internalType": "string",
          "name": "dateOfBirth",
          "type": "string"
        },
        {
          "internalType": "string",
          "name": "CNIC",
          "type": "string"
        },
        {
          "internalType": "string",
          "name": "creatorAddress",
          "type": "string"
        },
        {
          "internalType": "string",
          "name": "PhoneNo",
          "type": "string"
        },
        {
          "internalType": "string",
          "name": "email",
          "type": "string"
        },
        {
          "internalType": "string",
          "name": "status",
          "type": "string"
        },
        {
          "internalType": "string",
          "name": "gender",
          "type": "string"
        },
        {
          "internalType": "address",
          "name": "accountAddress",
          "type": "address"
        },
        {
          "internalType": "uint256",
          "name": "dateCreated",
          "type": "uint256"
        }
      ],
      "stateMutability": "view",
      "type": "function",
      "constant": true
    },
    {
      "inputs": [],
      "name": "currentId",
      "outputs": [
        {
          "internalType": "uint256",
          "name": "",
          "type": "uint256"
        }
      ],
      "stateMutability": "view",
      "type": "function",
      "constant": true
    },
    {
      "inputs": [],
      "name": "patientCount",
      "outputs": [
        {
          "internalType": "uint256",
          "name": "",
          "type": "uint256"
        }
      ],
      "stateMutability": "view",
      "type": "function",
      "constant": true
    },
    {
      "inputs": [],
      "name": "reportCount",
      "outputs": [
        {
          "internalType": "uint256",
          "name": "",
          "type": "uint256"
        }
      ],
      "stateMutability": "view",
      "type": "function",
      "constant": true
    },
    {
      "inputs": [
        {
          "internalType": "string",
          "name": "_fullName",
          "type": "string"
        },
        {
          "internalType": "string",
          "name": "_dateOfBirth",
          "type": "string"
        },
        {
          "internalType": "string",
          "name": "_cnic",
          "type": "string"
        },
        {
          "internalType": "string",
          "name": "_hospitalId",
          "type": "string"
        },
        {
          "internalType": "string",
          "name": "_phoneNo",
          "type": "string"
        },
        {
          "internalType": "string",
          "name": "_email",
          "type": "string"
        },
        {
          "internalType": "string",
          "name": "_status",
          "type": "string"
        },
        {
          "internalType": "string",
          "name": "_gender",
          "type": "string"
        },
        {
          "internalType": "address",
          "name": "_accountAddress",
          "type": "address"
        }
      ],
      "name": "AddPatient",
      "outputs": [
        {
          "internalType": "bool",
          "name": "",
          "type": "bool"
        }
      ],
      "stateMutability": "nonpayable",
      "type": "function"
    },
    {
      "inputs": [
        {
          "internalType": "bool",
          "name": "_dependence",
          "type": "bool"
        },
        {
          "internalType": "bool",
          "name": "_seizure",
          "type": "bool"
        },
        {
          "internalType": "bool",
          "name": "_heartDisease",
          "type": "bool"
        },
        {
          "internalType": "bool",
          "name": "_blackout",
          "type": "bool"
        },
        {
          "internalType": "bool",
          "name": "_stroke",
          "type": "bool"
        },
        {
          "internalType": "bool",
          "name": "_VFAI",
          "type": "bool"
        },
        {
          "internalType": "bool",
          "name": "_diabetes",
          "type": "bool"
        },
        {
          "internalType": "bool",
          "name": "_mentalIllness",
          "type": "bool"
        },
        {
          "internalType": "bool",
          "name": "_dementia",
          "type": "bool"
        },
        {
          "internalType": "bool",
          "name": "_sleepApneaOrNarcolepsy",
          "type": "bool"
        },
        {
          "internalType": "string",
          "name": "_other",
          "type": "string"
        }
      ],
      "name": "AddMedicalCondition",
      "outputs": [
        {
          "internalType": "bool",
          "name": "",
          "type": "bool"
        }
      ],
      "stateMutability": "nonpayable",
      "type": "function"
    },
    {
      "inputs": [],
      "name": "getPatientCount",
      "outputs": [
        {
          "internalType": "uint256",
          "name": "",
          "type": "uint256"
        }
      ],
      "stateMutability": "view",
      "type": "function",
      "constant": true
    },
    {
      "inputs": [],
      "name": "getPatientStatus",
      "outputs": [
        {
          "internalType": "uint256",
          "name": "",
          "type": "uint256"
        },
        {
          "internalType": "uint256",
          "name": "",
          "type": "uint256"
        },
        {
          "internalType": "uint256",
          "name": "",
          "type": "uint256"
        }
      ],
      "stateMutability": "view",
      "type": "function",
      "constant": true
    },
    {
      "inputs": [
        {
          "internalType": "uint256",
          "name": "id",
          "type": "uint256"
        }
      ],
      "name": "getPatientNameAddress",
      "outputs": [
        {
          "internalType": "string",
          "name": "",
          "type": "string"
        },
        {
          "internalType": "address",
          "name": "",
          "type": "address"
        }
      ],
      "stateMutability": "view",
      "type": "function",
      "constant": true
    },
    {
      "inputs": [
        {
          "internalType": "address",
          "name": "_patientAddress",
          "type": "address"
        },
        {
          "internalType": "string",
          "name": "_tittle",
          "type": "string"
        },
        {
          "internalType": "string",
          "name": "_description",
          "type": "string"
        },
        {
          "internalType": "string",
          "name": "_report",
          "type": "string"
        }
      ],
      "name": "addReport",
      "outputs": [
        {
          "internalType": "bool",
          "name": "",
          "type": "bool"
        }
      ],
      "stateMutability": "nonpayable",
      "type": "function"
    },
    {
      "inputs": [
        {
          "internalType": "address",
          "name": "_patientAddress",
          "type": "address"
        }
      ],
      "name": "getReport",
      "outputs": [
        {
          "components": [
            {
              "internalType": "uint256",
              "name": "reportId",
              "type": "uint256"
            },
            {
              "internalType": "address",
              "name": "patientAddress",
              "type": "address"
            },
            {
              "internalType": "string",
              "name": "Title",
              "type": "string"
            },
            {
              "internalType": "string",
              "name": "Description",
              "type": "string"
            },
            {
              "internalType": "string",
              "name": "Report",
              "type": "string"
            }
          ],
          "internalType": "struct Patient.structPatientReport[]",
          "name": "",
          "type": "tuple[]"
        }
      ],
      "stateMutability": "view",
      "type": "function",
      "constant": true
    },
    {
      "inputs": [
        {
          "internalType": "address",
          "name": "_patientAddress",
          "type": "address"
        }
      ],
      "name": "getReportCount",
      "outputs": [
        {
          "internalType": "uint256",
          "name": "",
          "type": "uint256"
        }
      ],
      "stateMutability": "view",
      "type": "function",
      "constant": true
    },
    {
      "inputs": [
        {
          "internalType": "address",
          "name": "_address",
          "type": "address"
        }
      ],
      "name": "getPatient",
      "outputs": [
        {
          "internalType": "string",
          "name": "",
          "type": "string"
        },
        {
          "internalType": "string",
          "name": "",
          "type": "string"
        },
        {
          "internalType": "string",
          "name": "",
          "type": "string"
        },
        {
          "internalType": "string",
          "name": "",
          "type": "string"
        },
        {
          "internalType": "string",
          "name": "",
          "type": "string"
        },
        {
          "internalType": "string",
          "name": "",
          "type": "string"
        },
        {
          "internalType": "string",
          "name": "",
          "type": "string"
        },
        {
          "internalType": "uint256",
          "name": "id",
          "type": "uint256"
        },
        {
          "internalType": "string",
          "name": "",
          "type": "string"
        },
        {
          "internalType": "uint256",
          "name": "",
          "type": "uint256"
        }
      ],
      "stateMutability": "view",
      "type": "function",
      "constant": true
    },
    {
      "inputs": [
        {
          "internalType": "uint256",
          "name": "id",
          "type": "uint256"
        }
      ],
      "name": "getPatientConditions",
      "outputs": [
        {
          "internalType": "bool",
          "name": "",
          "type": "bool"
        },
        {
          "internalType": "bool",
          "name": "",
          "type": "bool"
        },
        {
          "internalType": "bool",
          "name": "",
          "type": "bool"
        },
        {
          "internalType": "bool",
          "name": "",
          "type": "bool"
        },
        {
          "internalType": "bool",
          "name": "",
          "type": "bool"
        },
        {
          "internalType": "bool",
          "name": "",
          "type": "bool"
        },
        {
          "internalType": "bool",
          "name": "",
          "type": "bool"
        },
        {
          "internalType": "bool",
          "name": "",
          "type": "bool"
        },
        {
          "internalType": "bool",
          "name": "",
          "type": "bool"
        },
        {
          "internalType": "bool",
          "name": "",
          "type": "bool"
        },
        {
          "internalType": "string",
          "name": "",
          "type": "string"
        }
      ],
      "stateMutability": "view",
      "type": "function",
      "constant": true
    },
    {
      "inputs": [
        {
          "internalType": "string",
          "name": "_id",
          "type": "string"
        },
        {
          "internalType": "string",
          "name": "_name",
          "type": "string"
        },
        {
          "internalType": "string",
          "name": "_dob",
          "type": "string"
        },
        {
          "internalType": "string",
          "name": "_cnic",
          "type": "string"
        },
        {
          "internalType": "string",
          "name": "_number",
          "type": "string"
        },
        {
          "internalType": "string",
          "name": "_email",
          "type": "string"
        },
        {
          "internalType": "string",
          "name": "_status",
          "type": "string"
        },
        {
          "internalType": "string",
          "name": "_gender",
          "type": "string"
        }
      ],
      "name": "updatePatient",
      "outputs": [
        {
          "internalType": "bool",
          "name": "",
          "type": "bool"
        }
      ],
      "stateMutability": "nonpayable",
      "type": "function"
    },
    {
      "inputs": [
        {
          "internalType": "bool",
          "name": "_dependence",
          "type": "bool"
        },
        {
          "internalType": "bool",
          "name": "_seizure",
          "type": "bool"
        },
        {
          "internalType": "bool",
          "name": "_heartDisease",
          "type": "bool"
        },
        {
          "internalType": "bool",
          "name": "_blackout",
          "type": "bool"
        },
        {
          "internalType": "bool",
          "name": "_stroke",
          "type": "bool"
        },
        {
          "internalType": "bool",
          "name": "_VFAI",
          "type": "bool"
        },
        {
          "internalType": "bool",
          "name": "_diabetes",
          "type": "bool"
        },
        {
          "internalType": "bool",
          "name": "_mentalIllness",
          "type": "bool"
        },
        {
          "internalType": "bool",
          "name": "_dementia",
          "type": "bool"
        },
        {
          "internalType": "bool",
          "name": "_sleepApneaOrNarcolepsy",
          "type": "bool"
        },
        {
          "internalType": "string",
          "name": "_other",
          "type": "string"
        }
      ],
      "name": "updateConditions",
      "outputs": [
        {
          "internalType": "bool",
          "name": "",
          "type": "bool"
        }
      ],
      "stateMutability": "nonpayable",
      "type": "function"
    }
  ],
  "bytecode": "0x6080604052600080556000600155600060025534801561001e57600080fd5b506137048061002e6000396000f3fe608060405234801561001057600080fd5b50600436106101165760003560e01c8063a55f363e116100a2578063c22b5bb611610071578063c22b5bb614610363578063e00dd16114610397578063fcc42079146103b5578063fdf023a6146103e5578063fe0d3dec1461041f57610116565b8063a55f363e146102bc578063acf35a5e146102ec578063b5368e201461030c578063c190665b1461034557610116565b806389c2e7c7116100e957806389c2e7c7146101ca5780639e22a89314610204578063a0303c4114610234578063a198283514610252578063a3bdae3e1461028c57610116565b8063185c6f841461011b57806319674c52146101395780633331f46b1461016957806371f2d08c1461019a575b600080fd5b61012361044f565b6040516101309190612571565b60405180910390f35b610153600480360381019061014e91906126e6565b610455565b6040516101609190612897565b60405180910390f35b610183600480360381019061017e91906128de565b6105f2565b6040516101919291906129d4565b60405180910390f35b6101b460048036038101906101af9190612a30565b6106d8565b6040516101c19190612897565b60405180910390f35b6101e460048036038101906101df91906128de565b6107fd565b6040516101fb9b9a99989796959493929190612aeb565b60405180910390f35b61021e60048036038101906102199190612b9d565b610961565b60405161022b9190612571565b60405180910390f35b61023c610a2b565b6040516102499190612571565b60405180910390f35b61026c600480360381019061026791906128de565b610a31565b6040516102839b9a99989796959493929190612bca565b60405180910390f35b6102a660048036038101906102a19190612b9d565b610eeb565b6040516102b39190612e5b565b60405180910390f35b6102d660048036038101906102d19190612ea9565b611254565b6040516102e39190612897565b60405180910390f35b6102f46113bb565b60405161030393929190612fb9565b60405180910390f35b61032660048036038101906103219190612b9d565b611566565b60405161033c9a99989796959493929190612ff0565b60405180910390f35b61034d611bb9565b60405161035a9190612571565b60405180910390f35b61037d600480360381019061037891906128de565b611bc2565b60405161038e9594939291906130c4565b60405180910390f35b61039f611db0565b6040516103ac9190612571565b60405180910390f35b6103cf60048036038101906103ca919061312c565b611db6565b6040516103dc9190612897565b60405180910390f35b6103ff60048036038101906103fa91906128de565b611fc9565b6040516104169b9a99989796959493929190612aeb565b60405180910390f35b61043960048036038101906104349190612ea9565b6121fd565b6040516104469190612897565b60405180910390f35b60015481565b600080600090505b6000548110156105e057896040516020016104789190613312565b604051602081830303815290604052805190602001206003600083815260200190815260200160002060090160009054906101000a900473ffffffffffffffffffffffffffffffffffffffff166040516020016104d59190613371565b6040516020818303038152906040528051906020012014156105cd57600060036000838152602001908152602001600020905089816001019080519060200190610520929190612400565b5088816002019080519060200190610539929190612400565b5087816003019080519060200190610552929190612400565b508681600501908051906020019061056b929190612400565b5085816006019080519060200190610584929190612400565b508481600701908051906020019061059d929190612400565b50838160080190805190602001906105b6929190612400565b5080600001546002819055506001925050506105e6565b80806105d8906133bb565b91505061045d565b50600090505b98975050505050505050565b60606000600360008481526020019081526020016000206001016003600085815260200190815260200160002060090160009054906101000a900473ffffffffffffffffffffffffffffffffffffffff1681805461064f90613433565b80601f016020809104026020016040519081016040528092919081815260200182805461067b90613433565b80156106c85780601f1061069d576101008083540402835291602001916106c8565b820191906000526020600020905b8154815290600101906020018083116106ab57829003601f168201915b5050505050915091509150915091565b60006040518060a0016040528060015481526020018673ffffffffffffffffffffffffffffffffffffffff168152602001858152602001848152602001838152506005600060015481526020019081526020016000206000820151816000015560208201518160010160006101000a81548173ffffffffffffffffffffffffffffffffffffffff021916908373ffffffffffffffffffffffffffffffffffffffff160217905550604082015181600201908051906020019061079b929190612400565b5060608201518160030190805190602001906107b8929190612400565b5060808201518160040190805190602001906107d5929190612400565b50905050600160008154809291906107ec906133bb565b919050555060019050949350505050565b60046020528060005260406000206000915090508060000160009054906101000a900460ff16908060000160019054906101000a900460ff16908060000160029054906101000a900460ff16908060000160039054906101000a900460ff16908060000160049054906101000a900460ff16908060000160059054906101000a900460ff16908060000160069054906101000a900460ff16908060000160079054906101000a900460ff16908060000160089054906101000a900460ff16908060000160099054906101000a900460ff16908060010180546108de90613433565b80601f016020809104026020016040519081016040528092919081815260200182805461090a90613433565b80156109575780601f1061092c57610100808354040283529160200191610957565b820191906000526020600020905b81548152906001019060200180831161093a57829003601f168201915b505050505090508b565b6000806000905060005b600054811015610a2157836040516020016109869190613371565b604051602081830303815290604052805190602001206005600083815260200190815260200160002060010160009054906101000a900473ffffffffffffffffffffffffffffffffffffffff166040516020016109e39190613371565b604051602081830303815290604052805190602001201415610a0e578180610a0a906133bb565b9250505b8080610a19906133bb565b91505061096b565b5080915050919050565b60005481565b6003602052806000526040600020600091509050806000015490806001018054610a5a90613433565b80601f0160208091040260200160405190810160405280929190818152602001828054610a8690613433565b8015610ad35780601f10610aa857610100808354040283529160200191610ad3565b820191906000526020600020905b815481529060010190602001808311610ab657829003601f168201915b505050505090806002018054610ae890613433565b80601f0160208091040260200160405190810160405280929190818152602001828054610b1490613433565b8015610b615780601f10610b3657610100808354040283529160200191610b61565b820191906000526020600020905b815481529060010190602001808311610b4457829003601f168201915b505050505090806003018054610b7690613433565b80601f0160208091040260200160405190810160405280929190818152602001828054610ba290613433565b8015610bef5780601f10610bc457610100808354040283529160200191610bef565b820191906000526020600020905b815481529060010190602001808311610bd257829003601f168201915b505050505090806004018054610c0490613433565b80601f0160208091040260200160405190810160405280929190818152602001828054610c3090613433565b8015610c7d5780601f10610c5257610100808354040283529160200191610c7d565b820191906000526020600020905b815481529060010190602001808311610c6057829003601f168201915b505050505090806005018054610c9290613433565b80601f0160208091040260200160405190810160405280929190818152602001828054610cbe90613433565b8015610d0b5780601f10610ce057610100808354040283529160200191610d0b565b820191906000526020600020905b815481529060010190602001808311610cee57829003601f168201915b505050505090806006018054610d2090613433565b80601f0160208091040260200160405190810160405280929190818152602001828054610d4c90613433565b8015610d995780601f10610d6e57610100808354040283529160200191610d99565b820191906000526020600020905b815481529060010190602001808311610d7c57829003601f168201915b505050505090806007018054610dae90613433565b80601f0160208091040260200160405190810160405280929190818152602001828054610dda90613433565b8015610e275780601f10610dfc57610100808354040283529160200191610e27565b820191906000526020600020905b815481529060010190602001808311610e0a57829003601f168201915b505050505090806008018054610e3c90613433565b80601f0160208091040260200160405190810160405280929190818152602001828054610e6890613433565b8015610eb55780601f10610e8a57610100808354040283529160200191610eb5565b820191906000526020600020905b815481529060010190602001808311610e9857829003601f168201915b5050505050908060090160009054906101000a900473ffffffffffffffffffffffffffffffffffffffff169080600a015490508b565b60606000610ef883610961565b67ffffffffffffffff811115610f1157610f106125bb565b5b604051908082528060200260200182016040528015610f4a57816020015b610f37612486565b815260200190600190039081610f2f5790505b50905060005b60005481101561124a5783604051602001610f6b9190613371565b604051602081830303815290604052805190602001206005600083815260200190815260200160002060010160009054906101000a900473ffffffffffffffffffffffffffffffffffffffff16604051602001610fc89190613371565b60405160208183030381529060405280519060200120141561123757600560008281526020019081526020016000206040518060a0016040529081600082015481526020016001820160009054906101000a900473ffffffffffffffffffffffffffffffffffffffff1673ffffffffffffffffffffffffffffffffffffffff1673ffffffffffffffffffffffffffffffffffffffff16815260200160028201805461107290613433565b80601f016020809104026020016040519081016040528092919081815260200182805461109e90613433565b80156110eb5780601f106110c0576101008083540402835291602001916110eb565b820191906000526020600020905b8154815290600101906020018083116110ce57829003601f168201915b5050505050815260200160038201805461110490613433565b80601f016020809104026020016040519081016040528092919081815260200182805461113090613433565b801561117d5780601f106111525761010080835404028352916020019161117d565b820191906000526020600020905b81548152906001019060200180831161116057829003601f168201915b5050505050815260200160048201805461119690613433565b80601f01602080910402602001604051908101604052809291908181526020018280546111c290613433565b801561120f5780601f106111e45761010080835404028352916020019161120f565b820191906000526020600020905b8154815290600101906020018083116111f257829003601f168201915b50505050508152505082828151811061122b5761122a613465565b5b60200260200101819052505b8080611242906133bb565b915050610f50565b5080915050919050565b60008060046000600254815260200190815260200160002090508c8160000160006101000a81548160ff0219169083151502179055508b8160000160016101000a81548160ff0219169083151502179055508a8160000160026101000a81548160ff021916908315150217905550898160000160036101000a81548160ff021916908315150217905550888160000160046101000a81548160ff021916908315150217905550878160000160056101000a81548160ff021916908315150217905550868160000160066101000a81548160ff021916908315150217905550858160000160076101000a81548160ff021916908315150217905550848160000160086101000a81548160ff021916908315150217905550838160000160096101000a81548160ff0219169083151502179055508281600101908051906020019061139e929190612400565b50600060028190555060019150509b9a5050505050505050505050565b6000806000806000905060008060005b600054811015611554576040516020016113e4906134e0565b60405160208183030381529060405280519060200120600360008381526020019081526020016000206007016040516020016114209190613589565b60405160208183030381529060405280519060200120141561144f578380611447906133bb565b945050611541565b60405160200161145e906135ec565b604051602081830303815290604052805190602001206003600083815260200190815260200160002060070160405160200161149a9190613589565b6040516020818303038152906040528051906020012014156114c95782806114c1906133bb565b935050611540565b6040516020016114d89061364d565b60405160208183030381529060405280519060200120600360008381526020019081526020016000206007016040516020016115149190613589565b60405160208183030381529060405280519060200120141561153f57818061153b906133bb565b9250505b5b5b808061154c906133bb565b9150506113cb565b50828282955095509550505050909192565b606080606080606080606060006060600080600090505b600054811015611b70578b73ffffffffffffffffffffffffffffffffffffffff166003600083815260200190815260200160002060090160009054906101000a900473ffffffffffffffffffffffffffffffffffffffff1673ffffffffffffffffffffffffffffffffffffffff161415611b5d57600060036000838152602001908152602001600020604051806101600160405290816000820154815260200160018201805461162c90613433565b80601f016020809104026020016040519081016040528092919081815260200182805461165890613433565b80156116a55780601f1061167a576101008083540402835291602001916116a5565b820191906000526020600020905b81548152906001019060200180831161168857829003601f168201915b505050505081526020016002820180546116be90613433565b80601f01602080910402602001604051908101604052809291908181526020018280546116ea90613433565b80156117375780601f1061170c57610100808354040283529160200191611737565b820191906000526020600020905b81548152906001019060200180831161171a57829003601f168201915b5050505050815260200160038201805461175090613433565b80601f016020809104026020016040519081016040528092919081815260200182805461177c90613433565b80156117c95780601f1061179e576101008083540402835291602001916117c9565b820191906000526020600020905b8154815290600101906020018083116117ac57829003601f168201915b505050505081526020016004820180546117e290613433565b80601f016020809104026020016040519081016040528092919081815260200182805461180e90613433565b801561185b5780601f106118305761010080835404028352916020019161185b565b820191906000526020600020905b81548152906001019060200180831161183e57829003601f168201915b5050505050815260200160058201805461187490613433565b80601f01602080910402602001604051908101604052809291908181526020018280546118a090613433565b80156118ed5780601f106118c2576101008083540402835291602001916118ed565b820191906000526020600020905b8154815290600101906020018083116118d057829003601f168201915b5050505050815260200160068201805461190690613433565b80601f016020809104026020016040519081016040528092919081815260200182805461193290613433565b801561197f5780601f106119545761010080835404028352916020019161197f565b820191906000526020600020905b81548152906001019060200180831161196257829003601f168201915b5050505050815260200160078201805461199890613433565b80601f01602080910402602001604051908101604052809291908181526020018280546119c490613433565b8015611a115780601f106119e657610100808354040283529160200191611a11565b820191906000526020600020905b8154815290600101906020018083116119f457829003601f168201915b50505050508152602001600882018054611a2a90613433565b80601f0160208091040260200160405190810160405280929190818152602001828054611a5690613433565b8015611aa35780601f10611a7857610100808354040283529160200191611aa3565b820191906000526020600020905b815481529060010190602001808311611a8657829003601f168201915b505050505081526020016009820160009054906101000a900473ffffffffffffffffffffffffffffffffffffffff1673ffffffffffffffffffffffffffffffffffffffff1673ffffffffffffffffffffffffffffffffffffffff168152602001600a8201548152505090508060200151816040015182606001518360a001518460c001518560e00151866101000151876000015188608001518961014001519b509b509b509b509b509b509b509b509b509b505050611bac565b8080611b68906133bb565b91505061157d565b506040517f08c379a0000000000000000000000000000000000000000000000000000000008152600401611ba3906136ae565b60405180910390fd5b9193959799509193959799565b60008054905090565b60056020528060005260406000206000915090508060000154908060010160009054906101000a900473ffffffffffffffffffffffffffffffffffffffff1690806002018054611c1190613433565b80601f0160208091040260200160405190810160405280929190818152602001828054611c3d90613433565b8015611c8a5780601f10611c5f57610100808354040283529160200191611c8a565b820191906000526020600020905b815481529060010190602001808311611c6d57829003601f168201915b505050505090806003018054611c9f90613433565b80601f0160208091040260200160405190810160405280929190818152602001828054611ccb90613433565b8015611d185780601f10611ced57610100808354040283529160200191611d18565b820191906000526020600020905b815481529060010190602001808311611cfb57829003601f168201915b505050505090806004018054611d2d90613433565b80601f0160208091040260200160405190810160405280929190818152602001828054611d5990613433565b8015611da65780601f10611d7b57610100808354040283529160200191611da6565b820191906000526020600020905b815481529060010190602001808311611d8957829003601f168201915b5050505050905085565b60025481565b6000611dc06124cb565b6000548160000181815250508a8160200181905250898160400181905250888160600181905250878160800181905250868160a00181905250858160c00181905250848160e00181905250838161010001819052508281610120019073ffffffffffffffffffffffffffffffffffffffff16908173ffffffffffffffffffffffffffffffffffffffff16815250504281610140018181525050806003600080548152602001908152602001600020600082015181600001556020820151816001019080519060200190611e94929190612400565b506040820151816002019080519060200190611eb1929190612400565b506060820151816003019080519060200190611ece929190612400565b506080820151816004019080519060200190611eeb929190612400565b5060a0820151816005019080519060200190611f08929190612400565b5060c0820151816006019080519060200190611f25929190612400565b5060e0820151816007019080519060200190611f42929190612400565b50610100820151816008019080519060200190611f60929190612400565b506101208201518160090160006101000a81548173ffffffffffffffffffffffffffffffffffffffff021916908373ffffffffffffffffffffffffffffffffffffffff16021790555061014082015181600a015590505060019150509998505050505050505050565b60008060008060008060008060008060606000600460008e8152602001908152602001600020604051806101600160405290816000820160009054906101000a900460ff161515151581526020016000820160019054906101000a900460ff161515151581526020016000820160029054906101000a900460ff161515151581526020016000820160039054906101000a900460ff161515151581526020016000820160049054906101000a900460ff161515151581526020016000820160059054906101000a900460ff161515151581526020016000820160069054906101000a900460ff161515151581526020016000820160079054906101000a900460ff161515151581526020016000820160089054906101000a900460ff161515151581526020016000820160099054906101000a900460ff1615151515815260200160018201805461211990613433565b80601f016020809104026020016040519081016040528092919081815260200182805461214590613433565b80156121925780601f1061216757610100808354040283529160200191612192565b820191906000526020600020905b81548152906001019060200180831161217557829003601f168201915b5050505050815250509050806000015181602001518260400151836060015184608001518560a001518660c001518760e001518861010001518961012001518a61014001519b509b509b509b509b509b509b509b509b509b509b505091939597999b90929496989a50565b60006040518061016001604052808d151581526020018c151581526020018b151581526020018a1515815260200189151581526020018815158152602001871515815260200186151581526020018515158152602001841515815260200183815250600460008054815260200190815260200160002060008201518160000160006101000a81548160ff02191690831515021790555060208201518160000160016101000a81548160ff02191690831515021790555060408201518160000160026101000a81548160ff02191690831515021790555060608201518160000160036101000a81548160ff02191690831515021790555060808201518160000160046101000a81548160ff02191690831515021790555060a08201518160000160056101000a81548160ff02191690831515021790555060c08201518160000160066101000a81548160ff02191690831515021790555060e08201518160000160076101000a81548160ff0219169083151502179055506101008201518160000160086101000a81548160ff0219169083151502179055506101208201518160000160096101000a81548160ff0219169083151502179055506101408201518160010190805190602001906123d2929190612400565b509050506000808154809291906123e8906133bb565b9190505550600190509b9a5050505050505050505050565b82805461240c90613433565b90600052602060002090601f01602090048101928261242e5760008555612475565b82601f1061244757805160ff1916838001178555612475565b82800160010185558215612475579182015b82811115612474578251825591602001919060010190612459565b5b509050612482919061253b565b5090565b6040518060a0016040528060008152602001600073ffffffffffffffffffffffffffffffffffffffff1681526020016060815260200160608152602001606081525090565b604051806101600160405280600081526020016060815260200160608152602001606081526020016060815260200160608152602001606081526020016060815260200160608152602001600073ffffffffffffffffffffffffffffffffffffffff168152602001600081525090565b5b8082111561255457600081600090555060010161253c565b5090565b6000819050919050565b61256b81612558565b82525050565b60006020820190506125866000830184612562565b92915050565b6000604051905090565b600080fd5b600080fd5b600080fd5b600080fd5b6000601f19601f8301169050919050565b7f4e487b7100000000000000000000000000000000000000000000000000000000600052604160045260246000fd5b6125f3826125aa565b810181811067ffffffffffffffff82111715612612576126116125bb565b5b80604052505050565b600061262561258c565b905061263182826125ea565b919050565b600067ffffffffffffffff821115612651576126506125bb565b5b61265a826125aa565b9050602081019050919050565b82818337600083830152505050565b600061268961268484612636565b61261b565b9050828152602081018484840111156126a5576126a46125a5565b5b6126b0848285612667565b509392505050565b600082601f8301126126cd576126cc6125a0565b5b81356126dd848260208601612676565b91505092915050565b600080600080600080600080610100898b03121561270757612706612596565b5b600089013567ffffffffffffffff8111156127255761272461259b565b5b6127318b828c016126b8565b985050602089013567ffffffffffffffff8111156127525761275161259b565b5b61275e8b828c016126b8565b975050604089013567ffffffffffffffff81111561277f5761277e61259b565b5b61278b8b828c016126b8565b965050606089013567ffffffffffffffff8111156127ac576127ab61259b565b5b6127b88b828c016126b8565b955050608089013567ffffffffffffffff8111156127d9576127d861259b565b5b6127e58b828c016126b8565b94505060a089013567ffffffffffffffff8111156128065761280561259b565b5b6128128b828c016126b8565b93505060c089013567ffffffffffffffff8111156128335761283261259b565b5b61283f8b828c016126b8565b92505060e089013567ffffffffffffffff8111156128605761285f61259b565b5b61286c8b828c016126b8565b9150509295985092959890939650565b60008115159050919050565b6128918161287c565b82525050565b60006020820190506128ac6000830184612888565b92915050565b6128bb81612558565b81146128c657600080fd5b50565b6000813590506128d8816128b2565b92915050565b6000602082840312156128f4576128f3612596565b5b6000612902848285016128c9565b91505092915050565b600081519050919050565b600082825260208201905092915050565b60005b8381101561294557808201518184015260208101905061292a565b83811115612954576000848401525b50505050565b60006129658261290b565b61296f8185612916565b935061297f818560208601612927565b612988816125aa565b840191505092915050565b600073ffffffffffffffffffffffffffffffffffffffff82169050919050565b60006129be82612993565b9050919050565b6129ce816129b3565b82525050565b600060408201905081810360008301526129ee818561295a565b90506129fd60208301846129c5565b9392505050565b612a0d816129b3565b8114612a1857600080fd5b50565b600081359050612a2a81612a04565b92915050565b60008060008060808587031215612a4a57612a49612596565b5b6000612a5887828801612a1b565b945050602085013567ffffffffffffffff811115612a7957612a7861259b565b5b612a85878288016126b8565b935050604085013567ffffffffffffffff811115612aa657612aa561259b565b5b612ab2878288016126b8565b925050606085013567ffffffffffffffff811115612ad357612ad261259b565b5b612adf878288016126b8565b91505092959194509250565b600061016082019050612b01600083018e612888565b612b0e602083018d612888565b612b1b604083018c612888565b612b28606083018b612888565b612b35608083018a612888565b612b4260a0830189612888565b612b4f60c0830188612888565b612b5c60e0830187612888565b612b6a610100830186612888565b612b78610120830185612888565b818103610140830152612b8b818461295a565b90509c9b505050505050505050505050565b600060208284031215612bb357612bb2612596565b5b6000612bc184828501612a1b565b91505092915050565b600061016082019050612be0600083018e612562565b8181036020830152612bf2818d61295a565b90508181036040830152612c06818c61295a565b90508181036060830152612c1a818b61295a565b90508181036080830152612c2e818a61295a565b905081810360a0830152612c42818961295a565b905081810360c0830152612c56818861295a565b905081810360e0830152612c6a818761295a565b9050818103610100830152612c7f818661295a565b9050612c8f6101208301856129c5565b612c9d610140830184612562565b9c9b505050505050505050505050565b600081519050919050565b600082825260208201905092915050565b6000819050602082019050919050565b612ce281612558565b82525050565b612cf1816129b3565b82525050565b600082825260208201905092915050565b6000612d138261290b565b612d1d8185612cf7565b9350612d2d818560208601612927565b612d36816125aa565b840191505092915050565b600060a083016000830151612d596000860182612cd9565b506020830151612d6c6020860182612ce8565b5060408301518482036040860152612d848282612d08565b91505060608301518482036060860152612d9e8282612d08565b91505060808301518482036080860152612db88282612d08565b9150508091505092915050565b6000612dd18383612d41565b905092915050565b6000602082019050919050565b6000612df182612cad565b612dfb8185612cb8565b935083602082028501612e0d85612cc9565b8060005b85811015612e495784840389528151612e2a8582612dc5565b9450612e3583612dd9565b925060208a01995050600181019050612e11565b50829750879550505050505092915050565b60006020820190508181036000830152612e758184612de6565b905092915050565b612e868161287c565b8114612e9157600080fd5b50565b600081359050612ea381612e7d565b92915050565b60008060008060008060008060008060006101608c8e031215612ecf57612ece612596565b5b6000612edd8e828f01612e94565b9b50506020612eee8e828f01612e94565b9a50506040612eff8e828f01612e94565b9950506060612f108e828f01612e94565b9850506080612f218e828f01612e94565b97505060a0612f328e828f01612e94565b96505060c0612f438e828f01612e94565b95505060e0612f548e828f01612e94565b945050610100612f668e828f01612e94565b935050610120612f788e828f01612e94565b9250506101408c013567ffffffffffffffff811115612f9a57612f9961259b565b5b612fa68e828f016126b8565b9150509295989b509295989b9093969950565b6000606082019050612fce6000830186612562565b612fdb6020830185612562565b612fe86040830184612562565b949350505050565b600061014082019050818103600083015261300b818d61295a565b9050818103602083015261301f818c61295a565b90508181036040830152613033818b61295a565b90508181036060830152613047818a61295a565b9050818103608083015261305b818961295a565b905081810360a083015261306f818861295a565b905081810360c0830152613083818761295a565b905061309260e0830186612562565b8181036101008301526130a5818561295a565b90506130b5610120830184612562565b9b9a5050505050505050505050565b600060a0820190506130d96000830188612562565b6130e660208301876129c5565b81810360408301526130f8818661295a565b9050818103606083015261310c818561295a565b90508181036080830152613120818461295a565b90509695505050505050565b60008060008060008060008060006101208a8c03121561314f5761314e612596565b5b60008a013567ffffffffffffffff81111561316d5761316c61259b565b5b6131798c828d016126b8565b99505060208a013567ffffffffffffffff81111561319a5761319961259b565b5b6131a68c828d016126b8565b98505060408a013567ffffffffffffffff8111156131c7576131c661259b565b5b6131d38c828d016126b8565b97505060608a013567ffffffffffffffff8111156131f4576131f361259b565b5b6132008c828d016126b8565b96505060808a013567ffffffffffffffff8111156132215761322061259b565b5b61322d8c828d016126b8565b95505060a08a013567ffffffffffffffff81111561324e5761324d61259b565b5b61325a8c828d016126b8565b94505060c08a013567ffffffffffffffff81111561327b5761327a61259b565b5b6132878c828d016126b8565b93505060e08a013567ffffffffffffffff8111156132a8576132a761259b565b5b6132b48c828d016126b8565b9250506101006132c68c828d01612a1b565b9150509295985092959850929598565b600081905092915050565b60006132ec8261290b565b6132f681856132d6565b9350613306818560208601612927565b80840191505092915050565b600061331e82846132e1565b915081905092915050565b60008160601b9050919050565b600061334182613329565b9050919050565b600061335382613336565b9050919050565b61336b613366826129b3565b613348565b82525050565b600061337d828461335a565b60148201915081905092915050565b7f4e487b7100000000000000000000000000000000000000000000000000000000600052601160045260246000fd5b60006133c682612558565b91507fffffffffffffffffffffffffffffffffffffffffffffffffffffffffffffffff8214156133f9576133f861338c565b5b600182019050919050565b7f4e487b7100000000000000000000000000000000000000000000000000000000600052602260045260246000fd5b6000600282049050600182168061344b57607f821691505b6020821081141561345f5761345e613404565b5b50919050565b7f4e487b7100000000000000000000000000000000000000000000000000000000600052603260045260246000fd5b7f4865616c74687900000000000000000000000000000000000000000000000000600082015250565b60006134ca6007836132d6565b91506134d582613494565b600782019050919050565b60006134eb826134bd565b9150819050919050565b60008190508160005260206000209050919050565b6000815461351781613433565b61352181866132d6565b9450600182166000811461353c576001811461354d57613580565b60ff19831686528186019350613580565b613556856134f5565b60005b8381101561357857815481890152600182019150602081019050613559565b838801955050505b50505092915050565b6000613595828461350a565b915081905092915050565b7f5369636b00000000000000000000000000000000000000000000000000000000600082015250565b60006135d66004836132d6565b91506135e1826135a0565b600482019050919050565b60006135f7826135c9565b9150819050919050565b7f4465636561736564000000000000000000000000000000000000000000000000600082015250565b60006136376008836132d6565b915061364282613601565b600882019050919050565b60006136588261362a565b9150819050919050565b7f4e6f7420666f756e640000000000000000000000000000000000000000000000600082015250565b6000613698600983612916565b91506136a382613662565b602082019050919050565b600060208201905081810360008301526136c78161368b565b905091905056fea26469706673582212202efbf209be114937fd7c4f324a04b34a0cb63a198d1a09149090284682a7694f64736f6c634300080a0033",
  "immutableReferences": {},
  "source": "// SPDX-License-Identifier: MIT\r\npragma solidity >=0.4.22 <0.9.0;\r\n\r\ncontract Patient {\r\n    \r\n    struct structPatient{\r\n        uint id;\r\n        string fullName;\r\n        string dateOfBirth;\r\n        string CNIC;\r\n        string creatorAddress;\r\n        string PhoneNo;\r\n        string email;\r\n        string status;\r\n        string gender;\r\n        address accountAddress;\r\n        uint dateCreated;\r\n    }\r\n    struct commonMedicalConditions{\r\n        bool AlcoholOrDrugDependence;\r\n        bool Seizure;\r\n        bool HeartDisease;\r\n        bool Blackout;\r\n        bool Stroke;\r\n        bool VisualFieldOrAcuityImpairment;\r\n        bool Diabetes;\r\n        bool MentalOrEmotionalIllness;\r\n        bool DementiaOrAlzheimer;\r\n        bool SleepApneaOrNarcolepsy;\r\n        string other;\r\n    }\r\n    struct structPatientReport{\r\n        uint reportId;\r\n        address patientAddress;\r\n        string Title;\r\n        string Description;\r\n        string Report;\r\n    }\r\n    uint public patientCount = 0;\r\n    uint public reportCount = 0;\r\n    uint public currentId = 0;\r\n\r\n    mapping(uint => structPatient) public Patients;\r\n    mapping(uint => commonMedicalConditions) public MedicalConditions;\r\n    mapping(uint => structPatientReport) public PatientReports;\r\n\r\n    constructor () {\r\n    }\r\n     function AddPatient(string memory _fullName, string memory _dateOfBirth, string memory _cnic, \r\n                        string memory _hospitalId, string memory _phoneNo, string memory _email, string memory _status, string memory _gender, address _accountAddress) public returns (bool)\r\n    {\r\n            structPatient memory patient;\r\n            patient.id = patientCount;\r\n            patient.fullName = _fullName;\r\n            patient.dateOfBirth = _dateOfBirth;\r\n            patient.CNIC = _cnic;\r\n            patient.creatorAddress = _hospitalId;\r\n            patient.PhoneNo = _phoneNo;\r\n            patient.email = _email;\r\n            patient.status = _status;\r\n            patient.gender = _gender;\r\n            patient.accountAddress = _accountAddress;\r\n            patient.dateCreated = block.timestamp;\r\n            Patients[patientCount] = patient;  \r\n            return true;\r\n      \r\n    }\r\n\r\n    function AddMedicalCondition(bool _dependence, bool _seizure, bool _heartDisease, bool _blackout, bool _stroke, bool _VFAI, bool _diabetes, bool _mentalIllness, bool _dementia, bool _sleepApneaOrNarcolepsy, string memory _other) public returns (bool)\r\n    {\r\n        MedicalConditions[patientCount] = commonMedicalConditions(_dependence, _seizure, _heartDisease, _blackout, _stroke, _VFAI, _diabetes, _mentalIllness, _dementia, _sleepApneaOrNarcolepsy, _other);\r\n        patientCount++;\r\n        return true;\r\n    }\r\n\r\n    function getPatientCount() public view returns (uint) {\r\n        return patientCount;\r\n    }\r\n\r\n    function getPatientStatus() public view returns (uint, uint, uint) {\r\n        uint healthyCount = 0;\r\n        uint sickCount = 0;\r\n        uint deceasedCount = 0;\r\n\r\n        for (uint i = 0; i < patientCount; i++) \r\n        {\r\n             if(keccak256(abi.encodePacked(Patients[i].status)) == keccak256(abi.encodePacked(\"Healthy\")))\r\n             {\r\n                healthyCount++;\r\n             }\r\n             else if(keccak256(abi.encodePacked(Patients[i].status)) == keccak256(abi.encodePacked(\"Sick\")))\r\n             {\r\n                 sickCount++;\r\n             }\r\n             else if(keccak256(abi.encodePacked(Patients[i].status)) == keccak256(abi.encodePacked(\"Deceased\")))\r\n             {\r\n                 deceasedCount++;\r\n             }\r\n        }\r\n\r\n        return (healthyCount, sickCount, deceasedCount);\r\n    }\r\n\r\n    function getPatientNameAddress(uint id) public view returns (string memory, address)\r\n    {\r\n        return (Patients[id].fullName, Patients[id].accountAddress);\r\n    }\r\n    function addReport(address _patientAddress, string memory _tittle, string memory _description, string memory _report) public returns (bool) {\r\n            \r\n            PatientReports[reportCount] = structPatientReport(reportCount,_patientAddress, _tittle,  _description,  _report); \r\n            reportCount ++;\r\n            return true;\r\n    }\r\n    function getReport(address _patientAddress) public view returns(structPatientReport[] memory)\r\n    {\r\n        structPatientReport[] memory patientReport = new structPatientReport[](getReportCount(_patientAddress));\r\n        for (uint i = 0; i <patientCount; i++) \r\n        {\r\n             if(keccak256(abi.encodePacked(PatientReports[i].patientAddress)) == keccak256(abi.encodePacked(_patientAddress)))\r\n             {\r\n                patientReport[i] = PatientReports[i];\r\n             }\r\n        }\r\n        return patientReport;\r\n    }\r\n    function getReportCount(address _patientAddress) public view returns(uint) {\r\n       \r\n        uint count = 0;\r\n        for (uint i = 0; i <patientCount; i++) \r\n        {\r\n             if(keccak256(abi.encodePacked(PatientReports[i].patientAddress)) == keccak256(abi.encodePacked(_patientAddress))) count++;\r\n        }\r\n        return count;\r\n    }\r\n\r\n\r\n    function getPatient(address _address) public view returns (string memory,\r\n        string memory,\r\n        string memory,\r\n        string memory,\r\n        string memory,\r\n        string memory,\r\n        string memory, uint id, string memory, uint)\r\n    {\r\n        for (uint i = 0; i < patientCount; i++) \r\n        {\r\n            if(Patients[i].accountAddress == _address)\r\n            {\r\n                structPatient memory patient = Patients[i];\r\n                return (patient.fullName, patient.dateOfBirth, patient.CNIC, patient.PhoneNo, patient.email, patient.status, patient.gender, patient.id, patient.creatorAddress, patient.dateCreated);\r\n            }\r\n        }\r\n        revert(\"Not found\");\r\n    }\r\n\r\n    function getPatientConditions(uint id) public view returns (bool, bool, bool, bool, bool, bool, bool, bool, bool, bool, string memory) {\r\n        commonMedicalConditions memory conditions = MedicalConditions[id];\r\n        return (conditions.AlcoholOrDrugDependence, conditions.Seizure, conditions.HeartDisease, conditions.Blackout, conditions.Stroke, conditions.VisualFieldOrAcuityImpairment, conditions.Diabetes, conditions.MentalOrEmotionalIllness, conditions.DementiaOrAlzheimer, conditions.SleepApneaOrNarcolepsy, conditions.other);\r\n    }\r\n\r\n    function updatePatient(string memory _id, string memory _name, string memory _dob, string memory _cnic, string memory _number, \r\n                            string memory _email, string memory _status, string memory _gender)  public  returns (bool)\r\n    {\r\n         for(uint i = 0; i < patientCount; i++){\r\n\r\n            if(keccak256(abi.encodePacked(Patients[i].accountAddress)) == keccak256(abi.encodePacked(_id)) )\r\n            {\r\n                structPatient storage patient = Patients[i];\r\n                patient.fullName = _name;\r\n                patient.dateOfBirth = _dob;\r\n                patient.CNIC = _cnic;\r\n                patient.PhoneNo = _number;\r\n                patient.email = _email;\r\n                patient.status = _status;\r\n                patient.gender = _gender;\r\n                currentId = patient.id;\r\n                return true; // record updated successfully\r\n            }\r\n        }\r\n        return false; \r\n    }\r\n\r\n    function updateConditions(bool _dependence, bool _seizure, bool _heartDisease, bool _blackout, bool _stroke, bool _VFAI, bool _diabetes, bool _mentalIllness, bool _dementia, bool _sleepApneaOrNarcolepsy, string memory _other) public returns (bool)\r\n    {\r\n         commonMedicalConditions storage conditions = MedicalConditions[currentId];\r\n         conditions.AlcoholOrDrugDependence = _dependence;\r\n         conditions.Seizure = _seizure;\r\n         conditions.HeartDisease = _heartDisease;\r\n         conditions.Blackout = _blackout;\r\n         conditions.Stroke = _stroke;\r\n         conditions.VisualFieldOrAcuityImpairment = _VFAI;\r\n         conditions.Diabetes = _diabetes;\r\n         conditions.MentalOrEmotionalIllness = _mentalIllness;\r\n         conditions.DementiaOrAlzheimer = _dementia;\r\n         conditions.SleepApneaOrNarcolepsy = _sleepApneaOrNarcolepsy;\r\n         conditions.other = _other;\r\n         currentId = 0;\r\n         return true;\r\n    }\r\n}\r\n",
  "sourcePath": "D:\\Documents\\Custom Office Templates\\Final Year Project\\decentralized-patient-centered-health-records-and-exchange\\decentralized-patient-centered-health-records-and-exchange\\contracts\\Patient.sol",
  "compiler": {
    "name": "solc",
    "version": "0.8.10+commit.fc410830.Emscripten.clang"
  },
  "schemaVersion": "3.4.3",
  "updatedAt": "2022-02-02T11:10:53.364Z",
  "networkType": "ethereum",
  "devdoc": {
    "kind": "dev",
    "methods": {},
    "version": 1
  },
  "userdoc": {
    "kind": "user",
    "methods": {},
    "version": 1
  }
}