{
  "contractName": "Patient",
  "abi": [
    {
      "inputs": [],
      "stateMutability": "nonpayable",
      "type": "constructor"
    },
    {
      "inputs": [
        {
          "internalType": "uint256",
          "name": "",
          "type": "uint256"
        }
      ],
      "name": "MedicalConditions",
      "outputs": [
        {
          "internalType": "bool",
          "name": "AlcoholOrDrugDependence",
          "type": "bool"
        },
        {
          "internalType": "bool",
          "name": "Seizure",
          "type": "bool"
        },
        {
          "internalType": "bool",
          "name": "HeartDisease",
          "type": "bool"
        },
        {
          "internalType": "bool",
          "name": "Blackout",
          "type": "bool"
        },
        {
          "internalType": "bool",
          "name": "Stroke",
          "type": "bool"
        },
        {
          "internalType": "bool",
          "name": "VisualFieldOrAcuityImpairment",
          "type": "bool"
        },
        {
          "internalType": "bool",
          "name": "Diabetes",
          "type": "bool"
        },
        {
          "internalType": "bool",
          "name": "MentalOrEmotionalIllness",
          "type": "bool"
        },
        {
          "internalType": "bool",
          "name": "DementiaOrAlzheimer",
          "type": "bool"
        },
        {
          "internalType": "bool",
          "name": "SleepApneaOrNarcolepsy",
          "type": "bool"
        },
        {
          "internalType": "string",
          "name": "other",
          "type": "string"
        }
      ],
      "stateMutability": "view",
      "type": "function",
      "constant": true
    },
    {
      "inputs": [
        {
          "internalType": "uint256",
          "name": "",
          "type": "uint256"
        }
      ],
      "name": "PatientReports",
      "outputs": [
        {
          "internalType": "uint256",
          "name": "reportId",
          "type": "uint256"
        },
        {
          "internalType": "address",
          "name": "patientAddress",
          "type": "address"
        },
        {
          "internalType": "string",
          "name": "Title",
          "type": "string"
        },
        {
          "internalType": "string",
          "name": "Description",
          "type": "string"
        },
        {
          "internalType": "string",
          "name": "Report",
          "type": "string"
        }
      ],
      "stateMutability": "view",
      "type": "function",
      "constant": true
    },
    {
      "inputs": [
        {
          "internalType": "uint256",
          "name": "",
          "type": "uint256"
        }
      ],
      "name": "Patients",
      "outputs": [
        {
          "internalType": "uint256",
          "name": "id",
          "type": "uint256"
        },
        {
          "internalType": "string",
          "name": "fullName",
          "type": "string"
        },
        {
          "internalType": "string",
          "name": "dateOfBirth",
          "type": "string"
        },
        {
          "internalType": "string",
          "name": "CNIC",
          "type": "string"
        },
        {
          "internalType": "string",
          "name": "creatorAddress",
          "type": "string"
        },
        {
          "internalType": "string",
          "name": "PhoneNo",
          "type": "string"
        },
        {
          "internalType": "string",
          "name": "email",
          "type": "string"
        },
        {
          "internalType": "string",
          "name": "status",
          "type": "string"
        },
        {
          "internalType": "string",
          "name": "gender",
          "type": "string"
        },
        {
          "internalType": "string",
          "name": "accountAddress",
          "type": "string"
        },
        {
          "internalType": "uint256",
          "name": "dateCreated",
          "type": "uint256"
        }
      ],
      "stateMutability": "view",
      "type": "function",
      "constant": true
    },
    {
      "inputs": [],
      "name": "patientCount",
      "outputs": [
        {
          "internalType": "uint256",
          "name": "",
          "type": "uint256"
        }
      ],
      "stateMutability": "view",
      "type": "function",
      "constant": true
    },
    {
      "inputs": [],
      "name": "reportCount",
      "outputs": [
        {
          "internalType": "uint256",
          "name": "",
          "type": "uint256"
        }
      ],
      "stateMutability": "view",
      "type": "function",
      "constant": true
    },
    {
      "inputs": [
        {
          "internalType": "string",
          "name": "_fullName",
          "type": "string"
        },
        {
          "internalType": "string",
          "name": "_dateOfBirth",
          "type": "string"
        },
        {
          "internalType": "string",
          "name": "_cnic",
          "type": "string"
        },
        {
          "internalType": "string",
          "name": "_hospitalId",
          "type": "string"
        },
        {
          "internalType": "string",
          "name": "_phoneNo",
          "type": "string"
        },
        {
          "internalType": "string",
          "name": "_email",
          "type": "string"
        },
        {
          "internalType": "string",
          "name": "_status",
          "type": "string"
        },
        {
          "internalType": "string",
          "name": "_gender",
          "type": "string"
        },
        {
          "internalType": "string",
          "name": "_accountAddress",
          "type": "string"
        }
      ],
      "name": "AddPatient",
      "outputs": [
        {
          "internalType": "bool",
          "name": "",
          "type": "bool"
        }
      ],
      "stateMutability": "nonpayable",
      "type": "function"
    },
    {
      "inputs": [
        {
          "internalType": "bool",
          "name": "_dependence",
          "type": "bool"
        },
        {
          "internalType": "bool",
          "name": "_seizure",
          "type": "bool"
        },
        {
          "internalType": "bool",
          "name": "_heartDisease",
          "type": "bool"
        },
        {
          "internalType": "bool",
          "name": "_blackout",
          "type": "bool"
        },
        {
          "internalType": "bool",
          "name": "_stroke",
          "type": "bool"
        },
        {
          "internalType": "bool",
          "name": "_VFAI",
          "type": "bool"
        },
        {
          "internalType": "bool",
          "name": "_diabetes",
          "type": "bool"
        },
        {
          "internalType": "bool",
          "name": "_mentalIllness",
          "type": "bool"
        },
        {
          "internalType": "bool",
          "name": "_dementia",
          "type": "bool"
        },
        {
          "internalType": "bool",
          "name": "_sleepApneaOrNarcolepsy",
          "type": "bool"
        },
        {
          "internalType": "string",
          "name": "_other",
          "type": "string"
        }
      ],
      "name": "AddMedicalCondition",
      "outputs": [
        {
          "internalType": "bool",
          "name": "",
          "type": "bool"
        }
      ],
      "stateMutability": "nonpayable",
      "type": "function"
    },
    {
      "inputs": [],
      "name": "getAll",
      "outputs": [
        {
          "components": [
            {
              "internalType": "uint256",
              "name": "id",
              "type": "uint256"
            },
            {
              "internalType": "string",
              "name": "fullName",
              "type": "string"
            },
            {
              "internalType": "string",
              "name": "dateOfBirth",
              "type": "string"
            },
            {
              "internalType": "string",
              "name": "CNIC",
              "type": "string"
            },
            {
              "internalType": "string",
              "name": "creatorAddress",
              "type": "string"
            },
            {
              "internalType": "string",
              "name": "PhoneNo",
              "type": "string"
            },
            {
              "internalType": "string",
              "name": "email",
              "type": "string"
            },
            {
              "internalType": "string",
              "name": "status",
              "type": "string"
            },
            {
              "internalType": "string",
              "name": "gender",
              "type": "string"
            },
            {
              "internalType": "string",
              "name": "accountAddress",
              "type": "string"
            },
            {
              "internalType": "uint256",
              "name": "dateCreated",
              "type": "uint256"
            }
          ],
          "internalType": "struct Patient.structPatient[]",
          "name": "",
          "type": "tuple[]"
        }
      ],
      "stateMutability": "view",
      "type": "function",
      "constant": true
    },
    {
      "inputs": [
        {
          "internalType": "address",
          "name": "_patientAddress",
          "type": "address"
        },
        {
          "internalType": "string",
          "name": "_tittle",
          "type": "string"
        },
        {
          "internalType": "string",
          "name": "_description",
          "type": "string"
        },
        {
          "internalType": "string",
          "name": "_report",
          "type": "string"
        }
      ],
      "name": "addReport",
      "outputs": [
        {
          "internalType": "bool",
          "name": "",
          "type": "bool"
        }
      ],
      "stateMutability": "nonpayable",
      "type": "function"
    },
    {
      "inputs": [
        {
          "internalType": "address",
          "name": "_patientAddress",
          "type": "address"
        }
      ],
      "name": "getReport",
      "outputs": [
        {
          "components": [
            {
              "internalType": "uint256",
              "name": "reportId",
              "type": "uint256"
            },
            {
              "internalType": "address",
              "name": "patientAddress",
              "type": "address"
            },
            {
              "internalType": "string",
              "name": "Title",
              "type": "string"
            },
            {
              "internalType": "string",
              "name": "Description",
              "type": "string"
            },
            {
              "internalType": "string",
              "name": "Report",
              "type": "string"
            }
          ],
          "internalType": "struct Patient.structPatientReport[]",
          "name": "",
          "type": "tuple[]"
        }
      ],
      "stateMutability": "view",
      "type": "function",
      "constant": true
    },
    {
      "inputs": [
        {
          "internalType": "address",
          "name": "_patientAddress",
          "type": "address"
        }
      ],
      "name": "getReportCount",
      "outputs": [
        {
          "internalType": "uint256",
          "name": "",
          "type": "uint256"
        }
      ],
      "stateMutability": "view",
      "type": "function",
      "constant": true
    }
  ],
  "bytecode": "0x608060405260008055600060015534801561001957600080fd5b50612a40806100296000396000f3fe608060405234801561001057600080fd5b50600436106100a95760003560e01c8063a0303c4111610071578063a0303c4114610184578063a1982835146101a2578063a3bdae3e146101dc578063c22b5bb61461020c578063c703c52914610240578063fe0d3dec14610270576100a9565b8063185c6f84146100ae57806353ed5143146100cc57806371f2d08c146100ea57806389c2e7c71461011a5780639e22a89314610154575b600080fd5b6100b66102a0565b6040516100c39190611b87565b60405180910390f35b6100d46102a6565b6040516100e19190611e33565b60405180910390f35b61010460048036038101906100ff9190611ffc565b6108a9565b60405161011191906120d2565b60405180910390f35b610134600480360381019061012f9190612119565b6109ce565b60405161014b9b9a99989796959493929190612190565b60405180910390f35b61016e60048036038101906101699190612242565b610b32565b60405161017b9190611b87565b60405180910390f35b61018c610bfc565b6040516101999190611b87565b60405180910390f35b6101bc60048036038101906101b79190612119565b610c02565b6040516101d39b9a9998979695949392919061226f565b60405180910390f35b6101f660048036038101906101f19190612242565b611124565b60405161020391906124ae565b60405180910390f35b61022660048036038101906102219190612119565b61148d565b6040516102379594939291906124df565b60405180910390f35b61025a60048036038101906102559190612547565b61167b565b60405161026791906120d2565b60405180910390f35b61028a60048036038101906102859190612739565b611829565b60405161029791906120d2565b60405180910390f35b60015481565b6060600060016000546102b99190612878565b67ffffffffffffffff8111156102d2576102d1611ed1565b5b60405190808252806020026020018201604052801561030b57816020015b6102f8611a2c565b8152602001906001900390816102f05790505b50905060005b6000548110156108a157600260008281526020019081526020016000206040518061016001604052908160008201548152602001600182018054610354906128fd565b80601f0160208091040260200160405190810160405280929190818152602001828054610380906128fd565b80156103cd5780601f106103a2576101008083540402835291602001916103cd565b820191906000526020600020905b8154815290600101906020018083116103b057829003601f168201915b505050505081526020016002820180546103e6906128fd565b80601f0160208091040260200160405190810160405280929190818152602001828054610412906128fd565b801561045f5780601f106104345761010080835404028352916020019161045f565b820191906000526020600020905b81548152906001019060200180831161044257829003601f168201915b50505050508152602001600382018054610478906128fd565b80601f01602080910402602001604051908101604052809291908181526020018280546104a4906128fd565b80156104f15780601f106104c6576101008083540402835291602001916104f1565b820191906000526020600020905b8154815290600101906020018083116104d457829003601f168201915b5050505050815260200160048201805461050a906128fd565b80601f0160208091040260200160405190810160405280929190818152602001828054610536906128fd565b80156105835780601f1061055857610100808354040283529160200191610583565b820191906000526020600020905b81548152906001019060200180831161056657829003601f168201915b5050505050815260200160058201805461059c906128fd565b80601f01602080910402602001604051908101604052809291908181526020018280546105c8906128fd565b80156106155780601f106105ea57610100808354040283529160200191610615565b820191906000526020600020905b8154815290600101906020018083116105f857829003601f168201915b5050505050815260200160068201805461062e906128fd565b80601f016020809104026020016040519081016040528092919081815260200182805461065a906128fd565b80156106a75780601f1061067c576101008083540402835291602001916106a7565b820191906000526020600020905b81548152906001019060200180831161068a57829003601f168201915b505050505081526020016007820180546106c0906128fd565b80601f01602080910402602001604051908101604052809291908181526020018280546106ec906128fd565b80156107395780601f1061070e57610100808354040283529160200191610739565b820191906000526020600020905b81548152906001019060200180831161071c57829003601f168201915b50505050508152602001600882018054610752906128fd565b80601f016020809104026020016040519081016040528092919081815260200182805461077e906128fd565b80156107cb5780601f106107a0576101008083540402835291602001916107cb565b820191906000526020600020905b8154815290600101906020018083116107ae57829003601f168201915b505050505081526020016009820180546107e4906128fd565b80601f0160208091040260200160405190810160405280929190818152602001828054610810906128fd565b801561085d5780601f106108325761010080835404028352916020019161085d565b820191906000526020600020905b81548152906001019060200180831161084057829003601f168201915b50505050508152602001600a820154815250508282815181106108835761088261292f565b5b602002602001018190525080806108999061295e565b915050610311565b508091505090565b60006040518060a0016040528060015481526020018673ffffffffffffffffffffffffffffffffffffffff168152602001858152602001848152602001838152506004600060015481526020019081526020016000206000820151816000015560208201518160010160006101000a81548173ffffffffffffffffffffffffffffffffffffffff021916908373ffffffffffffffffffffffffffffffffffffffff160217905550604082015181600201908051906020019061096c929190611a86565b506060820151816003019080519060200190610989929190611a86565b5060808201518160040190805190602001906109a6929190611a86565b50905050600160008154809291906109bd9061295e565b919050555060019050949350505050565b60036020528060005260406000206000915090508060000160009054906101000a900460ff16908060000160019054906101000a900460ff16908060000160029054906101000a900460ff16908060000160039054906101000a900460ff16908060000160049054906101000a900460ff16908060000160059054906101000a900460ff16908060000160069054906101000a900460ff16908060000160079054906101000a900460ff16908060000160089054906101000a900460ff16908060000160099054906101000a900460ff1690806001018054610aaf906128fd565b80601f0160208091040260200160405190810160405280929190818152602001828054610adb906128fd565b8015610b285780601f10610afd57610100808354040283529160200191610b28565b820191906000526020600020905b815481529060010190602001808311610b0b57829003601f168201915b505050505090508b565b6000806000905060005b600054811015610bf25783604051602001610b5791906129ef565b604051602081830303815290604052805190602001206004600083815260200190815260200160002060010160009054906101000a900473ffffffffffffffffffffffffffffffffffffffff16604051602001610bb491906129ef565b604051602081830303815290604052805190602001201415610bdf578180610bdb9061295e565b9250505b8080610bea9061295e565b915050610b3c565b5080915050919050565b60005481565b6002602052806000526040600020600091509050806000015490806001018054610c2b906128fd565b80601f0160208091040260200160405190810160405280929190818152602001828054610c57906128fd565b8015610ca45780601f10610c7957610100808354040283529160200191610ca4565b820191906000526020600020905b815481529060010190602001808311610c8757829003601f168201915b505050505090806002018054610cb9906128fd565b80601f0160208091040260200160405190810160405280929190818152602001828054610ce5906128fd565b8015610d325780601f10610d0757610100808354040283529160200191610d32565b820191906000526020600020905b815481529060010190602001808311610d1557829003601f168201915b505050505090806003018054610d47906128fd565b80601f0160208091040260200160405190810160405280929190818152602001828054610d73906128fd565b8015610dc05780601f10610d9557610100808354040283529160200191610dc0565b820191906000526020600020905b815481529060010190602001808311610da357829003601f168201915b505050505090806004018054610dd5906128fd565b80601f0160208091040260200160405190810160405280929190818152602001828054610e01906128fd565b8015610e4e5780601f10610e2357610100808354040283529160200191610e4e565b820191906000526020600020905b815481529060010190602001808311610e3157829003601f168201915b505050505090806005018054610e63906128fd565b80601f0160208091040260200160405190810160405280929190818152602001828054610e8f906128fd565b8015610edc5780601f10610eb157610100808354040283529160200191610edc565b820191906000526020600020905b815481529060010190602001808311610ebf57829003601f168201915b505050505090806006018054610ef1906128fd565b80601f0160208091040260200160405190810160405280929190818152602001828054610f1d906128fd565b8015610f6a5780601f10610f3f57610100808354040283529160200191610f6a565b820191906000526020600020905b815481529060010190602001808311610f4d57829003601f168201915b505050505090806007018054610f7f906128fd565b80601f0160208091040260200160405190810160405280929190818152602001828054610fab906128fd565b8015610ff85780601f10610fcd57610100808354040283529160200191610ff8565b820191906000526020600020905b815481529060010190602001808311610fdb57829003601f168201915b50505050509080600801805461100d906128fd565b80601f0160208091040260200160405190810160405280929190818152602001828054611039906128fd565b80156110865780601f1061105b57610100808354040283529160200191611086565b820191906000526020600020905b81548152906001019060200180831161106957829003601f168201915b50505050509080600901805461109b906128fd565b80601f01602080910402602001604051908101604052809291908181526020018280546110c7906128fd565b80156111145780601f106110e957610100808354040283529160200191611114565b820191906000526020600020905b8154815290600101906020018083116110f757829003601f168201915b50505050509080600a015490508b565b6060600061113183610b32565b67ffffffffffffffff81111561114a57611149611ed1565b5b60405190808252806020026020018201604052801561118357816020015b611170611b0c565b8152602001906001900390816111685790505b50905060005b60005481101561148357836040516020016111a491906129ef565b604051602081830303815290604052805190602001206004600083815260200190815260200160002060010160009054906101000a900473ffffffffffffffffffffffffffffffffffffffff1660405160200161120191906129ef565b60405160208183030381529060405280519060200120141561147057600460008281526020019081526020016000206040518060a0016040529081600082015481526020016001820160009054906101000a900473ffffffffffffffffffffffffffffffffffffffff1673ffffffffffffffffffffffffffffffffffffffff1673ffffffffffffffffffffffffffffffffffffffff1681526020016002820180546112ab906128fd565b80601f01602080910402602001604051908101604052809291908181526020018280546112d7906128fd565b80156113245780601f106112f957610100808354040283529160200191611324565b820191906000526020600020905b81548152906001019060200180831161130757829003601f168201915b5050505050815260200160038201805461133d906128fd565b80601f0160208091040260200160405190810160405280929190818152602001828054611369906128fd565b80156113b65780601f1061138b576101008083540402835291602001916113b6565b820191906000526020600020905b81548152906001019060200180831161139957829003601f168201915b505050505081526020016004820180546113cf906128fd565b80601f01602080910402602001604051908101604052809291908181526020018280546113fb906128fd565b80156114485780601f1061141d57610100808354040283529160200191611448565b820191906000526020600020905b81548152906001019060200180831161142b57829003601f168201915b5050505050815250508282815181106114645761146361292f565b5b60200260200101819052505b808061147b9061295e565b915050611189565b5080915050919050565b60046020528060005260406000206000915090508060000154908060010160009054906101000a900473ffffffffffffffffffffffffffffffffffffffff16908060020180546114dc906128fd565b80601f0160208091040260200160405190810160405280929190818152602001828054611508906128fd565b80156115555780601f1061152a57610100808354040283529160200191611555565b820191906000526020600020905b81548152906001019060200180831161153857829003601f168201915b50505050509080600301805461156a906128fd565b80601f0160208091040260200160405190810160405280929190818152602001828054611596906128fd565b80156115e35780601f106115b8576101008083540402835291602001916115e3565b820191906000526020600020905b8154815290600101906020018083116115c657829003601f168201915b5050505050908060040180546115f8906128fd565b80601f0160208091040260200160405190810160405280929190818152602001828054611624906128fd565b80156116715780601f1061164657610100808354040283529160200191611671565b820191906000526020600020905b81548152906001019060200180831161165457829003601f168201915b5050505050905085565b6000611685611a2c565b8a8160200181905250898160400181905250888160600181905250878160800181905250868160a00181905250858160c00181905250848160e001819052508381610100018190525082816101200181905250428161014001818152505080600260008054815260200190815260200160002060008201518160000155602082015181600101908051906020019061171e929190611a86565b50604082015181600201908051906020019061173b929190611a86565b506060820151816003019080519060200190611758929190611a86565b506080820151816004019080519060200190611775929190611a86565b5060a0820151816005019080519060200190611792929190611a86565b5060c08201518160060190805190602001906117af929190611a86565b5060e08201518160070190805190602001906117cc929190611a86565b506101008201518160080190805190602001906117ea929190611a86565b50610120820151816009019080519060200190611808929190611a86565b5061014082015181600a015590505060019150509998505050505050505050565b60006040518061016001604052808d151581526020018c151581526020018b151581526020018a1515815260200189151581526020018815158152602001871515815260200186151581526020018515158152602001841515815260200183815250600360008054815260200190815260200160002060008201518160000160006101000a81548160ff02191690831515021790555060208201518160000160016101000a81548160ff02191690831515021790555060408201518160000160026101000a81548160ff02191690831515021790555060608201518160000160036101000a81548160ff02191690831515021790555060808201518160000160046101000a81548160ff02191690831515021790555060a08201518160000160056101000a81548160ff02191690831515021790555060c08201518160000160066101000a81548160ff02191690831515021790555060e08201518160000160076101000a81548160ff0219169083151502179055506101008201518160000160086101000a81548160ff0219169083151502179055506101208201518160000160096101000a81548160ff0219169083151502179055506101408201518160010190805190602001906119fe929190611a86565b50905050600080815480929190611a149061295e565b9190505550600190509b9a5050505050505050505050565b60405180610160016040528060008152602001606081526020016060815260200160608152602001606081526020016060815260200160608152602001606081526020016060815260200160608152602001600081525090565b828054611a92906128fd565b90600052602060002090601f016020900481019282611ab45760008555611afb565b82601f10611acd57805160ff1916838001178555611afb565b82800160010185558215611afb579182015b82811115611afa578251825591602001919060010190611adf565b5b509050611b089190611b51565b5090565b6040518060a0016040528060008152602001600073ffffffffffffffffffffffffffffffffffffffff1681526020016060815260200160608152602001606081525090565b5b80821115611b6a576000816000905550600101611b52565b5090565b6000819050919050565b611b8181611b6e565b82525050565b6000602082019050611b9c6000830184611b78565b92915050565b600081519050919050565b600082825260208201905092915050565b6000819050602082019050919050565b611bd781611b6e565b82525050565b600081519050919050565b600082825260208201905092915050565b60005b83811015611c17578082015181840152602081019050611bfc565b83811115611c26576000848401525b50505050565b6000601f19601f8301169050919050565b6000611c4882611bdd565b611c528185611be8565b9350611c62818560208601611bf9565b611c6b81611c2c565b840191505092915050565b600061016083016000830151611c8f6000860182611bce565b5060208301518482036020860152611ca78282611c3d565b91505060408301518482036040860152611cc18282611c3d565b91505060608301518482036060860152611cdb8282611c3d565b91505060808301518482036080860152611cf58282611c3d565b91505060a083015184820360a0860152611d0f8282611c3d565b91505060c083015184820360c0860152611d298282611c3d565b91505060e083015184820360e0860152611d438282611c3d565b915050610100830151848203610100860152611d5f8282611c3d565b915050610120830151848203610120860152611d7b8282611c3d565b915050610140830151611d92610140860182611bce565b508091505092915050565b6000611da98383611c76565b905092915050565b6000602082019050919050565b6000611dc982611ba2565b611dd38185611bad565b935083602082028501611de585611bbe565b8060005b85811015611e215784840389528151611e028582611d9d565b9450611e0d83611db1565b925060208a01995050600181019050611de9565b50829750879550505050505092915050565b60006020820190508181036000830152611e4d8184611dbe565b905092915050565b6000604051905090565b600080fd5b600080fd5b600073ffffffffffffffffffffffffffffffffffffffff82169050919050565b6000611e9482611e69565b9050919050565b611ea481611e89565b8114611eaf57600080fd5b50565b600081359050611ec181611e9b565b92915050565b600080fd5b600080fd5b7f4e487b7100000000000000000000000000000000000000000000000000000000600052604160045260246000fd5b611f0982611c2c565b810181811067ffffffffffffffff82111715611f2857611f27611ed1565b5b80604052505050565b6000611f3b611e55565b9050611f478282611f00565b919050565b600067ffffffffffffffff821115611f6757611f66611ed1565b5b611f7082611c2c565b9050602081019050919050565b82818337600083830152505050565b6000611f9f611f9a84611f4c565b611f31565b905082815260208101848484011115611fbb57611fba611ecc565b5b611fc6848285611f7d565b509392505050565b600082601f830112611fe357611fe2611ec7565b5b8135611ff3848260208601611f8c565b91505092915050565b6000806000806080858703121561201657612015611e5f565b5b600061202487828801611eb2565b945050602085013567ffffffffffffffff81111561204557612044611e64565b5b61205187828801611fce565b935050604085013567ffffffffffffffff81111561207257612071611e64565b5b61207e87828801611fce565b925050606085013567ffffffffffffffff81111561209f5761209e611e64565b5b6120ab87828801611fce565b91505092959194509250565b60008115159050919050565b6120cc816120b7565b82525050565b60006020820190506120e760008301846120c3565b92915050565b6120f681611b6e565b811461210157600080fd5b50565b600081359050612113816120ed565b92915050565b60006020828403121561212f5761212e611e5f565b5b600061213d84828501612104565b91505092915050565b600082825260208201905092915050565b600061216282611bdd565b61216c8185612146565b935061217c818560208601611bf9565b61218581611c2c565b840191505092915050565b6000610160820190506121a6600083018e6120c3565b6121b3602083018d6120c3565b6121c0604083018c6120c3565b6121cd606083018b6120c3565b6121da608083018a6120c3565b6121e760a08301896120c3565b6121f460c08301886120c3565b61220160e08301876120c3565b61220f6101008301866120c3565b61221d6101208301856120c3565b8181036101408301526122308184612157565b90509c9b505050505050505050505050565b60006020828403121561225857612257611e5f565b5b600061226684828501611eb2565b91505092915050565b600061016082019050612285600083018e611b78565b8181036020830152612297818d612157565b905081810360408301526122ab818c612157565b905081810360608301526122bf818b612157565b905081810360808301526122d3818a612157565b905081810360a08301526122e78189612157565b905081810360c08301526122fb8188612157565b905081810360e083015261230f8187612157565b90508181036101008301526123248186612157565b90508181036101208301526123398185612157565b9050612349610140830184611b78565b9c9b505050505050505050505050565b600081519050919050565b600082825260208201905092915050565b6000819050602082019050919050565b61238e81611e89565b82525050565b600060a0830160008301516123ac6000860182611bce565b5060208301516123bf6020860182612385565b50604083015184820360408601526123d78282611c3d565b915050606083015184820360608601526123f18282611c3d565b9150506080830151848203608086015261240b8282611c3d565b9150508091505092915050565b60006124248383612394565b905092915050565b6000602082019050919050565b600061244482612359565b61244e8185612364565b93508360208202850161246085612375565b8060005b8581101561249c578484038952815161247d8582612418565b94506124888361242c565b925060208a01995050600181019050612464565b50829750879550505050505092915050565b600060208201905081810360008301526124c88184612439565b905092915050565b6124d981611e89565b82525050565b600060a0820190506124f46000830188611b78565b61250160208301876124d0565b81810360408301526125138186612157565b905081810360608301526125278185612157565b9050818103608083015261253b8184612157565b90509695505050505050565b60008060008060008060008060006101208a8c03121561256a57612569611e5f565b5b60008a013567ffffffffffffffff81111561258857612587611e64565b5b6125948c828d01611fce565b99505060208a013567ffffffffffffffff8111156125b5576125b4611e64565b5b6125c18c828d01611fce565b98505060408a013567ffffffffffffffff8111156125e2576125e1611e64565b5b6125ee8c828d01611fce565b97505060608a013567ffffffffffffffff81111561260f5761260e611e64565b5b61261b8c828d01611fce565b96505060808a013567ffffffffffffffff81111561263c5761263b611e64565b5b6126488c828d01611fce565b95505060a08a013567ffffffffffffffff81111561266957612668611e64565b5b6126758c828d01611fce565b94505060c08a013567ffffffffffffffff81111561269657612695611e64565b5b6126a28c828d01611fce565b93505060e08a013567ffffffffffffffff8111156126c3576126c2611e64565b5b6126cf8c828d01611fce565b9250506101008a013567ffffffffffffffff8111156126f1576126f0611e64565b5b6126fd8c828d01611fce565b9150509295985092959850929598565b612716816120b7565b811461272157600080fd5b50565b6000813590506127338161270d565b92915050565b60008060008060008060008060008060006101608c8e03121561275f5761275e611e5f565b5b600061276d8e828f01612724565b9b5050602061277e8e828f01612724565b9a5050604061278f8e828f01612724565b99505060606127a08e828f01612724565b98505060806127b18e828f01612724565b97505060a06127c28e828f01612724565b96505060c06127d38e828f01612724565b95505060e06127e48e828f01612724565b9450506101006127f68e828f01612724565b9350506101206128088e828f01612724565b9250506101408c013567ffffffffffffffff81111561282a57612829611e64565b5b6128368e828f01611fce565b9150509295989b509295989b9093969950565b7f4e487b7100000000000000000000000000000000000000000000000000000000600052601160045260246000fd5b600061288382611b6e565b915061288e83611b6e565b9250827fffffffffffffffffffffffffffffffffffffffffffffffffffffffffffffffff038211156128c3576128c2612849565b5b828201905092915050565b7f4e487b7100000000000000000000000000000000000000000000000000000000600052602260045260246000fd5b6000600282049050600182168061291557607f821691505b60208210811415612929576129286128ce565b5b50919050565b7f4e487b7100000000000000000000000000000000000000000000000000000000600052603260045260246000fd5b600061296982611b6e565b91507fffffffffffffffffffffffffffffffffffffffffffffffffffffffffffffffff82141561299c5761299b612849565b5b600182019050919050565b60008160601b9050919050565b60006129bf826129a7565b9050919050565b60006129d1826129b4565b9050919050565b6129e96129e482611e89565b6129c6565b82525050565b60006129fb82846129d8565b6014820191508190509291505056fea2646970667358221220174afef80ead1d10b76d308c7a10945cf60775e97fa854732de93e121a0cd75364736f6c634300080a0033",
  "immutableReferences": {},
  "source": "// SPDX-License-Identifier: MIT\r\npragma solidity >=0.4.22 <0.9.0;\r\n\r\ncontract Patient {\r\n    \r\n    struct structPatient{\r\n        uint id;\r\n        string fullName;\r\n        string dateOfBirth;\r\n        string CNIC;\r\n        string creatorAddress;\r\n        string PhoneNo;\r\n        string email;\r\n        string status;\r\n        string gender;\r\n        string accountAddress;\r\n        uint dateCreated;\r\n    }\r\n    struct commonMedicalConditions{\r\n        bool AlcoholOrDrugDependence;\r\n        bool Seizure;\r\n        bool HeartDisease;\r\n        bool Blackout;\r\n        bool Stroke;\r\n        bool VisualFieldOrAcuityImpairment;\r\n        bool Diabetes;\r\n        bool MentalOrEmotionalIllness;\r\n        bool DementiaOrAlzheimer;\r\n        bool SleepApneaOrNarcolepsy;\r\n        string other;\r\n    }\r\n    struct structPatientReport{\r\n        uint reportId;\r\n        address patientAddress;\r\n        string Title;\r\n        string Description;\r\n        string Report;\r\n    }\r\n    uint public patientCount = 0;\r\n    uint public reportCount = 0;\r\n\r\n    mapping(uint => structPatient) public Patients;\r\n    mapping(uint => commonMedicalConditions) public MedicalConditions;\r\n    mapping(uint => structPatientReport) public PatientReports;\r\n\r\n    constructor () {\r\n    }\r\n     function AddPatient(string memory _fullName, string memory _dateOfBirth, string memory _cnic, \r\n                        string memory _hospitalId, string memory _phoneNo, string memory _email, string memory _status, string memory _gender, string memory _accountAddress) public returns (bool)\r\n    {\r\n            structPatient memory patient;\r\n            patient.fullName = _fullName;\r\n            patient.dateOfBirth = _dateOfBirth;\r\n            patient.CNIC = _cnic;\r\n            patient.creatorAddress = _hospitalId;\r\n            patient.PhoneNo = _phoneNo;\r\n            patient.email = _email;\r\n            patient.status = _status;\r\n            patient.gender = _gender;\r\n            patient.accountAddress = _accountAddress;\r\n            patient.dateCreated = block.timestamp;\r\n            Patients[patientCount] = patient;  \r\n            return true;\r\n      \r\n    }\r\n\r\n    function AddMedicalCondition(bool _dependence, bool _seizure, bool _heartDisease, bool _blackout, bool _stroke, bool _VFAI, bool _diabetes, bool _mentalIllness, bool _dementia, bool _sleepApneaOrNarcolepsy, string memory _other) public returns (bool)\r\n    {\r\n        MedicalConditions[patientCount] = commonMedicalConditions(_dependence, _seizure, _heartDisease, _blackout, _stroke, _VFAI, _diabetes, _mentalIllness, _dementia, _sleepApneaOrNarcolepsy, _other);\r\n        patientCount++;\r\n        return true;\r\n    }\r\n\r\n    function getAll() public view returns (structPatient[] memory)\r\n    {\r\n        structPatient[] memory hospitalList = new structPatient[](patientCount+1);\r\n        for (uint i = 0; i <patientCount; i++) \r\n        {\r\n            hospitalList[i] = Patients[i];\r\n        }\r\n        return hospitalList;\r\n    }\r\n    function addReport(address _patientAddress, string memory _tittle, string memory _description, string memory _report) public returns (bool) {\r\n            \r\n            PatientReports[reportCount] = structPatientReport(reportCount,_patientAddress, _tittle,  _description,  _report); \r\n            reportCount ++;\r\n            return true;\r\n    }\r\n    function getReport(address _patientAddress) public view returns(structPatientReport[] memory)\r\n    {\r\n        structPatientReport[] memory patientReport = new structPatientReport[](getReportCount(_patientAddress));\r\n        for (uint i = 0; i <patientCount; i++) \r\n        {\r\n             if(keccak256(abi.encodePacked(PatientReports[i].patientAddress)) == keccak256(abi.encodePacked(_patientAddress)))\r\n             {\r\n                patientReport[i] = PatientReports[i];\r\n             }\r\n        }\r\n        return patientReport;\r\n    }\r\n    function getReportCount(address _patientAddress) public view returns(uint) {\r\n       \r\n        uint count = 0;\r\n        for (uint i = 0; i <patientCount; i++) \r\n        {\r\n             if(keccak256(abi.encodePacked(PatientReports[i].patientAddress)) == keccak256(abi.encodePacked(_patientAddress))) count++;\r\n        }\r\n        return count;\r\n    }\r\n}\r\n",
  "sourcePath": "D:\\Documents\\Custom Office Templates\\Final Year Project\\decentralized-patient-centered-health-records-and-exchange\\decentralized-patient-centered-health-records-and-exchange\\contracts\\Patient.sol",
  "compiler": {
    "name": "solc",
    "version": "0.8.10+commit.fc410830.Emscripten.clang"
  },
  "schemaVersion": "3.4.3",
  "updatedAt": "2022-01-23T11:10:11.061Z",
  "networkType": "ethereum",
  "devdoc": {
    "kind": "dev",
    "methods": {},
    "version": 1
  },
  "userdoc": {
    "kind": "user",
    "methods": {},
    "version": 1
  }
}