{
  "contractName": "Patient",
  "abi": [
    {
      "inputs": [],
      "stateMutability": "nonpayable",
      "type": "constructor"
    },
    {
      "inputs": [
        {
          "internalType": "uint256",
          "name": "",
          "type": "uint256"
        }
      ],
      "name": "Patients",
      "outputs": [
        {
          "internalType": "uint256",
          "name": "id",
          "type": "uint256"
        },
        {
          "internalType": "string",
          "name": "fullName",
          "type": "string"
        },
        {
          "internalType": "string",
          "name": "dateOfBirth",
          "type": "string"
        },
        {
          "internalType": "string",
          "name": "CNIC",
          "type": "string"
        },
        {
          "internalType": "uint256",
          "name": "hospitalId",
          "type": "uint256"
        },
        {
          "internalType": "string",
          "name": "PhoneNo",
          "type": "string"
        },
        {
          "internalType": "string",
          "name": "email",
          "type": "string"
        },
        {
          "internalType": "string",
          "name": "status",
          "type": "string"
        },
        {
          "internalType": "string",
          "name": "gender",
          "type": "string"
        }
      ],
      "stateMutability": "view",
      "type": "function",
      "constant": true
    },
    {
      "inputs": [],
      "name": "patientCount",
      "outputs": [
        {
          "internalType": "uint256",
          "name": "",
          "type": "uint256"
        }
      ],
      "stateMutability": "view",
      "type": "function",
      "constant": true
    },
    {
      "inputs": [
        {
          "internalType": "string",
          "name": "_fullname",
          "type": "string"
        },
        {
          "internalType": "string",
          "name": "_dateOfBirth",
          "type": "string"
        },
        {
          "internalType": "string",
          "name": "_cnic",
          "type": "string"
        },
        {
          "internalType": "uint256",
          "name": "_hospitalId",
          "type": "uint256"
        },
        {
          "internalType": "string",
          "name": "_phoneNo",
          "type": "string"
        },
        {
          "internalType": "string",
          "name": "_email",
          "type": "string"
        },
        {
          "internalType": "string",
          "name": "_status",
          "type": "string"
        },
        {
          "internalType": "string",
          "name": "_gender",
          "type": "string"
        }
      ],
      "name": "AddPatient",
      "outputs": [
        {
          "internalType": "bool",
          "name": "",
          "type": "bool"
        }
      ],
      "stateMutability": "nonpayable",
      "type": "function"
    },
    {
      "inputs": [],
      "name": "getAll",
      "outputs": [
        {
          "components": [
            {
              "internalType": "uint256",
              "name": "id",
              "type": "uint256"
            },
            {
              "internalType": "string",
              "name": "fullName",
              "type": "string"
            },
            {
              "internalType": "string",
              "name": "dateOfBirth",
              "type": "string"
            },
            {
              "internalType": "string",
              "name": "CNIC",
              "type": "string"
            },
            {
              "internalType": "uint256",
              "name": "hospitalId",
              "type": "uint256"
            },
            {
              "internalType": "string",
              "name": "PhoneNo",
              "type": "string"
            },
            {
              "internalType": "string",
              "name": "email",
              "type": "string"
            },
            {
              "internalType": "string",
              "name": "status",
              "type": "string"
            },
            {
              "internalType": "string",
              "name": "gender",
              "type": "string"
            }
          ],
          "internalType": "struct Patient.structPatient[]",
          "name": "",
          "type": "tuple[]"
        }
      ],
      "stateMutability": "view",
      "type": "function",
      "constant": true
    }
  ],
  "bytecode": "0x6080604052600080553480156200001557600080fd5b50620001a26040518060400160405280600981526020017f416264756c4d6f697a00000000000000000000000000000000000000000000008152506040518060400160405280600a81526020017f30382f30352f32303235000000000000000000000000000000000000000000008152506040518060400160405280600e81526020017f343234303131323331323331323300000000000000000000000000000000000081525060016040518060400160405280600c81526020017f39323331343233313331313100000000000000000000000000000000000000008152506040518060400160405280601381526020017f616264756c6d6f697a40676d61696c2e636f6d000000000000000000000000008152506040518060400160405280600781526020017f6865616c746879000000000000000000000000000000000000000000000000008152506040518060400160405280600481526020017f6d616c6500000000000000000000000000000000000000000000000000000000815250620001a960201b60201c565b50620004b7565b600060405180610120016040528060005481526020018a8152602001898152602001888152602001878152602001868152602001858152602001848152602001838152506001600080548152602001908152602001600020600082015181600001556020820151816001019080519060200190620002299291906200031b565b506040820151816002019080519060200190620002489291906200031b565b506060820151816003019080519060200190620002679291906200031b565b506080820151816004015560a0820151816005019080519060200190620002909291906200031b565b5060c0820151816006019080519060200190620002af9291906200031b565b5060e0820151816007019080519060200190620002ce9291906200031b565b50610100820151816008019080519060200190620002ee9291906200031b565b50905050600080815480929190620003069062000404565b91905055506001905098975050505050505050565b828054620003299062000481565b90600052602060002090601f0160209004810192826200034d576000855562000399565b82601f106200036857805160ff191683800117855562000399565b8280016001018555821562000399579182015b82811115620003985782518255916020019190600101906200037b565b5b509050620003a89190620003ac565b5090565b5b80821115620003c7576000816000905550600101620003ad565b5090565b7f4e487b7100000000000000000000000000000000000000000000000000000000600052601160045260246000fd5b6000819050919050565b60006200041182620003fa565b91507fffffffffffffffffffffffffffffffffffffffffffffffffffffffffffffffff821415620004475762000446620003cb565b5b600182019050919050565b7f4e487b7100000000000000000000000000000000000000000000000000000000600052602260045260246000fd5b600060028204905060018216806200049a57607f821691505b60208210811415620004b157620004b062000452565b5b50919050565b6114cd80620004c76000396000f3fe608060405234801561001057600080fd5b506004361061004b5760003560e01c80620c0bc21461005057806353ed514314610080578063a0303c411461009e578063a1982835146100bc575b600080fd5b61006a60048036038101906100659190610dc0565b6100f4565b6040516100779190610f55565b60405180910390f35b610088610256565b60405161009591906111b8565b60405180910390f35b6100a6610735565b6040516100b391906111e9565b60405180910390f35b6100d660048036038101906100d19190611204565b61073b565b6040516100eb9998979695949392919061127b565b60405180910390f35b600060405180610120016040528060005481526020018a8152602001898152602001888152602001878152602001868152602001858152602001848152602001838152506001600080548152602001908152602001600020600082015181600001556020820151816001019080519060200190610172929190610b41565b50604082015181600201908051906020019061018f929190610b41565b5060608201518160030190805190602001906101ac929190610b41565b506080820151816004015560a08201518160050190805190602001906101d3929190610b41565b5060c08201518160060190805190602001906101f0929190610b41565b5060e082015181600701908051906020019061020d929190610b41565b5061010082015181600801908051906020019061022b929190610b41565b5090505060008081548092919061024190611368565b91905055506001905098975050505050505050565b60606000600160005461026991906113b1565b67ffffffffffffffff81111561028257610281610c5f565b5b6040519080825280602002602001820160405280156102bb57816020015b6102a8610bc7565b8152602001906001900390816102a05790505b50905060005b60005481101561072d5760016000828152602001908152602001600020604051806101200160405290816000820154815260200160018201805461030490611436565b80601f016020809104026020016040519081016040528092919081815260200182805461033090611436565b801561037d5780601f106103525761010080835404028352916020019161037d565b820191906000526020600020905b81548152906001019060200180831161036057829003601f168201915b5050505050815260200160028201805461039690611436565b80601f01602080910402602001604051908101604052809291908181526020018280546103c290611436565b801561040f5780601f106103e45761010080835404028352916020019161040f565b820191906000526020600020905b8154815290600101906020018083116103f257829003601f168201915b5050505050815260200160038201805461042890611436565b80601f016020809104026020016040519081016040528092919081815260200182805461045490611436565b80156104a15780601f10610476576101008083540402835291602001916104a1565b820191906000526020600020905b81548152906001019060200180831161048457829003601f168201915b50505050508152602001600482015481526020016005820180546104c490611436565b80601f01602080910402602001604051908101604052809291908181526020018280546104f090611436565b801561053d5780601f106105125761010080835404028352916020019161053d565b820191906000526020600020905b81548152906001019060200180831161052057829003601f168201915b5050505050815260200160068201805461055690611436565b80601f016020809104026020016040519081016040528092919081815260200182805461058290611436565b80156105cf5780601f106105a4576101008083540402835291602001916105cf565b820191906000526020600020905b8154815290600101906020018083116105b257829003601f168201915b505050505081526020016007820180546105e890611436565b80601f016020809104026020016040519081016040528092919081815260200182805461061490611436565b80156106615780601f1061063657610100808354040283529160200191610661565b820191906000526020600020905b81548152906001019060200180831161064457829003601f168201915b5050505050815260200160088201805461067a90611436565b80601f01602080910402602001604051908101604052809291908181526020018280546106a690611436565b80156106f35780601f106106c8576101008083540402835291602001916106f3565b820191906000526020600020905b8154815290600101906020018083116106d657829003601f168201915b50505050508152505082828151811061070f5761070e611468565b5b6020026020010181905250808061072590611368565b9150506102c1565b508091505090565b60005481565b600160205280600052604060002060009150905080600001549080600101805461076490611436565b80601f016020809104026020016040519081016040528092919081815260200182805461079090611436565b80156107dd5780601f106107b2576101008083540402835291602001916107dd565b820191906000526020600020905b8154815290600101906020018083116107c057829003601f168201915b5050505050908060020180546107f290611436565b80601f016020809104026020016040519081016040528092919081815260200182805461081e90611436565b801561086b5780601f106108405761010080835404028352916020019161086b565b820191906000526020600020905b81548152906001019060200180831161084e57829003601f168201915b50505050509080600301805461088090611436565b80601f01602080910402602001604051908101604052809291908181526020018280546108ac90611436565b80156108f95780601f106108ce576101008083540402835291602001916108f9565b820191906000526020600020905b8154815290600101906020018083116108dc57829003601f168201915b50505050509080600401549080600501805461091490611436565b80601f016020809104026020016040519081016040528092919081815260200182805461094090611436565b801561098d5780601f106109625761010080835404028352916020019161098d565b820191906000526020600020905b81548152906001019060200180831161097057829003601f168201915b5050505050908060060180546109a290611436565b80601f01602080910402602001604051908101604052809291908181526020018280546109ce90611436565b8015610a1b5780601f106109f057610100808354040283529160200191610a1b565b820191906000526020600020905b8154815290600101906020018083116109fe57829003601f168201915b505050505090806007018054610a3090611436565b80601f0160208091040260200160405190810160405280929190818152602001828054610a5c90611436565b8015610aa95780601f10610a7e57610100808354040283529160200191610aa9565b820191906000526020600020905b815481529060010190602001808311610a8c57829003601f168201915b505050505090806008018054610abe90611436565b80601f0160208091040260200160405190810160405280929190818152602001828054610aea90611436565b8015610b375780601f10610b0c57610100808354040283529160200191610b37565b820191906000526020600020905b815481529060010190602001808311610b1a57829003601f168201915b5050505050905089565b828054610b4d90611436565b90600052602060002090601f016020900481019282610b6f5760008555610bb6565b82601f10610b8857805160ff1916838001178555610bb6565b82800160010185558215610bb6579182015b82811115610bb5578251825591602001919060010190610b9a565b5b509050610bc39190610c13565b5090565b6040518061012001604052806000815260200160608152602001606081526020016060815260200160008152602001606081526020016060815260200160608152602001606081525090565b5b80821115610c2c576000816000905550600101610c14565b5090565b6000604051905090565b600080fd5b600080fd5b600080fd5b600080fd5b6000601f19601f8301169050919050565b7f4e487b7100000000000000000000000000000000000000000000000000000000600052604160045260246000fd5b610c9782610c4e565b810181811067ffffffffffffffff82111715610cb657610cb5610c5f565b5b80604052505050565b6000610cc9610c30565b9050610cd58282610c8e565b919050565b600067ffffffffffffffff821115610cf557610cf4610c5f565b5b610cfe82610c4e565b9050602081019050919050565b82818337600083830152505050565b6000610d2d610d2884610cda565b610cbf565b905082815260208101848484011115610d4957610d48610c49565b5b610d54848285610d0b565b509392505050565b600082601f830112610d7157610d70610c44565b5b8135610d81848260208601610d1a565b91505092915050565b6000819050919050565b610d9d81610d8a565b8114610da857600080fd5b50565b600081359050610dba81610d94565b92915050565b600080600080600080600080610100898b031215610de157610de0610c3a565b5b600089013567ffffffffffffffff811115610dff57610dfe610c3f565b5b610e0b8b828c01610d5c565b985050602089013567ffffffffffffffff811115610e2c57610e2b610c3f565b5b610e388b828c01610d5c565b975050604089013567ffffffffffffffff811115610e5957610e58610c3f565b5b610e658b828c01610d5c565b9650506060610e768b828c01610dab565b955050608089013567ffffffffffffffff811115610e9757610e96610c3f565b5b610ea38b828c01610d5c565b94505060a089013567ffffffffffffffff811115610ec457610ec3610c3f565b5b610ed08b828c01610d5c565b93505060c089013567ffffffffffffffff811115610ef157610ef0610c3f565b5b610efd8b828c01610d5c565b92505060e089013567ffffffffffffffff811115610f1e57610f1d610c3f565b5b610f2a8b828c01610d5c565b9150509295985092959890939650565b60008115159050919050565b610f4f81610f3a565b82525050565b6000602082019050610f6a6000830184610f46565b92915050565b600081519050919050565b600082825260208201905092915050565b6000819050602082019050919050565b610fa581610d8a565b82525050565b600081519050919050565b600082825260208201905092915050565b60005b83811015610fe5578082015181840152602081019050610fca565b83811115610ff4576000848401525b50505050565b600061100582610fab565b61100f8185610fb6565b935061101f818560208601610fc7565b61102881610c4e565b840191505092915050565b60006101208301600083015161104c6000860182610f9c565b50602083015184820360208601526110648282610ffa565b9150506040830151848203604086015261107e8282610ffa565b915050606083015184820360608601526110988282610ffa565b91505060808301516110ad6080860182610f9c565b5060a083015184820360a08601526110c58282610ffa565b91505060c083015184820360c08601526110df8282610ffa565b91505060e083015184820360e08601526110f98282610ffa565b9150506101008301518482036101008601526111158282610ffa565b9150508091505092915050565b600061112e8383611033565b905092915050565b6000602082019050919050565b600061114e82610f70565b6111588185610f7b565b93508360208202850161116a85610f8c565b8060005b858110156111a657848403895281516111878582611122565b945061119283611136565b925060208a0199505060018101905061116e565b50829750879550505050505092915050565b600060208201905081810360008301526111d28184611143565b905092915050565b6111e381610d8a565b82525050565b60006020820190506111fe60008301846111da565b92915050565b60006020828403121561121a57611219610c3a565b5b600061122884828501610dab565b91505092915050565b600082825260208201905092915050565b600061124d82610fab565b6112578185611231565b9350611267818560208601610fc7565b61127081610c4e565b840191505092915050565b600061012082019050611291600083018c6111da565b81810360208301526112a3818b611242565b905081810360408301526112b7818a611242565b905081810360608301526112cb8189611242565b90506112da60808301886111da565b81810360a08301526112ec8187611242565b905081810360c08301526113008186611242565b905081810360e08301526113148185611242565b90508181036101008301526113298184611242565b90509a9950505050505050505050565b7f4e487b7100000000000000000000000000000000000000000000000000000000600052601160045260246000fd5b600061137382610d8a565b91507fffffffffffffffffffffffffffffffffffffffffffffffffffffffffffffffff8214156113a6576113a5611339565b5b600182019050919050565b60006113bc82610d8a565b91506113c783610d8a565b9250827fffffffffffffffffffffffffffffffffffffffffffffffffffffffffffffffff038211156113fc576113fb611339565b5b828201905092915050565b7f4e487b7100000000000000000000000000000000000000000000000000000000600052602260045260246000fd5b6000600282049050600182168061144e57607f821691505b6020821081141561146257611461611407565b5b50919050565b7f4e487b7100000000000000000000000000000000000000000000000000000000600052603260045260246000fdfea2646970667358221220dd1089dd4bd294e9cc80871e630a40916afce9c4b17ab00bd8aa57e90066e45c64736f6c634300080a0033",
  "immutableReferences": {},
  "source": "// SPDX-License-Identifier: MIT\r\npragma solidity >=0.4.22 <0.9.0;\r\n\r\ncontract Patient {\r\n    \r\n    struct structPatient{\r\n        uint id;\r\n        string fullName;\r\n        string dateOfBirth;\r\n        string CNIC;\r\n        uint hospitalId;\r\n        string PhoneNo;\r\n        string email;\r\n        string status;\r\n        string gender;\r\n       // commonMedicalConditions MedicalConditions;\r\n    }\r\n    struct commonMedicalConditions{\r\n        bool AlcoholDependence;\r\n        bool DurgDependence;\r\n        bool SeizureCerebral;\r\n        bool SeizureAlcoholRelated;\r\n        bool HeatDisease;\r\n        bool Blackout;\r\n        bool Stroke;\r\n        bool VisualImpairment;\r\n        bool VisualAcuityImpairment;\r\n        bool VisualFieldImpairment;\r\n        bool Diabetes;\r\n        bool MentalOrEmotionalIllness;\r\n        bool DementiaOrAlzheimer;\r\n        bool SleepApnea;\r\n        bool Narcolesy;\r\n        bool MotorFucntionAbilityImpaired;\r\n        bool Other;\r\n    }\r\n    uint public patientCount = 0;\r\n    mapping(uint => structPatient) public Patients;\r\n\r\n    constructor () {\r\n        AddPatient(\"AbdulMoiz\", \"08/05/2025\", \"42401123123123\", 1, \"923142313111\", \"abdulmoiz@gmail.com\", \"healthy\", \"male\");\r\n    }\r\n     function AddPatient( string memory _fullname, string memory _dateOfBirth, string memory _cnic, \r\n                        uint _hospitalId, string memory _phoneNo, string memory _email, string memory _status, string memory _gender) public returns (bool)\r\n    {\r\n            Patients[patientCount] = structPatient( patientCount,_fullname, _dateOfBirth,  _cnic,  _hospitalId, _phoneNo, _email,  _status, _gender); \r\n            patientCount ++;\r\n            return true;\r\n      \r\n    }\r\n    function getAll() public view returns (structPatient[] memory)\r\n    {\r\n        structPatient[] memory hospitalList = new structPatient[](patientCount+1);\r\n        for (uint i = 0; i <patientCount; i++) \r\n        {\r\n            hospitalList[i] = Patients[i];\r\n        }\r\n        return hospitalList;\r\n    }\r\n}\r\n",
  "sourcePath": "D:\\Documents\\Custom Office Templates\\Final Year Project\\decentralized-patient-centered-health-records-and-exchange\\decentralized-patient-centered-health-records-and-exchange\\contracts\\Patient.sol",
  "compiler": {
    "name": "solc",
    "version": "0.8.10+commit.fc410830.Emscripten.clang"
  },
  "schemaVersion": "3.4.3",
  "updatedAt": "2022-01-08T10:09:43.010Z",
  "networkType": "ethereum",
  "devdoc": {
    "kind": "dev",
    "methods": {},
    "version": 1
  },
  "userdoc": {
    "kind": "user",
    "methods": {},
    "version": 1
  }
}