{
  "contractName": "Patient",
  "abi": [
    {
      "inputs": [],
      "stateMutability": "nonpayable",
      "type": "constructor"
    },
    {
      "inputs": [
        {
          "internalType": "uint256",
          "name": "",
          "type": "uint256"
        }
      ],
      "name": "MedicalConditions",
      "outputs": [
        {
          "internalType": "bool",
          "name": "AlcoholOrDrugDependence",
          "type": "bool"
        },
        {
          "internalType": "bool",
          "name": "Seizure",
          "type": "bool"
        },
        {
          "internalType": "bool",
          "name": "HeartDisease",
          "type": "bool"
        },
        {
          "internalType": "bool",
          "name": "Blackout",
          "type": "bool"
        },
        {
          "internalType": "bool",
          "name": "Stroke",
          "type": "bool"
        },
        {
          "internalType": "bool",
          "name": "VisualFieldOrAcuityImpairment",
          "type": "bool"
        },
        {
          "internalType": "bool",
          "name": "Diabetes",
          "type": "bool"
        },
        {
          "internalType": "bool",
          "name": "MentalOrEmotionalIllness",
          "type": "bool"
        },
        {
          "internalType": "bool",
          "name": "DementiaOrAlzheimer",
          "type": "bool"
        },
        {
          "internalType": "bool",
          "name": "SleepApneaOrNarcolepsy",
          "type": "bool"
        },
        {
          "internalType": "string",
          "name": "other",
          "type": "string"
        }
      ],
      "stateMutability": "view",
      "type": "function",
      "constant": true
    },
    {
      "inputs": [
        {
          "internalType": "uint256",
          "name": "",
          "type": "uint256"
        }
      ],
      "name": "PatientReports",
      "outputs": [
        {
          "internalType": "uint256",
          "name": "reportId",
          "type": "uint256"
        },
        {
          "internalType": "address",
          "name": "patientAddress",
          "type": "address"
        },
        {
          "internalType": "string",
          "name": "Title",
          "type": "string"
        },
        {
          "internalType": "string",
          "name": "Description",
          "type": "string"
        },
        {
          "internalType": "string",
          "name": "Report",
          "type": "string"
        }
      ],
      "stateMutability": "view",
      "type": "function",
      "constant": true
    },
    {
      "inputs": [
        {
          "internalType": "uint256",
          "name": "",
          "type": "uint256"
        }
      ],
      "name": "Patients",
      "outputs": [
        {
          "internalType": "uint256",
          "name": "id",
          "type": "uint256"
        },
        {
          "internalType": "string",
          "name": "fullName",
          "type": "string"
        },
        {
          "internalType": "string",
          "name": "dateOfBirth",
          "type": "string"
        },
        {
          "internalType": "string",
          "name": "CNIC",
          "type": "string"
        },
        {
          "internalType": "string",
          "name": "creatorAddress",
          "type": "string"
        },
        {
          "internalType": "string",
          "name": "PhoneNo",
          "type": "string"
        },
        {
          "internalType": "string",
          "name": "email",
          "type": "string"
        },
        {
          "internalType": "string",
          "name": "status",
          "type": "string"
        },
        {
          "internalType": "string",
          "name": "gender",
          "type": "string"
        },
        {
          "internalType": "string",
          "name": "accountAddress",
          "type": "string"
        },
        {
          "internalType": "uint256",
          "name": "dateCreated",
          "type": "uint256"
        }
      ],
      "stateMutability": "view",
      "type": "function",
      "constant": true
    },
    {
      "inputs": [],
      "name": "currentId",
      "outputs": [
        {
          "internalType": "uint256",
          "name": "",
          "type": "uint256"
        }
      ],
      "stateMutability": "view",
      "type": "function",
      "constant": true
    },
    {
      "inputs": [],
      "name": "patientCount",
      "outputs": [
        {
          "internalType": "uint256",
          "name": "",
          "type": "uint256"
        }
      ],
      "stateMutability": "view",
      "type": "function",
      "constant": true
    },
    {
      "inputs": [],
      "name": "reportCount",
      "outputs": [
        {
          "internalType": "uint256",
          "name": "",
          "type": "uint256"
        }
      ],
      "stateMutability": "view",
      "type": "function",
      "constant": true
    },
    {
      "inputs": [
        {
          "internalType": "string",
          "name": "_fullName",
          "type": "string"
        },
        {
          "internalType": "string",
          "name": "_dateOfBirth",
          "type": "string"
        },
        {
          "internalType": "string",
          "name": "_cnic",
          "type": "string"
        },
        {
          "internalType": "string",
          "name": "_hospitalId",
          "type": "string"
        },
        {
          "internalType": "string",
          "name": "_phoneNo",
          "type": "string"
        },
        {
          "internalType": "string",
          "name": "_email",
          "type": "string"
        },
        {
          "internalType": "string",
          "name": "_status",
          "type": "string"
        },
        {
          "internalType": "string",
          "name": "_gender",
          "type": "string"
        },
        {
          "internalType": "string",
          "name": "_accountAddress",
          "type": "string"
        }
      ],
      "name": "AddPatient",
      "outputs": [
        {
          "internalType": "bool",
          "name": "",
          "type": "bool"
        }
      ],
      "stateMutability": "nonpayable",
      "type": "function"
    },
    {
      "inputs": [
        {
          "internalType": "bool",
          "name": "_dependence",
          "type": "bool"
        },
        {
          "internalType": "bool",
          "name": "_seizure",
          "type": "bool"
        },
        {
          "internalType": "bool",
          "name": "_heartDisease",
          "type": "bool"
        },
        {
          "internalType": "bool",
          "name": "_blackout",
          "type": "bool"
        },
        {
          "internalType": "bool",
          "name": "_stroke",
          "type": "bool"
        },
        {
          "internalType": "bool",
          "name": "_VFAI",
          "type": "bool"
        },
        {
          "internalType": "bool",
          "name": "_diabetes",
          "type": "bool"
        },
        {
          "internalType": "bool",
          "name": "_mentalIllness",
          "type": "bool"
        },
        {
          "internalType": "bool",
          "name": "_dementia",
          "type": "bool"
        },
        {
          "internalType": "bool",
          "name": "_sleepApneaOrNarcolepsy",
          "type": "bool"
        },
        {
          "internalType": "string",
          "name": "_other",
          "type": "string"
        }
      ],
      "name": "AddMedicalCondition",
      "outputs": [
        {
          "internalType": "bool",
          "name": "",
          "type": "bool"
        }
      ],
      "stateMutability": "nonpayable",
      "type": "function"
    },
    {
      "inputs": [],
      "name": "getAll",
      "outputs": [
        {
          "components": [
            {
              "internalType": "uint256",
              "name": "id",
              "type": "uint256"
            },
            {
              "internalType": "string",
              "name": "fullName",
              "type": "string"
            },
            {
              "internalType": "string",
              "name": "dateOfBirth",
              "type": "string"
            },
            {
              "internalType": "string",
              "name": "CNIC",
              "type": "string"
            },
            {
              "internalType": "string",
              "name": "creatorAddress",
              "type": "string"
            },
            {
              "internalType": "string",
              "name": "PhoneNo",
              "type": "string"
            },
            {
              "internalType": "string",
              "name": "email",
              "type": "string"
            },
            {
              "internalType": "string",
              "name": "status",
              "type": "string"
            },
            {
              "internalType": "string",
              "name": "gender",
              "type": "string"
            },
            {
              "internalType": "string",
              "name": "accountAddress",
              "type": "string"
            },
            {
              "internalType": "uint256",
              "name": "dateCreated",
              "type": "uint256"
            }
          ],
          "internalType": "struct Patient.structPatient[]",
          "name": "",
          "type": "tuple[]"
        }
      ],
      "stateMutability": "view",
      "type": "function",
      "constant": true
    },
    {
      "inputs": [
        {
          "internalType": "address",
          "name": "_patientAddress",
          "type": "address"
        },
        {
          "internalType": "string",
          "name": "_tittle",
          "type": "string"
        },
        {
          "internalType": "string",
          "name": "_description",
          "type": "string"
        },
        {
          "internalType": "string",
          "name": "_report",
          "type": "string"
        }
      ],
      "name": "addReport",
      "outputs": [
        {
          "internalType": "bool",
          "name": "",
          "type": "bool"
        }
      ],
      "stateMutability": "nonpayable",
      "type": "function"
    },
    {
      "inputs": [
        {
          "internalType": "address",
          "name": "_patientAddress",
          "type": "address"
        }
      ],
      "name": "getReport",
      "outputs": [
        {
          "components": [
            {
              "internalType": "uint256",
              "name": "reportId",
              "type": "uint256"
            },
            {
              "internalType": "address",
              "name": "patientAddress",
              "type": "address"
            },
            {
              "internalType": "string",
              "name": "Title",
              "type": "string"
            },
            {
              "internalType": "string",
              "name": "Description",
              "type": "string"
            },
            {
              "internalType": "string",
              "name": "Report",
              "type": "string"
            }
          ],
          "internalType": "struct Patient.structPatientReport[]",
          "name": "",
          "type": "tuple[]"
        }
      ],
      "stateMutability": "view",
      "type": "function",
      "constant": true
    },
    {
      "inputs": [
        {
          "internalType": "address",
          "name": "_patientAddress",
          "type": "address"
        }
      ],
      "name": "getReportCount",
      "outputs": [
        {
          "internalType": "uint256",
          "name": "",
          "type": "uint256"
        }
      ],
      "stateMutability": "view",
      "type": "function",
      "constant": true
    },
    {
      "inputs": [
        {
          "internalType": "string",
          "name": "_address",
          "type": "string"
        }
      ],
      "name": "getPatient",
      "outputs": [
        {
          "internalType": "string",
          "name": "",
          "type": "string"
        },
        {
          "internalType": "string",
          "name": "",
          "type": "string"
        },
        {
          "internalType": "string",
          "name": "",
          "type": "string"
        },
        {
          "internalType": "string",
          "name": "",
          "type": "string"
        },
        {
          "internalType": "string",
          "name": "",
          "type": "string"
        },
        {
          "internalType": "string",
          "name": "",
          "type": "string"
        },
        {
          "internalType": "string",
          "name": "",
          "type": "string"
        },
        {
          "internalType": "uint256",
          "name": "id",
          "type": "uint256"
        }
      ],
      "stateMutability": "view",
      "type": "function",
      "constant": true
    },
    {
      "inputs": [
        {
          "internalType": "uint256",
          "name": "id",
          "type": "uint256"
        }
      ],
      "name": "getPatientConditions",
      "outputs": [
        {
          "internalType": "bool",
          "name": "",
          "type": "bool"
        },
        {
          "internalType": "bool",
          "name": "",
          "type": "bool"
        },
        {
          "internalType": "bool",
          "name": "",
          "type": "bool"
        },
        {
          "internalType": "bool",
          "name": "",
          "type": "bool"
        },
        {
          "internalType": "bool",
          "name": "",
          "type": "bool"
        },
        {
          "internalType": "bool",
          "name": "",
          "type": "bool"
        },
        {
          "internalType": "bool",
          "name": "",
          "type": "bool"
        },
        {
          "internalType": "bool",
          "name": "",
          "type": "bool"
        },
        {
          "internalType": "bool",
          "name": "",
          "type": "bool"
        },
        {
          "internalType": "bool",
          "name": "",
          "type": "bool"
        },
        {
          "internalType": "string",
          "name": "",
          "type": "string"
        }
      ],
      "stateMutability": "view",
      "type": "function",
      "constant": true
    },
    {
      "inputs": [
        {
          "internalType": "string",
          "name": "_id",
          "type": "string"
        },
        {
          "internalType": "string",
          "name": "_name",
          "type": "string"
        },
        {
          "internalType": "string",
          "name": "_dob",
          "type": "string"
        },
        {
          "internalType": "string",
          "name": "_cnic",
          "type": "string"
        },
        {
          "internalType": "string",
          "name": "_number",
          "type": "string"
        },
        {
          "internalType": "string",
          "name": "_email",
          "type": "string"
        },
        {
          "internalType": "string",
          "name": "_status",
          "type": "string"
        },
        {
          "internalType": "string",
          "name": "_gender",
          "type": "string"
        }
      ],
      "name": "updatePatient",
      "outputs": [
        {
          "internalType": "bool",
          "name": "",
          "type": "bool"
        }
      ],
      "stateMutability": "nonpayable",
      "type": "function"
    },
    {
      "inputs": [
        {
          "internalType": "bool",
          "name": "_dependence",
          "type": "bool"
        },
        {
          "internalType": "bool",
          "name": "_seizure",
          "type": "bool"
        },
        {
          "internalType": "bool",
          "name": "_heartDisease",
          "type": "bool"
        },
        {
          "internalType": "bool",
          "name": "_blackout",
          "type": "bool"
        },
        {
          "internalType": "bool",
          "name": "_stroke",
          "type": "bool"
        },
        {
          "internalType": "bool",
          "name": "_VFAI",
          "type": "bool"
        },
        {
          "internalType": "bool",
          "name": "_diabetes",
          "type": "bool"
        },
        {
          "internalType": "bool",
          "name": "_mentalIllness",
          "type": "bool"
        },
        {
          "internalType": "bool",
          "name": "_dementia",
          "type": "bool"
        },
        {
          "internalType": "bool",
          "name": "_sleepApneaOrNarcolepsy",
          "type": "bool"
        },
        {
          "internalType": "string",
          "name": "_other",
          "type": "string"
        }
      ],
      "name": "updateConditions",
      "outputs": [
        {
          "internalType": "bool",
          "name": "",
          "type": "bool"
        }
      ],
      "stateMutability": "nonpayable",
      "type": "function"
    }
  ],
  "bytecode": "0x6080604052600080556000600155600060025534801561001e57600080fd5b50613b208061002e6000396000f3fe608060405234801561001057600080fd5b50600436106101005760003560e01c8063a3bdae3e11610097578063e00dd16111610066578063e00dd16114610327578063e79a7a2e14610345578063fdf023a61461037c578063fe0d3dec146103b657610100565b8063a3bdae3e14610263578063a55f363e14610293578063c22b5bb6146102c3578063c703c529146102f757610100565b806389c2e7c7116100d357806389c2e7c7146101a15780639e22a893146101db578063a0303c411461020b578063a19828351461022957610100565b8063185c6f841461010557806319674c521461012357806353ed51431461015357806371f2d08c14610171575b600080fd5b61010d6103e6565b60405161011a919061286f565b60405180910390f35b61013d600480360381019061013891906129e4565b6103ec565b60405161014a9190612b95565b60405180910390f35b61015b610568565b6040516101689190612e30565b60405180910390f35b61018b60048036038101906101869190612eb0565b610b6b565b6040516101989190612b95565b60405180910390f35b6101bb60048036038101906101b69190612f97565b610c90565b6040516101d29b9a9998979695949392919061300e565b60405180910390f35b6101f560048036038101906101f091906130c0565b610df4565b604051610202919061286f565b60405180910390f35b610213610ebe565b604051610220919061286f565b60405180910390f35b610243600480360381019061023e9190612f97565b610ec4565b60405161025a9b9a999897969594939291906130ed565b60405180910390f35b61027d600480360381019061027891906130c0565b6113e6565b60405161028a919061332c565b60405180910390f35b6102ad60048036038101906102a8919061337a565b61174f565b6040516102ba9190612b95565b60405180910390f35b6102dd60048036038101906102d89190612f97565b6118b6565b6040516102ee959493929190613499565b60405180910390f35b610311600480360381019061030c9190613501565b611aa4565b60405161031e9190612b95565b60405180910390f35b61032f611c5e565b60405161033c919061286f565b60405180910390f35b61035f600480360381019061035a91906136c7565b611c64565b604051610373989796959493929190613710565b60405180910390f35b61039660048036038101906103919190612f97565b6122dd565b6040516103ad9b9a9998979695949392919061300e565b60405180910390f35b6103d060048036038101906103cb919061337a565b612511565b6040516103dd9190612b95565b60405180910390f35b60015481565b600080600090505b600054811015610556578960405160200161040f91906137fb565b604051602081830303815290604052805190602001206003600083815260200190815260200160002060090160405160200161044b9190613907565b60405160208183030381529060405280519060200120141561054357600060036000838152602001908152602001600020905089816001019080519060200190610496929190612714565b50888160020190805190602001906104af929190612714565b50878160030190805190602001906104c8929190612714565b50868160050190805190602001906104e1929190612714565b50858160060190805190602001906104fa929190612714565b5084816007019080519060200190610513929190612714565b508381600801908051906020019061052c929190612714565b50806000015460028190555060019250505061055c565b808061054e9061394d565b9150506103f4565b50600090505b98975050505050505050565b60606000600160005461057b9190613996565b67ffffffffffffffff811115610594576105936128b9565b5b6040519080825280602002602001820160405280156105cd57816020015b6105ba61279a565b8152602001906001900390816105b25790505b50905060005b600054811015610b635760036000828152602001908152602001600020604051806101600160405290816000820154815260200160018201805461061690613841565b80601f016020809104026020016040519081016040528092919081815260200182805461064290613841565b801561068f5780601f106106645761010080835404028352916020019161068f565b820191906000526020600020905b81548152906001019060200180831161067257829003601f168201915b505050505081526020016002820180546106a890613841565b80601f01602080910402602001604051908101604052809291908181526020018280546106d490613841565b80156107215780601f106106f657610100808354040283529160200191610721565b820191906000526020600020905b81548152906001019060200180831161070457829003601f168201915b5050505050815260200160038201805461073a90613841565b80601f016020809104026020016040519081016040528092919081815260200182805461076690613841565b80156107b35780601f10610788576101008083540402835291602001916107b3565b820191906000526020600020905b81548152906001019060200180831161079657829003601f168201915b505050505081526020016004820180546107cc90613841565b80601f01602080910402602001604051908101604052809291908181526020018280546107f890613841565b80156108455780601f1061081a57610100808354040283529160200191610845565b820191906000526020600020905b81548152906001019060200180831161082857829003601f168201915b5050505050815260200160058201805461085e90613841565b80601f016020809104026020016040519081016040528092919081815260200182805461088a90613841565b80156108d75780601f106108ac576101008083540402835291602001916108d7565b820191906000526020600020905b8154815290600101906020018083116108ba57829003601f168201915b505050505081526020016006820180546108f090613841565b80601f016020809104026020016040519081016040528092919081815260200182805461091c90613841565b80156109695780601f1061093e57610100808354040283529160200191610969565b820191906000526020600020905b81548152906001019060200180831161094c57829003601f168201915b5050505050815260200160078201805461098290613841565b80601f01602080910402602001604051908101604052809291908181526020018280546109ae90613841565b80156109fb5780601f106109d0576101008083540402835291602001916109fb565b820191906000526020600020905b8154815290600101906020018083116109de57829003601f168201915b50505050508152602001600882018054610a1490613841565b80601f0160208091040260200160405190810160405280929190818152602001828054610a4090613841565b8015610a8d5780601f10610a6257610100808354040283529160200191610a8d565b820191906000526020600020905b815481529060010190602001808311610a7057829003601f168201915b50505050508152602001600982018054610aa690613841565b80601f0160208091040260200160405190810160405280929190818152602001828054610ad290613841565b8015610b1f5780601f10610af457610100808354040283529160200191610b1f565b820191906000526020600020905b815481529060010190602001808311610b0257829003601f168201915b50505050508152602001600a82015481525050828281518110610b4557610b446139ec565b5b60200260200101819052508080610b5b9061394d565b9150506105d3565b508091505090565b60006040518060a0016040528060015481526020018673ffffffffffffffffffffffffffffffffffffffff168152602001858152602001848152602001838152506005600060015481526020019081526020016000206000820151816000015560208201518160010160006101000a81548173ffffffffffffffffffffffffffffffffffffffff021916908373ffffffffffffffffffffffffffffffffffffffff1602179055506040820151816002019080519060200190610c2e929190612714565b506060820151816003019080519060200190610c4b929190612714565b506080820151816004019080519060200190610c68929190612714565b5090505060016000815480929190610c7f9061394d565b919050555060019050949350505050565b60046020528060005260406000206000915090508060000160009054906101000a900460ff16908060000160019054906101000a900460ff16908060000160029054906101000a900460ff16908060000160039054906101000a900460ff16908060000160049054906101000a900460ff16908060000160059054906101000a900460ff16908060000160069054906101000a900460ff16908060000160079054906101000a900460ff16908060000160089054906101000a900460ff16908060000160099054906101000a900460ff1690806001018054610d7190613841565b80601f0160208091040260200160405190810160405280929190818152602001828054610d9d90613841565b8015610dea5780601f10610dbf57610100808354040283529160200191610dea565b820191906000526020600020905b815481529060010190602001808311610dcd57829003601f168201915b505050505090508b565b6000806000905060005b600054811015610eb45783604051602001610e199190613a63565b604051602081830303815290604052805190602001206005600083815260200190815260200160002060010160009054906101000a900473ffffffffffffffffffffffffffffffffffffffff16604051602001610e769190613a63565b604051602081830303815290604052805190602001201415610ea1578180610e9d9061394d565b9250505b8080610eac9061394d565b915050610dfe565b5080915050919050565b60005481565b6003602052806000526040600020600091509050806000015490806001018054610eed90613841565b80601f0160208091040260200160405190810160405280929190818152602001828054610f1990613841565b8015610f665780601f10610f3b57610100808354040283529160200191610f66565b820191906000526020600020905b815481529060010190602001808311610f4957829003601f168201915b505050505090806002018054610f7b90613841565b80601f0160208091040260200160405190810160405280929190818152602001828054610fa790613841565b8015610ff45780601f10610fc957610100808354040283529160200191610ff4565b820191906000526020600020905b815481529060010190602001808311610fd757829003601f168201915b50505050509080600301805461100990613841565b80601f016020809104026020016040519081016040528092919081815260200182805461103590613841565b80156110825780601f1061105757610100808354040283529160200191611082565b820191906000526020600020905b81548152906001019060200180831161106557829003601f168201915b50505050509080600401805461109790613841565b80601f01602080910402602001604051908101604052809291908181526020018280546110c390613841565b80156111105780601f106110e557610100808354040283529160200191611110565b820191906000526020600020905b8154815290600101906020018083116110f357829003601f168201915b50505050509080600501805461112590613841565b80601f016020809104026020016040519081016040528092919081815260200182805461115190613841565b801561119e5780601f106111735761010080835404028352916020019161119e565b820191906000526020600020905b81548152906001019060200180831161118157829003601f168201915b5050505050908060060180546111b390613841565b80601f01602080910402602001604051908101604052809291908181526020018280546111df90613841565b801561122c5780601f106112015761010080835404028352916020019161122c565b820191906000526020600020905b81548152906001019060200180831161120f57829003601f168201915b50505050509080600701805461124190613841565b80601f016020809104026020016040519081016040528092919081815260200182805461126d90613841565b80156112ba5780601f1061128f576101008083540402835291602001916112ba565b820191906000526020600020905b81548152906001019060200180831161129d57829003601f168201915b5050505050908060080180546112cf90613841565b80601f01602080910402602001604051908101604052809291908181526020018280546112fb90613841565b80156113485780601f1061131d57610100808354040283529160200191611348565b820191906000526020600020905b81548152906001019060200180831161132b57829003601f168201915b50505050509080600901805461135d90613841565b80601f016020809104026020016040519081016040528092919081815260200182805461138990613841565b80156113d65780601f106113ab576101008083540402835291602001916113d6565b820191906000526020600020905b8154815290600101906020018083116113b957829003601f168201915b50505050509080600a015490508b565b606060006113f383610df4565b67ffffffffffffffff81111561140c5761140b6128b9565b5b60405190808252806020026020018201604052801561144557816020015b6114326127f4565b81526020019060019003908161142a5790505b50905060005b60005481101561174557836040516020016114669190613a63565b604051602081830303815290604052805190602001206005600083815260200190815260200160002060010160009054906101000a900473ffffffffffffffffffffffffffffffffffffffff166040516020016114c39190613a63565b60405160208183030381529060405280519060200120141561173257600560008281526020019081526020016000206040518060a0016040529081600082015481526020016001820160009054906101000a900473ffffffffffffffffffffffffffffffffffffffff1673ffffffffffffffffffffffffffffffffffffffff1673ffffffffffffffffffffffffffffffffffffffff16815260200160028201805461156d90613841565b80601f016020809104026020016040519081016040528092919081815260200182805461159990613841565b80156115e65780601f106115bb576101008083540402835291602001916115e6565b820191906000526020600020905b8154815290600101906020018083116115c957829003601f168201915b505050505081526020016003820180546115ff90613841565b80601f016020809104026020016040519081016040528092919081815260200182805461162b90613841565b80156116785780601f1061164d57610100808354040283529160200191611678565b820191906000526020600020905b81548152906001019060200180831161165b57829003601f168201915b5050505050815260200160048201805461169190613841565b80601f01602080910402602001604051908101604052809291908181526020018280546116bd90613841565b801561170a5780601f106116df5761010080835404028352916020019161170a565b820191906000526020600020905b8154815290600101906020018083116116ed57829003601f168201915b505050505081525050828281518110611726576117256139ec565b5b60200260200101819052505b808061173d9061394d565b91505061144b565b5080915050919050565b60008060046000600254815260200190815260200160002090508c8160000160006101000a81548160ff0219169083151502179055508b8160000160016101000a81548160ff0219169083151502179055508a8160000160026101000a81548160ff021916908315150217905550898160000160036101000a81548160ff021916908315150217905550888160000160046101000a81548160ff021916908315150217905550878160000160056101000a81548160ff021916908315150217905550868160000160066101000a81548160ff021916908315150217905550858160000160076101000a81548160ff021916908315150217905550848160000160086101000a81548160ff021916908315150217905550838160000160096101000a81548160ff02191690831515021790555082816001019080519060200190611899929190612714565b50600060028190555060019150509b9a5050505050505050505050565b60056020528060005260406000206000915090508060000154908060010160009054906101000a900473ffffffffffffffffffffffffffffffffffffffff169080600201805461190590613841565b80601f016020809104026020016040519081016040528092919081815260200182805461193190613841565b801561197e5780601f106119535761010080835404028352916020019161197e565b820191906000526020600020905b81548152906001019060200180831161196157829003601f168201915b50505050509080600301805461199390613841565b80601f01602080910402602001604051908101604052809291908181526020018280546119bf90613841565b8015611a0c5780601f106119e157610100808354040283529160200191611a0c565b820191906000526020600020905b8154815290600101906020018083116119ef57829003601f168201915b505050505090806004018054611a2190613841565b80601f0160208091040260200160405190810160405280929190818152602001828054611a4d90613841565b8015611a9a5780601f10611a6f57610100808354040283529160200191611a9a565b820191906000526020600020905b815481529060010190602001808311611a7d57829003601f168201915b5050505050905085565b6000611aae61279a565b6000548160000181815250508a8160200181905250898160400181905250888160600181905250878160800181905250868160a00181905250858160c00181905250848160e0018190525083816101000181905250828161012001819052504281610140018181525050806003600080548152602001908152602001600020600082015181600001556020820151816001019080519060200190611b53929190612714565b506040820151816002019080519060200190611b70929190612714565b506060820151816003019080519060200190611b8d929190612714565b506080820151816004019080519060200190611baa929190612714565b5060a0820151816005019080519060200190611bc7929190612714565b5060c0820151816006019080519060200190611be4929190612714565b5060e0820151816007019080519060200190611c01929190612714565b50610100820151816008019080519060200190611c1f929190612714565b50610120820151816009019080519060200190611c3d929190612714565b5061014082015181600a015590505060019150509998505050505050505050565b60025481565b6060806060806060806060600080600090505b6000548110156122965789604051602001611c9291906137fb565b6040516020818303038152906040528051906020012060036000838152602001908152602001600020600901604051602001611cce9190613907565b604051602081830303815290604052805190602001201415612283576000600360008381526020019081526020016000206040518061016001604052908160008201548152602001600182018054611d2590613841565b80601f0160208091040260200160405190810160405280929190818152602001828054611d5190613841565b8015611d9e5780601f10611d7357610100808354040283529160200191611d9e565b820191906000526020600020905b815481529060010190602001808311611d8157829003601f168201915b50505050508152602001600282018054611db790613841565b80601f0160208091040260200160405190810160405280929190818152602001828054611de390613841565b8015611e305780601f10611e0557610100808354040283529160200191611e30565b820191906000526020600020905b815481529060010190602001808311611e1357829003601f168201915b50505050508152602001600382018054611e4990613841565b80601f0160208091040260200160405190810160405280929190818152602001828054611e7590613841565b8015611ec25780601f10611e9757610100808354040283529160200191611ec2565b820191906000526020600020905b815481529060010190602001808311611ea557829003601f168201915b50505050508152602001600482018054611edb90613841565b80601f0160208091040260200160405190810160405280929190818152602001828054611f0790613841565b8015611f545780601f10611f2957610100808354040283529160200191611f54565b820191906000526020600020905b815481529060010190602001808311611f3757829003601f168201915b50505050508152602001600582018054611f6d90613841565b80601f0160208091040260200160405190810160405280929190818152602001828054611f9990613841565b8015611fe65780601f10611fbb57610100808354040283529160200191611fe6565b820191906000526020600020905b815481529060010190602001808311611fc957829003601f168201915b50505050508152602001600682018054611fff90613841565b80601f016020809104026020016040519081016040528092919081815260200182805461202b90613841565b80156120785780601f1061204d57610100808354040283529160200191612078565b820191906000526020600020905b81548152906001019060200180831161205b57829003601f168201915b5050505050815260200160078201805461209190613841565b80601f01602080910402602001604051908101604052809291908181526020018280546120bd90613841565b801561210a5780601f106120df5761010080835404028352916020019161210a565b820191906000526020600020905b8154815290600101906020018083116120ed57829003601f168201915b5050505050815260200160088201805461212390613841565b80601f016020809104026020016040519081016040528092919081815260200182805461214f90613841565b801561219c5780601f106121715761010080835404028352916020019161219c565b820191906000526020600020905b81548152906001019060200180831161217f57829003601f168201915b505050505081526020016009820180546121b590613841565b80601f01602080910402602001604051908101604052809291908181526020018280546121e190613841565b801561222e5780601f106122035761010080835404028352916020019161222e565b820191906000526020600020905b81548152906001019060200180831161221157829003601f168201915b50505050508152602001600a8201548152505090508060200151816040015182606001518360a001518460c001518560e0015186610100015187600001519950995099509950995099509950995050506122d2565b808061228e9061394d565b915050611c77565b506040517f08c379a00000000000000000000000000000000000000000000000000000000081526004016122c990613aca565b60405180910390fd5b919395975091939597565b60008060008060008060008060008060606000600460008e8152602001908152602001600020604051806101600160405290816000820160009054906101000a900460ff161515151581526020016000820160019054906101000a900460ff161515151581526020016000820160029054906101000a900460ff161515151581526020016000820160039054906101000a900460ff161515151581526020016000820160049054906101000a900460ff161515151581526020016000820160059054906101000a900460ff161515151581526020016000820160069054906101000a900460ff161515151581526020016000820160079054906101000a900460ff161515151581526020016000820160089054906101000a900460ff161515151581526020016000820160099054906101000a900460ff1615151515815260200160018201805461242d90613841565b80601f016020809104026020016040519081016040528092919081815260200182805461245990613841565b80156124a65780601f1061247b576101008083540402835291602001916124a6565b820191906000526020600020905b81548152906001019060200180831161248957829003601f168201915b5050505050815250509050806000015181602001518260400151836060015184608001518560a001518660c001518760e001518861010001518961012001518a61014001519b509b509b509b509b509b509b509b509b509b509b505091939597999b90929496989a50565b60006040518061016001604052808d151581526020018c151581526020018b151581526020018a1515815260200189151581526020018815158152602001871515815260200186151581526020018515158152602001841515815260200183815250600460008054815260200190815260200160002060008201518160000160006101000a81548160ff02191690831515021790555060208201518160000160016101000a81548160ff02191690831515021790555060408201518160000160026101000a81548160ff02191690831515021790555060608201518160000160036101000a81548160ff02191690831515021790555060808201518160000160046101000a81548160ff02191690831515021790555060a08201518160000160056101000a81548160ff02191690831515021790555060c08201518160000160066101000a81548160ff02191690831515021790555060e08201518160000160076101000a81548160ff0219169083151502179055506101008201518160000160086101000a81548160ff0219169083151502179055506101208201518160000160096101000a81548160ff0219169083151502179055506101408201518160010190805190602001906126e6929190612714565b509050506000808154809291906126fc9061394d565b9190505550600190509b9a5050505050505050505050565b82805461272090613841565b90600052602060002090601f0160209004810192826127425760008555612789565b82601f1061275b57805160ff1916838001178555612789565b82800160010185558215612789579182015b8281111561278857825182559160200191906001019061276d565b5b5090506127969190612839565b5090565b60405180610160016040528060008152602001606081526020016060815260200160608152602001606081526020016060815260200160608152602001606081526020016060815260200160608152602001600081525090565b6040518060a0016040528060008152602001600073ffffffffffffffffffffffffffffffffffffffff1681526020016060815260200160608152602001606081525090565b5b8082111561285257600081600090555060010161283a565b5090565b6000819050919050565b61286981612856565b82525050565b60006020820190506128846000830184612860565b92915050565b6000604051905090565b600080fd5b600080fd5b600080fd5b600080fd5b6000601f19601f8301169050919050565b7f4e487b7100000000000000000000000000000000000000000000000000000000600052604160045260246000fd5b6128f1826128a8565b810181811067ffffffffffffffff821117156129105761290f6128b9565b5b80604052505050565b600061292361288a565b905061292f82826128e8565b919050565b600067ffffffffffffffff82111561294f5761294e6128b9565b5b612958826128a8565b9050602081019050919050565b82818337600083830152505050565b600061298761298284612934565b612919565b9050828152602081018484840111156129a3576129a26128a3565b5b6129ae848285612965565b509392505050565b600082601f8301126129cb576129ca61289e565b5b81356129db848260208601612974565b91505092915050565b600080600080600080600080610100898b031215612a0557612a04612894565b5b600089013567ffffffffffffffff811115612a2357612a22612899565b5b612a2f8b828c016129b6565b985050602089013567ffffffffffffffff811115612a5057612a4f612899565b5b612a5c8b828c016129b6565b975050604089013567ffffffffffffffff811115612a7d57612a7c612899565b5b612a898b828c016129b6565b965050606089013567ffffffffffffffff811115612aaa57612aa9612899565b5b612ab68b828c016129b6565b955050608089013567ffffffffffffffff811115612ad757612ad6612899565b5b612ae38b828c016129b6565b94505060a089013567ffffffffffffffff811115612b0457612b03612899565b5b612b108b828c016129b6565b93505060c089013567ffffffffffffffff811115612b3157612b30612899565b5b612b3d8b828c016129b6565b92505060e089013567ffffffffffffffff811115612b5e57612b5d612899565b5b612b6a8b828c016129b6565b9150509295985092959890939650565b60008115159050919050565b612b8f81612b7a565b82525050565b6000602082019050612baa6000830184612b86565b92915050565b600081519050919050565b600082825260208201905092915050565b6000819050602082019050919050565b612be581612856565b82525050565b600081519050919050565b600082825260208201905092915050565b60005b83811015612c25578082015181840152602081019050612c0a565b83811115612c34576000848401525b50505050565b6000612c4582612beb565b612c4f8185612bf6565b9350612c5f818560208601612c07565b612c68816128a8565b840191505092915050565b600061016083016000830151612c8c6000860182612bdc565b5060208301518482036020860152612ca48282612c3a565b91505060408301518482036040860152612cbe8282612c3a565b91505060608301518482036060860152612cd88282612c3a565b91505060808301518482036080860152612cf28282612c3a565b91505060a083015184820360a0860152612d0c8282612c3a565b91505060c083015184820360c0860152612d268282612c3a565b91505060e083015184820360e0860152612d408282612c3a565b915050610100830151848203610100860152612d5c8282612c3a565b915050610120830151848203610120860152612d788282612c3a565b915050610140830151612d8f610140860182612bdc565b508091505092915050565b6000612da68383612c73565b905092915050565b6000602082019050919050565b6000612dc682612bb0565b612dd08185612bbb565b935083602082028501612de285612bcc565b8060005b85811015612e1e5784840389528151612dff8582612d9a565b9450612e0a83612dae565b925060208a01995050600181019050612de6565b50829750879550505050505092915050565b60006020820190508181036000830152612e4a8184612dbb565b905092915050565b600073ffffffffffffffffffffffffffffffffffffffff82169050919050565b6000612e7d82612e52565b9050919050565b612e8d81612e72565b8114612e9857600080fd5b50565b600081359050612eaa81612e84565b92915050565b60008060008060808587031215612eca57612ec9612894565b5b6000612ed887828801612e9b565b945050602085013567ffffffffffffffff811115612ef957612ef8612899565b5b612f05878288016129b6565b935050604085013567ffffffffffffffff811115612f2657612f25612899565b5b612f32878288016129b6565b925050606085013567ffffffffffffffff811115612f5357612f52612899565b5b612f5f878288016129b6565b91505092959194509250565b612f7481612856565b8114612f7f57600080fd5b50565b600081359050612f9181612f6b565b92915050565b600060208284031215612fad57612fac612894565b5b6000612fbb84828501612f82565b91505092915050565b600082825260208201905092915050565b6000612fe082612beb565b612fea8185612fc4565b9350612ffa818560208601612c07565b613003816128a8565b840191505092915050565b600061016082019050613024600083018e612b86565b613031602083018d612b86565b61303e604083018c612b86565b61304b606083018b612b86565b613058608083018a612b86565b61306560a0830189612b86565b61307260c0830188612b86565b61307f60e0830187612b86565b61308d610100830186612b86565b61309b610120830185612b86565b8181036101408301526130ae8184612fd5565b90509c9b505050505050505050505050565b6000602082840312156130d6576130d5612894565b5b60006130e484828501612e9b565b91505092915050565b600061016082019050613103600083018e612860565b8181036020830152613115818d612fd5565b90508181036040830152613129818c612fd5565b9050818103606083015261313d818b612fd5565b90508181036080830152613151818a612fd5565b905081810360a08301526131658189612fd5565b905081810360c08301526131798188612fd5565b905081810360e083015261318d8187612fd5565b90508181036101008301526131a28186612fd5565b90508181036101208301526131b78185612fd5565b90506131c7610140830184612860565b9c9b505050505050505050505050565b600081519050919050565b600082825260208201905092915050565b6000819050602082019050919050565b61320c81612e72565b82525050565b600060a08301600083015161322a6000860182612bdc565b50602083015161323d6020860182613203565b50604083015184820360408601526132558282612c3a565b9150506060830151848203606086015261326f8282612c3a565b915050608083015184820360808601526132898282612c3a565b9150508091505092915050565b60006132a28383613212565b905092915050565b6000602082019050919050565b60006132c2826131d7565b6132cc81856131e2565b9350836020820285016132de856131f3565b8060005b8581101561331a57848403895281516132fb8582613296565b9450613306836132aa565b925060208a019950506001810190506132e2565b50829750879550505050505092915050565b6000602082019050818103600083015261334681846132b7565b905092915050565b61335781612b7a565b811461336257600080fd5b50565b6000813590506133748161334e565b92915050565b60008060008060008060008060008060006101608c8e0312156133a05761339f612894565b5b60006133ae8e828f01613365565b9b505060206133bf8e828f01613365565b9a505060406133d08e828f01613365565b99505060606133e18e828f01613365565b98505060806133f28e828f01613365565b97505060a06134038e828f01613365565b96505060c06134148e828f01613365565b95505060e06134258e828f01613365565b9450506101006134378e828f01613365565b9350506101206134498e828f01613365565b9250506101408c013567ffffffffffffffff81111561346b5761346a612899565b5b6134778e828f016129b6565b9150509295989b509295989b9093969950565b61349381612e72565b82525050565b600060a0820190506134ae6000830188612860565b6134bb602083018761348a565b81810360408301526134cd8186612fd5565b905081810360608301526134e18185612fd5565b905081810360808301526134f58184612fd5565b90509695505050505050565b60008060008060008060008060006101208a8c03121561352457613523612894565b5b60008a013567ffffffffffffffff81111561354257613541612899565b5b61354e8c828d016129b6565b99505060208a013567ffffffffffffffff81111561356f5761356e612899565b5b61357b8c828d016129b6565b98505060408a013567ffffffffffffffff81111561359c5761359b612899565b5b6135a88c828d016129b6565b97505060608a013567ffffffffffffffff8111156135c9576135c8612899565b5b6135d58c828d016129b6565b96505060808a013567ffffffffffffffff8111156135f6576135f5612899565b5b6136028c828d016129b6565b95505060a08a013567ffffffffffffffff81111561362357613622612899565b5b61362f8c828d016129b6565b94505060c08a013567ffffffffffffffff8111156136505761364f612899565b5b61365c8c828d016129b6565b93505060e08a013567ffffffffffffffff81111561367d5761367c612899565b5b6136898c828d016129b6565b9250506101008a013567ffffffffffffffff8111156136ab576136aa612899565b5b6136b78c828d016129b6565b9150509295985092959850929598565b6000602082840312156136dd576136dc612894565b5b600082013567ffffffffffffffff8111156136fb576136fa612899565b5b613707848285016129b6565b91505092915050565b600061010082019050818103600083015261372b818b612fd5565b9050818103602083015261373f818a612fd5565b905081810360408301526137538189612fd5565b905081810360608301526137678188612fd5565b9050818103608083015261377b8187612fd5565b905081810360a083015261378f8186612fd5565b905081810360c08301526137a38185612fd5565b90506137b260e0830184612860565b9998505050505050505050565b600081905092915050565b60006137d582612beb565b6137df81856137bf565b93506137ef818560208601612c07565b80840191505092915050565b600061380782846137ca565b915081905092915050565b7f4e487b7100000000000000000000000000000000000000000000000000000000600052602260045260246000fd5b6000600282049050600182168061385957607f821691505b6020821081141561386d5761386c613812565b5b50919050565b60008190508160005260206000209050919050565b6000815461389581613841565b61389f81866137bf565b945060018216600081146138ba57600181146138cb576138fe565b60ff198316865281860193506138fe565b6138d485613873565b60005b838110156138f6578154818901526001820191506020810190506138d7565b838801955050505b50505092915050565b60006139138284613888565b915081905092915050565b7f4e487b7100000000000000000000000000000000000000000000000000000000600052601160045260246000fd5b600061395882612856565b91507fffffffffffffffffffffffffffffffffffffffffffffffffffffffffffffffff82141561398b5761398a61391e565b5b600182019050919050565b60006139a182612856565b91506139ac83612856565b9250827fffffffffffffffffffffffffffffffffffffffffffffffffffffffffffffffff038211156139e1576139e061391e565b5b828201905092915050565b7f4e487b7100000000000000000000000000000000000000000000000000000000600052603260045260246000fd5b60008160601b9050919050565b6000613a3382613a1b565b9050919050565b6000613a4582613a28565b9050919050565b613a5d613a5882612e72565b613a3a565b82525050565b6000613a6f8284613a4c565b60148201915081905092915050565b7f4e6f7420666f756e640000000000000000000000000000000000000000000000600082015250565b6000613ab4600983612fc4565b9150613abf82613a7e565b602082019050919050565b60006020820190508181036000830152613ae381613aa7565b905091905056fea264697066735822122039e0b344da36042017cb678eafdd6b1ea3b8cacf54d63b4a686fa44b0198ca7a64736f6c634300080a0033",
  "immutableReferences": {},
  "source": "// SPDX-License-Identifier: MIT\r\npragma solidity >=0.4.22 <0.9.0;\r\n\r\ncontract Patient {\r\n    \r\n    struct structPatient{\r\n        uint id;\r\n        string fullName;\r\n        string dateOfBirth;\r\n        string CNIC;\r\n        string creatorAddress;\r\n        string PhoneNo;\r\n        string email;\r\n        string status;\r\n        string gender;\r\n        string accountAddress;\r\n        uint dateCreated;\r\n    }\r\n    struct commonMedicalConditions{\r\n        bool AlcoholOrDrugDependence;\r\n        bool Seizure;\r\n        bool HeartDisease;\r\n        bool Blackout;\r\n        bool Stroke;\r\n        bool VisualFieldOrAcuityImpairment;\r\n        bool Diabetes;\r\n        bool MentalOrEmotionalIllness;\r\n        bool DementiaOrAlzheimer;\r\n        bool SleepApneaOrNarcolepsy;\r\n        string other;\r\n    }\r\n    struct structPatientReport{\r\n        uint reportId;\r\n        address patientAddress;\r\n        string Title;\r\n        string Description;\r\n        string Report;\r\n    }\r\n    uint public patientCount = 0;\r\n    uint public reportCount = 0;\r\n    uint public currentId = 0;\r\n\r\n    mapping(uint => structPatient) public Patients;\r\n    mapping(uint => commonMedicalConditions) public MedicalConditions;\r\n    mapping(uint => structPatientReport) public PatientReports;\r\n\r\n    constructor () {\r\n    }\r\n     function AddPatient(string memory _fullName, string memory _dateOfBirth, string memory _cnic, \r\n                        string memory _hospitalId, string memory _phoneNo, string memory _email, string memory _status, string memory _gender, string memory _accountAddress) public returns (bool)\r\n    {\r\n            structPatient memory patient;\r\n            patient.id = patientCount;\r\n            patient.fullName = _fullName;\r\n            patient.dateOfBirth = _dateOfBirth;\r\n            patient.CNIC = _cnic;\r\n            patient.creatorAddress = _hospitalId;\r\n            patient.PhoneNo = _phoneNo;\r\n            patient.email = _email;\r\n            patient.status = _status;\r\n            patient.gender = _gender;\r\n            patient.accountAddress = _accountAddress;\r\n            patient.dateCreated = block.timestamp;\r\n            Patients[patientCount] = patient;  \r\n            return true;\r\n      \r\n    }\r\n\r\n    function AddMedicalCondition(bool _dependence, bool _seizure, bool _heartDisease, bool _blackout, bool _stroke, bool _VFAI, bool _diabetes, bool _mentalIllness, bool _dementia, bool _sleepApneaOrNarcolepsy, string memory _other) public returns (bool)\r\n    {\r\n        MedicalConditions[patientCount] = commonMedicalConditions(_dependence, _seizure, _heartDisease, _blackout, _stroke, _VFAI, _diabetes, _mentalIllness, _dementia, _sleepApneaOrNarcolepsy, _other);\r\n        patientCount++;\r\n        return true;\r\n    }\r\n\r\n    function getAll() public view returns (structPatient[] memory)\r\n    {\r\n        structPatient[] memory hospitalList = new structPatient[](patientCount+1);\r\n        for (uint i = 0; i <patientCount; i++) \r\n        {\r\n            hospitalList[i] = Patients[i];\r\n        }\r\n        return hospitalList;\r\n    }\r\n    function addReport(address _patientAddress, string memory _tittle, string memory _description, string memory _report) public returns (bool) {\r\n            \r\n            PatientReports[reportCount] = structPatientReport(reportCount,_patientAddress, _tittle,  _description,  _report); \r\n            reportCount ++;\r\n            return true;\r\n    }\r\n    function getReport(address _patientAddress) public view returns(structPatientReport[] memory)\r\n    {\r\n        structPatientReport[] memory patientReport = new structPatientReport[](getReportCount(_patientAddress));\r\n        for (uint i = 0; i <patientCount; i++) \r\n        {\r\n             if(keccak256(abi.encodePacked(PatientReports[i].patientAddress)) == keccak256(abi.encodePacked(_patientAddress)))\r\n             {\r\n                patientReport[i] = PatientReports[i];\r\n             }\r\n        }\r\n        return patientReport;\r\n    }\r\n    function getReportCount(address _patientAddress) public view returns(uint) {\r\n       \r\n        uint count = 0;\r\n        for (uint i = 0; i <patientCount; i++) \r\n        {\r\n             if(keccak256(abi.encodePacked(PatientReports[i].patientAddress)) == keccak256(abi.encodePacked(_patientAddress))) count++;\r\n        }\r\n        return count;\r\n    }\r\n\r\n    function getPatient(string memory _address) public view returns (string memory,\r\n        string memory,\r\n        string memory,\r\n        string memory,\r\n        string memory,\r\n        string memory,\r\n        string memory, uint id)\r\n    {\r\n        for (uint i = 0; i < patientCount; i++) \r\n        {\r\n            if(keccak256(abi.encodePacked(Patients[i].accountAddress)) == keccak256(abi.encodePacked(_address)) )\r\n            {\r\n                structPatient memory patient = Patients[i];\r\n                return (patient.fullName, patient.dateOfBirth, patient.CNIC, patient.PhoneNo, patient.email, patient.status, patient.gender, patient.id);\r\n            }\r\n        }\r\n        revert(\"Not found\");\r\n    }\r\n\r\n    function getPatientConditions(uint id) public view returns (bool, bool, bool, bool, bool, bool, bool, bool, bool, bool, string memory) {\r\n        commonMedicalConditions memory conditions = MedicalConditions[id];\r\n        return (conditions.AlcoholOrDrugDependence, conditions.Seizure, conditions.HeartDisease, conditions.Blackout, conditions.Stroke, conditions.VisualFieldOrAcuityImpairment, conditions.Diabetes, conditions.MentalOrEmotionalIllness, conditions.DementiaOrAlzheimer, conditions.SleepApneaOrNarcolepsy, conditions.other);\r\n    }\r\n\r\n    function updatePatient(string memory _id, string memory _name, string memory _dob, string memory _cnic, string memory _number, \r\n                            string memory _email, string memory _status, string memory _gender)  public  returns (bool)\r\n    {\r\n         for(uint i = 0; i < patientCount; i++){\r\n\r\n            if(keccak256(abi.encodePacked(Patients[i].accountAddress)) == keccak256(abi.encodePacked(_id)) )\r\n            {\r\n                structPatient storage patient = Patients[i];\r\n                patient.fullName = _name;\r\n                patient.dateOfBirth = _dob;\r\n                patient.CNIC = _cnic;\r\n                patient.PhoneNo = _number;\r\n                patient.email = _email;\r\n                patient.status = _status;\r\n                patient.gender = _gender;\r\n                currentId = patient.id;\r\n                return true; // record updated successfully\r\n            }\r\n        }\r\n        return false; \r\n    }\r\n\r\n    function updateConditions(bool _dependence, bool _seizure, bool _heartDisease, bool _blackout, bool _stroke, bool _VFAI, bool _diabetes, bool _mentalIllness, bool _dementia, bool _sleepApneaOrNarcolepsy, string memory _other) public returns (bool)\r\n    {\r\n         commonMedicalConditions storage conditions = MedicalConditions[currentId];\r\n         conditions.AlcoholOrDrugDependence = _dependence;\r\n         conditions.Seizure = _seizure;\r\n         conditions.HeartDisease = _heartDisease;\r\n         conditions.Blackout = _blackout;\r\n         conditions.Stroke = _stroke;\r\n         conditions.VisualFieldOrAcuityImpairment = _VFAI;\r\n         conditions.Diabetes = _diabetes;\r\n         conditions.MentalOrEmotionalIllness = _mentalIllness;\r\n         conditions.DementiaOrAlzheimer = _dementia;\r\n         conditions.SleepApneaOrNarcolepsy = _sleepApneaOrNarcolepsy;\r\n         conditions.other = _other;\r\n         currentId = 0;\r\n         return true;\r\n    }\r\n}\r\n",
  "sourcePath": "D:\\Documents\\Custom Office Templates\\Final Year Project\\decentralized-patient-centered-health-records-and-exchange\\decentralized-patient-centered-health-records-and-exchange\\contracts\\Patient.sol",
  "compiler": {
    "name": "solc",
    "version": "0.8.10+commit.fc410830.Emscripten.clang"
  },
  "schemaVersion": "3.4.3",
  "updatedAt": "2022-01-23T13:15:01.105Z",
  "networkType": "ethereum",
  "devdoc": {
    "kind": "dev",
    "methods": {},
    "version": 1
  },
  "userdoc": {
    "kind": "user",
    "methods": {},
    "version": 1
  }
}