{
  "contractName": "Patient",
  "abi": [
    {
      "inputs": [],
      "stateMutability": "nonpayable",
      "type": "constructor"
    },
    {
      "inputs": [
        {
          "internalType": "uint256",
          "name": "",
          "type": "uint256"
        }
      ],
      "name": "MedicalConditions",
      "outputs": [
        {
          "internalType": "bool",
          "name": "AlcoholOrDrugDependence",
          "type": "bool"
        },
        {
          "internalType": "bool",
          "name": "Seizure",
          "type": "bool"
        },
        {
          "internalType": "bool",
          "name": "HeartDisease",
          "type": "bool"
        },
        {
          "internalType": "bool",
          "name": "Blackout",
          "type": "bool"
        },
        {
          "internalType": "bool",
          "name": "Stroke",
          "type": "bool"
        },
        {
          "internalType": "bool",
          "name": "VisualFieldOrAcuityImpairment",
          "type": "bool"
        },
        {
          "internalType": "bool",
          "name": "Diabetes",
          "type": "bool"
        },
        {
          "internalType": "bool",
          "name": "MentalOrEmotionalIllness",
          "type": "bool"
        },
        {
          "internalType": "bool",
          "name": "DementiaOrAlzheimer",
          "type": "bool"
        },
        {
          "internalType": "bool",
          "name": "SleepApneaOrNarcolepsy",
          "type": "bool"
        },
        {
          "internalType": "string",
          "name": "other",
          "type": "string"
        }
      ],
      "stateMutability": "view",
      "type": "function",
      "constant": true
    },
    {
      "inputs": [
        {
          "internalType": "uint256",
          "name": "",
          "type": "uint256"
        }
      ],
      "name": "PatientReports",
      "outputs": [
        {
          "internalType": "uint256",
          "name": "reportId",
          "type": "uint256"
        },
        {
          "internalType": "address",
          "name": "patientAddress",
          "type": "address"
        },
        {
          "internalType": "string",
          "name": "Title",
          "type": "string"
        },
        {
          "internalType": "string",
          "name": "Description",
          "type": "string"
        },
        {
          "internalType": "string",
          "name": "Report",
          "type": "string"
        }
      ],
      "stateMutability": "view",
      "type": "function",
      "constant": true
    },
    {
      "inputs": [
        {
          "internalType": "uint256",
          "name": "",
          "type": "uint256"
        }
      ],
      "name": "Patients",
      "outputs": [
        {
          "internalType": "uint256",
          "name": "id",
          "type": "uint256"
        },
        {
          "internalType": "string",
          "name": "fullName",
          "type": "string"
        },
        {
          "internalType": "string",
          "name": "dateOfBirth",
          "type": "string"
        },
        {
          "internalType": "string",
          "name": "CNIC",
          "type": "string"
        },
        {
          "internalType": "string",
          "name": "creatorAddress",
          "type": "string"
        },
        {
          "internalType": "string",
          "name": "PhoneNo",
          "type": "string"
        },
        {
          "internalType": "string",
          "name": "email",
          "type": "string"
        },
        {
          "internalType": "string",
          "name": "status",
          "type": "string"
        },
        {
          "internalType": "string",
          "name": "gender",
          "type": "string"
        },
        {
          "internalType": "address",
          "name": "accountAddress",
          "type": "address"
        },
        {
          "internalType": "uint256",
          "name": "dateCreated",
          "type": "uint256"
        }
      ],
      "stateMutability": "view",
      "type": "function",
      "constant": true
    },
    {
      "inputs": [],
      "name": "currentId",
      "outputs": [
        {
          "internalType": "uint256",
          "name": "",
          "type": "uint256"
        }
      ],
      "stateMutability": "view",
      "type": "function",
      "constant": true
    },
    {
      "inputs": [],
      "name": "patientCount",
      "outputs": [
        {
          "internalType": "uint256",
          "name": "",
          "type": "uint256"
        }
      ],
      "stateMutability": "view",
      "type": "function",
      "constant": true
    },
    {
      "inputs": [],
      "name": "reportCount",
      "outputs": [
        {
          "internalType": "uint256",
          "name": "",
          "type": "uint256"
        }
      ],
      "stateMutability": "view",
      "type": "function",
      "constant": true
    },
    {
      "inputs": [
        {
          "internalType": "string",
          "name": "_fullName",
          "type": "string"
        },
        {
          "internalType": "string",
          "name": "_dateOfBirth",
          "type": "string"
        },
        {
          "internalType": "string",
          "name": "_cnic",
          "type": "string"
        },
        {
          "internalType": "string",
          "name": "_hospitalId",
          "type": "string"
        },
        {
          "internalType": "string",
          "name": "_phoneNo",
          "type": "string"
        },
        {
          "internalType": "string",
          "name": "_email",
          "type": "string"
        },
        {
          "internalType": "string",
          "name": "_status",
          "type": "string"
        },
        {
          "internalType": "string",
          "name": "_gender",
          "type": "string"
        },
        {
          "internalType": "address",
          "name": "_accountAddress",
          "type": "address"
        }
      ],
      "name": "AddPatient",
      "outputs": [
        {
          "internalType": "bool",
          "name": "",
          "type": "bool"
        }
      ],
      "stateMutability": "nonpayable",
      "type": "function"
    },
    {
      "inputs": [
        {
          "internalType": "bool",
          "name": "_dependence",
          "type": "bool"
        },
        {
          "internalType": "bool",
          "name": "_seizure",
          "type": "bool"
        },
        {
          "internalType": "bool",
          "name": "_heartDisease",
          "type": "bool"
        },
        {
          "internalType": "bool",
          "name": "_blackout",
          "type": "bool"
        },
        {
          "internalType": "bool",
          "name": "_stroke",
          "type": "bool"
        },
        {
          "internalType": "bool",
          "name": "_VFAI",
          "type": "bool"
        },
        {
          "internalType": "bool",
          "name": "_diabetes",
          "type": "bool"
        },
        {
          "internalType": "bool",
          "name": "_mentalIllness",
          "type": "bool"
        },
        {
          "internalType": "bool",
          "name": "_dementia",
          "type": "bool"
        },
        {
          "internalType": "bool",
          "name": "_sleepApneaOrNarcolepsy",
          "type": "bool"
        },
        {
          "internalType": "string",
          "name": "_other",
          "type": "string"
        }
      ],
      "name": "AddMedicalCondition",
      "outputs": [
        {
          "internalType": "bool",
          "name": "",
          "type": "bool"
        }
      ],
      "stateMutability": "nonpayable",
      "type": "function"
    },
    {
      "inputs": [],
      "name": "getAll",
      "outputs": [
        {
          "components": [
            {
              "internalType": "uint256",
              "name": "id",
              "type": "uint256"
            },
            {
              "internalType": "string",
              "name": "fullName",
              "type": "string"
            },
            {
              "internalType": "string",
              "name": "dateOfBirth",
              "type": "string"
            },
            {
              "internalType": "string",
              "name": "CNIC",
              "type": "string"
            },
            {
              "internalType": "string",
              "name": "creatorAddress",
              "type": "string"
            },
            {
              "internalType": "string",
              "name": "PhoneNo",
              "type": "string"
            },
            {
              "internalType": "string",
              "name": "email",
              "type": "string"
            },
            {
              "internalType": "string",
              "name": "status",
              "type": "string"
            },
            {
              "internalType": "string",
              "name": "gender",
              "type": "string"
            },
            {
              "internalType": "address",
              "name": "accountAddress",
              "type": "address"
            },
            {
              "internalType": "uint256",
              "name": "dateCreated",
              "type": "uint256"
            }
          ],
          "internalType": "struct Patient.structPatient[]",
          "name": "",
          "type": "tuple[]"
        }
      ],
      "stateMutability": "view",
      "type": "function",
      "constant": true
    },
    {
      "inputs": [
        {
          "internalType": "address",
          "name": "_patientAddress",
          "type": "address"
        },
        {
          "internalType": "string",
          "name": "_tittle",
          "type": "string"
        },
        {
          "internalType": "string",
          "name": "_description",
          "type": "string"
        },
        {
          "internalType": "string",
          "name": "_report",
          "type": "string"
        }
      ],
      "name": "addReport",
      "outputs": [
        {
          "internalType": "bool",
          "name": "",
          "type": "bool"
        }
      ],
      "stateMutability": "nonpayable",
      "type": "function"
    },
    {
      "inputs": [
        {
          "internalType": "address",
          "name": "_patientAddress",
          "type": "address"
        }
      ],
      "name": "getReport",
      "outputs": [
        {
          "components": [
            {
              "internalType": "uint256",
              "name": "reportId",
              "type": "uint256"
            },
            {
              "internalType": "address",
              "name": "patientAddress",
              "type": "address"
            },
            {
              "internalType": "string",
              "name": "Title",
              "type": "string"
            },
            {
              "internalType": "string",
              "name": "Description",
              "type": "string"
            },
            {
              "internalType": "string",
              "name": "Report",
              "type": "string"
            }
          ],
          "internalType": "struct Patient.structPatientReport[]",
          "name": "",
          "type": "tuple[]"
        }
      ],
      "stateMutability": "view",
      "type": "function",
      "constant": true
    },
    {
      "inputs": [
        {
          "internalType": "address",
          "name": "_patientAddress",
          "type": "address"
        }
      ],
      "name": "getReportCount",
      "outputs": [
        {
          "internalType": "uint256",
          "name": "",
          "type": "uint256"
        }
      ],
      "stateMutability": "view",
      "type": "function",
      "constant": true
    },
    {
      "inputs": [
        {
          "internalType": "address",
          "name": "_address",
          "type": "address"
        }
      ],
      "name": "getPatient",
      "outputs": [
        {
          "internalType": "string",
          "name": "",
          "type": "string"
        },
        {
          "internalType": "string",
          "name": "",
          "type": "string"
        },
        {
          "internalType": "string",
          "name": "",
          "type": "string"
        },
        {
          "internalType": "string",
          "name": "",
          "type": "string"
        },
        {
          "internalType": "string",
          "name": "",
          "type": "string"
        },
        {
          "internalType": "string",
          "name": "",
          "type": "string"
        },
        {
          "internalType": "string",
          "name": "",
          "type": "string"
        },
        {
          "internalType": "uint256",
          "name": "id",
          "type": "uint256"
        },
        {
          "internalType": "string",
          "name": "",
          "type": "string"
        },
        {
          "internalType": "uint256",
          "name": "",
          "type": "uint256"
        }
      ],
      "stateMutability": "view",
      "type": "function",
      "constant": true
    },
    {
      "inputs": [
        {
          "internalType": "uint256",
          "name": "id",
          "type": "uint256"
        }
      ],
      "name": "getPatientConditions",
      "outputs": [
        {
          "internalType": "bool",
          "name": "",
          "type": "bool"
        },
        {
          "internalType": "bool",
          "name": "",
          "type": "bool"
        },
        {
          "internalType": "bool",
          "name": "",
          "type": "bool"
        },
        {
          "internalType": "bool",
          "name": "",
          "type": "bool"
        },
        {
          "internalType": "bool",
          "name": "",
          "type": "bool"
        },
        {
          "internalType": "bool",
          "name": "",
          "type": "bool"
        },
        {
          "internalType": "bool",
          "name": "",
          "type": "bool"
        },
        {
          "internalType": "bool",
          "name": "",
          "type": "bool"
        },
        {
          "internalType": "bool",
          "name": "",
          "type": "bool"
        },
        {
          "internalType": "bool",
          "name": "",
          "type": "bool"
        },
        {
          "internalType": "string",
          "name": "",
          "type": "string"
        }
      ],
      "stateMutability": "view",
      "type": "function",
      "constant": true
    },
    {
      "inputs": [
        {
          "internalType": "string",
          "name": "_id",
          "type": "string"
        },
        {
          "internalType": "string",
          "name": "_name",
          "type": "string"
        },
        {
          "internalType": "string",
          "name": "_dob",
          "type": "string"
        },
        {
          "internalType": "string",
          "name": "_cnic",
          "type": "string"
        },
        {
          "internalType": "string",
          "name": "_number",
          "type": "string"
        },
        {
          "internalType": "string",
          "name": "_email",
          "type": "string"
        },
        {
          "internalType": "string",
          "name": "_status",
          "type": "string"
        },
        {
          "internalType": "string",
          "name": "_gender",
          "type": "string"
        }
      ],
      "name": "updatePatient",
      "outputs": [
        {
          "internalType": "bool",
          "name": "",
          "type": "bool"
        }
      ],
      "stateMutability": "nonpayable",
      "type": "function"
    },
    {
      "inputs": [
        {
          "internalType": "bool",
          "name": "_dependence",
          "type": "bool"
        },
        {
          "internalType": "bool",
          "name": "_seizure",
          "type": "bool"
        },
        {
          "internalType": "bool",
          "name": "_heartDisease",
          "type": "bool"
        },
        {
          "internalType": "bool",
          "name": "_blackout",
          "type": "bool"
        },
        {
          "internalType": "bool",
          "name": "_stroke",
          "type": "bool"
        },
        {
          "internalType": "bool",
          "name": "_VFAI",
          "type": "bool"
        },
        {
          "internalType": "bool",
          "name": "_diabetes",
          "type": "bool"
        },
        {
          "internalType": "bool",
          "name": "_mentalIllness",
          "type": "bool"
        },
        {
          "internalType": "bool",
          "name": "_dementia",
          "type": "bool"
        },
        {
          "internalType": "bool",
          "name": "_sleepApneaOrNarcolepsy",
          "type": "bool"
        },
        {
          "internalType": "string",
          "name": "_other",
          "type": "string"
        }
      ],
      "name": "updateConditions",
      "outputs": [
        {
          "internalType": "bool",
          "name": "",
          "type": "bool"
        }
      ],
      "stateMutability": "nonpayable",
      "type": "function"
    }
  ],
  "bytecode": "0x6080604052600080556000600155600060025534801561001e57600080fd5b506139ef8061002e6000396000f3fe608060405234801561001057600080fd5b50600436106101005760003560e01c8063a3bdae3e11610097578063e00dd16111610066578063e00dd16114610330578063fcc420791461034e578063fdf023a61461037e578063fe0d3dec146103b857610100565b8063a3bdae3e14610263578063a55f363e14610293578063b5368e20146102c3578063c22b5bb6146102fc57610100565b806389c2e7c7116100d357806389c2e7c7146101a15780639e22a893146101db578063a0303c411461020b578063a19828351461022957610100565b8063185c6f841461010557806319674c521461012357806353ed51431461015357806371f2d08c14610171575b600080fd5b61010d6103e8565b60405161011a9190612837565b60405180910390f35b61013d600480360381019061013891906129ac565b6103ee565b60405161014a9190612b5d565b60405180910390f35b61015b61058b565b6040516101689190612e32565b60405180910390f35b61018b60048036038101906101869190612e80565b610b52565b6040516101989190612b5d565b60405180910390f35b6101bb60048036038101906101b69190612f67565b610c77565b6040516101d29b9a99989796959493929190612fde565b60405180910390f35b6101f560048036038101906101f09190613090565b610ddb565b6040516102029190612837565b60405180910390f35b610213610ea5565b6040516102209190612837565b60405180910390f35b610243600480360381019061023e9190612f67565b610eab565b60405161025a9b9a999897969594939291906130cc565b60405180910390f35b61027d60048036038101906102789190613090565b611365565b60405161028a91906132f5565b60405180910390f35b6102ad60048036038101906102a89190613343565b6116ce565b6040516102ba9190612b5d565b60405180910390f35b6102dd60048036038101906102d89190613090565b611835565b6040516102f39a99989796959493929190613453565b60405180910390f35b61031660048036038101906103119190612f67565b611e88565b604051610327959493929190613527565b60405180910390f35b610338612076565b6040516103459190612837565b60405180910390f35b6103686004803603810190610363919061358f565b61207c565b6040516103759190612b5d565b60405180910390f35b61039860048036038101906103939190612f67565b61228f565b6040516103af9b9a99989796959493929190612fde565b60405180910390f35b6103d260048036038101906103cd9190613343565b6124c3565b6040516103df9190612b5d565b60405180910390f35b60015481565b600080600090505b60005481101561057957896040516020016104119190613775565b604051602081830303815290604052805190602001206003600083815260200190815260200160002060090160009054906101000a900473ffffffffffffffffffffffffffffffffffffffff1660405160200161046e91906137d4565b604051602081830303815290604052805190602001201415610566576000600360008381526020019081526020016000209050898160010190805190602001906104b99291906126c6565b50888160020190805190602001906104d29291906126c6565b50878160030190805190602001906104eb9291906126c6565b50868160050190805190602001906105049291906126c6565b508581600601908051906020019061051d9291906126c6565b50848160070190805190602001906105369291906126c6565b508381600801908051906020019061054f9291906126c6565b50806000015460028190555060019250505061057f565b80806105719061381e565b9150506103f6565b50600090505b98975050505050505050565b60606000600160005461059e9190613867565b67ffffffffffffffff8111156105b7576105b6612881565b5b6040519080825280602002602001820160405280156105f057816020015b6105dd61274c565b8152602001906001900390816105d55790505b50905060005b600054811015610b4a57600360008281526020019081526020016000206040518061016001604052908160008201548152602001600182018054610639906138ec565b80601f0160208091040260200160405190810160405280929190818152602001828054610665906138ec565b80156106b25780601f10610687576101008083540402835291602001916106b2565b820191906000526020600020905b81548152906001019060200180831161069557829003601f168201915b505050505081526020016002820180546106cb906138ec565b80601f01602080910402602001604051908101604052809291908181526020018280546106f7906138ec565b80156107445780601f1061071957610100808354040283529160200191610744565b820191906000526020600020905b81548152906001019060200180831161072757829003601f168201915b5050505050815260200160038201805461075d906138ec565b80601f0160208091040260200160405190810160405280929190818152602001828054610789906138ec565b80156107d65780601f106107ab576101008083540402835291602001916107d6565b820191906000526020600020905b8154815290600101906020018083116107b957829003601f168201915b505050505081526020016004820180546107ef906138ec565b80601f016020809104026020016040519081016040528092919081815260200182805461081b906138ec565b80156108685780601f1061083d57610100808354040283529160200191610868565b820191906000526020600020905b81548152906001019060200180831161084b57829003601f168201915b50505050508152602001600582018054610881906138ec565b80601f01602080910402602001604051908101604052809291908181526020018280546108ad906138ec565b80156108fa5780601f106108cf576101008083540402835291602001916108fa565b820191906000526020600020905b8154815290600101906020018083116108dd57829003601f168201915b50505050508152602001600682018054610913906138ec565b80601f016020809104026020016040519081016040528092919081815260200182805461093f906138ec565b801561098c5780601f106109615761010080835404028352916020019161098c565b820191906000526020600020905b81548152906001019060200180831161096f57829003601f168201915b505050505081526020016007820180546109a5906138ec565b80601f01602080910402602001604051908101604052809291908181526020018280546109d1906138ec565b8015610a1e5780601f106109f357610100808354040283529160200191610a1e565b820191906000526020600020905b815481529060010190602001808311610a0157829003601f168201915b50505050508152602001600882018054610a37906138ec565b80601f0160208091040260200160405190810160405280929190818152602001828054610a63906138ec565b8015610ab05780601f10610a8557610100808354040283529160200191610ab0565b820191906000526020600020905b815481529060010190602001808311610a9357829003601f168201915b505050505081526020016009820160009054906101000a900473ffffffffffffffffffffffffffffffffffffffff1673ffffffffffffffffffffffffffffffffffffffff1673ffffffffffffffffffffffffffffffffffffffff168152602001600a82015481525050828281518110610b2c57610b2b61391e565b5b60200260200101819052508080610b429061381e565b9150506105f6565b508091505090565b60006040518060a0016040528060015481526020018673ffffffffffffffffffffffffffffffffffffffff168152602001858152602001848152602001838152506005600060015481526020019081526020016000206000820151816000015560208201518160010160006101000a81548173ffffffffffffffffffffffffffffffffffffffff021916908373ffffffffffffffffffffffffffffffffffffffff1602179055506040820151816002019080519060200190610c159291906126c6565b506060820151816003019080519060200190610c329291906126c6565b506080820151816004019080519060200190610c4f9291906126c6565b5090505060016000815480929190610c669061381e565b919050555060019050949350505050565b60046020528060005260406000206000915090508060000160009054906101000a900460ff16908060000160019054906101000a900460ff16908060000160029054906101000a900460ff16908060000160039054906101000a900460ff16908060000160049054906101000a900460ff16908060000160059054906101000a900460ff16908060000160069054906101000a900460ff16908060000160079054906101000a900460ff16908060000160089054906101000a900460ff16908060000160099054906101000a900460ff1690806001018054610d58906138ec565b80601f0160208091040260200160405190810160405280929190818152602001828054610d84906138ec565b8015610dd15780601f10610da657610100808354040283529160200191610dd1565b820191906000526020600020905b815481529060010190602001808311610db457829003601f168201915b505050505090508b565b6000806000905060005b600054811015610e9b5783604051602001610e0091906137d4565b604051602081830303815290604052805190602001206005600083815260200190815260200160002060010160009054906101000a900473ffffffffffffffffffffffffffffffffffffffff16604051602001610e5d91906137d4565b604051602081830303815290604052805190602001201415610e88578180610e849061381e565b9250505b8080610e939061381e565b915050610de5565b5080915050919050565b60005481565b6003602052806000526040600020600091509050806000015490806001018054610ed4906138ec565b80601f0160208091040260200160405190810160405280929190818152602001828054610f00906138ec565b8015610f4d5780601f10610f2257610100808354040283529160200191610f4d565b820191906000526020600020905b815481529060010190602001808311610f3057829003601f168201915b505050505090806002018054610f62906138ec565b80601f0160208091040260200160405190810160405280929190818152602001828054610f8e906138ec565b8015610fdb5780601f10610fb057610100808354040283529160200191610fdb565b820191906000526020600020905b815481529060010190602001808311610fbe57829003601f168201915b505050505090806003018054610ff0906138ec565b80601f016020809104026020016040519081016040528092919081815260200182805461101c906138ec565b80156110695780601f1061103e57610100808354040283529160200191611069565b820191906000526020600020905b81548152906001019060200180831161104c57829003601f168201915b50505050509080600401805461107e906138ec565b80601f01602080910402602001604051908101604052809291908181526020018280546110aa906138ec565b80156110f75780601f106110cc576101008083540402835291602001916110f7565b820191906000526020600020905b8154815290600101906020018083116110da57829003601f168201915b50505050509080600501805461110c906138ec565b80601f0160208091040260200160405190810160405280929190818152602001828054611138906138ec565b80156111855780601f1061115a57610100808354040283529160200191611185565b820191906000526020600020905b81548152906001019060200180831161116857829003601f168201915b50505050509080600601805461119a906138ec565b80601f01602080910402602001604051908101604052809291908181526020018280546111c6906138ec565b80156112135780601f106111e857610100808354040283529160200191611213565b820191906000526020600020905b8154815290600101906020018083116111f657829003601f168201915b505050505090806007018054611228906138ec565b80601f0160208091040260200160405190810160405280929190818152602001828054611254906138ec565b80156112a15780601f10611276576101008083540402835291602001916112a1565b820191906000526020600020905b81548152906001019060200180831161128457829003601f168201915b5050505050908060080180546112b6906138ec565b80601f01602080910402602001604051908101604052809291908181526020018280546112e2906138ec565b801561132f5780601f106113045761010080835404028352916020019161132f565b820191906000526020600020905b81548152906001019060200180831161131257829003601f168201915b5050505050908060090160009054906101000a900473ffffffffffffffffffffffffffffffffffffffff169080600a015490508b565b6060600061137283610ddb565b67ffffffffffffffff81111561138b5761138a612881565b5b6040519080825280602002602001820160405280156113c457816020015b6113b16127bc565b8152602001906001900390816113a95790505b50905060005b6000548110156116c457836040516020016113e591906137d4565b604051602081830303815290604052805190602001206005600083815260200190815260200160002060010160009054906101000a900473ffffffffffffffffffffffffffffffffffffffff1660405160200161144291906137d4565b6040516020818303038152906040528051906020012014156116b157600560008281526020019081526020016000206040518060a0016040529081600082015481526020016001820160009054906101000a900473ffffffffffffffffffffffffffffffffffffffff1673ffffffffffffffffffffffffffffffffffffffff1673ffffffffffffffffffffffffffffffffffffffff1681526020016002820180546114ec906138ec565b80601f0160208091040260200160405190810160405280929190818152602001828054611518906138ec565b80156115655780601f1061153a57610100808354040283529160200191611565565b820191906000526020600020905b81548152906001019060200180831161154857829003601f168201915b5050505050815260200160038201805461157e906138ec565b80601f01602080910402602001604051908101604052809291908181526020018280546115aa906138ec565b80156115f75780601f106115cc576101008083540402835291602001916115f7565b820191906000526020600020905b8154815290600101906020018083116115da57829003601f168201915b50505050508152602001600482018054611610906138ec565b80601f016020809104026020016040519081016040528092919081815260200182805461163c906138ec565b80156116895780601f1061165e57610100808354040283529160200191611689565b820191906000526020600020905b81548152906001019060200180831161166c57829003601f168201915b5050505050815250508282815181106116a5576116a461391e565b5b60200260200101819052505b80806116bc9061381e565b9150506113ca565b5080915050919050565b60008060046000600254815260200190815260200160002090508c8160000160006101000a81548160ff0219169083151502179055508b8160000160016101000a81548160ff0219169083151502179055508a8160000160026101000a81548160ff021916908315150217905550898160000160036101000a81548160ff021916908315150217905550888160000160046101000a81548160ff021916908315150217905550878160000160056101000a81548160ff021916908315150217905550868160000160066101000a81548160ff021916908315150217905550858160000160076101000a81548160ff021916908315150217905550848160000160086101000a81548160ff021916908315150217905550838160000160096101000a81548160ff021916908315150217905550828160010190805190602001906118189291906126c6565b50600060028190555060019150509b9a5050505050505050505050565b606080606080606080606060006060600080600090505b600054811015611e3f578b73ffffffffffffffffffffffffffffffffffffffff166003600083815260200190815260200160002060090160009054906101000a900473ffffffffffffffffffffffffffffffffffffffff1673ffffffffffffffffffffffffffffffffffffffff161415611e2c5760006003600083815260200190815260200160002060405180610160016040529081600082015481526020016001820180546118fb906138ec565b80601f0160208091040260200160405190810160405280929190818152602001828054611927906138ec565b80156119745780601f1061194957610100808354040283529160200191611974565b820191906000526020600020905b81548152906001019060200180831161195757829003601f168201915b5050505050815260200160028201805461198d906138ec565b80601f01602080910402602001604051908101604052809291908181526020018280546119b9906138ec565b8015611a065780601f106119db57610100808354040283529160200191611a06565b820191906000526020600020905b8154815290600101906020018083116119e957829003601f168201915b50505050508152602001600382018054611a1f906138ec565b80601f0160208091040260200160405190810160405280929190818152602001828054611a4b906138ec565b8015611a985780601f10611a6d57610100808354040283529160200191611a98565b820191906000526020600020905b815481529060010190602001808311611a7b57829003601f168201915b50505050508152602001600482018054611ab1906138ec565b80601f0160208091040260200160405190810160405280929190818152602001828054611add906138ec565b8015611b2a5780601f10611aff57610100808354040283529160200191611b2a565b820191906000526020600020905b815481529060010190602001808311611b0d57829003601f168201915b50505050508152602001600582018054611b43906138ec565b80601f0160208091040260200160405190810160405280929190818152602001828054611b6f906138ec565b8015611bbc5780601f10611b9157610100808354040283529160200191611bbc565b820191906000526020600020905b815481529060010190602001808311611b9f57829003601f168201915b50505050508152602001600682018054611bd5906138ec565b80601f0160208091040260200160405190810160405280929190818152602001828054611c01906138ec565b8015611c4e5780601f10611c2357610100808354040283529160200191611c4e565b820191906000526020600020905b815481529060010190602001808311611c3157829003601f168201915b50505050508152602001600782018054611c67906138ec565b80601f0160208091040260200160405190810160405280929190818152602001828054611c93906138ec565b8015611ce05780601f10611cb557610100808354040283529160200191611ce0565b820191906000526020600020905b815481529060010190602001808311611cc357829003601f168201915b50505050508152602001600882018054611cf9906138ec565b80601f0160208091040260200160405190810160405280929190818152602001828054611d25906138ec565b8015611d725780601f10611d4757610100808354040283529160200191611d72565b820191906000526020600020905b815481529060010190602001808311611d5557829003601f168201915b505050505081526020016009820160009054906101000a900473ffffffffffffffffffffffffffffffffffffffff1673ffffffffffffffffffffffffffffffffffffffff1673ffffffffffffffffffffffffffffffffffffffff168152602001600a8201548152505090508060200151816040015182606001518360a001518460c001518560e00151866101000151876000015188608001518961014001519b509b509b509b509b509b509b509b509b509b505050611e7b565b8080611e379061381e565b91505061184c565b506040517f08c379a0000000000000000000000000000000000000000000000000000000008152600401611e7290613999565b60405180910390fd5b9193959799509193959799565b60056020528060005260406000206000915090508060000154908060010160009054906101000a900473ffffffffffffffffffffffffffffffffffffffff1690806002018054611ed7906138ec565b80601f0160208091040260200160405190810160405280929190818152602001828054611f03906138ec565b8015611f505780601f10611f2557610100808354040283529160200191611f50565b820191906000526020600020905b815481529060010190602001808311611f3357829003601f168201915b505050505090806003018054611f65906138ec565b80601f0160208091040260200160405190810160405280929190818152602001828054611f91906138ec565b8015611fde5780601f10611fb357610100808354040283529160200191611fde565b820191906000526020600020905b815481529060010190602001808311611fc157829003601f168201915b505050505090806004018054611ff3906138ec565b80601f016020809104026020016040519081016040528092919081815260200182805461201f906138ec565b801561206c5780601f106120415761010080835404028352916020019161206c565b820191906000526020600020905b81548152906001019060200180831161204f57829003601f168201915b5050505050905085565b60025481565b600061208661274c565b6000548160000181815250508a8160200181905250898160400181905250888160600181905250878160800181905250868160a00181905250858160c00181905250848160e00181905250838161010001819052508281610120019073ffffffffffffffffffffffffffffffffffffffff16908173ffffffffffffffffffffffffffffffffffffffff1681525050428161014001818152505080600360008054815260200190815260200160002060008201518160000155602082015181600101908051906020019061215a9291906126c6565b5060408201518160020190805190602001906121779291906126c6565b5060608201518160030190805190602001906121949291906126c6565b5060808201518160040190805190602001906121b19291906126c6565b5060a08201518160050190805190602001906121ce9291906126c6565b5060c08201518160060190805190602001906121eb9291906126c6565b5060e08201518160070190805190602001906122089291906126c6565b506101008201518160080190805190602001906122269291906126c6565b506101208201518160090160006101000a81548173ffffffffffffffffffffffffffffffffffffffff021916908373ffffffffffffffffffffffffffffffffffffffff16021790555061014082015181600a015590505060019150509998505050505050505050565b60008060008060008060008060008060606000600460008e8152602001908152602001600020604051806101600160405290816000820160009054906101000a900460ff161515151581526020016000820160019054906101000a900460ff161515151581526020016000820160029054906101000a900460ff161515151581526020016000820160039054906101000a900460ff161515151581526020016000820160049054906101000a900460ff161515151581526020016000820160059054906101000a900460ff161515151581526020016000820160069054906101000a900460ff161515151581526020016000820160079054906101000a900460ff161515151581526020016000820160089054906101000a900460ff161515151581526020016000820160099054906101000a900460ff161515151581526020016001820180546123df906138ec565b80601f016020809104026020016040519081016040528092919081815260200182805461240b906138ec565b80156124585780601f1061242d57610100808354040283529160200191612458565b820191906000526020600020905b81548152906001019060200180831161243b57829003601f168201915b5050505050815250509050806000015181602001518260400151836060015184608001518560a001518660c001518760e001518861010001518961012001518a61014001519b509b509b509b509b509b509b509b509b509b509b505091939597999b90929496989a50565b60006040518061016001604052808d151581526020018c151581526020018b151581526020018a1515815260200189151581526020018815158152602001871515815260200186151581526020018515158152602001841515815260200183815250600460008054815260200190815260200160002060008201518160000160006101000a81548160ff02191690831515021790555060208201518160000160016101000a81548160ff02191690831515021790555060408201518160000160026101000a81548160ff02191690831515021790555060608201518160000160036101000a81548160ff02191690831515021790555060808201518160000160046101000a81548160ff02191690831515021790555060a08201518160000160056101000a81548160ff02191690831515021790555060c08201518160000160066101000a81548160ff02191690831515021790555060e08201518160000160076101000a81548160ff0219169083151502179055506101008201518160000160086101000a81548160ff0219169083151502179055506101208201518160000160096101000a81548160ff0219169083151502179055506101408201518160010190805190602001906126989291906126c6565b509050506000808154809291906126ae9061381e565b9190505550600190509b9a5050505050505050505050565b8280546126d2906138ec565b90600052602060002090601f0160209004810192826126f4576000855561273b565b82601f1061270d57805160ff191683800117855561273b565b8280016001018555821561273b579182015b8281111561273a57825182559160200191906001019061271f565b5b5090506127489190612801565b5090565b604051806101600160405280600081526020016060815260200160608152602001606081526020016060815260200160608152602001606081526020016060815260200160608152602001600073ffffffffffffffffffffffffffffffffffffffff168152602001600081525090565b6040518060a0016040528060008152602001600073ffffffffffffffffffffffffffffffffffffffff1681526020016060815260200160608152602001606081525090565b5b8082111561281a576000816000905550600101612802565b5090565b6000819050919050565b6128318161281e565b82525050565b600060208201905061284c6000830184612828565b92915050565b6000604051905090565b600080fd5b600080fd5b600080fd5b600080fd5b6000601f19601f8301169050919050565b7f4e487b7100000000000000000000000000000000000000000000000000000000600052604160045260246000fd5b6128b982612870565b810181811067ffffffffffffffff821117156128d8576128d7612881565b5b80604052505050565b60006128eb612852565b90506128f782826128b0565b919050565b600067ffffffffffffffff82111561291757612916612881565b5b61292082612870565b9050602081019050919050565b82818337600083830152505050565b600061294f61294a846128fc565b6128e1565b90508281526020810184848401111561296b5761296a61286b565b5b61297684828561292d565b509392505050565b600082601f83011261299357612992612866565b5b81356129a384826020860161293c565b91505092915050565b600080600080600080600080610100898b0312156129cd576129cc61285c565b5b600089013567ffffffffffffffff8111156129eb576129ea612861565b5b6129f78b828c0161297e565b985050602089013567ffffffffffffffff811115612a1857612a17612861565b5b612a248b828c0161297e565b975050604089013567ffffffffffffffff811115612a4557612a44612861565b5b612a518b828c0161297e565b965050606089013567ffffffffffffffff811115612a7257612a71612861565b5b612a7e8b828c0161297e565b955050608089013567ffffffffffffffff811115612a9f57612a9e612861565b5b612aab8b828c0161297e565b94505060a089013567ffffffffffffffff811115612acc57612acb612861565b5b612ad88b828c0161297e565b93505060c089013567ffffffffffffffff811115612af957612af8612861565b5b612b058b828c0161297e565b92505060e089013567ffffffffffffffff811115612b2657612b25612861565b5b612b328b828c0161297e565b9150509295985092959890939650565b60008115159050919050565b612b5781612b42565b82525050565b6000602082019050612b726000830184612b4e565b92915050565b600081519050919050565b600082825260208201905092915050565b6000819050602082019050919050565b612bad8161281e565b82525050565b600081519050919050565b600082825260208201905092915050565b60005b83811015612bed578082015181840152602081019050612bd2565b83811115612bfc576000848401525b50505050565b6000612c0d82612bb3565b612c178185612bbe565b9350612c27818560208601612bcf565b612c3081612870565b840191505092915050565b600073ffffffffffffffffffffffffffffffffffffffff82169050919050565b6000612c6682612c3b565b9050919050565b612c7681612c5b565b82525050565b600061016083016000830151612c956000860182612ba4565b5060208301518482036020860152612cad8282612c02565b91505060408301518482036040860152612cc78282612c02565b91505060608301518482036060860152612ce18282612c02565b91505060808301518482036080860152612cfb8282612c02565b91505060a083015184820360a0860152612d158282612c02565b91505060c083015184820360c0860152612d2f8282612c02565b91505060e083015184820360e0860152612d498282612c02565b915050610100830151848203610100860152612d658282612c02565b915050610120830151612d7c610120860182612c6d565b50610140830151612d91610140860182612ba4565b508091505092915050565b6000612da88383612c7c565b905092915050565b6000602082019050919050565b6000612dc882612b78565b612dd28185612b83565b935083602082028501612de485612b94565b8060005b85811015612e205784840389528151612e018582612d9c565b9450612e0c83612db0565b925060208a01995050600181019050612de8565b50829750879550505050505092915050565b60006020820190508181036000830152612e4c8184612dbd565b905092915050565b612e5d81612c5b565b8114612e6857600080fd5b50565b600081359050612e7a81612e54565b92915050565b60008060008060808587031215612e9a57612e9961285c565b5b6000612ea887828801612e6b565b945050602085013567ffffffffffffffff811115612ec957612ec8612861565b5b612ed58782880161297e565b935050604085013567ffffffffffffffff811115612ef657612ef5612861565b5b612f028782880161297e565b925050606085013567ffffffffffffffff811115612f2357612f22612861565b5b612f2f8782880161297e565b91505092959194509250565b612f448161281e565b8114612f4f57600080fd5b50565b600081359050612f6181612f3b565b92915050565b600060208284031215612f7d57612f7c61285c565b5b6000612f8b84828501612f52565b91505092915050565b600082825260208201905092915050565b6000612fb082612bb3565b612fba8185612f94565b9350612fca818560208601612bcf565b612fd381612870565b840191505092915050565b600061016082019050612ff4600083018e612b4e565b613001602083018d612b4e565b61300e604083018c612b4e565b61301b606083018b612b4e565b613028608083018a612b4e565b61303560a0830189612b4e565b61304260c0830188612b4e565b61304f60e0830187612b4e565b61305d610100830186612b4e565b61306b610120830185612b4e565b81810361014083015261307e8184612fa5565b90509c9b505050505050505050505050565b6000602082840312156130a6576130a561285c565b5b60006130b484828501612e6b565b91505092915050565b6130c681612c5b565b82525050565b6000610160820190506130e2600083018e612828565b81810360208301526130f4818d612fa5565b90508181036040830152613108818c612fa5565b9050818103606083015261311c818b612fa5565b90508181036080830152613130818a612fa5565b905081810360a08301526131448189612fa5565b905081810360c08301526131588188612fa5565b905081810360e083015261316c8187612fa5565b90508181036101008301526131818186612fa5565b90506131916101208301856130bd565b61319f610140830184612828565b9c9b505050505050505050505050565b600081519050919050565b600082825260208201905092915050565b6000819050602082019050919050565b600060a0830160008301516131f36000860182612ba4565b5060208301516132066020860182612c6d565b506040830151848203604086015261321e8282612c02565b915050606083015184820360608601526132388282612c02565b915050608083015184820360808601526132528282612c02565b9150508091505092915050565b600061326b83836131db565b905092915050565b6000602082019050919050565b600061328b826131af565b61329581856131ba565b9350836020820285016132a7856131cb565b8060005b858110156132e357848403895281516132c4858261325f565b94506132cf83613273565b925060208a019950506001810190506132ab565b50829750879550505050505092915050565b6000602082019050818103600083015261330f8184613280565b905092915050565b61332081612b42565b811461332b57600080fd5b50565b60008135905061333d81613317565b92915050565b60008060008060008060008060008060006101608c8e0312156133695761336861285c565b5b60006133778e828f0161332e565b9b505060206133888e828f0161332e565b9a505060406133998e828f0161332e565b99505060606133aa8e828f0161332e565b98505060806133bb8e828f0161332e565b97505060a06133cc8e828f0161332e565b96505060c06133dd8e828f0161332e565b95505060e06133ee8e828f0161332e565b9450506101006134008e828f0161332e565b9350506101206134128e828f0161332e565b9250506101408c013567ffffffffffffffff81111561343457613433612861565b5b6134408e828f0161297e565b9150509295989b509295989b9093969950565b600061014082019050818103600083015261346e818d612fa5565b90508181036020830152613482818c612fa5565b90508181036040830152613496818b612fa5565b905081810360608301526134aa818a612fa5565b905081810360808301526134be8189612fa5565b905081810360a08301526134d28188612fa5565b905081810360c08301526134e68187612fa5565b90506134f560e0830186612828565b8181036101008301526135088185612fa5565b9050613518610120830184612828565b9b9a5050505050505050505050565b600060a08201905061353c6000830188612828565b61354960208301876130bd565b818103604083015261355b8186612fa5565b9050818103606083015261356f8185612fa5565b905081810360808301526135838184612fa5565b90509695505050505050565b60008060008060008060008060006101208a8c0312156135b2576135b161285c565b5b60008a013567ffffffffffffffff8111156135d0576135cf612861565b5b6135dc8c828d0161297e565b99505060208a013567ffffffffffffffff8111156135fd576135fc612861565b5b6136098c828d0161297e565b98505060408a013567ffffffffffffffff81111561362a57613629612861565b5b6136368c828d0161297e565b97505060608a013567ffffffffffffffff81111561365757613656612861565b5b6136638c828d0161297e565b96505060808a013567ffffffffffffffff81111561368457613683612861565b5b6136908c828d0161297e565b95505060a08a013567ffffffffffffffff8111156136b1576136b0612861565b5b6136bd8c828d0161297e565b94505060c08a013567ffffffffffffffff8111156136de576136dd612861565b5b6136ea8c828d0161297e565b93505060e08a013567ffffffffffffffff81111561370b5761370a612861565b5b6137178c828d0161297e565b9250506101006137298c828d01612e6b565b9150509295985092959850929598565b600081905092915050565b600061374f82612bb3565b6137598185613739565b9350613769818560208601612bcf565b80840191505092915050565b60006137818284613744565b915081905092915050565b60008160601b9050919050565b60006137a48261378c565b9050919050565b60006137b682613799565b9050919050565b6137ce6137c982612c5b565b6137ab565b82525050565b60006137e082846137bd565b60148201915081905092915050565b7f4e487b7100000000000000000000000000000000000000000000000000000000600052601160045260246000fd5b60006138298261281e565b91507fffffffffffffffffffffffffffffffffffffffffffffffffffffffffffffffff82141561385c5761385b6137ef565b5b600182019050919050565b60006138728261281e565b915061387d8361281e565b9250827fffffffffffffffffffffffffffffffffffffffffffffffffffffffffffffffff038211156138b2576138b16137ef565b5b828201905092915050565b7f4e487b7100000000000000000000000000000000000000000000000000000000600052602260045260246000fd5b6000600282049050600182168061390457607f821691505b60208210811415613918576139176138bd565b5b50919050565b7f4e487b7100000000000000000000000000000000000000000000000000000000600052603260045260246000fd5b7f4e6f7420666f756e640000000000000000000000000000000000000000000000600082015250565b6000613983600983612f94565b915061398e8261394d565b602082019050919050565b600060208201905081810360008301526139b281613976565b905091905056fea2646970667358221220dfd4c63ff60653e623c80f573f062ea8ebc765d56337b512cd6acec91add1d6764736f6c634300080a0033",
  "immutableReferences": {},
  "source": "// SPDX-License-Identifier: MIT\r\npragma solidity >=0.4.22 <0.9.0;\r\n\r\ncontract Patient {\r\n    \r\n    struct structPatient{\r\n        uint id;\r\n        string fullName;\r\n        string dateOfBirth;\r\n        string CNIC;\r\n        string creatorAddress;\r\n        string PhoneNo;\r\n        string email;\r\n        string status;\r\n        string gender;\r\n        address accountAddress;\r\n        uint dateCreated;\r\n    }\r\n    struct commonMedicalConditions{\r\n        bool AlcoholOrDrugDependence;\r\n        bool Seizure;\r\n        bool HeartDisease;\r\n        bool Blackout;\r\n        bool Stroke;\r\n        bool VisualFieldOrAcuityImpairment;\r\n        bool Diabetes;\r\n        bool MentalOrEmotionalIllness;\r\n        bool DementiaOrAlzheimer;\r\n        bool SleepApneaOrNarcolepsy;\r\n        string other;\r\n    }\r\n    struct structPatientReport{\r\n        uint reportId;\r\n        address patientAddress;\r\n        string Title;\r\n        string Description;\r\n        string Report;\r\n    }\r\n    uint public patientCount = 0;\r\n    uint public reportCount = 0;\r\n    uint public currentId = 0;\r\n\r\n    mapping(uint => structPatient) public Patients;\r\n    mapping(uint => commonMedicalConditions) public MedicalConditions;\r\n    mapping(uint => structPatientReport) public PatientReports;\r\n\r\n    constructor () {\r\n    }\r\n     function AddPatient(string memory _fullName, string memory _dateOfBirth, string memory _cnic, \r\n                        string memory _hospitalId, string memory _phoneNo, string memory _email, string memory _status, string memory _gender, address _accountAddress) public returns (bool)\r\n    {\r\n            structPatient memory patient;\r\n            patient.id = patientCount;\r\n            patient.fullName = _fullName;\r\n            patient.dateOfBirth = _dateOfBirth;\r\n            patient.CNIC = _cnic;\r\n            patient.creatorAddress = _hospitalId;\r\n            patient.PhoneNo = _phoneNo;\r\n            patient.email = _email;\r\n            patient.status = _status;\r\n            patient.gender = _gender;\r\n            patient.accountAddress = _accountAddress;\r\n            patient.dateCreated = block.timestamp;\r\n            Patients[patientCount] = patient;  \r\n            return true;\r\n      \r\n    }\r\n\r\n    function AddMedicalCondition(bool _dependence, bool _seizure, bool _heartDisease, bool _blackout, bool _stroke, bool _VFAI, bool _diabetes, bool _mentalIllness, bool _dementia, bool _sleepApneaOrNarcolepsy, string memory _other) public returns (bool)\r\n    {\r\n        MedicalConditions[patientCount] = commonMedicalConditions(_dependence, _seizure, _heartDisease, _blackout, _stroke, _VFAI, _diabetes, _mentalIllness, _dementia, _sleepApneaOrNarcolepsy, _other);\r\n        patientCount++;\r\n        return true;\r\n    }\r\n\r\n    function getAll() public view returns (structPatient[] memory)\r\n    {\r\n        structPatient[] memory hospitalList = new structPatient[](patientCount+1);\r\n        for (uint i = 0; i <patientCount; i++) \r\n        {\r\n            hospitalList[i] = Patients[i];\r\n        }\r\n        return hospitalList;\r\n    }\r\n    function addReport(address _patientAddress, string memory _tittle, string memory _description, string memory _report) public returns (bool) {\r\n            \r\n            PatientReports[reportCount] = structPatientReport(reportCount,_patientAddress, _tittle,  _description,  _report); \r\n            reportCount ++;\r\n            return true;\r\n    }\r\n    function getReport(address _patientAddress) public view returns(structPatientReport[] memory)\r\n    {\r\n        structPatientReport[] memory patientReport = new structPatientReport[](getReportCount(_patientAddress));\r\n        for (uint i = 0; i <patientCount; i++) \r\n        {\r\n             if(keccak256(abi.encodePacked(PatientReports[i].patientAddress)) == keccak256(abi.encodePacked(_patientAddress)))\r\n             {\r\n                patientReport[i] = PatientReports[i];\r\n             }\r\n        }\r\n        return patientReport;\r\n    }\r\n    function getReportCount(address _patientAddress) public view returns(uint) {\r\n       \r\n        uint count = 0;\r\n        for (uint i = 0; i <patientCount; i++) \r\n        {\r\n             if(keccak256(abi.encodePacked(PatientReports[i].patientAddress)) == keccak256(abi.encodePacked(_patientAddress))) count++;\r\n        }\r\n        return count;\r\n    }\r\n\r\n    function getPatient(address _address) public view returns (string memory,\r\n        string memory,\r\n        string memory,\r\n        string memory,\r\n        string memory,\r\n        string memory,\r\n        string memory, uint id, string memory, uint)\r\n    {\r\n        for (uint i = 0; i < patientCount; i++) \r\n        {\r\n            if(Patients[i].accountAddress == _address)\r\n            {\r\n                structPatient memory patient = Patients[i];\r\n                return (patient.fullName, patient.dateOfBirth, patient.CNIC, patient.PhoneNo, patient.email, patient.status, patient.gender, patient.id, patient.creatorAddress, patient.dateCreated);\r\n            }\r\n        }\r\n        revert(\"Not found\");\r\n    }\r\n\r\n    function getPatientConditions(uint id) public view returns (bool, bool, bool, bool, bool, bool, bool, bool, bool, bool, string memory) {\r\n        commonMedicalConditions memory conditions = MedicalConditions[id];\r\n        return (conditions.AlcoholOrDrugDependence, conditions.Seizure, conditions.HeartDisease, conditions.Blackout, conditions.Stroke, conditions.VisualFieldOrAcuityImpairment, conditions.Diabetes, conditions.MentalOrEmotionalIllness, conditions.DementiaOrAlzheimer, conditions.SleepApneaOrNarcolepsy, conditions.other);\r\n    }\r\n\r\n    function updatePatient(string memory _id, string memory _name, string memory _dob, string memory _cnic, string memory _number, \r\n                            string memory _email, string memory _status, string memory _gender)  public  returns (bool)\r\n    {\r\n         for(uint i = 0; i < patientCount; i++){\r\n\r\n            if(keccak256(abi.encodePacked(Patients[i].accountAddress)) == keccak256(abi.encodePacked(_id)) )\r\n            {\r\n                structPatient storage patient = Patients[i];\r\n                patient.fullName = _name;\r\n                patient.dateOfBirth = _dob;\r\n                patient.CNIC = _cnic;\r\n                patient.PhoneNo = _number;\r\n                patient.email = _email;\r\n                patient.status = _status;\r\n                patient.gender = _gender;\r\n                currentId = patient.id;\r\n                return true; // record updated successfully\r\n            }\r\n        }\r\n        return false; \r\n    }\r\n\r\n    function updateConditions(bool _dependence, bool _seizure, bool _heartDisease, bool _blackout, bool _stroke, bool _VFAI, bool _diabetes, bool _mentalIllness, bool _dementia, bool _sleepApneaOrNarcolepsy, string memory _other) public returns (bool)\r\n    {\r\n         commonMedicalConditions storage conditions = MedicalConditions[currentId];\r\n         conditions.AlcoholOrDrugDependence = _dependence;\r\n         conditions.Seizure = _seizure;\r\n         conditions.HeartDisease = _heartDisease;\r\n         conditions.Blackout = _blackout;\r\n         conditions.Stroke = _stroke;\r\n         conditions.VisualFieldOrAcuityImpairment = _VFAI;\r\n         conditions.Diabetes = _diabetes;\r\n         conditions.MentalOrEmotionalIllness = _mentalIllness;\r\n         conditions.DementiaOrAlzheimer = _dementia;\r\n         conditions.SleepApneaOrNarcolepsy = _sleepApneaOrNarcolepsy;\r\n         conditions.other = _other;\r\n         currentId = 0;\r\n         return true;\r\n    }\r\n}\r\n",
  "sourcePath": "D:\\Documents\\Custom Office Templates\\Final Year Project\\decentralized-patient-centered-health-records-and-exchange\\decentralized-patient-centered-health-records-and-exchange\\contracts\\Patient.sol",
  "compiler": {
    "name": "solc",
    "version": "0.8.10+commit.fc410830.Emscripten.clang"
  },
  "schemaVersion": "3.4.3",
  "updatedAt": "2022-01-24T09:56:46.298Z",
  "networkType": "ethereum",
  "devdoc": {
    "kind": "dev",
    "methods": {},
    "version": 1
  },
  "userdoc": {
    "kind": "user",
    "methods": {},
    "version": 1
  }
}