{
  "contractName": "Report",
  "abi": [
    {
      "inputs": [],
      "stateMutability": "nonpayable",
      "type": "constructor"
    },
    {
      "inputs": [
        {
          "internalType": "uint256",
          "name": "",
          "type": "uint256"
        }
      ],
      "name": "Reports",
      "outputs": [
        {
          "internalType": "uint256",
          "name": "id",
          "type": "uint256"
        },
        {
          "internalType": "string",
          "name": "tittle",
          "type": "string"
        },
        {
          "internalType": "string",
          "name": "description",
          "type": "string"
        },
        {
          "internalType": "string",
          "name": "details",
          "type": "string"
        },
        {
          "internalType": "address",
          "name": "patientAddress",
          "type": "address"
        }
      ],
      "stateMutability": "view",
      "type": "function",
      "constant": true
    },
    {
      "inputs": [],
      "name": "getCount",
      "outputs": [
        {
          "internalType": "uint256",
          "name": "",
          "type": "uint256"
        }
      ],
      "stateMutability": "view",
      "type": "function",
      "constant": true
    },
    {
      "inputs": [
        {
          "internalType": "string",
          "name": "_tittle",
          "type": "string"
        },
        {
          "internalType": "string",
          "name": "_description",
          "type": "string"
        },
        {
          "internalType": "string",
          "name": "_details",
          "type": "string"
        },
        {
          "internalType": "address",
          "name": "_patientAddress",
          "type": "address"
        }
      ],
      "name": "createReport",
      "outputs": [
        {
          "internalType": "bool",
          "name": "",
          "type": "bool"
        }
      ],
      "stateMutability": "nonpayable",
      "type": "function"
    },
    {
      "inputs": [
        {
          "internalType": "address",
          "name": "_patientAddress",
          "type": "address"
        }
      ],
      "name": "getAll",
      "outputs": [
        {
          "components": [
            {
              "internalType": "uint256",
              "name": "id",
              "type": "uint256"
            },
            {
              "internalType": "string",
              "name": "tittle",
              "type": "string"
            },
            {
              "internalType": "string",
              "name": "description",
              "type": "string"
            },
            {
              "internalType": "string",
              "name": "details",
              "type": "string"
            },
            {
              "internalType": "address",
              "name": "patientAddress",
              "type": "address"
            }
          ],
          "internalType": "struct Report.structReport[]",
          "name": "",
          "type": "tuple[]"
        }
      ],
      "stateMutability": "view",
      "type": "function",
      "constant": true
    }
  ],
  "bytecode": "0x6080604052600080553480156200001557600080fd5b50620000dd6040518060400160405280600b81526020017f54657374205265706f72740000000000000000000000000000000000000000008152506040518060400160405280600b81526020017f4465736372697074696f6e0000000000000000000000000000000000000000008152506040518060400160405280600c81526020017f44657461696c732048657265000000000000000000000000000000000000000081525073910ce3c1e5d7e479f1669384d8110436fe077113620000e460201b60201c565b50620003ab565b60006040518060a0016040528060005481526020018681526020018581526020018481526020018373ffffffffffffffffffffffffffffffffffffffff168152506001600080548152602001908152602001600020600082015181600001556020820151816001019080519060200190620001619291906200020f565b506040820151816002019080519060200190620001809291906200020f565b5060608201518160030190805190602001906200019f9291906200020f565b5060808201518160040160006101000a81548173ffffffffffffffffffffffffffffffffffffffff021916908373ffffffffffffffffffffffffffffffffffffffff160217905550905050600080815480929190620001fe90620002f8565b919050555060019050949350505050565b8280546200021d9062000375565b90600052602060002090601f0160209004810192826200024157600085556200028d565b82601f106200025c57805160ff19168380011785556200028d565b828001600101855582156200028d579182015b828111156200028c5782518255916020019190600101906200026f565b5b5090506200029c9190620002a0565b5090565b5b80821115620002bb576000816000905550600101620002a1565b5090565b7f4e487b7100000000000000000000000000000000000000000000000000000000600052601160045260246000fd5b6000819050919050565b60006200030582620002ee565b91507fffffffffffffffffffffffffffffffffffffffffffffffffffffffffffffffff8214156200033b576200033a620002bf565b5b600182019050919050565b7f4e487b7100000000000000000000000000000000000000000000000000000000600052602260045260246000fd5b600060028204905060018216806200038e57607f821691505b60208210811415620003a557620003a462000346565b5b50919050565b61111980620003bb6000396000f3fe608060405234801561001057600080fd5b506004361061004c5760003560e01c8063467f2cd8146100515780635336dfb314610085578063a87d942c146100b5578063eb077342146100d3575b600080fd5b61006b60048036038101906100669190610990565b610103565b60405161007c959493929190610aa6565b60405180910390f35b61009f600480360381019061009a9190610c6f565b6102f1565b6040516100ac9190610d45565b60405180910390f35b6100bd610414565b6040516100ca9190610d60565b60405180910390f35b6100ed60048036038101906100e89190610d7b565b61041d565b6040516100fa9190610f56565b60405180910390f35b600160205280600052604060002060009150905080600001549080600101805461012c90610fa7565b80601f016020809104026020016040519081016040528092919081815260200182805461015890610fa7565b80156101a55780601f1061017a576101008083540402835291602001916101a5565b820191906000526020600020905b81548152906001019060200180831161018857829003601f168201915b5050505050908060020180546101ba90610fa7565b80601f01602080910402602001604051908101604052809291908181526020018280546101e690610fa7565b80156102335780601f1061020857610100808354040283529160200191610233565b820191906000526020600020905b81548152906001019060200180831161021657829003601f168201915b50505050509080600301805461024890610fa7565b80601f016020809104026020016040519081016040528092919081815260200182805461027490610fa7565b80156102c15780601f10610296576101008083540402835291602001916102c1565b820191906000526020600020905b8154815290600101906020018083116102a457829003601f168201915b5050505050908060040160009054906101000a900473ffffffffffffffffffffffffffffffffffffffff16905085565b60006040518060a0016040528060005481526020018681526020018581526020018481526020018373ffffffffffffffffffffffffffffffffffffffff16815250600160008054815260200190815260200160002060008201518160000155602082015181600101908051906020019061036c92919061085e565b50604082015181600201908051906020019061038992919061085e565b5060608201518160030190805190602001906103a692919061085e565b5060808201518160040160006101000a81548173ffffffffffffffffffffffffffffffffffffffff021916908373ffffffffffffffffffffffffffffffffffffffff16021790555090505060008081548092919061040390611008565b919050555060019050949350505050565b60008054905090565b606060008061042b84610794565b67ffffffffffffffff81111561044457610443610b18565b5b60405190808252806020026020018201604052801561047d57816020015b61046a6108e4565b8152602001906001900390816104625790505b50905060005b600054811015610789578460405160200161049e9190611099565b604051602081830303815290604052805190602001206001600083815260200190815260200160002060040160009054906101000a900473ffffffffffffffffffffffffffffffffffffffff166040516020016104fb9190611099565b60405160208183030381529060405280519060200120141561077657600160008281526020019081526020016000206040518060a00160405290816000820154815260200160018201805461054f90610fa7565b80601f016020809104026020016040519081016040528092919081815260200182805461057b90610fa7565b80156105c85780601f1061059d576101008083540402835291602001916105c8565b820191906000526020600020905b8154815290600101906020018083116105ab57829003601f168201915b505050505081526020016002820180546105e190610fa7565b80601f016020809104026020016040519081016040528092919081815260200182805461060d90610fa7565b801561065a5780601f1061062f5761010080835404028352916020019161065a565b820191906000526020600020905b81548152906001019060200180831161063d57829003601f168201915b5050505050815260200160038201805461067390610fa7565b80601f016020809104026020016040519081016040528092919081815260200182805461069f90610fa7565b80156106ec5780601f106106c1576101008083540402835291602001916106ec565b820191906000526020600020905b8154815290600101906020018083116106cf57829003601f168201915b505050505081526020016004820160009054906101000a900473ffffffffffffffffffffffffffffffffffffffff1673ffffffffffffffffffffffffffffffffffffffff1673ffffffffffffffffffffffffffffffffffffffff168152505082848061075790611008565b95508151811061076a576107696110b4565b5b60200260200101819052505b808061078190611008565b915050610483565b508092505050919050565b6000806000905060005b60005481101561085457836040516020016107b99190611099565b604051602081830303815290604052805190602001206001600083815260200190815260200160002060040160009054906101000a900473ffffffffffffffffffffffffffffffffffffffff166040516020016108169190611099565b60405160208183030381529060405280519060200120141561084157818061083d90611008565b9250505b808061084c90611008565b91505061079e565b5080915050919050565b82805461086a90610fa7565b90600052602060002090601f01602090048101928261088c57600085556108d3565b82601f106108a557805160ff19168380011785556108d3565b828001600101855582156108d3579182015b828111156108d25782518255916020019190600101906108b7565b5b5090506108e09190610929565b5090565b6040518060a0016040528060008152602001606081526020016060815260200160608152602001600073ffffffffffffffffffffffffffffffffffffffff1681525090565b5b8082111561094257600081600090555060010161092a565b5090565b6000604051905090565b600080fd5b600080fd5b6000819050919050565b61096d8161095a565b811461097857600080fd5b50565b60008135905061098a81610964565b92915050565b6000602082840312156109a6576109a5610950565b5b60006109b48482850161097b565b91505092915050565b6109c68161095a565b82525050565b600081519050919050565b600082825260208201905092915050565b60005b83811015610a065780820151818401526020810190506109eb565b83811115610a15576000848401525b50505050565b6000601f19601f8301169050919050565b6000610a37826109cc565b610a4181856109d7565b9350610a518185602086016109e8565b610a5a81610a1b565b840191505092915050565b600073ffffffffffffffffffffffffffffffffffffffff82169050919050565b6000610a9082610a65565b9050919050565b610aa081610a85565b82525050565b600060a082019050610abb60008301886109bd565b8181036020830152610acd8187610a2c565b90508181036040830152610ae18186610a2c565b90508181036060830152610af58185610a2c565b9050610b046080830184610a97565b9695505050505050565b600080fd5b600080fd5b7f4e487b7100000000000000000000000000000000000000000000000000000000600052604160045260246000fd5b610b5082610a1b565b810181811067ffffffffffffffff82111715610b6f57610b6e610b18565b5b80604052505050565b6000610b82610946565b9050610b8e8282610b47565b919050565b600067ffffffffffffffff821115610bae57610bad610b18565b5b610bb782610a1b565b9050602081019050919050565b82818337600083830152505050565b6000610be6610be184610b93565b610b78565b905082815260208101848484011115610c0257610c01610b13565b5b610c0d848285610bc4565b509392505050565b600082601f830112610c2a57610c29610b0e565b5b8135610c3a848260208601610bd3565b91505092915050565b610c4c81610a85565b8114610c5757600080fd5b50565b600081359050610c6981610c43565b92915050565b60008060008060808587031215610c8957610c88610950565b5b600085013567ffffffffffffffff811115610ca757610ca6610955565b5b610cb387828801610c15565b945050602085013567ffffffffffffffff811115610cd457610cd3610955565b5b610ce087828801610c15565b935050604085013567ffffffffffffffff811115610d0157610d00610955565b5b610d0d87828801610c15565b9250506060610d1e87828801610c5a565b91505092959194509250565b60008115159050919050565b610d3f81610d2a565b82525050565b6000602082019050610d5a6000830184610d36565b92915050565b6000602082019050610d7560008301846109bd565b92915050565b600060208284031215610d9157610d90610950565b5b6000610d9f84828501610c5a565b91505092915050565b600081519050919050565b600082825260208201905092915050565b6000819050602082019050919050565b610ddd8161095a565b82525050565b600082825260208201905092915050565b6000610dff826109cc565b610e098185610de3565b9350610e198185602086016109e8565b610e2281610a1b565b840191505092915050565b610e3681610a85565b82525050565b600060a083016000830151610e546000860182610dd4565b5060208301518482036020860152610e6c8282610df4565b91505060408301518482036040860152610e868282610df4565b91505060608301518482036060860152610ea08282610df4565b9150506080830151610eb56080860182610e2d565b508091505092915050565b6000610ecc8383610e3c565b905092915050565b6000602082019050919050565b6000610eec82610da8565b610ef68185610db3565b935083602082028501610f0885610dc4565b8060005b85811015610f445784840389528151610f258582610ec0565b9450610f3083610ed4565b925060208a01995050600181019050610f0c565b50829750879550505050505092915050565b60006020820190508181036000830152610f708184610ee1565b905092915050565b7f4e487b7100000000000000000000000000000000000000000000000000000000600052602260045260246000fd5b60006002820490506001821680610fbf57607f821691505b60208210811415610fd357610fd2610f78565b5b50919050565b7f4e487b7100000000000000000000000000000000000000000000000000000000600052601160045260246000fd5b60006110138261095a565b91507fffffffffffffffffffffffffffffffffffffffffffffffffffffffffffffffff82141561104657611045610fd9565b5b600182019050919050565b60008160601b9050919050565b600061106982611051565b9050919050565b600061107b8261105e565b9050919050565b61109361108e82610a85565b611070565b82525050565b60006110a58284611082565b60148201915081905092915050565b7f4e487b7100000000000000000000000000000000000000000000000000000000600052603260045260246000fdfea2646970667358221220303fcc71de77cca412fbe945fa31831d2413673a6dc86161f1674114f38cb88864736f6c634300080a0033",
  "immutableReferences": {},
  "source": "// SPDX-License-Identifier: MIT\r\npragma solidity >=0.4.22 <0.9.0;\r\n\r\ncontract Report {\r\n    \r\n    struct structReport{\r\n        uint id;\r\n        string tittle;\r\n        string description;\r\n        string details;\r\n        address patientAddress;\r\n    }\r\n    uint reportCount = 0;\r\n\r\n    mapping(uint => structReport) public Reports;\r\n\r\n    constructor ()\r\n    {\r\n        createReport(\"Test Report\",\"Description\",\"Details Here\", 0x910Ce3C1e5d7E479F1669384D8110436fE077113);\r\n    }\r\n    function getCount() public view returns(uint)\r\n    {\r\n        return reportCount;\r\n    }\r\n    function createReport(string memory _tittle, string memory _description, string memory _details, address _patientAddress) public  returns (bool)\r\n    {\r\n        Reports[reportCount] = structReport(reportCount, _tittle, _description, _details, _patientAddress);\r\n        reportCount ++;\r\n        return true;\r\n    }\r\n    function getAll(address _patientAddress) public view returns (structReport[] memory)\r\n    {\r\n        uint count = 0;\r\n        structReport[] memory reports = new structReport[](getPatientReportCount(_patientAddress));\r\n        for (uint i = 0; i < reportCount; i++) \r\n        {\r\n             if(keccak256(abi.encodePacked(Reports[i].patientAddress)) == keccak256(abi.encodePacked(_patientAddress)))\r\n             {\r\n                 reports[count++] = Reports[i];\r\n             }\r\n        }\r\n        return reports;\r\n    }\r\n    function getPatientReportCount(address _patientAddress) private view returns (uint)\r\n    {\r\n        uint count = 0;\r\n        for (uint i = 0; i < reportCount; i++) \r\n        {\r\n             if(keccak256(abi.encodePacked(Reports[i].patientAddress)) == keccak256(abi.encodePacked(_patientAddress)))\r\n             {\r\n                 count++;\r\n             }\r\n        }\r\n        return count;\r\n    }\r\n    \r\n}\r\n",
  "sourcePath": "D:\\Documents\\Custom Office Templates\\Final Year Project\\decentralized-patient-centered-health-records-and-exchange\\decentralized-patient-centered-health-records-and-exchange\\contracts\\Report.sol",
  "compiler": {
    "name": "solc",
    "version": "0.8.10+commit.fc410830.Emscripten.clang"
  },
  "schemaVersion": "3.4.3",
  "updatedAt": "2022-01-24T09:56:46.315Z",
  "networkType": "ethereum",
  "devdoc": {
    "kind": "dev",
    "methods": {},
    "version": 1
  },
  "userdoc": {
    "kind": "user",
    "methods": {},
    "version": 1
  }
}