{
  "contractName": "Report",
  "abi": [
    {
      "inputs": [],
      "stateMutability": "nonpayable",
      "type": "constructor"
    },
    {
      "inputs": [
        {
          "internalType": "uint256",
          "name": "",
          "type": "uint256"
        }
      ],
      "name": "Reports",
      "outputs": [
        {
          "internalType": "uint256",
          "name": "id",
          "type": "uint256"
        },
        {
          "internalType": "string",
          "name": "title",
          "type": "string"
        },
        {
          "internalType": "string",
          "name": "description",
          "type": "string"
        },
        {
          "internalType": "string",
          "name": "details",
          "type": "string"
        },
        {
          "internalType": "address",
          "name": "patientAddress",
          "type": "address"
        },
        {
          "internalType": "uint256",
          "name": "dateCreated",
          "type": "uint256"
        }
      ],
      "stateMutability": "view",
      "type": "function",
      "constant": true
    },
    {
      "inputs": [],
      "name": "getCount",
      "outputs": [
        {
          "internalType": "uint256",
          "name": "",
          "type": "uint256"
        }
      ],
      "stateMutability": "view",
      "type": "function",
      "constant": true
    },
    {
      "inputs": [
        {
          "internalType": "string",
          "name": "_title",
          "type": "string"
        },
        {
          "internalType": "string",
          "name": "_description",
          "type": "string"
        },
        {
          "internalType": "string",
          "name": "_details",
          "type": "string"
        },
        {
          "internalType": "address",
          "name": "_patientAddress",
          "type": "address"
        }
      ],
      "name": "createReport",
      "outputs": [
        {
          "internalType": "bool",
          "name": "",
          "type": "bool"
        }
      ],
      "stateMutability": "nonpayable",
      "type": "function"
    },
    {
      "inputs": [],
      "name": "getFirstReportDate",
      "outputs": [
        {
          "internalType": "uint256",
          "name": "",
          "type": "uint256"
        }
      ],
      "stateMutability": "view",
      "type": "function",
      "constant": true
    },
    {
      "inputs": [],
      "name": "getAllReports",
      "outputs": [
        {
          "internalType": "uint256[]",
          "name": "",
          "type": "uint256[]"
        }
      ],
      "stateMutability": "view",
      "type": "function",
      "constant": true
    },
    {
      "inputs": [
        {
          "internalType": "uint256",
          "name": "_id",
          "type": "uint256"
        },
        {
          "internalType": "address",
          "name": "_patientAddress",
          "type": "address"
        }
      ],
      "name": "isPatientReport",
      "outputs": [
        {
          "internalType": "bool",
          "name": "",
          "type": "bool"
        }
      ],
      "stateMutability": "view",
      "type": "function",
      "constant": true
    },
    {
      "inputs": [
        {
          "internalType": "uint256",
          "name": "_id",
          "type": "uint256"
        }
      ],
      "name": "getPatientReport",
      "outputs": [
        {
          "internalType": "string",
          "name": "",
          "type": "string"
        },
        {
          "internalType": "string",
          "name": "",
          "type": "string"
        },
        {
          "internalType": "string",
          "name": "",
          "type": "string"
        },
        {
          "internalType": "address",
          "name": "",
          "type": "address"
        },
        {
          "internalType": "uint256",
          "name": "",
          "type": "uint256"
        }
      ],
      "stateMutability": "view",
      "type": "function",
      "constant": true
    }
  ],
  "bytecode": "0x60806040526000805534801561001457600080fd5b5061101c806100246000396000f3fe608060405234801561001057600080fd5b506004361061007d5760003560e01c8063a87d942c1161005b578063a87d942c14610117578063a994639d14610135578063d55e6a5a14610169578063f3d3ddfa146101875761007d565b8063467f2cd8146100825780635336dfb3146100b757806386ca2259146100e7575b600080fd5b61009c6004803603810190610097919061095d565b6101a5565b6040516100ae96959493929190610a73565b60405180910390f35b6100d160048036038101906100cc9190610c4a565b610399565b6040516100de9190610d20565b60405180910390f35b61010160048036038101906100fc9190610d3b565b6104cc565b60405161010e9190610d20565b60405180910390f35b61011f61054c565b60405161012c9190610d7b565b60405180910390f35b61014f600480360381019061014a919061095d565b610555565b604051610160959493929190610d96565b60405180910390f35b6101716107a4565b60405161017e9190610d7b565b60405180910390f35b61018f6107c2565b60405161019c9190610ebc565b60405180910390f35b60016020528060005260406000206000915090508060000154908060010180546101ce90610f0d565b80601f01602080910402602001604051908101604052809291908181526020018280546101fa90610f0d565b80156102475780601f1061021c57610100808354040283529160200191610247565b820191906000526020600020905b81548152906001019060200180831161022a57829003601f168201915b50505050509080600201805461025c90610f0d565b80601f016020809104026020016040519081016040528092919081815260200182805461028890610f0d565b80156102d55780601f106102aa576101008083540402835291602001916102d5565b820191906000526020600020905b8154815290600101906020018083116102b857829003601f168201915b5050505050908060030180546102ea90610f0d565b80601f016020809104026020016040519081016040528092919081815260200182805461031690610f0d565b80156103635780601f1061033857610100808354040283529160200191610363565b820191906000526020600020905b81548152906001019060200180831161034657829003601f168201915b5050505050908060040160009054906101000a900473ffffffffffffffffffffffffffffffffffffffff16908060050154905086565b60006040518060c0016040528060005481526020018681526020018581526020018481526020018373ffffffffffffffffffffffffffffffffffffffff16815260200142815250600160008054815260200190815260200160002060008201518160000155602082015181600101908051906020019061041a929190610870565b506040820151816002019080519060200190610437929190610870565b506060820151816003019080519060200190610454929190610870565b5060808201518160040160006101000a81548173ffffffffffffffffffffffffffffffffffffffff021916908373ffffffffffffffffffffffffffffffffffffffff16021790555060a082015181600501559050506000808154809291906104bb90610f6e565b919050555060019050949350505050565b60008173ffffffffffffffffffffffffffffffffffffffff166001600085815260200190815260200160002060040160009054906101000a900473ffffffffffffffffffffffffffffffffffffffff1673ffffffffffffffffffffffffffffffffffffffff1614156105415760019050610546565b600090505b92915050565b60008054905090565b6060806060600080600160008781526020019081526020016000206001016001600088815260200190815260200160002060020160016000898152602001908152602001600020600301600160008a815260200190815260200160002060040160009054906101000a900473ffffffffffffffffffffffffffffffffffffffff16600160008b8152602001908152602001600020600501548480546105f990610f0d565b80601f016020809104026020016040519081016040528092919081815260200182805461062590610f0d565b80156106725780601f1061064757610100808354040283529160200191610672565b820191906000526020600020905b81548152906001019060200180831161065557829003601f168201915b5050505050945083805461068590610f0d565b80601f01602080910402602001604051908101604052809291908181526020018280546106b190610f0d565b80156106fe5780601f106106d3576101008083540402835291602001916106fe565b820191906000526020600020905b8154815290600101906020018083116106e157829003601f168201915b5050505050935082805461071190610f0d565b80601f016020809104026020016040519081016040528092919081815260200182805461073d90610f0d565b801561078a5780601f1061075f5761010080835404028352916020019161078a565b820191906000526020600020905b81548152906001019060200180831161076d57829003601f168201915b505050505092509450945094509450945091939590929450565b60006001600080815260200190815260200160002060050154905090565b60606000805467ffffffffffffffff8111156107e1576107e0610af3565b5b60405190808252806020026020018201604052801561080f5781602001602082028036833780820191505090505b50905060005b60005481101561086857600160008281526020019081526020016000206005015482828151811061084957610848610fb7565b5b602002602001018181525050808061086090610f6e565b915050610815565b508091505090565b82805461087c90610f0d565b90600052602060002090601f01602090048101928261089e57600085556108e5565b82601f106108b757805160ff19168380011785556108e5565b828001600101855582156108e5579182015b828111156108e45782518255916020019190600101906108c9565b5b5090506108f291906108f6565b5090565b5b8082111561090f5760008160009055506001016108f7565b5090565b6000604051905090565b600080fd5b600080fd5b6000819050919050565b61093a81610927565b811461094557600080fd5b50565b60008135905061095781610931565b92915050565b6000602082840312156109735761097261091d565b5b600061098184828501610948565b91505092915050565b61099381610927565b82525050565b600081519050919050565b600082825260208201905092915050565b60005b838110156109d35780820151818401526020810190506109b8565b838111156109e2576000848401525b50505050565b6000601f19601f8301169050919050565b6000610a0482610999565b610a0e81856109a4565b9350610a1e8185602086016109b5565b610a27816109e8565b840191505092915050565b600073ffffffffffffffffffffffffffffffffffffffff82169050919050565b6000610a5d82610a32565b9050919050565b610a6d81610a52565b82525050565b600060c082019050610a88600083018961098a565b8181036020830152610a9a81886109f9565b90508181036040830152610aae81876109f9565b90508181036060830152610ac281866109f9565b9050610ad16080830185610a64565b610ade60a083018461098a565b979650505050505050565b600080fd5b600080fd5b7f4e487b7100000000000000000000000000000000000000000000000000000000600052604160045260246000fd5b610b2b826109e8565b810181811067ffffffffffffffff82111715610b4a57610b49610af3565b5b80604052505050565b6000610b5d610913565b9050610b698282610b22565b919050565b600067ffffffffffffffff821115610b8957610b88610af3565b5b610b92826109e8565b9050602081019050919050565b82818337600083830152505050565b6000610bc1610bbc84610b6e565b610b53565b905082815260208101848484011115610bdd57610bdc610aee565b5b610be8848285610b9f565b509392505050565b600082601f830112610c0557610c04610ae9565b5b8135610c15848260208601610bae565b91505092915050565b610c2781610a52565b8114610c3257600080fd5b50565b600081359050610c4481610c1e565b92915050565b60008060008060808587031215610c6457610c6361091d565b5b600085013567ffffffffffffffff811115610c8257610c81610922565b5b610c8e87828801610bf0565b945050602085013567ffffffffffffffff811115610caf57610cae610922565b5b610cbb87828801610bf0565b935050604085013567ffffffffffffffff811115610cdc57610cdb610922565b5b610ce887828801610bf0565b9250506060610cf987828801610c35565b91505092959194509250565b60008115159050919050565b610d1a81610d05565b82525050565b6000602082019050610d356000830184610d11565b92915050565b60008060408385031215610d5257610d5161091d565b5b6000610d6085828601610948565b9250506020610d7185828601610c35565b9150509250929050565b6000602082019050610d90600083018461098a565b92915050565b600060a0820190508181036000830152610db081886109f9565b90508181036020830152610dc481876109f9565b90508181036040830152610dd881866109f9565b9050610de76060830185610a64565b610df4608083018461098a565b9695505050505050565b600081519050919050565b600082825260208201905092915050565b6000819050602082019050919050565b610e3381610927565b82525050565b6000610e458383610e2a565b60208301905092915050565b6000602082019050919050565b6000610e6982610dfe565b610e738185610e09565b9350610e7e83610e1a565b8060005b83811015610eaf578151610e968882610e39565b9750610ea183610e51565b925050600181019050610e82565b5085935050505092915050565b60006020820190508181036000830152610ed68184610e5e565b905092915050565b7f4e487b7100000000000000000000000000000000000000000000000000000000600052602260045260246000fd5b60006002820490506001821680610f2557607f821691505b60208210811415610f3957610f38610ede565b5b50919050565b7f4e487b7100000000000000000000000000000000000000000000000000000000600052601160045260246000fd5b6000610f7982610927565b91507fffffffffffffffffffffffffffffffffffffffffffffffffffffffffffffffff821415610fac57610fab610f3f565b5b600182019050919050565b7f4e487b7100000000000000000000000000000000000000000000000000000000600052603260045260246000fdfea2646970667358221220e645c3e8ec084f4fb15555c5728a2e7a6963dd4baf5f4d216611065d8b4dca0c64736f6c634300080a0033",
  "immutableReferences": {},
  "source": "// SPDX-License-Identifier: MIT\r\npragma solidity >=0.4.22 <0.9.0;\r\n\r\ncontract Report {\r\n    \r\n    struct structReport{\r\n        uint id;\r\n        string title;\r\n        string description;\r\n        string details;\r\n        address patientAddress;\r\n        uint dateCreated;\r\n    }\r\n    uint reportCount = 0;\r\n\r\n    mapping(uint => structReport) public Reports;\r\n\r\n    constructor ()\r\n    {\r\n    }\r\n\r\n    function getCount() public view returns(uint)\r\n    {\r\n        return reportCount;\r\n    }\r\n\r\n    function createReport(string memory _title, string memory _description, string memory _details, address _patientAddress) public  returns (bool)\r\n    {\r\n        Reports[reportCount] = structReport(reportCount, _title, _description, _details, _patientAddress, block.timestamp);\r\n        reportCount ++;\r\n        return true;\r\n    }\r\n\r\n    function getFirstReportDate() public view returns (uint) {\r\n        return Reports[0].dateCreated;\r\n    }\r\n\r\n    function getAllReports() public view returns (uint[] memory) {\r\n        uint[] memory reportsTime = new uint[](reportCount);\r\n\r\n        for (uint i = 0; i < reportCount; i++) {\r\n             reportsTime[i] = Reports[i].dateCreated;\r\n        }\r\n        return reportsTime;\r\n    }\r\n\r\n    function isPatientReport(uint _id, address _patientAddress) public view returns (bool)\r\n    {\r\n        if (Reports[_id].patientAddress == _patientAddress) return true;\r\n        else return false;\r\n    }\r\n\r\n    function getPatientReport(uint _id) public view returns (string memory, string memory, string memory, address, uint) {\r\n        return (Reports[_id].title, Reports[_id].description, Reports[_id].details, Reports[_id].patientAddress, Reports[_id].dateCreated);\r\n    } \r\n}\r\n",
  "sourcePath": "D:\\Documents\\Custom Office Templates\\Final Year Project\\decentralized-patient-centered-health-records-and-exchange\\decentralized-patient-centered-health-records-and-exchange\\contracts\\Report.sol",
  "compiler": {
    "name": "solc",
    "version": "0.8.10+commit.fc410830.Emscripten.clang"
  },
  "schemaVersion": "3.4.3",
  "updatedAt": "2022-02-02T14:26:33.139Z",
  "networkType": "ethereum",
  "devdoc": {
    "kind": "dev",
    "methods": {},
    "version": 1
  },
  "userdoc": {
    "kind": "user",
    "methods": {},
    "version": 1
  }
}