{
  "contractName": "Report",
  "abi": [
    {
      "inputs": [],
      "stateMutability": "nonpayable",
      "type": "constructor"
    },
    {
      "inputs": [
        {
          "internalType": "uint256",
          "name": "",
          "type": "uint256"
        }
      ],
      "name": "Reports",
      "outputs": [
        {
          "internalType": "uint256",
          "name": "id",
          "type": "uint256"
        },
        {
          "internalType": "string",
          "name": "title",
          "type": "string"
        },
        {
          "internalType": "string",
          "name": "description",
          "type": "string"
        },
        {
          "internalType": "string",
          "name": "details",
          "type": "string"
        },
        {
          "internalType": "address",
          "name": "patientAddress",
          "type": "address"
        },
        {
          "internalType": "uint256",
          "name": "dateCreated",
          "type": "uint256"
        }
      ],
      "stateMutability": "view",
      "type": "function",
      "constant": true
    },
    {
      "inputs": [],
      "name": "getCount",
      "outputs": [
        {
          "internalType": "uint256",
          "name": "",
          "type": "uint256"
        }
      ],
      "stateMutability": "view",
      "type": "function",
      "constant": true
    },
    {
      "inputs": [
        {
          "internalType": "string",
          "name": "_title",
          "type": "string"
        },
        {
          "internalType": "string",
          "name": "_description",
          "type": "string"
        },
        {
          "internalType": "string",
          "name": "_details",
          "type": "string"
        },
        {
          "internalType": "address",
          "name": "_patientAddress",
          "type": "address"
        }
      ],
      "name": "createReport",
      "outputs": [
        {
          "internalType": "bool",
          "name": "",
          "type": "bool"
        }
      ],
      "stateMutability": "nonpayable",
      "type": "function"
    },
    {
      "inputs": [],
      "name": "getFirstReportDate",
      "outputs": [
        {
          "internalType": "uint256",
          "name": "",
          "type": "uint256"
        }
      ],
      "stateMutability": "view",
      "type": "function",
      "constant": true
    },
    {
      "inputs": [
        {
          "internalType": "uint256",
          "name": "min",
          "type": "uint256"
        },
        {
          "internalType": "uint256",
          "name": "max",
          "type": "uint256"
        }
      ],
      "name": "getReportsByYear",
      "outputs": [
        {
          "internalType": "uint256[]",
          "name": "",
          "type": "uint256[]"
        }
      ],
      "stateMutability": "view",
      "type": "function",
      "constant": true
    },
    {
      "inputs": [
        {
          "internalType": "uint256",
          "name": "_id",
          "type": "uint256"
        },
        {
          "internalType": "address",
          "name": "_patientAddress",
          "type": "address"
        }
      ],
      "name": "isPatientReport",
      "outputs": [
        {
          "internalType": "bool",
          "name": "",
          "type": "bool"
        }
      ],
      "stateMutability": "view",
      "type": "function",
      "constant": true
    },
    {
      "inputs": [
        {
          "internalType": "uint256",
          "name": "_id",
          "type": "uint256"
        }
      ],
      "name": "getPatientReport",
      "outputs": [
        {
          "internalType": "string",
          "name": "",
          "type": "string"
        },
        {
          "internalType": "string",
          "name": "",
          "type": "string"
        },
        {
          "internalType": "string",
          "name": "",
          "type": "string"
        },
        {
          "internalType": "address",
          "name": "",
          "type": "address"
        },
        {
          "internalType": "uint256",
          "name": "",
          "type": "uint256"
        }
      ],
      "stateMutability": "view",
      "type": "function",
      "constant": true
    }
  ],
  "bytecode": "0x60806040526000805534801561001457600080fd5b50611131806100246000396000f3fe608060405234801561001057600080fd5b506004361061007d5760003560e01c8063995aba951161005b578063995aba9514610117578063a87d942c14610147578063a994639d14610165578063d55e6a5a146101995761007d565b8063467f2cd8146100825780635336dfb3146100b757806386ca2259146100e7575b600080fd5b61009c60048036038101906100979190610a32565b6101b7565b6040516100ae96959493929190610b48565b60405180910390f35b6100d160048036038101906100cc9190610d1f565b6103ab565b6040516100de9190610df5565b60405180910390f35b61010160048036038101906100fc9190610e10565b6104de565b60405161010e9190610df5565b60405180910390f35b610131600480360381019061012c9190610e50565b61055e565b60405161013e9190610f4e565b60405180910390f35b61014f6106cf565b60405161015c9190610f70565b60405180910390f35b61017f600480360381019061017a9190610a32565b6106d8565b604051610190959493929190610f8b565b60405180910390f35b6101a1610927565b6040516101ae9190610f70565b60405180910390f35b60016020528060005260406000206000915090508060000154908060010180546101e090611022565b80601f016020809104026020016040519081016040528092919081815260200182805461020c90611022565b80156102595780601f1061022e57610100808354040283529160200191610259565b820191906000526020600020905b81548152906001019060200180831161023c57829003601f168201915b50505050509080600201805461026e90611022565b80601f016020809104026020016040519081016040528092919081815260200182805461029a90611022565b80156102e75780601f106102bc576101008083540402835291602001916102e7565b820191906000526020600020905b8154815290600101906020018083116102ca57829003601f168201915b5050505050908060030180546102fc90611022565b80601f016020809104026020016040519081016040528092919081815260200182805461032890611022565b80156103755780601f1061034a57610100808354040283529160200191610375565b820191906000526020600020905b81548152906001019060200180831161035857829003601f168201915b5050505050908060040160009054906101000a900473ffffffffffffffffffffffffffffffffffffffff16908060050154905086565b60006040518060c0016040528060005481526020018681526020018581526020018481526020018373ffffffffffffffffffffffffffffffffffffffff16815260200142815250600160008054815260200190815260200160002060008201518160000155602082015181600101908051906020019061042c929190610945565b506040820151816002019080519060200190610449929190610945565b506060820151816003019080519060200190610466929190610945565b5060808201518160040160006101000a81548173ffffffffffffffffffffffffffffffffffffffff021916908373ffffffffffffffffffffffffffffffffffffffff16021790555060a082015181600501559050506000808154809291906104cd90611083565b919050555060019050949350505050565b60008173ffffffffffffffffffffffffffffffffffffffff166001600085815260200190815260200160002060040160009054906101000a900473ffffffffffffffffffffffffffffffffffffffff1673ffffffffffffffffffffffffffffffffffffffff1614156105535760019050610558565b600090505b92915050565b60606000805b6000548110156105cf578460016000838152602001908152602001600020600501541180156105a85750836001600083815260200190815260200160002060050154105b156105bc5781806105b890611083565b9250505b80806105c790611083565b915050610564565b5060008167ffffffffffffffff8111156105ec576105eb610bc8565b5b60405190808252806020026020018201604052801561061a5781602001602082028036833780820191505090505b5090506000805b6000548110156106c2578660016000838152602001908152602001600020600501541180156106655750856001600083815260200190815260200160002060050154105b156106af576001600082815260200190815260200160002060050154838381518110610694576106936110cc565b5b60200260200101818152505081806106ab90611083565b9250505b80806106ba90611083565b915050610621565b5081935050505092915050565b60008054905090565b6060806060600080600160008781526020019081526020016000206001016001600088815260200190815260200160002060020160016000898152602001908152602001600020600301600160008a815260200190815260200160002060040160009054906101000a900473ffffffffffffffffffffffffffffffffffffffff16600160008b81526020019081526020016000206005015484805461077c90611022565b80601f01602080910402602001604051908101604052809291908181526020018280546107a890611022565b80156107f55780601f106107ca576101008083540402835291602001916107f5565b820191906000526020600020905b8154815290600101906020018083116107d857829003601f168201915b5050505050945083805461080890611022565b80601f016020809104026020016040519081016040528092919081815260200182805461083490611022565b80156108815780601f1061085657610100808354040283529160200191610881565b820191906000526020600020905b81548152906001019060200180831161086457829003601f168201915b5050505050935082805461089490611022565b80601f01602080910402602001604051908101604052809291908181526020018280546108c090611022565b801561090d5780601f106108e25761010080835404028352916020019161090d565b820191906000526020600020905b8154815290600101906020018083116108f057829003601f168201915b505050505092509450945094509450945091939590929450565b60006001600080815260200190815260200160002060050154905090565b82805461095190611022565b90600052602060002090601f01602090048101928261097357600085556109ba565b82601f1061098c57805160ff19168380011785556109ba565b828001600101855582156109ba579182015b828111156109b957825182559160200191906001019061099e565b5b5090506109c791906109cb565b5090565b5b808211156109e45760008160009055506001016109cc565b5090565b6000604051905090565b600080fd5b600080fd5b6000819050919050565b610a0f816109fc565b8114610a1a57600080fd5b50565b600081359050610a2c81610a06565b92915050565b600060208284031215610a4857610a476109f2565b5b6000610a5684828501610a1d565b91505092915050565b610a68816109fc565b82525050565b600081519050919050565b600082825260208201905092915050565b60005b83811015610aa8578082015181840152602081019050610a8d565b83811115610ab7576000848401525b50505050565b6000601f19601f8301169050919050565b6000610ad982610a6e565b610ae38185610a79565b9350610af3818560208601610a8a565b610afc81610abd565b840191505092915050565b600073ffffffffffffffffffffffffffffffffffffffff82169050919050565b6000610b3282610b07565b9050919050565b610b4281610b27565b82525050565b600060c082019050610b5d6000830189610a5f565b8181036020830152610b6f8188610ace565b90508181036040830152610b838187610ace565b90508181036060830152610b978186610ace565b9050610ba66080830185610b39565b610bb360a0830184610a5f565b979650505050505050565b600080fd5b600080fd5b7f4e487b7100000000000000000000000000000000000000000000000000000000600052604160045260246000fd5b610c0082610abd565b810181811067ffffffffffffffff82111715610c1f57610c1e610bc8565b5b80604052505050565b6000610c326109e8565b9050610c3e8282610bf7565b919050565b600067ffffffffffffffff821115610c5e57610c5d610bc8565b5b610c6782610abd565b9050602081019050919050565b82818337600083830152505050565b6000610c96610c9184610c43565b610c28565b905082815260208101848484011115610cb257610cb1610bc3565b5b610cbd848285610c74565b509392505050565b600082601f830112610cda57610cd9610bbe565b5b8135610cea848260208601610c83565b91505092915050565b610cfc81610b27565b8114610d0757600080fd5b50565b600081359050610d1981610cf3565b92915050565b60008060008060808587031215610d3957610d386109f2565b5b600085013567ffffffffffffffff811115610d5757610d566109f7565b5b610d6387828801610cc5565b945050602085013567ffffffffffffffff811115610d8457610d836109f7565b5b610d9087828801610cc5565b935050604085013567ffffffffffffffff811115610db157610db06109f7565b5b610dbd87828801610cc5565b9250506060610dce87828801610d0a565b91505092959194509250565b60008115159050919050565b610def81610dda565b82525050565b6000602082019050610e0a6000830184610de6565b92915050565b60008060408385031215610e2757610e266109f2565b5b6000610e3585828601610a1d565b9250506020610e4685828601610d0a565b9150509250929050565b60008060408385031215610e6757610e666109f2565b5b6000610e7585828601610a1d565b9250506020610e8685828601610a1d565b9150509250929050565b600081519050919050565b600082825260208201905092915050565b6000819050602082019050919050565b610ec5816109fc565b82525050565b6000610ed78383610ebc565b60208301905092915050565b6000602082019050919050565b6000610efb82610e90565b610f058185610e9b565b9350610f1083610eac565b8060005b83811015610f41578151610f288882610ecb565b9750610f3383610ee3565b925050600181019050610f14565b5085935050505092915050565b60006020820190508181036000830152610f688184610ef0565b905092915050565b6000602082019050610f856000830184610a5f565b92915050565b600060a0820190508181036000830152610fa58188610ace565b90508181036020830152610fb98187610ace565b90508181036040830152610fcd8186610ace565b9050610fdc6060830185610b39565b610fe96080830184610a5f565b9695505050505050565b7f4e487b7100000000000000000000000000000000000000000000000000000000600052602260045260246000fd5b6000600282049050600182168061103a57607f821691505b6020821081141561104e5761104d610ff3565b5b50919050565b7f4e487b7100000000000000000000000000000000000000000000000000000000600052601160045260246000fd5b600061108e826109fc565b91507fffffffffffffffffffffffffffffffffffffffffffffffffffffffffffffffff8214156110c1576110c0611054565b5b600182019050919050565b7f4e487b7100000000000000000000000000000000000000000000000000000000600052603260045260246000fdfea2646970667358221220e0208859b79760fc040a6fc08307a229a8ec7a5ec94b7b169cb7468519a12d8d64736f6c634300080a0033",
  "immutableReferences": {},
  "source": "// SPDX-License-Identifier: MIT\r\npragma solidity >=0.4.22 <0.9.0;\r\n\r\ncontract Report {\r\n    \r\n    struct structReport{\r\n        uint id;\r\n        string title;\r\n        string description;\r\n        string details;\r\n        address patientAddress;\r\n        uint dateCreated;\r\n    }\r\n    uint reportCount = 0;\r\n\r\n    mapping(uint => structReport) public Reports;\r\n\r\n    constructor ()\r\n    {\r\n    }\r\n\r\n    function getCount() public view returns(uint)\r\n    {\r\n        return reportCount;\r\n    }\r\n\r\n    function createReport(string memory _title, string memory _description, string memory _details, address _patientAddress) public  returns (bool)\r\n    {\r\n        Reports[reportCount] = structReport(reportCount, _title, _description, _details, _patientAddress, block.timestamp);\r\n        reportCount ++;\r\n        return true;\r\n    }\r\n\r\n    function getFirstReportDate() public view returns (uint) {\r\n        return Reports[0].dateCreated;\r\n    }\r\n\r\n    function getReportsByYear(uint min, uint max) public view returns (uint[] memory) {\r\n        uint count = 0;\r\n        for (uint i = 0; i < reportCount; i++) {\r\n            if (Reports[i].dateCreated > min && Reports[i].dateCreated < max) count++;\r\n        }\r\n        uint[] memory reportsTime = new uint[](count);\r\n        uint index = 0;\r\n        for (uint i = 0; i < reportCount; i++) {\r\n            if (Reports[i].dateCreated > min && Reports[i].dateCreated < max) {\r\n                reportsTime[index] = Reports[i].dateCreated;\r\n                index++;\r\n            }\r\n        }\r\n        return reportsTime;\r\n    }\r\n\r\n    function isPatientReport(uint _id, address _patientAddress) public view returns (bool)\r\n    {\r\n        if (Reports[_id].patientAddress == _patientAddress) return true;\r\n        else return false;\r\n    }\r\n\r\n    function getPatientReport(uint _id) public view returns (string memory, string memory, string memory, address, uint) {\r\n        return (Reports[_id].title, Reports[_id].description, Reports[_id].details, Reports[_id].patientAddress, Reports[_id].dateCreated);\r\n    } \r\n}\r\n",
  "sourcePath": "D:\\Documents\\Custom Office Templates\\Final Year Project\\decentralized-patient-centered-health-records-and-exchange\\decentralized-patient-centered-health-records-and-exchange\\contracts\\Report.sol",
  "compiler": {
    "name": "solc",
    "version": "0.8.10+commit.fc410830.Emscripten.clang"
  },
  "schemaVersion": "3.4.3",
  "updatedAt": "2022-02-02T11:10:53.384Z",
  "networkType": "ethereum",
  "devdoc": {
    "kind": "dev",
    "methods": {},
    "version": 1
  },
  "userdoc": {
    "kind": "user",
    "methods": {},
    "version": 1
  }
}