{
  "contractName": "Report",
  "abi": [
    {
      "inputs": [],
      "stateMutability": "nonpayable",
      "type": "constructor"
    },
    {
      "inputs": [
        {
          "internalType": "uint256",
          "name": "",
          "type": "uint256"
        }
      ],
      "name": "Reports",
      "outputs": [
        {
          "internalType": "uint256",
          "name": "id",
          "type": "uint256"
        },
        {
          "internalType": "string",
          "name": "title",
          "type": "string"
        },
        {
          "internalType": "string",
          "name": "description",
          "type": "string"
        },
        {
          "internalType": "string",
          "name": "details",
          "type": "string"
        },
        {
          "internalType": "address",
          "name": "patientAddress",
          "type": "address"
        },
        {
          "internalType": "uint256",
          "name": "dateCreated",
          "type": "uint256"
        },
        {
          "internalType": "address",
          "name": "hospitalAddress",
          "type": "address"
        }
      ],
      "stateMutability": "view",
      "type": "function",
      "constant": true
    },
    {
      "inputs": [],
      "name": "getCount",
      "outputs": [
        {
          "internalType": "uint256",
          "name": "",
          "type": "uint256"
        }
      ],
      "stateMutability": "view",
      "type": "function",
      "constant": true
    },
    {
      "inputs": [
        {
          "internalType": "string",
          "name": "_title",
          "type": "string"
        },
        {
          "internalType": "string",
          "name": "_description",
          "type": "string"
        },
        {
          "internalType": "string",
          "name": "_details",
          "type": "string"
        },
        {
          "internalType": "address",
          "name": "_patientAddress",
          "type": "address"
        }
      ],
      "name": "createReport",
      "outputs": [
        {
          "internalType": "bool",
          "name": "",
          "type": "bool"
        }
      ],
      "stateMutability": "nonpayable",
      "type": "function"
    },
    {
      "inputs": [],
      "name": "getFirstReportDate",
      "outputs": [
        {
          "internalType": "uint256",
          "name": "",
          "type": "uint256"
        }
      ],
      "stateMutability": "view",
      "type": "function",
      "constant": true
    },
    {
      "inputs": [],
      "name": "getAllReports",
      "outputs": [
        {
          "internalType": "uint256[]",
          "name": "",
          "type": "uint256[]"
        }
      ],
      "stateMutability": "view",
      "type": "function",
      "constant": true
    },
    {
      "inputs": [
        {
          "internalType": "uint256",
          "name": "_id",
          "type": "uint256"
        },
        {
          "internalType": "address",
          "name": "_patientAddress",
          "type": "address"
        }
      ],
      "name": "isPatientReport",
      "outputs": [
        {
          "internalType": "bool",
          "name": "",
          "type": "bool"
        }
      ],
      "stateMutability": "view",
      "type": "function",
      "constant": true
    },
    {
      "inputs": [
        {
          "internalType": "uint256",
          "name": "_id",
          "type": "uint256"
        }
      ],
      "name": "getPatientReport",
      "outputs": [
        {
          "internalType": "string",
          "name": "",
          "type": "string"
        },
        {
          "internalType": "string",
          "name": "",
          "type": "string"
        },
        {
          "internalType": "string",
          "name": "",
          "type": "string"
        },
        {
          "internalType": "address",
          "name": "",
          "type": "address"
        },
        {
          "internalType": "uint256",
          "name": "",
          "type": "uint256"
        }
      ],
      "stateMutability": "view",
      "type": "function",
      "constant": true
    },
    {
      "inputs": [],
      "name": "getAllHospitalAddress",
      "outputs": [
        {
          "internalType": "address[]",
          "name": "",
          "type": "address[]"
        }
      ],
      "stateMutability": "view",
      "type": "function",
      "constant": true
    }
  ],
  "bytecode": "0x60806040526000805534801561001457600080fd5b506112b9806100246000396000f3fe608060405234801561001057600080fd5b50600436106100885760003560e01c8063a87d942c1161005b578063a87d942c14610141578063a994639d1461015f578063d55e6a5a14610193578063f3d3ddfa146101b157610088565b80630ff07c1f1461008d578063467f2cd8146100ab5780635336dfb3146100e157806386ca225914610111575b600080fd5b6100956101cf565b6040516100a29190610bb2565b60405180910390f35b6100c560048036038101906100c09190610c1e565b6102cb565b6040516100d89796959493929190610d02565b60405180910390f35b6100fb60048036038101906100f69190610ee7565b6104e5565b6040516101089190610fbd565b60405180910390f35b61012b60048036038101906101269190610fd8565b61067b565b6040516101389190610fbd565b60405180910390f35b6101496106fb565b6040516101569190611018565b60405180910390f35b61017960048036038101906101749190610c1e565b610704565b60405161018a959493929190611033565b60405180910390f35b61019b610953565b6040516101a89190611018565b60405180910390f35b6101b9610971565b6040516101c69190611159565b60405180910390f35b60606000805467ffffffffffffffff8111156101ee576101ed610d90565b5b60405190808252806020026020018201604052801561021c5781602001602082028036833780820191505090505b50905060005b6000548110156102c3576001600082815260200190815260200160002060060160009054906101000a900473ffffffffffffffffffffffffffffffffffffffff168282815181106102765761027561117b565b5b602002602001019073ffffffffffffffffffffffffffffffffffffffff16908173ffffffffffffffffffffffffffffffffffffffff168152505080806102bb906111d9565b915050610222565b508091505090565b60016020528060005260406000206000915090508060000154908060010180546102f490611251565b80601f016020809104026020016040519081016040528092919081815260200182805461032090611251565b801561036d5780601f106103425761010080835404028352916020019161036d565b820191906000526020600020905b81548152906001019060200180831161035057829003601f168201915b50505050509080600201805461038290611251565b80601f01602080910402602001604051908101604052809291908181526020018280546103ae90611251565b80156103fb5780601f106103d0576101008083540402835291602001916103fb565b820191906000526020600020905b8154815290600101906020018083116103de57829003601f168201915b50505050509080600301805461041090611251565b80601f016020809104026020016040519081016040528092919081815260200182805461043c90611251565b80156104895780601f1061045e57610100808354040283529160200191610489565b820191906000526020600020905b81548152906001019060200180831161046c57829003601f168201915b5050505050908060040160009054906101000a900473ffffffffffffffffffffffffffffffffffffffff16908060050154908060060160009054906101000a900473ffffffffffffffffffffffffffffffffffffffff16905087565b60006040518060e0016040528060005481526020018681526020018581526020018481526020018373ffffffffffffffffffffffffffffffffffffffff1681526020014281526020013373ffffffffffffffffffffffffffffffffffffffff168152506001600080548152602001908152602001600020600082015181600001556020820151816001019080519060200190610582929190610a1f565b50604082015181600201908051906020019061059f929190610a1f565b5060608201518160030190805190602001906105bc929190610a1f565b5060808201518160040160006101000a81548173ffffffffffffffffffffffffffffffffffffffff021916908373ffffffffffffffffffffffffffffffffffffffff16021790555060a0820151816005015560c08201518160060160006101000a81548173ffffffffffffffffffffffffffffffffffffffff021916908373ffffffffffffffffffffffffffffffffffffffff16021790555090505060008081548092919061066a906111d9565b919050555060019050949350505050565b60008173ffffffffffffffffffffffffffffffffffffffff166001600085815260200190815260200160002060040160009054906101000a900473ffffffffffffffffffffffffffffffffffffffff1673ffffffffffffffffffffffffffffffffffffffff1614156106f057600190506106f5565b600090505b92915050565b60008054905090565b6060806060600080600160008781526020019081526020016000206001016001600088815260200190815260200160002060020160016000898152602001908152602001600020600301600160008a815260200190815260200160002060040160009054906101000a900473ffffffffffffffffffffffffffffffffffffffff16600160008b8152602001908152602001600020600501548480546107a890611251565b80601f01602080910402602001604051908101604052809291908181526020018280546107d490611251565b80156108215780601f106107f657610100808354040283529160200191610821565b820191906000526020600020905b81548152906001019060200180831161080457829003601f168201915b5050505050945083805461083490611251565b80601f016020809104026020016040519081016040528092919081815260200182805461086090611251565b80156108ad5780601f10610882576101008083540402835291602001916108ad565b820191906000526020600020905b81548152906001019060200180831161089057829003601f168201915b505050505093508280546108c090611251565b80601f01602080910402602001604051908101604052809291908181526020018280546108ec90611251565b80156109395780601f1061090e57610100808354040283529160200191610939565b820191906000526020600020905b81548152906001019060200180831161091c57829003601f168201915b505050505092509450945094509450945091939590929450565b60006001600080815260200190815260200160002060050154905090565b60606000805467ffffffffffffffff8111156109905761098f610d90565b5b6040519080825280602002602001820160405280156109be5781602001602082028036833780820191505090505b50905060005b600054811015610a175760016000828152602001908152602001600020600501548282815181106109f8576109f761117b565b5b6020026020010181815250508080610a0f906111d9565b9150506109c4565b508091505090565b828054610a2b90611251565b90600052602060002090601f016020900481019282610a4d5760008555610a94565b82601f10610a6657805160ff1916838001178555610a94565b82800160010185558215610a94579182015b82811115610a93578251825591602001919060010190610a78565b5b509050610aa19190610aa5565b5090565b5b80821115610abe576000816000905550600101610aa6565b5090565b600081519050919050565b600082825260208201905092915050565b6000819050602082019050919050565b600073ffffffffffffffffffffffffffffffffffffffff82169050919050565b6000610b1982610aee565b9050919050565b610b2981610b0e565b82525050565b6000610b3b8383610b20565b60208301905092915050565b6000602082019050919050565b6000610b5f82610ac2565b610b698185610acd565b9350610b7483610ade565b8060005b83811015610ba5578151610b8c8882610b2f565b9750610b9783610b47565b925050600181019050610b78565b5085935050505092915050565b60006020820190508181036000830152610bcc8184610b54565b905092915050565b6000604051905090565b600080fd5b600080fd5b6000819050919050565b610bfb81610be8565b8114610c0657600080fd5b50565b600081359050610c1881610bf2565b92915050565b600060208284031215610c3457610c33610bde565b5b6000610c4284828501610c09565b91505092915050565b610c5481610be8565b82525050565b600081519050919050565b600082825260208201905092915050565b60005b83811015610c94578082015181840152602081019050610c79565b83811115610ca3576000848401525b50505050565b6000601f19601f8301169050919050565b6000610cc582610c5a565b610ccf8185610c65565b9350610cdf818560208601610c76565b610ce881610ca9565b840191505092915050565b610cfc81610b0e565b82525050565b600060e082019050610d17600083018a610c4b565b8181036020830152610d298189610cba565b90508181036040830152610d3d8188610cba565b90508181036060830152610d518187610cba565b9050610d606080830186610cf3565b610d6d60a0830185610c4b565b610d7a60c0830184610cf3565b98975050505050505050565b600080fd5b600080fd5b7f4e487b7100000000000000000000000000000000000000000000000000000000600052604160045260246000fd5b610dc882610ca9565b810181811067ffffffffffffffff82111715610de757610de6610d90565b5b80604052505050565b6000610dfa610bd4565b9050610e068282610dbf565b919050565b600067ffffffffffffffff821115610e2657610e25610d90565b5b610e2f82610ca9565b9050602081019050919050565b82818337600083830152505050565b6000610e5e610e5984610e0b565b610df0565b905082815260208101848484011115610e7a57610e79610d8b565b5b610e85848285610e3c565b509392505050565b600082601f830112610ea257610ea1610d86565b5b8135610eb2848260208601610e4b565b91505092915050565b610ec481610b0e565b8114610ecf57600080fd5b50565b600081359050610ee181610ebb565b92915050565b60008060008060808587031215610f0157610f00610bde565b5b600085013567ffffffffffffffff811115610f1f57610f1e610be3565b5b610f2b87828801610e8d565b945050602085013567ffffffffffffffff811115610f4c57610f4b610be3565b5b610f5887828801610e8d565b935050604085013567ffffffffffffffff811115610f7957610f78610be3565b5b610f8587828801610e8d565b9250506060610f9687828801610ed2565b91505092959194509250565b60008115159050919050565b610fb781610fa2565b82525050565b6000602082019050610fd26000830184610fae565b92915050565b60008060408385031215610fef57610fee610bde565b5b6000610ffd85828601610c09565b925050602061100e85828601610ed2565b9150509250929050565b600060208201905061102d6000830184610c4b565b92915050565b600060a082019050818103600083015261104d8188610cba565b905081810360208301526110618187610cba565b905081810360408301526110758186610cba565b90506110846060830185610cf3565b6110916080830184610c4b565b9695505050505050565b600081519050919050565b600082825260208201905092915050565b6000819050602082019050919050565b6110d081610be8565b82525050565b60006110e283836110c7565b60208301905092915050565b6000602082019050919050565b60006111068261109b565b61111081856110a6565b935061111b836110b7565b8060005b8381101561114c57815161113388826110d6565b975061113e836110ee565b92505060018101905061111f565b5085935050505092915050565b6000602082019050818103600083015261117381846110fb565b905092915050565b7f4e487b7100000000000000000000000000000000000000000000000000000000600052603260045260246000fd5b7f4e487b7100000000000000000000000000000000000000000000000000000000600052601160045260246000fd5b60006111e482610be8565b91507fffffffffffffffffffffffffffffffffffffffffffffffffffffffffffffffff821415611217576112166111aa565b5b600182019050919050565b7f4e487b7100000000000000000000000000000000000000000000000000000000600052602260045260246000fd5b6000600282049050600182168061126957607f821691505b6020821081141561127d5761127c611222565b5b5091905056fea2646970667358221220f973973260ab35f03c4059bf915be840dee4a9e48c22254a971b38c32f9ec12264736f6c634300080a0033",
  "immutableReferences": {},
  "source": "// SPDX-License-Identifier: MIT\r\npragma solidity >=0.4.22 <0.9.0;\r\n\r\ncontract Report {\r\n    \r\n    struct structReport{\r\n        uint id;\r\n        string title;\r\n        string description;\r\n        string details;\r\n        address patientAddress;\r\n        uint dateCreated;\r\n        address hospitalAddress;\r\n    }\r\n    uint reportCount = 0;\r\n\r\n    mapping(uint => structReport) public Reports;\r\n\r\n    constructor ()\r\n    {\r\n    }\r\n\r\n    function getCount() public view returns(uint)\r\n    {\r\n        return reportCount;\r\n    }\r\n\r\n    function createReport(string memory _title, string memory _description, string memory _details, address _patientAddress) public  returns (bool)\r\n    {\r\n        Reports[reportCount] = structReport(reportCount, _title, _description, _details, _patientAddress, block.timestamp, msg.sender);\r\n        reportCount ++;\r\n        return true;\r\n    }\r\n\r\n    function getFirstReportDate() public view returns (uint) {\r\n        return Reports[0].dateCreated;\r\n    }\r\n\r\n    function getAllReports() public view returns (uint[] memory) {\r\n        uint[] memory reportsTime = new uint[](reportCount);\r\n\r\n        for (uint i = 0; i < reportCount; i++) {\r\n             reportsTime[i] = Reports[i].dateCreated;\r\n        }\r\n        return reportsTime;\r\n    }\r\n\r\n    function isPatientReport(uint _id, address _patientAddress) public view returns (bool)\r\n    {\r\n        if (Reports[_id].patientAddress == _patientAddress) return true;\r\n        else return false;\r\n    }\r\n\r\n    function getPatientReport(uint _id) public view returns (string memory, string memory, string memory, address, uint) {\r\n        return (Reports[_id].title, Reports[_id].description, Reports[_id].details, Reports[_id].patientAddress, Reports[_id].dateCreated);\r\n    }\r\n\r\n    function getAllHospitalAddress() public view returns (address[] memory) {\r\n        address[] memory hospitalAddresses = new address[](reportCount);\r\n\r\n        for (uint i = 0; i < reportCount; i++) {\r\n             hospitalAddresses[i] = Reports[i].hospitalAddress;\r\n        }\r\n        return hospitalAddresses;\r\n    } \r\n}\r\n",
  "sourcePath": "D:\\Documents\\Custom Office Templates\\Final Year Project\\decentralized-patient-centered-health-records-and-exchange\\decentralized-patient-centered-health-records-and-exchange\\contracts\\Report.sol",
  "compiler": {
    "name": "solc",
    "version": "0.8.10+commit.fc410830.Emscripten.clang"
  },
  "schemaVersion": "3.4.3",
  "updatedAt": "2022-02-03T12:04:59.932Z",
  "networkType": "ethereum",
  "devdoc": {
    "kind": "dev",
    "methods": {},
    "version": 1
  },
  "userdoc": {
    "kind": "user",
    "methods": {},
    "version": 1
  }
}