{
  "contractName": "Report",
  "abi": [
    {
      "inputs": [],
      "stateMutability": "nonpayable",
      "type": "constructor"
    },
    {
      "inputs": [
        {
          "internalType": "uint256",
          "name": "",
          "type": "uint256"
        }
      ],
      "name": "Reports",
      "outputs": [
        {
          "internalType": "uint256",
          "name": "id",
          "type": "uint256"
        },
        {
          "internalType": "string",
          "name": "title",
          "type": "string"
        },
        {
          "internalType": "string",
          "name": "description",
          "type": "string"
        },
        {
          "internalType": "string",
          "name": "details",
          "type": "string"
        },
        {
          "internalType": "address",
          "name": "patientAddress",
          "type": "address"
        },
        {
          "internalType": "uint256",
          "name": "dateCreated",
          "type": "uint256"
        }
      ],
      "stateMutability": "view",
      "type": "function",
      "constant": true
    },
    {
      "inputs": [],
      "name": "getCount",
      "outputs": [
        {
          "internalType": "uint256",
          "name": "",
          "type": "uint256"
        }
      ],
      "stateMutability": "view",
      "type": "function",
      "constant": true
    },
    {
      "inputs": [
        {
          "internalType": "string",
          "name": "_title",
          "type": "string"
        },
        {
          "internalType": "string",
          "name": "_description",
          "type": "string"
        },
        {
          "internalType": "string",
          "name": "_details",
          "type": "string"
        },
        {
          "internalType": "address",
          "name": "_patientAddress",
          "type": "address"
        }
      ],
      "name": "createReport",
      "outputs": [
        {
          "internalType": "bool",
          "name": "",
          "type": "bool"
        }
      ],
      "stateMutability": "nonpayable",
      "type": "function"
    },
    {
      "inputs": [
        {
          "internalType": "uint256",
          "name": "_id",
          "type": "uint256"
        },
        {
          "internalType": "address",
          "name": "_patientAddress",
          "type": "address"
        }
      ],
      "name": "isPatientReport",
      "outputs": [
        {
          "internalType": "bool",
          "name": "",
          "type": "bool"
        }
      ],
      "stateMutability": "view",
      "type": "function",
      "constant": true
    },
    {
      "inputs": [
        {
          "internalType": "uint256",
          "name": "_id",
          "type": "uint256"
        }
      ],
      "name": "getPatientReport",
      "outputs": [
        {
          "internalType": "string",
          "name": "",
          "type": "string"
        },
        {
          "internalType": "string",
          "name": "",
          "type": "string"
        },
        {
          "internalType": "string",
          "name": "",
          "type": "string"
        },
        {
          "internalType": "address",
          "name": "",
          "type": "address"
        },
        {
          "internalType": "uint256",
          "name": "",
          "type": "uint256"
        }
      ],
      "stateMutability": "view",
      "type": "function",
      "constant": true
    }
  ],
  "bytecode": "0x60806040526000805534801561001457600080fd5b50610ddf806100246000396000f3fe608060405234801561001057600080fd5b50600436106100575760003560e01c8063467f2cd81461005c5780635336dfb31461009157806386ca2259146100c1578063a87d942c146100f1578063a994639d1461010f575b600080fd5b6100766004803603810190610071919061082f565b610143565b60405161008896959493929190610945565b60405180910390f35b6100ab60048036038101906100a69190610b1c565b610337565b6040516100b89190610bf2565b60405180910390f35b6100db60048036038101906100d69190610c0d565b61046a565b6040516100e89190610bf2565b60405180910390f35b6100f96104ea565b6040516101069190610c4d565b60405180910390f35b6101296004803603810190610124919061082f565b6104f3565b60405161013a959493929190610c68565b60405180910390f35b600160205280600052604060002060009150905080600001549080600101805461016c90610cff565b80601f016020809104026020016040519081016040528092919081815260200182805461019890610cff565b80156101e55780601f106101ba576101008083540402835291602001916101e5565b820191906000526020600020905b8154815290600101906020018083116101c857829003601f168201915b5050505050908060020180546101fa90610cff565b80601f016020809104026020016040519081016040528092919081815260200182805461022690610cff565b80156102735780601f1061024857610100808354040283529160200191610273565b820191906000526020600020905b81548152906001019060200180831161025657829003601f168201915b50505050509080600301805461028890610cff565b80601f01602080910402602001604051908101604052809291908181526020018280546102b490610cff565b80156103015780601f106102d657610100808354040283529160200191610301565b820191906000526020600020905b8154815290600101906020018083116102e457829003601f168201915b5050505050908060040160009054906101000a900473ffffffffffffffffffffffffffffffffffffffff16908060050154905086565b60006040518060c0016040528060005481526020018681526020018581526020018481526020018373ffffffffffffffffffffffffffffffffffffffff1681526020014281525060016000805481526020019081526020016000206000820151816000015560208201518160010190805190602001906103b8929190610742565b5060408201518160020190805190602001906103d5929190610742565b5060608201518160030190805190602001906103f2929190610742565b5060808201518160040160006101000a81548173ffffffffffffffffffffffffffffffffffffffff021916908373ffffffffffffffffffffffffffffffffffffffff16021790555060a0820151816005015590505060008081548092919061045990610d60565b919050555060019050949350505050565b60008173ffffffffffffffffffffffffffffffffffffffff166001600085815260200190815260200160002060040160009054906101000a900473ffffffffffffffffffffffffffffffffffffffff1673ffffffffffffffffffffffffffffffffffffffff1614156104df57600190506104e4565b600090505b92915050565b60008054905090565b6060806060600080600160008781526020019081526020016000206001016001600088815260200190815260200160002060020160016000898152602001908152602001600020600301600160008a815260200190815260200160002060040160009054906101000a900473ffffffffffffffffffffffffffffffffffffffff16600160008b81526020019081526020016000206005015484805461059790610cff565b80601f01602080910402602001604051908101604052809291908181526020018280546105c390610cff565b80156106105780601f106105e557610100808354040283529160200191610610565b820191906000526020600020905b8154815290600101906020018083116105f357829003601f168201915b5050505050945083805461062390610cff565b80601f016020809104026020016040519081016040528092919081815260200182805461064f90610cff565b801561069c5780601f106106715761010080835404028352916020019161069c565b820191906000526020600020905b81548152906001019060200180831161067f57829003601f168201915b505050505093508280546106af90610cff565b80601f01602080910402602001604051908101604052809291908181526020018280546106db90610cff565b80156107285780601f106106fd57610100808354040283529160200191610728565b820191906000526020600020905b81548152906001019060200180831161070b57829003601f168201915b505050505092509450945094509450945091939590929450565b82805461074e90610cff565b90600052602060002090601f01602090048101928261077057600085556107b7565b82601f1061078957805160ff19168380011785556107b7565b828001600101855582156107b7579182015b828111156107b657825182559160200191906001019061079b565b5b5090506107c491906107c8565b5090565b5b808211156107e15760008160009055506001016107c9565b5090565b6000604051905090565b600080fd5b600080fd5b6000819050919050565b61080c816107f9565b811461081757600080fd5b50565b60008135905061082981610803565b92915050565b600060208284031215610845576108446107ef565b5b60006108538482850161081a565b91505092915050565b610865816107f9565b82525050565b600081519050919050565b600082825260208201905092915050565b60005b838110156108a557808201518184015260208101905061088a565b838111156108b4576000848401525b50505050565b6000601f19601f8301169050919050565b60006108d68261086b565b6108e08185610876565b93506108f0818560208601610887565b6108f9816108ba565b840191505092915050565b600073ffffffffffffffffffffffffffffffffffffffff82169050919050565b600061092f82610904565b9050919050565b61093f81610924565b82525050565b600060c08201905061095a600083018961085c565b818103602083015261096c81886108cb565b9050818103604083015261098081876108cb565b9050818103606083015261099481866108cb565b90506109a36080830185610936565b6109b060a083018461085c565b979650505050505050565b600080fd5b600080fd5b7f4e487b7100000000000000000000000000000000000000000000000000000000600052604160045260246000fd5b6109fd826108ba565b810181811067ffffffffffffffff82111715610a1c57610a1b6109c5565b5b80604052505050565b6000610a2f6107e5565b9050610a3b82826109f4565b919050565b600067ffffffffffffffff821115610a5b57610a5a6109c5565b5b610a64826108ba565b9050602081019050919050565b82818337600083830152505050565b6000610a93610a8e84610a40565b610a25565b905082815260208101848484011115610aaf57610aae6109c0565b5b610aba848285610a71565b509392505050565b600082601f830112610ad757610ad66109bb565b5b8135610ae7848260208601610a80565b91505092915050565b610af981610924565b8114610b0457600080fd5b50565b600081359050610b1681610af0565b92915050565b60008060008060808587031215610b3657610b356107ef565b5b600085013567ffffffffffffffff811115610b5457610b536107f4565b5b610b6087828801610ac2565b945050602085013567ffffffffffffffff811115610b8157610b806107f4565b5b610b8d87828801610ac2565b935050604085013567ffffffffffffffff811115610bae57610bad6107f4565b5b610bba87828801610ac2565b9250506060610bcb87828801610b07565b91505092959194509250565b60008115159050919050565b610bec81610bd7565b82525050565b6000602082019050610c076000830184610be3565b92915050565b60008060408385031215610c2457610c236107ef565b5b6000610c328582860161081a565b9250506020610c4385828601610b07565b9150509250929050565b6000602082019050610c62600083018461085c565b92915050565b600060a0820190508181036000830152610c8281886108cb565b90508181036020830152610c9681876108cb565b90508181036040830152610caa81866108cb565b9050610cb96060830185610936565b610cc6608083018461085c565b9695505050505050565b7f4e487b7100000000000000000000000000000000000000000000000000000000600052602260045260246000fd5b60006002820490506001821680610d1757607f821691505b60208210811415610d2b57610d2a610cd0565b5b50919050565b7f4e487b7100000000000000000000000000000000000000000000000000000000600052601160045260246000fd5b6000610d6b826107f9565b91507fffffffffffffffffffffffffffffffffffffffffffffffffffffffffffffffff821415610d9e57610d9d610d31565b5b60018201905091905056fea2646970667358221220e362882900b0cda04d737613fd513a2c5546990e4a1bf044accda96d63632ed264736f6c634300080a0033",
  "immutableReferences": {},
  "source": "// SPDX-License-Identifier: MIT\r\npragma solidity >=0.4.22 <0.9.0;\r\n\r\ncontract Report {\r\n    \r\n    struct structReport{\r\n        uint id;\r\n        string title;\r\n        string description;\r\n        string details;\r\n        address patientAddress;\r\n        uint dateCreated;\r\n    }\r\n    uint reportCount = 0;\r\n\r\n    mapping(uint => structReport) public Reports;\r\n\r\n    constructor ()\r\n    {\r\n    }\r\n\r\n    function getCount() public view returns(uint)\r\n    {\r\n        return reportCount;\r\n    }\r\n\r\n    function createReport(string memory _title, string memory _description, string memory _details, address _patientAddress) public  returns (bool)\r\n    {\r\n        Reports[reportCount] = structReport(reportCount, _title, _description, _details, _patientAddress, block.timestamp);\r\n        reportCount ++;\r\n        return true;\r\n    }\r\n\r\n    function isPatientReport(uint _id, address _patientAddress) public view returns (bool)\r\n    {\r\n        if (Reports[_id].patientAddress == _patientAddress) return true;\r\n        else return false;\r\n    }\r\n\r\n    function getPatientReport(uint _id) public view returns (string memory, string memory, string memory, address, uint) {\r\n        return (Reports[_id].title, Reports[_id].description, Reports[_id].details, Reports[_id].patientAddress, Reports[_id].dateCreated);\r\n    } \r\n}\r\n",
  "sourcePath": "D:\\Documents\\Custom Office Templates\\Final Year Project\\decentralized-patient-centered-health-records-and-exchange\\decentralized-patient-centered-health-records-and-exchange\\contracts\\Report.sol",
  "compiler": {
    "name": "solc",
    "version": "0.8.10+commit.fc410830.Emscripten.clang"
  },
  "schemaVersion": "3.4.3",
  "updatedAt": "2022-02-02T10:03:18.016Z",
  "networkType": "ethereum",
  "devdoc": {
    "kind": "dev",
    "methods": {},
    "version": 1
  },
  "userdoc": {
    "kind": "user",
    "methods": {},
    "version": 1
  }
}