{
  "contractName": "Right",
  "abi": [
    {
      "inputs": [],
      "stateMutability": "nonpayable",
      "type": "constructor"
    },
    {
      "inputs": [
        {
          "internalType": "uint256",
          "name": "",
          "type": "uint256"
        }
      ],
      "name": "Rights",
      "outputs": [
        {
          "internalType": "uint256",
          "name": "id",
          "type": "uint256"
        },
        {
          "internalType": "uint256",
          "name": "roleId",
          "type": "uint256"
        },
        {
          "internalType": "string",
          "name": "formName",
          "type": "string"
        },
        {
          "internalType": "bool",
          "name": "add",
          "type": "bool"
        },
        {
          "internalType": "bool",
          "name": "edit",
          "type": "bool"
        },
        {
          "internalType": "bool",
          "name": "remove",
          "type": "bool"
        },
        {
          "internalType": "bool",
          "name": "display",
          "type": "bool"
        },
        {
          "internalType": "bool",
          "name": "print",
          "type": "bool"
        }
      ],
      "stateMutability": "view",
      "type": "function"
    }
  ],
  "bytecode": "0x608060405234801561001057600080fd5b506103bf806100206000396000f3fe608060405234801561001057600080fd5b506004361061002b5760003560e01c80633d6b1c4514610030575b600080fd5b61004a600480360381019061004591906101b3565b610067565b60405161005e9897969594939291906102a3565b60405180910390f35b600060205280600052604060002060009150905080600001549080600101549080600201805461009690610357565b80601f01602080910402602001604051908101604052809291908181526020018280546100c290610357565b801561010f5780601f106100e45761010080835404028352916020019161010f565b820191906000526020600020905b8154815290600101906020018083116100f257829003601f168201915b5050505050908060030160009054906101000a900460ff16908060030160019054906101000a900460ff16908060030160029054906101000a900460ff16908060030160039054906101000a900460ff16908060030160049054906101000a900460ff16905088565b600080fd5b6000819050919050565b6101908161017d565b811461019b57600080fd5b50565b6000813590506101ad81610187565b92915050565b6000602082840312156101c9576101c8610178565b5b60006101d78482850161019e565b91505092915050565b6101e98161017d565b82525050565b600081519050919050565b600082825260208201905092915050565b60005b8381101561022957808201518184015260208101905061020e565b83811115610238576000848401525b50505050565b6000601f19601f8301169050919050565b600061025a826101ef565b61026481856101fa565b935061027481856020860161020b565b61027d8161023e565b840191505092915050565b60008115159050919050565b61029d81610288565b82525050565b6000610100820190506102b9600083018b6101e0565b6102c6602083018a6101e0565b81810360408301526102d8818961024f565b90506102e76060830188610294565b6102f46080830187610294565b61030160a0830186610294565b61030e60c0830185610294565b61031b60e0830184610294565b9998505050505050505050565b7f4e487b7100000000000000000000000000000000000000000000000000000000600052602260045260246000fd5b6000600282049050600182168061036f57607f821691505b6020821081141561038357610382610328565b5b5091905056fea264697066735822122055bfad68ee9067c750d6ba5effb8e48138c06e11c7633b9a584c742f16c5915464736f6c634300080a0033",
  "immutableReferences": {},
  "source": "// SPDX-License-Identifier: MIT\r\npragma solidity >=0.4.22 <0.9.0;\r\n\r\ncontract Right {\r\n    \r\n    struct structRight{\r\n        uint id;\r\n        uint roleId;\r\n        string formName;\r\n        bool add;\r\n        bool edit;\r\n        bool remove;\r\n        bool display;\r\n        bool print;\r\n    }\r\n\r\n    mapping(uint => structRight ) public Rights;\r\n   \r\n    constructor () {\r\n    }\r\n}\r\n",
  "sourcePath": "G:\\Projects\\Blockchain\\decentralized-patient-centered-health-records-and-exchange\\contracts\\Right.sol",
  "compiler": {
    "name": "solc",
    "version": "0.8.10+commit.fc410830.Emscripten.clang"
  },
  "schemaVersion": "3.4.3",
  "updatedAt": "2022-01-16T13:54:33.169Z",
  "devdoc": {
    "kind": "dev",
    "methods": {},
    "version": 1
  },
  "userdoc": {
    "kind": "user",
    "methods": {},
    "version": 1
  }
}