{
  "contractName": "Role",
  "abi": [
    {
      "inputs": [],
      "stateMutability": "nonpayable",
      "type": "constructor"
    },
    {
      "inputs": [
        {
          "internalType": "uint256",
          "name": "",
          "type": "uint256"
        }
      ],
      "name": "Roles",
      "outputs": [
        {
          "internalType": "uint256",
          "name": "id",
          "type": "uint256"
        },
        {
          "internalType": "string",
          "name": "name",
          "type": "string"
        },
        {
          "internalType": "uint256",
          "name": "dateCreated",
          "type": "uint256"
        },
        {
          "internalType": "bool",
          "name": "active",
          "type": "bool"
        }
      ],
      "stateMutability": "view",
      "type": "function",
      "constant": true
    }
  ],
  "bytecode": "0x608060405234801561001057600080fd5b50610336806100206000396000f3fe608060405234801561001057600080fd5b506004361061002b5760003560e01c80636fc0020b14610030575b600080fd5b61004a60048036038101906100459190610163565b610063565b60405161005a9493929190610253565b60405180910390f35b600060205280600052604060002060009150905080600001549080600101805461008c906102ce565b80601f01602080910402602001604051908101604052809291908181526020018280546100b8906102ce565b80156101055780601f106100da57610100808354040283529160200191610105565b820191906000526020600020905b8154815290600101906020018083116100e857829003601f168201915b5050505050908060020154908060030160009054906101000a900460ff16905084565b600080fd5b6000819050919050565b6101408161012d565b811461014b57600080fd5b50565b60008135905061015d81610137565b92915050565b60006020828403121561017957610178610128565b5b60006101878482850161014e565b91505092915050565b6101998161012d565b82525050565b600081519050919050565b600082825260208201905092915050565b60005b838110156101d95780820151818401526020810190506101be565b838111156101e8576000848401525b50505050565b6000601f19601f8301169050919050565b600061020a8261019f565b61021481856101aa565b93506102248185602086016101bb565b61022d816101ee565b840191505092915050565b60008115159050919050565b61024d81610238565b82525050565b60006080820190506102686000830187610190565b818103602083015261027a81866101ff565b90506102896040830185610190565b6102966060830184610244565b95945050505050565b7f4e487b7100000000000000000000000000000000000000000000000000000000600052602260045260246000fd5b600060028204905060018216806102e657607f821691505b602082108114156102fa576102f961029f565b5b5091905056fea26469706673582212209cace17b32798227924f7f73a83df40a000107fab97f2820a59b4dc199903eb864736f6c634300080a0033",
  "immutableReferences": {},
  "source": "// SPDX-License-Identifier: MIT\r\npragma solidity >=0.4.22 <0.9.0;\r\n\r\ncontract Role {\r\n    \r\n    struct structRole{\r\n        uint id;\r\n        string name;\r\n        uint256 dateCreated;\r\n        bool active;\r\n    }\r\n\r\n    mapping(uint => structRole) public Roles;\r\n   \r\n    constructor () {\r\n        \r\n    }\r\n}\r\n",
  "sourcePath": "D:\\Documents\\Custom Office Templates\\Final Year Project\\decentralized-patient-centered-health-records-and-exchange\\decentralized-patient-centered-health-records-and-exchange\\contracts\\Role.sol",
  "compiler": {
    "name": "solc",
    "version": "0.8.10+commit.fc410830.Emscripten.clang"
  },
  "schemaVersion": "3.4.3",
  "updatedAt": "2022-01-17T11:33:53.266Z",
  "networkType": "ethereum",
  "devdoc": {
    "kind": "dev",
    "methods": {},
    "version": 1
  },
  "userdoc": {
    "kind": "user",
    "methods": {},
    "version": 1
  }
}