{
  "contractName": "User",
  "abi": [
    {
      "inputs": [],
      "stateMutability": "nonpayable",
      "type": "constructor"
    },
    {
      "inputs": [
        {
          "internalType": "uint256",
          "name": "",
          "type": "uint256"
        }
      ],
      "name": "Users",
      "outputs": [
        {
          "internalType": "uint256",
          "name": "id",
          "type": "uint256"
        },
        {
          "internalType": "uint256",
          "name": "roleId",
          "type": "uint256"
        },
        {
          "internalType": "string",
          "name": "fullName",
          "type": "string"
        },
        {
          "internalType": "string",
          "name": "username",
          "type": "string"
        },
        {
          "internalType": "string",
          "name": "password",
          "type": "string"
        },
        {
          "internalType": "bool",
          "name": "active",
          "type": "bool"
        },
        {
          "internalType": "uint256",
          "name": "dateCreated",
          "type": "uint256"
        }
      ],
      "stateMutability": "view",
      "type": "function"
    }
  ],
  "bytecode": "0x608060405234801561001057600080fd5b50610493806100206000396000f3fe608060405234801561001057600080fd5b506004361061002b5760003560e01c80631e98fd1c14610030575b600080fd5b61004a60048036038101906100459190610288565b610066565b60405161005d9796959493929190610378565b60405180910390f35b60006020528060005260406000206000915090508060000154908060010154908060020180546100959061042b565b80601f01602080910402602001604051908101604052809291908181526020018280546100c19061042b565b801561010e5780601f106100e35761010080835404028352916020019161010e565b820191906000526020600020905b8154815290600101906020018083116100f157829003601f168201915b5050505050908060030180546101239061042b565b80601f016020809104026020016040519081016040528092919081815260200182805461014f9061042b565b801561019c5780601f106101715761010080835404028352916020019161019c565b820191906000526020600020905b81548152906001019060200180831161017f57829003601f168201915b5050505050908060040180546101b19061042b565b80601f01602080910402602001604051908101604052809291908181526020018280546101dd9061042b565b801561022a5780601f106101ff5761010080835404028352916020019161022a565b820191906000526020600020905b81548152906001019060200180831161020d57829003601f168201915b5050505050908060050160009054906101000a900460ff16908060060154905087565b600080fd5b6000819050919050565b61026581610252565b811461027057600080fd5b50565b6000813590506102828161025c565b92915050565b60006020828403121561029e5761029d61024d565b5b60006102ac84828501610273565b91505092915050565b6102be81610252565b82525050565b600081519050919050565b600082825260208201905092915050565b60005b838110156102fe5780820151818401526020810190506102e3565b8381111561030d576000848401525b50505050565b6000601f19601f8301169050919050565b600061032f826102c4565b61033981856102cf565b93506103498185602086016102e0565b61035281610313565b840191505092915050565b60008115159050919050565b6103728161035d565b82525050565b600060e08201905061038d600083018a6102b5565b61039a60208301896102b5565b81810360408301526103ac8188610324565b905081810360608301526103c08187610324565b905081810360808301526103d48186610324565b90506103e360a0830185610369565b6103f060c08301846102b5565b98975050505050505050565b7f4e487b7100000000000000000000000000000000000000000000000000000000600052602260045260246000fd5b6000600282049050600182168061044357607f821691505b60208210811415610457576104566103fc565b5b5091905056fea26469706673582212208105e0a75a526ecf86365048d841493287f04e9595b888b137efb23a1a1736f764736f6c634300080a0033",
  "immutableReferences": {},
  "source": "// SPDX-License-Identifier: MIT\r\npragma solidity >=0.4.22 <0.9.0;\r\n\r\ncontract User {\r\n    \r\n    struct structUser{\r\n        uint id;\r\n        uint roleId;\r\n        string fullName;\r\n        string username;\r\n        string password;\r\n        bool active;\r\n        uint dateCreated;\r\n    }\r\n\r\n    mapping(uint => structUser) public Users;\r\n   \r\n    constructor () {\r\n    }\r\n    \r\n\r\n}\r\n",
  "sourcePath": "G:\\Projects\\Blockchain\\decentralized-patient-centered-health-records-and-exchange\\contracts\\User.sol",
  "compiler": {
    "name": "solc",
    "version": "0.8.10+commit.fc410830.Emscripten.clang"
  },
  "schemaVersion": "3.4.3",
  "updatedAt": "2022-01-01T08:46:05.622Z",
  "devdoc": {
    "kind": "dev",
    "methods": {},
    "version": 1
  },
  "userdoc": {
    "kind": "user",
    "methods": {},
    "version": 1
  }
}