{
  "contractName": "User",
  "abi": [
    {
      "inputs": [],
      "stateMutability": "nonpayable",
      "type": "constructor"
    },
    {
      "inputs": [
        {
          "internalType": "uint256",
          "name": "",
          "type": "uint256"
        }
      ],
      "name": "Users",
      "outputs": [
        {
          "internalType": "address",
          "name": "id",
          "type": "address"
        },
        {
          "internalType": "uint256",
          "name": "roleId",
          "type": "uint256"
        },
        {
          "internalType": "string",
          "name": "username",
          "type": "string"
        },
        {
          "internalType": "string",
          "name": "password",
          "type": "string"
        },
        {
          "internalType": "bool",
          "name": "active",
          "type": "bool"
        },
        {
          "internalType": "uint256",
          "name": "dateCreated",
          "type": "uint256"
        }
      ],
      "stateMutability": "view",
      "type": "function",
      "constant": true
    },
    {
      "inputs": [],
      "name": "usersCount",
      "outputs": [
        {
          "internalType": "uint256",
          "name": "",
          "type": "uint256"
        }
      ],
      "stateMutability": "view",
      "type": "function",
      "constant": true
    },
    {
      "inputs": [
        {
          "internalType": "address",
          "name": "_connectedAccount",
          "type": "address"
        },
        {
          "internalType": "uint256[]",
          "name": "_roles",
          "type": "uint256[]"
        }
      ],
      "name": "checkUser",
      "outputs": [
        {
          "internalType": "bool",
          "name": "",
          "type": "bool"
        }
      ],
      "stateMutability": "view",
      "type": "function",
      "constant": true
    },
    {
      "inputs": [
        {
          "internalType": "string",
          "name": "_username",
          "type": "string"
        },
        {
          "internalType": "string",
          "name": "_password",
          "type": "string"
        }
      ],
      "name": "createUser",
      "outputs": [
        {
          "internalType": "bool",
          "name": "",
          "type": "bool"
        }
      ],
      "stateMutability": "nonpayable",
      "type": "function"
    },
    {
      "inputs": [
        {
          "internalType": "string",
          "name": "_username",
          "type": "string"
        }
      ],
      "name": "checkUsername",
      "outputs": [
        {
          "internalType": "bool",
          "name": "",
          "type": "bool"
        }
      ],
      "stateMutability": "view",
      "type": "function",
      "constant": true
    },
    {
      "inputs": [],
      "name": "getAll",
      "outputs": [
        {
          "components": [
            {
              "internalType": "address",
              "name": "id",
              "type": "address"
            },
            {
              "internalType": "uint256",
              "name": "roleId",
              "type": "uint256"
            },
            {
              "internalType": "string",
              "name": "username",
              "type": "string"
            },
            {
              "internalType": "string",
              "name": "password",
              "type": "string"
            },
            {
              "internalType": "bool",
              "name": "active",
              "type": "bool"
            },
            {
              "internalType": "uint256",
              "name": "dateCreated",
              "type": "uint256"
            }
          ],
          "internalType": "struct User.structUser[]",
          "name": "",
          "type": "tuple[]"
        }
      ],
      "stateMutability": "view",
      "type": "function",
      "constant": true
    }
  ],
  "bytecode": "0x608060405260006001553480156200001657600080fd5b506040518060c00160405280735e6a85af29fb1f15939d767c3f5d844ca8b7de1f73ffffffffffffffffffffffffffffffffffffffff168152602001600181526020016040518060400160405280600581526020017f61646d696e00000000000000000000000000000000000000000000000000000081525081526020016040518060400160405280600381526020017f313233000000000000000000000000000000000000000000000000000000000081525081526020016001151581526020016000815250600080600154815260200190815260200160002060008201518160000160006101000a81548173ffffffffffffffffffffffffffffffffffffffff021916908373ffffffffffffffffffffffffffffffffffffffff16021790555060208201518160010155604082015181600201908051906020019062000160929190620001cd565b5060608201518160030190805190602001906200017f929190620001cd565b5060808201518160040160006101000a81548160ff02191690831515021790555060a0820151816005015590505060016000815480929190620001c290620002b6565b919050555062000369565b828054620001db9062000333565b90600052602060002090601f016020900481019282620001ff57600085556200024b565b82601f106200021a57805160ff19168380011785556200024b565b828001600101855582156200024b579182015b828111156200024a5782518255916020019190600101906200022d565b5b5090506200025a91906200025e565b5090565b5b80821115620002795760008160009055506001016200025f565b5090565b7f4e487b7100000000000000000000000000000000000000000000000000000000600052601160045260246000fd5b6000819050919050565b6000620002c382620002ac565b91507fffffffffffffffffffffffffffffffffffffffffffffffffffffffffffffffff821415620002f957620002f86200027d565b5b600182019050919050565b7f4e487b7100000000000000000000000000000000000000000000000000000000600052602260045260246000fd5b600060028204905060018216806200034c57607f821691505b6020821081141562000363576200036262000304565b5b50919050565b61131b80620003796000396000f3fe608060405234801561001057600080fd5b50600436106100625760003560e01c80631e98fd1c1461006757806353ed51431461009c5780636ba13a82146100ba57806372102ed1146100d857806387b162b514610108578063a5d87c4014610138575b600080fd5b610081600480360381019061007c9190610982565b610168565b60405161009396959493929190610ab3565b60405180910390f35b6100a46102e1565b6040516100b19190610ceb565b60405180910390f35b6100c2610553565b6040516100cf9190610d0d565b60405180910390f35b6100f260048036038101906100ed9190610e9c565b610559565b6040516100ff9190610ef8565b60405180910390f35b610122600480360381019061011d9190610fc8565b610656565b60405161012f9190610ef8565b60405180910390f35b610152600480360381019061014d9190611040565b6107a5565b60405161015f9190610ef8565b60405180910390f35b60006020528060005260406000206000915090508060000160009054906101000a900473ffffffffffffffffffffffffffffffffffffffff16908060010154908060020180546101b7906110b8565b80601f01602080910402602001604051908101604052809291908181526020018280546101e3906110b8565b80156102305780601f1061020557610100808354040283529160200191610230565b820191906000526020600020905b81548152906001019060200180831161021357829003601f168201915b505050505090806003018054610245906110b8565b80601f0160208091040260200160405190810160405280929190818152602001828054610271906110b8565b80156102be5780601f10610293576101008083540402835291602001916102be565b820191906000526020600020905b8154815290600101906020018083116102a157829003601f168201915b5050505050908060040160009054906101000a900460ff16908060050154905086565b60606000600180546102f39190611119565b67ffffffffffffffff81111561030c5761030b610d59565b5b60405190808252806020026020018201604052801561034557816020015b610332610847565b81526020019060019003908161032a5790505b50905060005b600154811161054b576000808281526020019081526020016000206040518060c00160405290816000820160009054906101000a900473ffffffffffffffffffffffffffffffffffffffff1673ffffffffffffffffffffffffffffffffffffffff1673ffffffffffffffffffffffffffffffffffffffff168152602001600182015481526020016002820180546103e1906110b8565b80601f016020809104026020016040519081016040528092919081815260200182805461040d906110b8565b801561045a5780601f1061042f5761010080835404028352916020019161045a565b820191906000526020600020905b81548152906001019060200180831161043d57829003601f168201915b50505050508152602001600382018054610473906110b8565b80601f016020809104026020016040519081016040528092919081815260200182805461049f906110b8565b80156104ec5780601f106104c1576101008083540402835291602001916104ec565b820191906000526020600020905b8154815290600101906020018083116104cf57829003601f168201915b505050505081526020016004820160009054906101000a900460ff1615151515815260200160058201548152505082828151811061052d5761052c61116f565b5b602002602001018190525080806105439061119e565b91505061034b565b508091505090565b60015481565b600080600090505b60015481101561064a578373ffffffffffffffffffffffffffffffffffffffff1660008083815260200190815260200160002060000160009054906101000a900473ffffffffffffffffffffffffffffffffffffffff1673ffffffffffffffffffffffffffffffffffffffff1614156106375760005b8351811015610635578381815181106105f3576105f261116f565b5b602002602001015160008084815260200190815260200160002060010154141561062257600192505050610650565b808061062d9061119e565b9150506105d7565b505b80806106429061119e565b915050610561565b50600090505b92915050565b6000610661836107a5565b61079a576040518060c001604052803373ffffffffffffffffffffffffffffffffffffffff168152602001600181526020018481526020018381526020016001151581526020016000815250600080600154815260200190815260200160002060008201518160000160006101000a81548173ffffffffffffffffffffffffffffffffffffffff021916908373ffffffffffffffffffffffffffffffffffffffff16021790555060208201518160010155604082015181600201908051906020019061072e929190610895565b50606082015181600301908051906020019061074b929190610895565b5060808201518160040160006101000a81548160ff02191690831515021790555060a082015181600501559050506001600081548092919061078c9061119e565b91905055506001905061079f565b600090505b92915050565b600080600090505b60015481101561083c57826040516020016107c89190611223565b6040516020818303038152906040528051906020012060008083815260200190815260200160002060020160405160200161080391906112ce565b604051602081830303815290604052805190602001201415610829576001915050610842565b80806108349061119e565b9150506107ad565b50600090505b919050565b6040518060c00160405280600073ffffffffffffffffffffffffffffffffffffffff168152602001600081526020016060815260200160608152602001600015158152602001600081525090565b8280546108a1906110b8565b90600052602060002090601f0160209004810192826108c3576000855561090a565b82601f106108dc57805160ff191683800117855561090a565b8280016001018555821561090a579182015b828111156109095782518255916020019190600101906108ee565b5b509050610917919061091b565b5090565b5b8082111561093457600081600090555060010161091c565b5090565b6000604051905090565b600080fd5b600080fd5b6000819050919050565b61095f8161094c565b811461096a57600080fd5b50565b60008135905061097c81610956565b92915050565b60006020828403121561099857610997610942565b5b60006109a68482850161096d565b91505092915050565b600073ffffffffffffffffffffffffffffffffffffffff82169050919050565b60006109da826109af565b9050919050565b6109ea816109cf565b82525050565b6109f98161094c565b82525050565b600081519050919050565b600082825260208201905092915050565b60005b83811015610a39578082015181840152602081019050610a1e565b83811115610a48576000848401525b50505050565b6000601f19601f8301169050919050565b6000610a6a826109ff565b610a748185610a0a565b9350610a84818560208601610a1b565b610a8d81610a4e565b840191505092915050565b60008115159050919050565b610aad81610a98565b82525050565b600060c082019050610ac860008301896109e1565b610ad560208301886109f0565b8181036040830152610ae78187610a5f565b90508181036060830152610afb8186610a5f565b9050610b0a6080830185610aa4565b610b1760a08301846109f0565b979650505050505050565b600081519050919050565b600082825260208201905092915050565b6000819050602082019050919050565b610b57816109cf565b82525050565b610b668161094c565b82525050565b600082825260208201905092915050565b6000610b88826109ff565b610b928185610b6c565b9350610ba2818560208601610a1b565b610bab81610a4e565b840191505092915050565b610bbf81610a98565b82525050565b600060c083016000830151610bdd6000860182610b4e565b506020830151610bf06020860182610b5d565b5060408301518482036040860152610c088282610b7d565b91505060608301518482036060860152610c228282610b7d565b9150506080830151610c376080860182610bb6565b5060a0830151610c4a60a0860182610b5d565b508091505092915050565b6000610c618383610bc5565b905092915050565b6000602082019050919050565b6000610c8182610b22565b610c8b8185610b2d565b935083602082028501610c9d85610b3e565b8060005b85811015610cd95784840389528151610cba8582610c55565b9450610cc583610c69565b925060208a01995050600181019050610ca1565b50829750879550505050505092915050565b60006020820190508181036000830152610d058184610c76565b905092915050565b6000602082019050610d2260008301846109f0565b92915050565b610d31816109cf565b8114610d3c57600080fd5b50565b600081359050610d4e81610d28565b92915050565b600080fd5b7f4e487b7100000000000000000000000000000000000000000000000000000000600052604160045260246000fd5b610d9182610a4e565b810181811067ffffffffffffffff82111715610db057610daf610d59565b5b80604052505050565b6000610dc3610938565b9050610dcf8282610d88565b919050565b600067ffffffffffffffff821115610def57610dee610d59565b5b602082029050602081019050919050565b600080fd5b6000610e18610e1384610dd4565b610db9565b90508083825260208201905060208402830185811115610e3b57610e3a610e00565b5b835b81811015610e645780610e50888261096d565b845260208401935050602081019050610e3d565b5050509392505050565b600082601f830112610e8357610e82610d54565b5b8135610e93848260208601610e05565b91505092915050565b60008060408385031215610eb357610eb2610942565b5b6000610ec185828601610d3f565b925050602083013567ffffffffffffffff811115610ee257610ee1610947565b5b610eee85828601610e6e565b9150509250929050565b6000602082019050610f0d6000830184610aa4565b92915050565b600080fd5b600067ffffffffffffffff821115610f3357610f32610d59565b5b610f3c82610a4e565b9050602081019050919050565b82818337600083830152505050565b6000610f6b610f6684610f18565b610db9565b905082815260208101848484011115610f8757610f86610f13565b5b610f92848285610f49565b509392505050565b600082601f830112610faf57610fae610d54565b5b8135610fbf848260208601610f58565b91505092915050565b60008060408385031215610fdf57610fde610942565b5b600083013567ffffffffffffffff811115610ffd57610ffc610947565b5b61100985828601610f9a565b925050602083013567ffffffffffffffff81111561102a57611029610947565b5b61103685828601610f9a565b9150509250929050565b60006020828403121561105657611055610942565b5b600082013567ffffffffffffffff81111561107457611073610947565b5b61108084828501610f9a565b91505092915050565b7f4e487b7100000000000000000000000000000000000000000000000000000000600052602260045260246000fd5b600060028204905060018216806110d057607f821691505b602082108114156110e4576110e3611089565b5b50919050565b7f4e487b7100000000000000000000000000000000000000000000000000000000600052601160045260246000fd5b60006111248261094c565b915061112f8361094c565b9250827fffffffffffffffffffffffffffffffffffffffffffffffffffffffffffffffff03821115611164576111636110ea565b5b828201905092915050565b7f4e487b7100000000000000000000000000000000000000000000000000000000600052603260045260246000fd5b60006111a98261094c565b91507fffffffffffffffffffffffffffffffffffffffffffffffffffffffffffffffff8214156111dc576111db6110ea565b5b600182019050919050565b600081905092915050565b60006111fd826109ff565b61120781856111e7565b9350611217818560208601610a1b565b80840191505092915050565b600061122f82846111f2565b915081905092915050565b60008190508160005260206000209050919050565b6000815461125c816110b8565b61126681866111e7565b945060018216600081146112815760018114611292576112c5565b60ff198316865281860193506112c5565b61129b8561123a565b60005b838110156112bd5781548189015260018201915060208101905061129e565b838801955050505b50505092915050565b60006112da828461124f565b91508190509291505056fea2646970667358221220384c7a48015b88421c615eab030ba9e22c7b8eae08e3a5131059144a18a71c1f64736f6c634300080a0033",
  "immutableReferences": {},
  "source": "// SPDX-License-Identifier: MIT\r\npragma solidity >=0.4.22 <0.9.0;\r\n\r\ncontract User {\r\n    \r\n    struct structUser{\r\n        address id;\r\n        uint roleId;\r\n        string username;\r\n        string password;\r\n        bool active;\r\n        uint dateCreated;\r\n    }\r\n\r\n    mapping(uint => structUser) public Users;\r\n\r\n    //Holds user count \r\n    uint public usersCount = 0;\r\n    \r\n    constructor () {\r\n        //For testing purpose only \r\n        // Users[usersCount] = structUser(\"0xasdasdasd\",1,\"admin\",\"123\", true, 0);\r\n        Users[usersCount] = structUser(0x5e6A85AF29fb1F15939D767c3f5d844cA8b7DE1F, 1,\"admin\",\"123\", true, 0);\r\n        usersCount ++;\r\n    }\r\n    // user login function\r\n    function checkUser(address _connectedAccount, uint[] memory _roles)  public view returns (bool)\r\n    {\r\n        for(uint i = 0; i < usersCount; i++){\r\n\r\n            // if(keccak256(abi.encodePacked(Users[i].username)) == keccak256(abi.encodePacked(_username)) && \r\n            //    keccak256(abi.encodePacked(Users[i].password)) == keccak256(abi.encodePacked(_password)) )\r\n            // {\r\n            //     return true;\r\n            // }\r\n            if (Users[i].id == _connectedAccount) \r\n            {\r\n                for (uint j = 0; j < _roles.length; j++) \r\n                {\r\n                    if (Users[i].roleId == _roles[j])  return true;\r\n                }\r\n            }\r\n        }\r\n        return false;\r\n    }\r\n    function createUser(string memory _username, string memory _password) public returns (bool)\r\n    {\r\n        if(!checkUsername(_username))\r\n        {\r\n            Users[usersCount] = structUser(msg.sender,1,_username,_password, true, 0);\r\n            usersCount ++;\r\n            return true;\r\n        }\r\n        else \r\n        {\r\n            return false;\r\n        }\r\n    }\r\n    function checkUsername(string memory _username) public view  returns (bool)\r\n    {\r\n        for(uint i = 0; i < usersCount; i++){\r\n\r\n            if(keccak256(abi.encodePacked(Users[i].username)) == keccak256(abi.encodePacked(_username)) )\r\n            {\r\n                return true;\r\n            }\r\n        }\r\n        return false;\r\n    }\r\n    function getAll() public view returns (structUser[] memory)\r\n    {\r\n        structUser[] memory UserList = new structUser[](usersCount+1);\r\n        for (uint i = 0; i <= usersCount; i++) \r\n        {\r\n            UserList[i] = Users[i];\r\n        }\r\n        return UserList;\r\n    }\r\n\r\n    modifier isAuthorized (address account, uint[] memory roles) {\r\n    require(checkUser(account, roles));\r\n    _;\r\n    }\r\n}\r\n",
  "sourcePath": "D:\\Documents\\Custom Office Templates\\Final Year Project\\decentralized-patient-centered-health-records-and-exchange\\decentralized-patient-centered-health-records-and-exchange\\contracts\\User.sol",
  "compiler": {
    "name": "solc",
    "version": "0.8.10+commit.fc410830.Emscripten.clang"
  },
  "schemaVersion": "3.4.3",
  "updatedAt": "2022-01-18T19:15:33.523Z",
  "networkType": "ethereum",
  "devdoc": {
    "kind": "dev",
    "methods": {},
    "version": 1
  },
  "userdoc": {
    "kind": "user",
    "methods": {},
    "version": 1
  }
}