{
  "contractName": "User",
  "abi": [
    {
      "inputs": [],
      "stateMutability": "nonpayable",
      "type": "constructor"
    },
    {
      "inputs": [
        {
          "internalType": "uint256",
          "name": "",
          "type": "uint256"
        }
      ],
      "name": "Users",
      "outputs": [
        {
          "internalType": "address",
          "name": "id",
          "type": "address"
        },
        {
          "internalType": "uint256",
          "name": "roleId",
          "type": "uint256"
        },
        {
          "internalType": "string",
          "name": "username",
          "type": "string"
        },
        {
          "internalType": "string",
          "name": "password",
          "type": "string"
        },
        {
          "internalType": "bool",
          "name": "active",
          "type": "bool"
        },
        {
          "internalType": "uint256",
          "name": "dateCreated",
          "type": "uint256"
        }
      ],
      "stateMutability": "view",
      "type": "function",
      "constant": true
    },
    {
      "inputs": [],
      "name": "usersCount",
      "outputs": [
        {
          "internalType": "uint256",
          "name": "",
          "type": "uint256"
        }
      ],
      "stateMutability": "view",
      "type": "function",
      "constant": true
    },
    {
      "inputs": [
        {
          "internalType": "address",
          "name": "_connectedAccount",
          "type": "address"
        },
        {
          "internalType": "uint256[]",
          "name": "_roles",
          "type": "uint256[]"
        }
      ],
      "name": "checkUser",
      "outputs": [
        {
          "internalType": "bool",
          "name": "",
          "type": "bool"
        }
      ],
      "stateMutability": "view",
      "type": "function",
      "constant": true
    },
    {
      "inputs": [
        {
          "internalType": "address",
          "name": "_connectedAccount",
          "type": "address"
        }
      ],
      "name": "getUsername",
      "outputs": [
        {
          "internalType": "string",
          "name": "",
          "type": "string"
        }
      ],
      "stateMutability": "view",
      "type": "function",
      "constant": true
    },
    {
      "inputs": [
        {
          "internalType": "address",
          "name": "_connectedAccount",
          "type": "address"
        }
      ],
      "name": "getRoleId",
      "outputs": [
        {
          "internalType": "uint256",
          "name": "",
          "type": "uint256"
        }
      ],
      "stateMutability": "view",
      "type": "function",
      "constant": true
    },
    {
      "inputs": [
        {
          "internalType": "string",
          "name": "_username",
          "type": "string"
        },
        {
          "internalType": "string",
          "name": "_password",
          "type": "string"
        }
      ],
      "name": "createUser",
      "outputs": [
        {
          "internalType": "bool",
          "name": "",
          "type": "bool"
        }
      ],
      "stateMutability": "nonpayable",
      "type": "function"
    },
    {
      "inputs": [
        {
          "internalType": "string",
          "name": "_username",
          "type": "string"
        }
      ],
      "name": "checkUsername",
      "outputs": [
        {
          "internalType": "bool",
          "name": "",
          "type": "bool"
        }
      ],
      "stateMutability": "view",
      "type": "function",
      "constant": true
    },
    {
      "inputs": [],
      "name": "getAll",
      "outputs": [
        {
          "components": [
            {
              "internalType": "address",
              "name": "id",
              "type": "address"
            },
            {
              "internalType": "uint256",
              "name": "roleId",
              "type": "uint256"
            },
            {
              "internalType": "string",
              "name": "username",
              "type": "string"
            },
            {
              "internalType": "string",
              "name": "password",
              "type": "string"
            },
            {
              "internalType": "bool",
              "name": "active",
              "type": "bool"
            },
            {
              "internalType": "uint256",
              "name": "dateCreated",
              "type": "uint256"
            }
          ],
          "internalType": "struct User.structUser[]",
          "name": "",
          "type": "tuple[]"
        }
      ],
      "stateMutability": "view",
      "type": "function",
      "constant": true
    }
  ],
  "bytecode": "0x608060405260006001553480156200001657600080fd5b506040518060c0016040528073e882db2cf4338ed26165106d53b573e69154a8e473ffffffffffffffffffffffffffffffffffffffff168152602001600181526020016040518060400160405280600581526020017f41646d696e00000000000000000000000000000000000000000000000000000081525081526020016040518060200160405280600081525081526020016001151581526020016000815250600080600154815260200190815260200160002060008201518160000160006101000a81548173ffffffffffffffffffffffffffffffffffffffff021916908373ffffffffffffffffffffffffffffffffffffffff1602179055506020820151816001015560408201518160020190805190602001906200013a929190620001a7565b50606082015181600301908051906020019062000159929190620001a7565b5060808201518160040160006101000a81548160ff02191690831515021790555060a08201518160050155905050600160008154809291906200019c9062000290565b919050555062000343565b828054620001b5906200030d565b90600052602060002090601f016020900481019282620001d9576000855562000225565b82601f10620001f457805160ff191683800117855562000225565b8280016001018555821562000225579182015b828111156200022457825182559160200191906001019062000207565b5b50905062000234919062000238565b5090565b5b808211156200025357600081600090555060010162000239565b5090565b7f4e487b7100000000000000000000000000000000000000000000000000000000600052601160045260246000fd5b6000819050919050565b60006200029d8262000286565b91507fffffffffffffffffffffffffffffffffffffffffffffffffffffffffffffffff821415620002d357620002d262000257565b5b600182019050919050565b7f4e487b7100000000000000000000000000000000000000000000000000000000600052602260045260246000fd5b600060028204905060018216806200032657607f821691505b602082108114156200033d576200033c620002de565b5b50919050565b61161780620003536000396000f3fe608060405234801561001057600080fd5b50600436106100885760003560e01c806372102ed11161005b57806372102ed11461012e57806387b162b51461015e578063a5d87c401461018e578063ce43c032146101be57610088565b806318392f641461008d5780631e98fd1c146100bd57806353ed5143146100f25780636ba13a8214610110575b600080fd5b6100a760048036038101906100a29190610c57565b6101ee565b6040516100b49190610c9d565b60405180910390f35b6100d760048036038101906100d29190610ce4565b6102a5565b6040516100e996959493929190610dd4565b60405180910390f35b6100fa61041e565b604051610107919061100c565b60405180910390f35b610118610690565b6040516101259190610c9d565b60405180910390f35b61014860048036038101906101439190611176565b610696565b60405161015591906111d2565b60405180910390f35b610178600480360381019061017391906112a2565b610793565b60405161018591906111d2565b60405180910390f35b6101a860048036038101906101a3919061131a565b6108e2565b6040516101b591906111d2565b60405180910390f35b6101d860048036038101906101d39190610c57565b610984565b6040516101e59190611363565b60405180910390f35b600080600090505b60015481101561029a578273ffffffffffffffffffffffffffffffffffffffff1660008083815260200190815260200160002060000160009054906101000a900473ffffffffffffffffffffffffffffffffffffffff1673ffffffffffffffffffffffffffffffffffffffff16141561028757600080828152602001908152602001600020600101549150506102a0565b8080610292906113b4565b9150506101f6565b50600090505b919050565b60006020528060005260406000206000915090508060000160009054906101000a900473ffffffffffffffffffffffffffffffffffffffff16908060010154908060020180546102f49061142c565b80601f01602080910402602001604051908101604052809291908181526020018280546103209061142c565b801561036d5780601f106103425761010080835404028352916020019161036d565b820191906000526020600020905b81548152906001019060200180831161035057829003601f168201915b5050505050908060030180546103829061142c565b80601f01602080910402602001604051908101604052809291908181526020018280546103ae9061142c565b80156103fb5780601f106103d0576101008083540402835291602001916103fb565b820191906000526020600020905b8154815290600101906020018083116103de57829003601f168201915b5050505050908060040160009054906101000a900460ff16908060050154905086565b6060600060018054610430919061145e565b67ffffffffffffffff81111561044957610448611033565b5b60405190808252806020026020018201604052801561048257816020015b61046f610af4565b8152602001906001900390816104675790505b50905060005b6001548111610688576000808281526020019081526020016000206040518060c00160405290816000820160009054906101000a900473ffffffffffffffffffffffffffffffffffffffff1673ffffffffffffffffffffffffffffffffffffffff1673ffffffffffffffffffffffffffffffffffffffff1681526020016001820154815260200160028201805461051e9061142c565b80601f016020809104026020016040519081016040528092919081815260200182805461054a9061142c565b80156105975780601f1061056c57610100808354040283529160200191610597565b820191906000526020600020905b81548152906001019060200180831161057a57829003601f168201915b505050505081526020016003820180546105b09061142c565b80601f01602080910402602001604051908101604052809291908181526020018280546105dc9061142c565b80156106295780601f106105fe57610100808354040283529160200191610629565b820191906000526020600020905b81548152906001019060200180831161060c57829003601f168201915b505050505081526020016004820160009054906101000a900460ff1615151515815260200160058201548152505082828151811061066a576106696114b4565b5b60200260200101819052508080610680906113b4565b915050610488565b508091505090565b60015481565b600080600090505b600154811015610787578373ffffffffffffffffffffffffffffffffffffffff1660008083815260200190815260200160002060000160009054906101000a900473ffffffffffffffffffffffffffffffffffffffff1673ffffffffffffffffffffffffffffffffffffffff1614156107745760005b8351811015610772578381815181106107305761072f6114b4565b5b602002602001015160008084815260200190815260200160002060010154141561075f5760019250505061078d565b808061076a906113b4565b915050610714565b505b808061077f906113b4565b91505061069e565b50600090505b92915050565b600061079e836108e2565b6108d7576040518060c001604052803373ffffffffffffffffffffffffffffffffffffffff168152602001600181526020018481526020018381526020016001151581526020016000815250600080600154815260200190815260200160002060008201518160000160006101000a81548173ffffffffffffffffffffffffffffffffffffffff021916908373ffffffffffffffffffffffffffffffffffffffff16021790555060208201518160010155604082015181600201908051906020019061086b929190610b42565b506060820151816003019080519060200190610888929190610b42565b5060808201518160040160006101000a81548160ff02191690831515021790555060a08201518160050155905050600160008154809291906108c9906113b4565b9190505550600190506108dc565b600090505b92915050565b600080600090505b6001548110156109795782604051602001610905919061151f565b6040516020818303038152906040528051906020012060008083815260200190815260200160002060020160405160200161094091906115ca565b60405160208183030381529060405280519060200120141561096657600191505061097f565b8080610971906113b4565b9150506108ea565b50600090505b919050565b606060005b600154811015610ab5578273ffffffffffffffffffffffffffffffffffffffff1660008083815260200190815260200160002060000160009054906101000a900473ffffffffffffffffffffffffffffffffffffffff1673ffffffffffffffffffffffffffffffffffffffff161415610aa2576000808281526020019081526020016000206002018054610a1c9061142c565b80601f0160208091040260200160405190810160405280929190818152602001828054610a489061142c565b8015610a955780601f10610a6a57610100808354040283529160200191610a95565b820191906000526020600020905b815481529060010190602001808311610a7857829003601f168201915b5050505050915050610aef565b8080610aad906113b4565b915050610989565b506040518060400160405280600781526020017f756e6e616d65640000000000000000000000000000000000000000000000000081525090505b919050565b6040518060c00160405280600073ffffffffffffffffffffffffffffffffffffffff168152602001600081526020016060815260200160608152602001600015158152602001600081525090565b828054610b4e9061142c565b90600052602060002090601f016020900481019282610b705760008555610bb7565b82601f10610b8957805160ff1916838001178555610bb7565b82800160010185558215610bb7579182015b82811115610bb6578251825591602001919060010190610b9b565b5b509050610bc49190610bc8565b5090565b5b80821115610be1576000816000905550600101610bc9565b5090565b6000604051905090565b600080fd5b600080fd5b600073ffffffffffffffffffffffffffffffffffffffff82169050919050565b6000610c2482610bf9565b9050919050565b610c3481610c19565b8114610c3f57600080fd5b50565b600081359050610c5181610c2b565b92915050565b600060208284031215610c6d57610c6c610bef565b5b6000610c7b84828501610c42565b91505092915050565b6000819050919050565b610c9781610c84565b82525050565b6000602082019050610cb26000830184610c8e565b92915050565b610cc181610c84565b8114610ccc57600080fd5b50565b600081359050610cde81610cb8565b92915050565b600060208284031215610cfa57610cf9610bef565b5b6000610d0884828501610ccf565b91505092915050565b610d1a81610c19565b82525050565b600081519050919050565b600082825260208201905092915050565b60005b83811015610d5a578082015181840152602081019050610d3f565b83811115610d69576000848401525b50505050565b6000601f19601f8301169050919050565b6000610d8b82610d20565b610d958185610d2b565b9350610da5818560208601610d3c565b610dae81610d6f565b840191505092915050565b60008115159050919050565b610dce81610db9565b82525050565b600060c082019050610de96000830189610d11565b610df66020830188610c8e565b8181036040830152610e088187610d80565b90508181036060830152610e1c8186610d80565b9050610e2b6080830185610dc5565b610e3860a0830184610c8e565b979650505050505050565b600081519050919050565b600082825260208201905092915050565b6000819050602082019050919050565b610e7881610c19565b82525050565b610e8781610c84565b82525050565b600082825260208201905092915050565b6000610ea982610d20565b610eb38185610e8d565b9350610ec3818560208601610d3c565b610ecc81610d6f565b840191505092915050565b610ee081610db9565b82525050565b600060c083016000830151610efe6000860182610e6f565b506020830151610f116020860182610e7e565b5060408301518482036040860152610f298282610e9e565b91505060608301518482036060860152610f438282610e9e565b9150506080830151610f586080860182610ed7565b5060a0830151610f6b60a0860182610e7e565b508091505092915050565b6000610f828383610ee6565b905092915050565b6000602082019050919050565b6000610fa282610e43565b610fac8185610e4e565b935083602082028501610fbe85610e5f565b8060005b85811015610ffa5784840389528151610fdb8582610f76565b9450610fe683610f8a565b925060208a01995050600181019050610fc2565b50829750879550505050505092915050565b600060208201905081810360008301526110268184610f97565b905092915050565b600080fd5b7f4e487b7100000000000000000000000000000000000000000000000000000000600052604160045260246000fd5b61106b82610d6f565b810181811067ffffffffffffffff8211171561108a57611089611033565b5b80604052505050565b600061109d610be5565b90506110a98282611062565b919050565b600067ffffffffffffffff8211156110c9576110c8611033565b5b602082029050602081019050919050565b600080fd5b60006110f26110ed846110ae565b611093565b90508083825260208201905060208402830185811115611115576111146110da565b5b835b8181101561113e578061112a8882610ccf565b845260208401935050602081019050611117565b5050509392505050565b600082601f83011261115d5761115c61102e565b5b813561116d8482602086016110df565b91505092915050565b6000806040838503121561118d5761118c610bef565b5b600061119b85828601610c42565b925050602083013567ffffffffffffffff8111156111bc576111bb610bf4565b5b6111c885828601611148565b9150509250929050565b60006020820190506111e76000830184610dc5565b92915050565b600080fd5b600067ffffffffffffffff82111561120d5761120c611033565b5b61121682610d6f565b9050602081019050919050565b82818337600083830152505050565b6000611245611240846111f2565b611093565b905082815260208101848484011115611261576112606111ed565b5b61126c848285611223565b509392505050565b600082601f8301126112895761128861102e565b5b8135611299848260208601611232565b91505092915050565b600080604083850312156112b9576112b8610bef565b5b600083013567ffffffffffffffff8111156112d7576112d6610bf4565b5b6112e385828601611274565b925050602083013567ffffffffffffffff81111561130457611303610bf4565b5b61131085828601611274565b9150509250929050565b6000602082840312156113305761132f610bef565b5b600082013567ffffffffffffffff81111561134e5761134d610bf4565b5b61135a84828501611274565b91505092915050565b6000602082019050818103600083015261137d8184610d80565b905092915050565b7f4e487b7100000000000000000000000000000000000000000000000000000000600052601160045260246000fd5b60006113bf82610c84565b91507fffffffffffffffffffffffffffffffffffffffffffffffffffffffffffffffff8214156113f2576113f1611385565b5b600182019050919050565b7f4e487b7100000000000000000000000000000000000000000000000000000000600052602260045260246000fd5b6000600282049050600182168061144457607f821691505b60208210811415611458576114576113fd565b5b50919050565b600061146982610c84565b915061147483610c84565b9250827fffffffffffffffffffffffffffffffffffffffffffffffffffffffffffffffff038211156114a9576114a8611385565b5b828201905092915050565b7f4e487b7100000000000000000000000000000000000000000000000000000000600052603260045260246000fd5b600081905092915050565b60006114f982610d20565b61150381856114e3565b9350611513818560208601610d3c565b80840191505092915050565b600061152b82846114ee565b915081905092915050565b60008190508160005260206000209050919050565b600081546115588161142c565b61156281866114e3565b9450600182166000811461157d576001811461158e576115c1565b60ff198316865281860193506115c1565b61159785611536565b60005b838110156115b95781548189015260018201915060208101905061159a565b838801955050505b50505092915050565b60006115d6828461154b565b91508190509291505056fea2646970667358221220be876858b0ebf7b0f9dfc274fe0b48f2b553f08e2a4c0668a50299de12431c9464736f6c634300080a0033",
  "immutableReferences": {},
  "source": "// SPDX-License-Identifier: MIT\r\npragma solidity >=0.4.22 <0.9.0;\r\n\r\ncontract User {\r\n    \r\n    struct structUser{\r\n        address id;\r\n        uint roleId;\r\n        string username;\r\n        string password;\r\n        bool active;\r\n        uint dateCreated;\r\n    }\r\n\r\n    mapping(uint => structUser) public Users;\r\n\r\n    //Holds user count \r\n    uint public usersCount = 0;\r\n    \r\n    constructor () {\r\n        //For testing purpose only \r\n        // Users[usersCount] = structUser(\"0xasdasdasd\",1,\"admin\",\"123\", true, 0);\r\n        Users[usersCount] = structUser(0xE882dB2cF4338Ed26165106D53b573E69154a8e4, 1,\"Admin\",\"\", true, 0);\r\n        usersCount ++;\r\n    }\r\n    // user login function\r\n    function checkUser(address _connectedAccount, uint[] memory _roles)  public view returns (bool)\r\n    {\r\n        for(uint i = 0; i < usersCount; i++){\r\n\r\n            // if(keccak256(abi.encodePacked(Users[i].username)) == keccak256(abi.encodePacked(_username)) && \r\n            //    keccak256(abi.encodePacked(Users[i].password)) == keccak256(abi.encodePacked(_password)) )\r\n            // {\r\n            //     return true;\r\n            // }\r\n            if (Users[i].id == _connectedAccount) \r\n            {\r\n                for (uint j = 0; j < _roles.length; j++) \r\n                {\r\n                    if (Users[i].roleId == _roles[j])  return true;\r\n                }\r\n            }\r\n        }\r\n        return false;\r\n    }\r\n\r\n    function getUsername(address _connectedAccount) public view returns (string memory) \r\n    {\r\n        for(uint i = 0; i < usersCount; i++)\r\n        {\r\n            if (Users[i].id == _connectedAccount) \r\n            {\r\n                return Users[i].username;\r\n            }\r\n        }\r\n\r\n        return \"unnamed\";\r\n    }\r\n\r\n    function getRoleId(address _connectedAccount) public view returns (uint) \r\n    {\r\n        for(uint i = 0; i < usersCount; i++)\r\n        {\r\n            if (Users[i].id == _connectedAccount) \r\n            {\r\n                return Users[i].roleId;\r\n            }\r\n        }\r\n\r\n        return 0;\r\n    }\r\n\r\n    function createUser(string memory _username, string memory _password) public returns (bool)\r\n    {\r\n        if(!checkUsername(_username))\r\n        {\r\n            Users[usersCount] = structUser(msg.sender,1,_username,_password, true, 0);\r\n            usersCount ++;\r\n            return true;\r\n        }\r\n        else \r\n        {\r\n            return false;\r\n        }\r\n    }\r\n    function checkUsername(string memory _username) public view  returns (bool)\r\n    {\r\n        for(uint i = 0; i < usersCount; i++){\r\n\r\n            if(keccak256(abi.encodePacked(Users[i].username)) == keccak256(abi.encodePacked(_username)) )\r\n            {\r\n                return true;\r\n            }\r\n        }\r\n        return false;\r\n    }\r\n    function getAll() public view returns (structUser[] memory)\r\n    {\r\n        structUser[] memory UserList = new structUser[](usersCount+1);\r\n        for (uint i = 0; i <= usersCount; i++) \r\n        {\r\n            UserList[i] = Users[i];\r\n        }\r\n        return UserList;\r\n    }\r\n\r\n    modifier isAuthorized (address account, uint[] memory roles) {\r\n    require(checkUser(account, roles));\r\n    _;\r\n    }\r\n}\r\n",
  "sourcePath": "D:\\Documents\\Custom Office Templates\\Final Year Project\\decentralized-patient-centered-health-records-and-exchange\\decentralized-patient-centered-health-records-and-exchange\\contracts\\User.sol",
  "compiler": {
    "name": "solc",
    "version": "0.8.10+commit.fc410830.Emscripten.clang"
  },
  "schemaVersion": "3.4.3",
  "updatedAt": "2022-01-22T08:56:02.791Z",
  "networkType": "ethereum",
  "devdoc": {
    "kind": "dev",
    "methods": {},
    "version": 1
  },
  "userdoc": {
    "kind": "user",
    "methods": {},
    "version": 1
  }
}