{
  "contractName": "User",
  "abi": [
    {
      "inputs": [],
      "stateMutability": "nonpayable",
      "type": "constructor"
    },
    {
      "inputs": [
        {
          "internalType": "uint256",
          "name": "",
          "type": "uint256"
        }
      ],
      "name": "Users",
      "outputs": [
        {
          "internalType": "uint256",
          "name": "id",
          "type": "uint256"
        },
        {
          "internalType": "uint256",
          "name": "roleId",
          "type": "uint256"
        },
        {
          "internalType": "string",
          "name": "fullName",
          "type": "string"
        },
        {
          "internalType": "string",
          "name": "username",
          "type": "string"
        },
        {
          "internalType": "string",
          "name": "password",
          "type": "string"
        },
        {
          "internalType": "bool",
          "name": "active",
          "type": "bool"
        },
        {
          "internalType": "uint256",
          "name": "dateCreated",
          "type": "uint256"
        }
      ],
      "stateMutability": "view",
      "type": "function",
      "constant": true
    },
    {
      "inputs": [],
      "name": "usersCount",
      "outputs": [
        {
          "internalType": "uint256",
          "name": "",
          "type": "uint256"
        }
      ],
      "stateMutability": "view",
      "type": "function",
      "constant": true
    },
    {
      "inputs": [
        {
          "internalType": "string",
          "name": "_username",
          "type": "string"
        },
        {
          "internalType": "string",
          "name": "_password",
          "type": "string"
        }
      ],
      "name": "login",
      "outputs": [
        {
          "internalType": "bool",
          "name": "",
          "type": "bool"
        }
      ],
      "stateMutability": "view",
      "type": "function",
      "constant": true
    },
    {
      "inputs": [
        {
          "internalType": "string",
          "name": "_username",
          "type": "string"
        },
        {
          "internalType": "string",
          "name": "_password",
          "type": "string"
        }
      ],
      "name": "createUser",
      "outputs": [
        {
          "internalType": "bool",
          "name": "",
          "type": "bool"
        }
      ],
      "stateMutability": "nonpayable",
      "type": "function"
    },
    {
      "inputs": [],
      "name": "UserCount",
      "outputs": [
        {
          "internalType": "uint256",
          "name": "",
          "type": "uint256"
        }
      ],
      "stateMutability": "view",
      "type": "function",
      "constant": true
    },
    {
      "inputs": [
        {
          "internalType": "string",
          "name": "_username",
          "type": "string"
        }
      ],
      "name": "checkUsername",
      "outputs": [
        {
          "internalType": "bool",
          "name": "",
          "type": "bool"
        }
      ],
      "stateMutability": "view",
      "type": "function",
      "constant": true
    }
  ],
  "bytecode": "0x608060405260006001553480156200001657600080fd5b50600160008154809291906200002c90620002ab565b91905055506040518060e001604052806001548152602001600181526020016040518060400160405280600a81526020017f416264756c204d6f697a0000000000000000000000000000000000000000000081525081526020016040518060400160405280600581526020017f416264756c00000000000000000000000000000000000000000000000000000081525081526020016040518060400160405280600381526020017f31323300000000000000000000000000000000000000000000000000000000008152508152602001600115158152602001600081525060008060015481526020019081526020016000206000820151816000015560208201518160010155604082015181600201908051906020019062000150929190620001c2565b5060608201518160030190805190602001906200016f929190620001c2565b5060808201518160040190805190602001906200018e929190620001c2565b5060a08201518160050160006101000a81548160ff02191690831515021790555060c082015181600601559050506200035e565b828054620001d09062000328565b90600052602060002090601f016020900481019282620001f4576000855562000240565b82601f106200020f57805160ff191683800117855562000240565b8280016001018555821562000240579182015b828111156200023f57825182559160200191906001019062000222565b5b5090506200024f919062000253565b5090565b5b808211156200026e57600081600090555060010162000254565b5090565b7f4e487b7100000000000000000000000000000000000000000000000000000000600052601160045260246000fd5b6000819050919050565b6000620002b882620002a1565b91507fffffffffffffffffffffffffffffffffffffffffffffffffffffffffffffffff821415620002ee57620002ed62000272565b5b600182019050919050565b7f4e487b7100000000000000000000000000000000000000000000000000000000600052602260045260246000fd5b600060028204905060018216806200034157607f821691505b60208210811415620003585762000357620002f9565b5b50919050565b610d00806200036e6000396000f3fe608060405234801561001057600080fd5b50600436106100625760003560e01c806315931724146100675780631e98fd1c1461008557806358467dbc146100bb5780636ba13a82146100eb57806387b162b514610109578063a5d87c4014610139575b600080fd5b61006f610169565b60405161007c9190610722565b60405180910390f35b61009f600480360381019061009a919061077d565b610173565b6040516100b2979695949392919061085e565b60405180910390f35b6100d560048036038101906100d09190610a17565b61035a565b6040516100e29190610a8f565b60405180910390f35b6100f3610468565b6040516101009190610722565b60405180910390f35b610123600480360381019061011e9190610a17565b61046e565b6040516101309190610a8f565b60405180910390f35b610153600480360381019061014e9190610aaa565b6105c4565b6040516101609190610a8f565b60405180910390f35b6000600154905090565b60006020528060005260406000206000915090508060000154908060010154908060020180546101a290610b22565b80601f01602080910402602001604051908101604052809291908181526020018280546101ce90610b22565b801561021b5780601f106101f05761010080835404028352916020019161021b565b820191906000526020600020905b8154815290600101906020018083116101fe57829003601f168201915b50505050509080600301805461023090610b22565b80601f016020809104026020016040519081016040528092919081815260200182805461025c90610b22565b80156102a95780601f1061027e576101008083540402835291602001916102a9565b820191906000526020600020905b81548152906001019060200180831161028c57829003601f168201915b5050505050908060040180546102be90610b22565b80601f01602080910402602001604051908101604052809291908181526020018280546102ea90610b22565b80156103375780601f1061030c57610100808354040283529160200191610337565b820191906000526020600020905b81548152906001019060200180831161031a57829003601f168201915b5050505050908060050160009054906101000a900460ff16908060060154905087565b600080600090505b60015481101561045c578360405160200161037d9190610b90565b604051602081830303815290604052805190602001206000808381526020019081526020016000206003016040516020016103b89190610c3b565b6040516020818303038152906040528051906020012014801561043a5750826040516020016103e79190610b90565b604051602081830303815290604052805190602001206000808381526020019081526020016000206004016040516020016104229190610c3b565b60405160208183030381529060405280519060200120145b15610449576001915050610462565b808061045490610c81565b915050610362565b50600090505b92915050565b60015481565b6000610479836105c4565b6105b9576001600081548092919061049090610c81565b91905055506040518060e001604052806001548152602001600181526020016040518060400160405280600a81526020017f416264756c204d6f697a0000000000000000000000000000000000000000000081525081526020018481526020018381526020016001151581526020016000815250600080600154815260200190815260200160002060008201518160000155602082015181600101556040820151816002019080519060200190610548929190610666565b506060820151816003019080519060200190610565929190610666565b506080820151816004019080519060200190610582929190610666565b5060a08201518160050160006101000a81548160ff02191690831515021790555060c08201518160060155905050600190506105be565b600090505b92915050565b600080600090505b60015481101561065b57826040516020016105e79190610b90565b604051602081830303815290604052805190602001206000808381526020019081526020016000206003016040516020016106229190610c3b565b604051602081830303815290604052805190602001201415610648576001915050610661565b808061065390610c81565b9150506105cc565b50600090505b919050565b82805461067290610b22565b90600052602060002090601f01602090048101928261069457600085556106db565b82601f106106ad57805160ff19168380011785556106db565b828001600101855582156106db579182015b828111156106da5782518255916020019190600101906106bf565b5b5090506106e891906106ec565b5090565b5b808211156107055760008160009055506001016106ed565b5090565b6000819050919050565b61071c81610709565b82525050565b60006020820190506107376000830184610713565b92915050565b6000604051905090565b600080fd5b600080fd5b61075a81610709565b811461076557600080fd5b50565b60008135905061077781610751565b92915050565b60006020828403121561079357610792610747565b5b60006107a184828501610768565b91505092915050565b600081519050919050565b600082825260208201905092915050565b60005b838110156107e45780820151818401526020810190506107c9565b838111156107f3576000848401525b50505050565b6000601f19601f8301169050919050565b6000610815826107aa565b61081f81856107b5565b935061082f8185602086016107c6565b610838816107f9565b840191505092915050565b60008115159050919050565b61085881610843565b82525050565b600060e082019050610873600083018a610713565b6108806020830189610713565b8181036040830152610892818861080a565b905081810360608301526108a6818761080a565b905081810360808301526108ba818661080a565b90506108c960a083018561084f565b6108d660c0830184610713565b98975050505050505050565b600080fd5b600080fd5b7f4e487b7100000000000000000000000000000000000000000000000000000000600052604160045260246000fd5b610924826107f9565b810181811067ffffffffffffffff82111715610943576109426108ec565b5b80604052505050565b600061095661073d565b9050610962828261091b565b919050565b600067ffffffffffffffff821115610982576109816108ec565b5b61098b826107f9565b9050602081019050919050565b82818337600083830152505050565b60006109ba6109b584610967565b61094c565b9050828152602081018484840111156109d6576109d56108e7565b5b6109e1848285610998565b509392505050565b600082601f8301126109fe576109fd6108e2565b5b8135610a0e8482602086016109a7565b91505092915050565b60008060408385031215610a2e57610a2d610747565b5b600083013567ffffffffffffffff811115610a4c57610a4b61074c565b5b610a58858286016109e9565b925050602083013567ffffffffffffffff811115610a7957610a7861074c565b5b610a85858286016109e9565b9150509250929050565b6000602082019050610aa4600083018461084f565b92915050565b600060208284031215610ac057610abf610747565b5b600082013567ffffffffffffffff811115610ade57610add61074c565b5b610aea848285016109e9565b91505092915050565b7f4e487b7100000000000000000000000000000000000000000000000000000000600052602260045260246000fd5b60006002820490506001821680610b3a57607f821691505b60208210811415610b4e57610b4d610af3565b5b50919050565b600081905092915050565b6000610b6a826107aa565b610b748185610b54565b9350610b848185602086016107c6565b80840191505092915050565b6000610b9c8284610b5f565b915081905092915050565b60008190508160005260206000209050919050565b60008154610bc981610b22565b610bd38186610b54565b94506001821660008114610bee5760018114610bff57610c32565b60ff19831686528186019350610c32565b610c0885610ba7565b60005b83811015610c2a57815481890152600182019150602081019050610c0b565b838801955050505b50505092915050565b6000610c478284610bbc565b915081905092915050565b7f4e487b7100000000000000000000000000000000000000000000000000000000600052601160045260246000fd5b6000610c8c82610709565b91507fffffffffffffffffffffffffffffffffffffffffffffffffffffffffffffffff821415610cbf57610cbe610c52565b5b60018201905091905056fea2646970667358221220e47af4a2b1f4cac8b72c321d0847378240b7ffcb11f183c13bd7e6981203c2d464736f6c634300080a0033",
  "immutableReferences": {},
  "source": "// SPDX-License-Identifier: MIT\r\npragma solidity >=0.4.22 <0.9.0;\r\n\r\ncontract User {\r\n    \r\n    struct structUser{\r\n        uint id;\r\n        uint roleId;\r\n        string fullName;\r\n        string username;\r\n        string password;\r\n        bool active;\r\n        uint dateCreated;\r\n    }\r\n\r\n    mapping(uint => structUser) public Users;\r\n    //Holds user count \r\n    uint public usersCount = 0;\r\n    \r\n    constructor () {\r\n        usersCount ++;\r\n        Users[usersCount] = structUser(usersCount,1,\"Abdul Moiz\",\"Abdul\",\"123\", true, 0);\r\n    }\r\n    // user login function\r\n    function login(string memory _username, string memory _password)  public view returns (bool)\r\n    {\r\n        for(uint i = 0; i < usersCount; i++){\r\n\r\n            if(keccak256(abi.encodePacked(Users[i].username)) == keccak256(abi.encodePacked(_username)) && \r\n               keccak256(abi.encodePacked(Users[i].password)) == keccak256(abi.encodePacked(_password)) )\r\n            {\r\n                return true;\r\n            }\r\n        }\r\n        return false;\r\n    }\r\n    function createUser(string memory _username, string memory _password) public returns (bool)\r\n    {\r\n        if(!checkUsername(_username))\r\n        {\r\n            usersCount ++;\r\n            Users[usersCount] = structUser(usersCount,1,\"Abdul Moiz\",_username,_password, true, 0);\r\n            return true;\r\n        }\r\n        else \r\n        {\r\n            return false;\r\n        }\r\n    }\r\n    function UserCount() public view returns (uint)\r\n    {\r\n        return usersCount;\r\n    }\r\n    function checkUsername(string memory _username) public view  returns (bool)\r\n    {\r\n        for(uint i = 0; i < usersCount; i++){\r\n\r\n            if(keccak256(abi.encodePacked(Users[i].username)) == keccak256(abi.encodePacked(_username)) )\r\n            {\r\n                return true;\r\n            }\r\n        }\r\n        return false;\r\n    }\r\n}\r\n",
  "sourcePath": "G:\\Projects\\Blockchain\\decentralized-patient-centered-health-records-and-exchange\\contracts\\User.sol",
  "compiler": {
    "name": "solc",
    "version": "0.8.10+commit.fc410830.Emscripten.clang"
  },
  "schemaVersion": "3.4.3",
  "updatedAt": "2022-01-01T09:25:59.855Z",
  "networkType": "ethereum",
  "devdoc": {
    "kind": "dev",
    "methods": {},
    "version": 1
  },
  "userdoc": {
    "kind": "user",
    "methods": {},
    "version": 1
  }
}