{
  "contractName": "User",
  "abi": [
    {
      "inputs": [],
      "stateMutability": "nonpayable",
      "type": "constructor"
    },
    {
      "inputs": [
        {
          "internalType": "uint256",
          "name": "",
          "type": "uint256"
        }
      ],
      "name": "Users",
      "outputs": [
        {
          "internalType": "address",
          "name": "id",
          "type": "address"
        },
        {
          "internalType": "uint256",
          "name": "roleId",
          "type": "uint256"
        },
        {
          "internalType": "string",
          "name": "username",
          "type": "string"
        },
        {
          "internalType": "string",
          "name": "password",
          "type": "string"
        },
        {
          "internalType": "bool",
          "name": "active",
          "type": "bool"
        },
        {
          "internalType": "uint256",
          "name": "dateCreated",
          "type": "uint256"
        }
      ],
      "stateMutability": "view",
      "type": "function",
      "constant": true
    },
    {
      "inputs": [],
      "name": "usersCount",
      "outputs": [
        {
          "internalType": "uint256",
          "name": "",
          "type": "uint256"
        }
      ],
      "stateMutability": "view",
      "type": "function",
      "constant": true
    },
    {
      "inputs": [
        {
          "internalType": "address",
          "name": "_connectedAccount",
          "type": "address"
        },
        {
          "internalType": "uint256[]",
          "name": "_roles",
          "type": "uint256[]"
        }
      ],
      "name": "checkUser",
      "outputs": [
        {
          "internalType": "bool",
          "name": "",
          "type": "bool"
        }
      ],
      "stateMutability": "view",
      "type": "function",
      "constant": true
    },
    {
      "inputs": [
        {
          "internalType": "address",
          "name": "_connectedAccount",
          "type": "address"
        }
      ],
      "name": "getUsername",
      "outputs": [
        {
          "internalType": "string",
          "name": "",
          "type": "string"
        }
      ],
      "stateMutability": "view",
      "type": "function",
      "constant": true
    },
    {
      "inputs": [
        {
          "internalType": "address",
          "name": "_connectedAccount",
          "type": "address"
        }
      ],
      "name": "getRoleId",
      "outputs": [
        {
          "internalType": "uint256",
          "name": "",
          "type": "uint256"
        }
      ],
      "stateMutability": "view",
      "type": "function",
      "constant": true
    },
    {
      "inputs": [
        {
          "internalType": "address",
          "name": "_id",
          "type": "address"
        },
        {
          "internalType": "uint256",
          "name": "_roleId",
          "type": "uint256"
        },
        {
          "internalType": "string",
          "name": "_username",
          "type": "string"
        },
        {
          "internalType": "string",
          "name": "_password",
          "type": "string"
        }
      ],
      "name": "createUser",
      "outputs": [
        {
          "internalType": "bool",
          "name": "",
          "type": "bool"
        }
      ],
      "stateMutability": "nonpayable",
      "type": "function"
    },
    {
      "inputs": [
        {
          "internalType": "string",
          "name": "_username",
          "type": "string"
        }
      ],
      "name": "checkUsername",
      "outputs": [
        {
          "internalType": "bool",
          "name": "",
          "type": "bool"
        }
      ],
      "stateMutability": "view",
      "type": "function",
      "constant": true
    },
    {
      "inputs": [
        {
          "internalType": "address",
          "name": "_id",
          "type": "address"
        }
      ],
      "name": "checkAddress",
      "outputs": [
        {
          "internalType": "bool",
          "name": "",
          "type": "bool"
        }
      ],
      "stateMutability": "view",
      "type": "function",
      "constant": true
    },
    {
      "inputs": [],
      "name": "getAll",
      "outputs": [
        {
          "components": [
            {
              "internalType": "address",
              "name": "id",
              "type": "address"
            },
            {
              "internalType": "uint256",
              "name": "roleId",
              "type": "uint256"
            },
            {
              "internalType": "string",
              "name": "username",
              "type": "string"
            },
            {
              "internalType": "string",
              "name": "password",
              "type": "string"
            },
            {
              "internalType": "bool",
              "name": "active",
              "type": "bool"
            },
            {
              "internalType": "uint256",
              "name": "dateCreated",
              "type": "uint256"
            }
          ],
          "internalType": "struct User.structUser[]",
          "name": "",
          "type": "tuple[]"
        }
      ],
      "stateMutability": "view",
      "type": "function",
      "constant": true
    },
    {
      "inputs": [
        {
          "internalType": "address",
          "name": "_id",
          "type": "address"
        }
      ],
      "name": "getStatus",
      "outputs": [
        {
          "internalType": "bool",
          "name": "",
          "type": "bool"
        }
      ],
      "stateMutability": "view",
      "type": "function",
      "constant": true
    },
    {
      "inputs": [
        {
          "internalType": "address",
          "name": "_id",
          "type": "address"
        }
      ],
      "name": "toggleActive",
      "outputs": [
        {
          "internalType": "bool",
          "name": "",
          "type": "bool"
        }
      ],
      "stateMutability": "nonpayable",
      "type": "function"
    },
    {
      "inputs": [
        {
          "internalType": "address",
          "name": "_id",
          "type": "address"
        },
        {
          "internalType": "string",
          "name": "_newName",
          "type": "string"
        }
      ],
      "name": "changeName",
      "outputs": [
        {
          "internalType": "bool",
          "name": "",
          "type": "bool"
        }
      ],
      "stateMutability": "nonpayable",
      "type": "function"
    }
  ],
  "bytecode": "0x608060405260006001553480156200001657600080fd5b506040518060c0016040528073e882db2cf4338ed26165106d53b573e69154a8e473ffffffffffffffffffffffffffffffffffffffff168152602001600181526020016040518060400160405280600581526020017f41646d696e00000000000000000000000000000000000000000000000000000081525081526020016040518060200160405280600081525081526020016001151581526020016000815250600080600154815260200190815260200160002060008201518160000160006101000a81548173ffffffffffffffffffffffffffffffffffffffff021916908373ffffffffffffffffffffffffffffffffffffffff1602179055506020820151816001015560408201518160020190805190602001906200013a929190620001a7565b50606082015181600301908051906020019062000159929190620001a7565b5060808201518160040160006101000a81548160ff02191690831515021790555060a08201518160050155905050600160008154809291906200019c9062000290565b919050555062000343565b828054620001b5906200030d565b90600052602060002090601f016020900481019282620001d9576000855562000225565b82601f10620001f457805160ff191683800117855562000225565b8280016001018555821562000225579182015b828111156200022457825182559160200191906001019062000207565b5b50905062000234919062000238565b5090565b5b808211156200025357600081600090555060010162000239565b5090565b7f4e487b7100000000000000000000000000000000000000000000000000000000600052601160045260246000fd5b6000819050919050565b60006200029d8262000286565b91507fffffffffffffffffffffffffffffffffffffffffffffffffffffffffffffffff821415620002d357620002d262000257565b5b600182019050919050565b7f4e487b7100000000000000000000000000000000000000000000000000000000600052602260045260246000fd5b600060028204905060018216806200032657607f821691505b602082108114156200033d576200033c620002de565b5b50919050565b611b0b80620003536000396000f3fe608060405234801561001057600080fd5b50600436106100b45760003560e01c8063515d684011610071578063515d6840146101de57806353ed51431461020e5780636ba13a821461022c57806372102ed11461024a578063a5d87c401461027a578063ce43c032146102aa576100b4565b80630ddcfe8e146100b957806318392f64146100e95780631e98fd1c1461011957806330ccebb51461014e57806345ca25ed1461017e57806351128578146101ae575b600080fd5b6100d360048036038101906100ce91906110c8565b6102da565b6040516100e09190611110565b60405180910390f35b61010360048036038101906100fe91906110c8565b61037d565b6040516101109190611144565b60405180910390f35b610133600480360381019061012e919061118b565b610434565b60405161014596959493929190611260565b60405180910390f35b610168600480360381019061016391906110c8565b6105ad565b6040516101759190611110565b60405180910390f35b61019860048036038101906101939190611404565b610671565b6040516101a59190611110565b60405180910390f35b6101c860048036038101906101c39190611460565b610745565b6040516101d59190611110565b60405180910390f35b6101f860048036038101906101f391906110c8565b610894565b6040516102059190611110565b60405180910390f35b6102166109ac565b60405161022391906116c8565b60405180910390f35b610234610c1e565b6040516102419190611144565b60405180910390f35b610264600480360381019061025f91906117b2565b610c24565b6040516102719190611110565b60405180910390f35b610294600480360381019061028f919061180e565b610d53565b6040516102a19190611110565b60405180910390f35b6102c460048036038101906102bf91906110c8565b610df5565b6040516102d19190611857565b60405180910390f35b600080600090505b600154811015610372578273ffffffffffffffffffffffffffffffffffffffff1660008083815260200190815260200160002060000160009054906101000a900473ffffffffffffffffffffffffffffffffffffffff1673ffffffffffffffffffffffffffffffffffffffff16141561035f576001915050610378565b808061036a906118a8565b9150506102e2565b50600090505b919050565b600080600090505b600154811015610429578273ffffffffffffffffffffffffffffffffffffffff1660008083815260200190815260200160002060000160009054906101000a900473ffffffffffffffffffffffffffffffffffffffff1673ffffffffffffffffffffffffffffffffffffffff161415610416576000808281526020019081526020016000206001015491505061042f565b8080610421906118a8565b915050610385565b50600090505b919050565b60006020528060005260406000206000915090508060000160009054906101000a900473ffffffffffffffffffffffffffffffffffffffff169080600101549080600201805461048390611920565b80601f01602080910402602001604051908101604052809291908181526020018280546104af90611920565b80156104fc5780601f106104d1576101008083540402835291602001916104fc565b820191906000526020600020905b8154815290600101906020018083116104df57829003601f168201915b50505050509080600301805461051190611920565b80601f016020809104026020016040519081016040528092919081815260200182805461053d90611920565b801561058a5780601f1061055f5761010080835404028352916020019161058a565b820191906000526020600020905b81548152906001019060200180831161056d57829003601f168201915b5050505050908060040160009054906101000a900460ff16908060050154905086565b600080600090505b600154811015610666578273ffffffffffffffffffffffffffffffffffffffff1660008083815260200190815260200160002060000160009054906101000a900473ffffffffffffffffffffffffffffffffffffffff1673ffffffffffffffffffffffffffffffffffffffff1614156106535760008082815260200190815260200160002060040160009054906101000a900460ff1691505061066c565b808061065e906118a8565b9150506105b5565b50600090505b919050565b600080600090505b600154811015610739578373ffffffffffffffffffffffffffffffffffffffff1660008083815260200190815260200160002060000160009054906101000a900473ffffffffffffffffffffffffffffffffffffffff1673ffffffffffffffffffffffffffffffffffffffff16141561072657600080600083815260200190815260200160002090508381600201908051906020019061071a929190610f65565b5060019250505061073f565b8080610731906118a8565b915050610679565b50600090505b92915050565b6000610750856102da565b610887576040518060c001604052808673ffffffffffffffffffffffffffffffffffffffff16815260200185815260200184815260200183815260200160011515815260200142815250600080600154815260200190815260200160002060008201518160000160006101000a81548173ffffffffffffffffffffffffffffffffffffffff021916908373ffffffffffffffffffffffffffffffffffffffff16021790555060208201518160010155604082015181600201908051906020019061081b929190610f65565b506060820151816003019080519060200190610838929190610f65565b5060808201518160040160006101000a81548160ff02191690831515021790555060a0820151816005015590505060016000815480929190610879906118a8565b91905055506001905061088c565b600090505b949350505050565b600080600090505b6001548110156109a1578273ffffffffffffffffffffffffffffffffffffffff1660008083815260200190815260200160002060000160009054906101000a900473ffffffffffffffffffffffffffffffffffffffff1673ffffffffffffffffffffffffffffffffffffffff16141561098e5760008060008381526020019081526020016000209050600115158160040160009054906101000a900460ff16151514156109655760008160040160006101000a81548160ff021916908315150217905550610983565b60018160040160006101000a81548160ff0219169083151502179055505b6001925050506109a7565b8080610999906118a8565b91505061089c565b50600090505b919050565b60606000600180546109be9190611952565b67ffffffffffffffff8111156109d7576109d66112d9565b5b604051908082528060200260200182016040528015610a1057816020015b6109fd610feb565b8152602001906001900390816109f55790505b50905060005b6001548111610c16576000808281526020019081526020016000206040518060c00160405290816000820160009054906101000a900473ffffffffffffffffffffffffffffffffffffffff1673ffffffffffffffffffffffffffffffffffffffff1673ffffffffffffffffffffffffffffffffffffffff16815260200160018201548152602001600282018054610aac90611920565b80601f0160208091040260200160405190810160405280929190818152602001828054610ad890611920565b8015610b255780601f10610afa57610100808354040283529160200191610b25565b820191906000526020600020905b815481529060010190602001808311610b0857829003601f168201915b50505050508152602001600382018054610b3e90611920565b80601f0160208091040260200160405190810160405280929190818152602001828054610b6a90611920565b8015610bb75780601f10610b8c57610100808354040283529160200191610bb7565b820191906000526020600020905b815481529060010190602001808311610b9a57829003601f168201915b505050505081526020016004820160009054906101000a900460ff16151515158152602001600582015481525050828281518110610bf857610bf76119a8565b5b60200260200101819052508080610c0e906118a8565b915050610a16565b508091505090565b60015481565b600080600090505b600154811015610d47578373ffffffffffffffffffffffffffffffffffffffff1660008083815260200190815260200160002060000160009054906101000a900473ffffffffffffffffffffffffffffffffffffffff1673ffffffffffffffffffffffffffffffffffffffff16148015610ccc57506001151560008083815260200190815260200160002060040160009054906101000a900460ff161515145b15610d345760005b8351811015610d3257838181518110610cf057610cef6119a8565b5b6020026020010151600080848152602001908152602001600020600101541415610d1f57600192505050610d4d565b8080610d2a906118a8565b915050610cd4565b505b8080610d3f906118a8565b915050610c2c565b50600090505b92915050565b600080600090505b600154811015610dea5782604051602001610d769190611a13565b60405160208183030381529060405280519060200120600080838152602001908152602001600020600201604051602001610db19190611abe565b604051602081830303815290604052805190602001201415610dd7576001915050610df0565b8080610de2906118a8565b915050610d5b565b50600090505b919050565b606060005b600154811015610f26578273ffffffffffffffffffffffffffffffffffffffff1660008083815260200190815260200160002060000160009054906101000a900473ffffffffffffffffffffffffffffffffffffffff1673ffffffffffffffffffffffffffffffffffffffff161415610f13576000808281526020019081526020016000206002018054610e8d90611920565b80601f0160208091040260200160405190810160405280929190818152602001828054610eb990611920565b8015610f065780601f10610edb57610100808354040283529160200191610f06565b820191906000526020600020905b815481529060010190602001808311610ee957829003601f168201915b5050505050915050610f60565b8080610f1e906118a8565b915050610dfa565b506040518060400160405280600781526020017f756e6e616d65640000000000000000000000000000000000000000000000000081525090505b919050565b828054610f7190611920565b90600052602060002090601f016020900481019282610f935760008555610fda565b82601f10610fac57805160ff1916838001178555610fda565b82800160010185558215610fda579182015b82811115610fd9578251825591602001919060010190610fbe565b5b509050610fe79190611039565b5090565b6040518060c00160405280600073ffffffffffffffffffffffffffffffffffffffff168152602001600081526020016060815260200160608152602001600015158152602001600081525090565b5b8082111561105257600081600090555060010161103a565b5090565b6000604051905090565b600080fd5b600080fd5b600073ffffffffffffffffffffffffffffffffffffffff82169050919050565b60006110958261106a565b9050919050565b6110a58161108a565b81146110b057600080fd5b50565b6000813590506110c28161109c565b92915050565b6000602082840312156110de576110dd611060565b5b60006110ec848285016110b3565b91505092915050565b60008115159050919050565b61110a816110f5565b82525050565b60006020820190506111256000830184611101565b92915050565b6000819050919050565b61113e8161112b565b82525050565b60006020820190506111596000830184611135565b92915050565b6111688161112b565b811461117357600080fd5b50565b6000813590506111858161115f565b92915050565b6000602082840312156111a1576111a0611060565b5b60006111af84828501611176565b91505092915050565b6111c18161108a565b82525050565b600081519050919050565b600082825260208201905092915050565b60005b838110156112015780820151818401526020810190506111e6565b83811115611210576000848401525b50505050565b6000601f19601f8301169050919050565b6000611232826111c7565b61123c81856111d2565b935061124c8185602086016111e3565b61125581611216565b840191505092915050565b600060c08201905061127560008301896111b8565b6112826020830188611135565b81810360408301526112948187611227565b905081810360608301526112a88186611227565b90506112b76080830185611101565b6112c460a0830184611135565b979650505050505050565b600080fd5b600080fd5b7f4e487b7100000000000000000000000000000000000000000000000000000000600052604160045260246000fd5b61131182611216565b810181811067ffffffffffffffff821117156113305761132f6112d9565b5b80604052505050565b6000611343611056565b905061134f8282611308565b919050565b600067ffffffffffffffff82111561136f5761136e6112d9565b5b61137882611216565b9050602081019050919050565b82818337600083830152505050565b60006113a76113a284611354565b611339565b9050828152602081018484840111156113c3576113c26112d4565b5b6113ce848285611385565b509392505050565b600082601f8301126113eb576113ea6112cf565b5b81356113fb848260208601611394565b91505092915050565b6000806040838503121561141b5761141a611060565b5b6000611429858286016110b3565b925050602083013567ffffffffffffffff81111561144a57611449611065565b5b611456858286016113d6565b9150509250929050565b6000806000806080858703121561147a57611479611060565b5b6000611488878288016110b3565b945050602061149987828801611176565b935050604085013567ffffffffffffffff8111156114ba576114b9611065565b5b6114c6878288016113d6565b925050606085013567ffffffffffffffff8111156114e7576114e6611065565b5b6114f3878288016113d6565b91505092959194509250565b600081519050919050565b600082825260208201905092915050565b6000819050602082019050919050565b6115348161108a565b82525050565b6115438161112b565b82525050565b600082825260208201905092915050565b6000611565826111c7565b61156f8185611549565b935061157f8185602086016111e3565b61158881611216565b840191505092915050565b61159c816110f5565b82525050565b600060c0830160008301516115ba600086018261152b565b5060208301516115cd602086018261153a565b50604083015184820360408601526115e5828261155a565b915050606083015184820360608601526115ff828261155a565b91505060808301516116146080860182611593565b5060a083015161162760a086018261153a565b508091505092915050565b600061163e83836115a2565b905092915050565b6000602082019050919050565b600061165e826114ff565b611668818561150a565b93508360208202850161167a8561151b565b8060005b858110156116b657848403895281516116978582611632565b94506116a283611646565b925060208a0199505060018101905061167e565b50829750879550505050505092915050565b600060208201905081810360008301526116e28184611653565b905092915050565b600067ffffffffffffffff821115611705576117046112d9565b5b602082029050602081019050919050565b600080fd5b600061172e611729846116ea565b611339565b9050808382526020820190506020840283018581111561175157611750611716565b5b835b8181101561177a57806117668882611176565b845260208401935050602081019050611753565b5050509392505050565b600082601f830112611799576117986112cf565b5b81356117a984826020860161171b565b91505092915050565b600080604083850312156117c9576117c8611060565b5b60006117d7858286016110b3565b925050602083013567ffffffffffffffff8111156117f8576117f7611065565b5b61180485828601611784565b9150509250929050565b60006020828403121561182457611823611060565b5b600082013567ffffffffffffffff81111561184257611841611065565b5b61184e848285016113d6565b91505092915050565b600060208201905081810360008301526118718184611227565b905092915050565b7f4e487b7100000000000000000000000000000000000000000000000000000000600052601160045260246000fd5b60006118b38261112b565b91507fffffffffffffffffffffffffffffffffffffffffffffffffffffffffffffffff8214156118e6576118e5611879565b5b600182019050919050565b7f4e487b7100000000000000000000000000000000000000000000000000000000600052602260045260246000fd5b6000600282049050600182168061193857607f821691505b6020821081141561194c5761194b6118f1565b5b50919050565b600061195d8261112b565b91506119688361112b565b9250827fffffffffffffffffffffffffffffffffffffffffffffffffffffffffffffffff0382111561199d5761199c611879565b5b828201905092915050565b7f4e487b7100000000000000000000000000000000000000000000000000000000600052603260045260246000fd5b600081905092915050565b60006119ed826111c7565b6119f781856119d7565b9350611a078185602086016111e3565b80840191505092915050565b6000611a1f82846119e2565b915081905092915050565b60008190508160005260206000209050919050565b60008154611a4c81611920565b611a5681866119d7565b94506001821660008114611a715760018114611a8257611ab5565b60ff19831686528186019350611ab5565b611a8b85611a2a565b60005b83811015611aad57815481890152600182019150602081019050611a8e565b838801955050505b50505092915050565b6000611aca8284611a3f565b91508190509291505056fea26469706673582212200e65fe58f71c0d140a853edfa007decd0d9ed03bc40cd27c919ae8b13320abda64736f6c634300080a0033",
  "immutableReferences": {},
  "source": "// SPDX-License-Identifier: MIT\r\npragma solidity >=0.4.22 <0.9.0;\r\n\r\ncontract User {\r\n    \r\n    struct structUser{\r\n        address id;\r\n        uint roleId;\r\n        string username;\r\n        string password;\r\n        bool active;\r\n        uint dateCreated;\r\n    }\r\n\r\n    mapping(uint => structUser) public Users;\r\n\r\n    //Holds user count \r\n    uint public usersCount = 0;\r\n    \r\n    constructor () {\r\n        //For testing purpose only \r\n        // Users[usersCount] = structUser(\"0xasdasdasd\",1,\"admin\",\"123\", true, 0);\r\n        Users[usersCount] = structUser(0xE882dB2cF4338Ed26165106D53b573E69154a8e4, 1,\"Admin\",\"\", true, 0);\r\n        usersCount++;\r\n    }\r\n    // user login function\r\n    function checkUser(address _connectedAccount, uint[] memory _roles)  public view returns (bool)\r\n    {\r\n        for(uint i = 0; i < usersCount; i++){\r\n\r\n            // if(keccak256(abi.encodePacked(Users[i].username)) == keccak256(abi.encodePacked(_username)) && \r\n            //    keccak256(abi.encodePacked(Users[i].password)) == keccak256(abi.encodePacked(_password)) )\r\n            // {\r\n            //     return true;\r\n            // }\r\n            if (Users[i].id == _connectedAccount && Users[i].active == true) \r\n            {\r\n                for (uint j = 0; j < _roles.length; j++) \r\n                {\r\n                    if (Users[i].roleId == _roles[j])  return true;\r\n                }\r\n            }\r\n        }\r\n        return false;\r\n    }\r\n\r\n    function getUsername(address _connectedAccount) public view returns (string memory) \r\n    {\r\n        for(uint i = 0; i < usersCount; i++)\r\n        {\r\n            if (Users[i].id == _connectedAccount) \r\n            {\r\n                return Users[i].username;\r\n            }\r\n        }\r\n\r\n        return \"unnamed\";\r\n    }\r\n\r\n    function getRoleId(address _connectedAccount) public view returns (uint) \r\n    {\r\n        for(uint i = 0; i < usersCount; i++)\r\n        {\r\n            if (Users[i].id == _connectedAccount) \r\n            {\r\n                return Users[i].roleId;\r\n            }\r\n        }\r\n\r\n        return 0;\r\n    }\r\n\r\n    function createUser(address _id, uint _roleId, string memory _username, string memory _password) public returns (bool)\r\n    {\r\n        if(!checkAddress(_id))\r\n        {\r\n            Users[usersCount] = structUser(_id, _roleId, _username, _password, true, block.timestamp);\r\n            usersCount++;\r\n            return true;\r\n        }\r\n        else \r\n        {\r\n            return false;\r\n        }\r\n    }\r\n    function checkUsername(string memory _username) public view  returns (bool)\r\n    {\r\n        for(uint i = 0; i < usersCount; i++){\r\n\r\n            if(keccak256(abi.encodePacked(Users[i].username)) == keccak256(abi.encodePacked(_username)) )\r\n            {\r\n                return true;\r\n            }\r\n        }\r\n        return false;\r\n    }\r\n    function checkAddress(address _id) public view returns (bool)\r\n    {\r\n        for(uint i = 0; i < usersCount; i++){\r\n\r\n            if(Users[i].id == _id)\r\n            {\r\n                return true;\r\n            }\r\n        }\r\n        return false;\r\n    }\r\n    function getAll() public view returns (structUser[] memory)\r\n    {\r\n        structUser[] memory UserList = new structUser[](usersCount+1);\r\n        for (uint i = 0; i <= usersCount; i++) \r\n        {\r\n            UserList[i] = Users[i];\r\n        }\r\n        return UserList;\r\n    }\r\n\r\n    function getStatus(address _id) public view returns (bool)\r\n    {\r\n        for(uint i = 0; i < usersCount; i++){\r\n\r\n            if(Users[i].id == _id)\r\n            {\r\n                return Users[i].active;\r\n            }\r\n        }\r\n        return false;\r\n    }\r\n\r\n    function toggleActive(address _id) public returns (bool)\r\n    {\r\n        for(uint i = 0; i < usersCount; i++){\r\n\r\n            if(Users[i].id == _id)\r\n            {\r\n                structUser storage user = Users[i];\r\n                if (user.active == true) \r\n                {\r\n                    user.active = false;\r\n                }\r\n                else\r\n                {\r\n                    user.active = true;\r\n                }\r\n                return true;\r\n            }\r\n        }\r\n        return false;\r\n    }\r\n\r\n    function changeName(address _id, string memory _newName) public returns (bool) \r\n    {\r\n        for(uint i = 0; i < usersCount; i++){\r\n\r\n            if(Users[i].id == _id)\r\n            {\r\n                structUser storage user = Users[i];\r\n                user.username = _newName;\r\n                return true;\r\n            }\r\n        }\r\n        return false;\r\n    }\r\n\r\n    modifier isAuthorized (address account, uint[] memory roles) {\r\n    require(checkUser(account, roles));\r\n    _;\r\n    }\r\n}\r\n",
  "sourcePath": "D:\\Documents\\Custom Office Templates\\Final Year Project\\decentralized-patient-centered-health-records-and-exchange\\decentralized-patient-centered-health-records-and-exchange\\contracts\\User.sol",
  "compiler": {
    "name": "solc",
    "version": "0.8.10+commit.fc410830.Emscripten.clang"
  },
  "schemaVersion": "3.4.3",
  "updatedAt": "2022-01-23T11:10:11.021Z",
  "networkType": "ethereum",
  "devdoc": {
    "kind": "dev",
    "methods": {},
    "version": 1
  },
  "userdoc": {
    "kind": "user",
    "methods": {},
    "version": 1
  }
}