{
  "contractName": "User",
  "abi": [
    {
      "inputs": [],
      "stateMutability": "nonpayable",
      "type": "constructor"
    },
    {
      "inputs": [
        {
          "internalType": "uint256",
          "name": "",
          "type": "uint256"
        }
      ],
      "name": "Users",
      "outputs": [
        {
          "internalType": "uint256",
          "name": "id",
          "type": "uint256"
        },
        {
          "internalType": "uint256",
          "name": "roleId",
          "type": "uint256"
        },
        {
          "internalType": "string",
          "name": "username",
          "type": "string"
        },
        {
          "internalType": "string",
          "name": "password",
          "type": "string"
        },
        {
          "internalType": "bool",
          "name": "active",
          "type": "bool"
        },
        {
          "internalType": "uint256",
          "name": "dateCreated",
          "type": "uint256"
        }
      ],
      "stateMutability": "view",
      "type": "function",
      "constant": true
    },
    {
      "inputs": [],
      "name": "usersCount",
      "outputs": [
        {
          "internalType": "uint256",
          "name": "",
          "type": "uint256"
        }
      ],
      "stateMutability": "view",
      "type": "function",
      "constant": true
    },
    {
      "inputs": [
        {
          "internalType": "string",
          "name": "_username",
          "type": "string"
        },
        {
          "internalType": "string",
          "name": "_password",
          "type": "string"
        }
      ],
      "name": "login",
      "outputs": [
        {
          "internalType": "bool",
          "name": "",
          "type": "bool"
        }
      ],
      "stateMutability": "view",
      "type": "function",
      "constant": true
    },
    {
      "inputs": [
        {
          "internalType": "string",
          "name": "_username",
          "type": "string"
        },
        {
          "internalType": "string",
          "name": "_password",
          "type": "string"
        }
      ],
      "name": "createUser",
      "outputs": [
        {
          "internalType": "bool",
          "name": "",
          "type": "bool"
        }
      ],
      "stateMutability": "nonpayable",
      "type": "function"
    },
    {
      "inputs": [
        {
          "internalType": "string",
          "name": "_username",
          "type": "string"
        }
      ],
      "name": "checkUsername",
      "outputs": [
        {
          "internalType": "bool",
          "name": "",
          "type": "bool"
        }
      ],
      "stateMutability": "view",
      "type": "function",
      "constant": true
    }
  ],
  "bytecode": "0x608060405260006001553480156200001657600080fd5b506040518060c001604052806001548152602001600181526020016040518060400160405280600581526020017f61646d696e00000000000000000000000000000000000000000000000000000081525081526020016040518060400160405280600381526020017f313233000000000000000000000000000000000000000000000000000000000081525081526020016001151581526020016000815250600080600154815260200190815260200160002060008201518160000155602082015181600101556040820151816002019080519060200190620000fb92919062000168565b5060608201518160030190805190602001906200011a92919062000168565b5060808201518160040160006101000a81548160ff02191690831515021790555060a08201518160050155905050600160008154809291906200015d9062000251565b919050555062000304565b8280546200017690620002ce565b90600052602060002090601f0160209004810192826200019a5760008555620001e6565b82601f10620001b557805160ff1916838001178555620001e6565b82800160010185558215620001e6579182015b82811115620001e5578251825591602001919060010190620001c8565b5b509050620001f59190620001f9565b5090565b5b8082111562000214576000816000905550600101620001fa565b5090565b7f4e487b7100000000000000000000000000000000000000000000000000000000600052601160045260246000fd5b6000819050919050565b60006200025e8262000247565b91507fffffffffffffffffffffffffffffffffffffffffffffffffffffffffffffffff82141562000294576200029362000218565b5b600182019050919050565b7f4e487b7100000000000000000000000000000000000000000000000000000000600052602260045260246000fd5b60006002820490506001821680620002e757607f821691505b60208210811415620002fe57620002fd6200029f565b5b50919050565b610bd180620003146000396000f3fe608060405234801561001057600080fd5b50600436106100575760003560e01c80631e98fd1c1461005c57806358467dbc146100915780636ba13a82146100c157806387b162b5146100df578063a5d87c401461010f575b600080fd5b61007660048036038101906100719190610639565b61013f565b60405161008896959493929190610729565b60405180910390f35b6100ab60048036038101906100a691906108cd565b610298565b6040516100b89190610945565b60405180910390f35b6100c96103a6565b6040516100d69190610960565b60405180910390f35b6100f960048036038101906100f491906108cd565b6103ac565b6040516101069190610945565b60405180910390f35b6101296004803603810190610124919061097b565b6104aa565b6040516101369190610945565b60405180910390f35b600060205280600052604060002060009150905080600001549080600101549080600201805461016e906109f3565b80601f016020809104026020016040519081016040528092919081815260200182805461019a906109f3565b80156101e75780601f106101bc576101008083540402835291602001916101e7565b820191906000526020600020905b8154815290600101906020018083116101ca57829003601f168201915b5050505050908060030180546101fc906109f3565b80601f0160208091040260200160405190810160405280929190818152602001828054610228906109f3565b80156102755780601f1061024a57610100808354040283529160200191610275565b820191906000526020600020905b81548152906001019060200180831161025857829003601f168201915b5050505050908060040160009054906101000a900460ff16908060050154905086565b600080600090505b60015481101561039a57836040516020016102bb9190610a61565b604051602081830303815290604052805190602001206000808381526020019081526020016000206002016040516020016102f69190610b0c565b604051602081830303815290604052805190602001201480156103785750826040516020016103259190610a61565b604051602081830303815290604052805190602001206000808381526020019081526020016000206003016040516020016103609190610b0c565b60405160208183030381529060405280519060200120145b156103875760019150506103a0565b808061039290610b52565b9150506102a0565b50600090505b92915050565b60015481565b60006103b7836104aa565b61049f576040518060c00160405280600154815260200160018152602001848152602001838152602001600115158152602001600081525060008060015481526020019081526020016000206000820151816000015560208201518160010155604082015181600201908051906020019061043392919061054c565b50606082015181600301908051906020019061045092919061054c565b5060808201518160040160006101000a81548160ff02191690831515021790555060a082015181600501559050506001600081548092919061049190610b52565b9190505550600190506104a4565b600090505b92915050565b600080600090505b60015481101561054157826040516020016104cd9190610a61565b604051602081830303815290604052805190602001206000808381526020019081526020016000206002016040516020016105089190610b0c565b60405160208183030381529060405280519060200120141561052e576001915050610547565b808061053990610b52565b9150506104b2565b50600090505b919050565b828054610558906109f3565b90600052602060002090601f01602090048101928261057a57600085556105c1565b82601f1061059357805160ff19168380011785556105c1565b828001600101855582156105c1579182015b828111156105c05782518255916020019190600101906105a5565b5b5090506105ce91906105d2565b5090565b5b808211156105eb5760008160009055506001016105d3565b5090565b6000604051905090565b600080fd5b600080fd5b6000819050919050565b61061681610603565b811461062157600080fd5b50565b6000813590506106338161060d565b92915050565b60006020828403121561064f5761064e6105f9565b5b600061065d84828501610624565b91505092915050565b61066f81610603565b82525050565b600081519050919050565b600082825260208201905092915050565b60005b838110156106af578082015181840152602081019050610694565b838111156106be576000848401525b50505050565b6000601f19601f8301169050919050565b60006106e082610675565b6106ea8185610680565b93506106fa818560208601610691565b610703816106c4565b840191505092915050565b60008115159050919050565b6107238161070e565b82525050565b600060c08201905061073e6000830189610666565b61074b6020830188610666565b818103604083015261075d81876106d5565b9050818103606083015261077181866106d5565b9050610780608083018561071a565b61078d60a0830184610666565b979650505050505050565b600080fd5b600080fd5b7f4e487b7100000000000000000000000000000000000000000000000000000000600052604160045260246000fd5b6107da826106c4565b810181811067ffffffffffffffff821117156107f9576107f86107a2565b5b80604052505050565b600061080c6105ef565b905061081882826107d1565b919050565b600067ffffffffffffffff821115610838576108376107a2565b5b610841826106c4565b9050602081019050919050565b82818337600083830152505050565b600061087061086b8461081d565b610802565b90508281526020810184848401111561088c5761088b61079d565b5b61089784828561084e565b509392505050565b600082601f8301126108b4576108b3610798565b5b81356108c484826020860161085d565b91505092915050565b600080604083850312156108e4576108e36105f9565b5b600083013567ffffffffffffffff811115610902576109016105fe565b5b61090e8582860161089f565b925050602083013567ffffffffffffffff81111561092f5761092e6105fe565b5b61093b8582860161089f565b9150509250929050565b600060208201905061095a600083018461071a565b92915050565b60006020820190506109756000830184610666565b92915050565b600060208284031215610991576109906105f9565b5b600082013567ffffffffffffffff8111156109af576109ae6105fe565b5b6109bb8482850161089f565b91505092915050565b7f4e487b7100000000000000000000000000000000000000000000000000000000600052602260045260246000fd5b60006002820490506001821680610a0b57607f821691505b60208210811415610a1f57610a1e6109c4565b5b50919050565b600081905092915050565b6000610a3b82610675565b610a458185610a25565b9350610a55818560208601610691565b80840191505092915050565b6000610a6d8284610a30565b915081905092915050565b60008190508160005260206000209050919050565b60008154610a9a816109f3565b610aa48186610a25565b94506001821660008114610abf5760018114610ad057610b03565b60ff19831686528186019350610b03565b610ad985610a78565b60005b83811015610afb57815481890152600182019150602081019050610adc565b838801955050505b50505092915050565b6000610b188284610a8d565b915081905092915050565b7f4e487b7100000000000000000000000000000000000000000000000000000000600052601160045260246000fd5b6000610b5d82610603565b91507fffffffffffffffffffffffffffffffffffffffffffffffffffffffffffffffff821415610b9057610b8f610b23565b5b60018201905091905056fea264697066735822122037eaf6a79c3ce854e6de2b86ce7579478fe36a815e0d59009eeda72a22716e6864736f6c634300080a0033",
  "immutableReferences": {},
  "source": "// SPDX-License-Identifier: MIT\r\npragma solidity >=0.4.22 <0.9.0;\r\n\r\ncontract User {\r\n    \r\n    struct structUser{\r\n        uint id;\r\n        uint roleId;\r\n        string username;\r\n        string password;\r\n        bool active;\r\n        uint dateCreated;\r\n    }\r\n\r\n    mapping(uint => structUser) public Users;\r\n    //Holds user count \r\n    uint public usersCount = 0;\r\n    \r\n    constructor () {\r\n        //For testing purpose only \r\n        Users[usersCount] = structUser(usersCount,1,\"admin\",\"123\", true, 0);\r\n        usersCount ++;\r\n    }\r\n    // user login function\r\n    function login(string memory _username, string memory _password)  public view returns (bool)\r\n    {\r\n        for(uint i = 0; i < usersCount; i++){\r\n\r\n            if(keccak256(abi.encodePacked(Users[i].username)) == keccak256(abi.encodePacked(_username)) && \r\n               keccak256(abi.encodePacked(Users[i].password)) == keccak256(abi.encodePacked(_password)) )\r\n            {\r\n                return true;\r\n            }\r\n        }\r\n        return false;\r\n    }\r\n    function createUser(string memory _username, string memory _password) public returns (bool)\r\n    {\r\n        if(!checkUsername(_username))\r\n        {\r\n            Users[usersCount] = structUser(usersCount,1,_username,_password, true, 0);\r\n            usersCount ++;\r\n            return true;\r\n        }\r\n        else \r\n        {\r\n            return false;\r\n        }\r\n    }\r\n    function checkUsername(string memory _username) public view  returns (bool)\r\n    {\r\n        for(uint i = 0; i < usersCount; i++){\r\n\r\n            if(keccak256(abi.encodePacked(Users[i].username)) == keccak256(abi.encodePacked(_username)) )\r\n            {\r\n                return true;\r\n            }\r\n        }\r\n        return false;\r\n    }\r\n}\r\n",
  "sourcePath": "D:\\Documents\\Custom Office Templates\\Final Year Project\\decentralized-patient-centered-health-records-and-exchange\\decentralized-patient-centered-health-records-and-exchange\\contracts\\User.sol",
  "compiler": {
    "name": "solc",
    "version": "0.8.10+commit.fc410830.Emscripten.clang"
  },
  "schemaVersion": "3.4.3",
  "updatedAt": "2022-01-07T13:15:24.310Z",
  "networkType": "ethereum",
  "devdoc": {
    "kind": "dev",
    "methods": {},
    "version": 1
  },
  "userdoc": {
    "kind": "user",
    "methods": {},
    "version": 1
  }
}