{
  "contractName": "User",
  "abi": [
    {
      "inputs": [],
      "stateMutability": "nonpayable",
      "type": "constructor"
    },
    {
      "inputs": [
        {
          "internalType": "uint256",
          "name": "",
          "type": "uint256"
        }
      ],
      "name": "Users",
      "outputs": [
        {
          "internalType": "uint256",
          "name": "id",
          "type": "uint256"
        },
        {
          "internalType": "uint256",
          "name": "roleId",
          "type": "uint256"
        },
        {
          "internalType": "string",
          "name": "fullName",
          "type": "string"
        },
        {
          "internalType": "string",
          "name": "username",
          "type": "string"
        },
        {
          "internalType": "string",
          "name": "password",
          "type": "string"
        },
        {
          "internalType": "bool",
          "name": "active",
          "type": "bool"
        },
        {
          "internalType": "uint256",
          "name": "dateCreated",
          "type": "uint256"
        }
      ],
      "stateMutability": "view",
      "type": "function",
      "constant": true
    },
    {
      "inputs": [],
      "name": "usersCount",
      "outputs": [
        {
          "internalType": "uint256",
          "name": "",
          "type": "uint256"
        }
      ],
      "stateMutability": "view",
      "type": "function",
      "constant": true
    },
    {
      "inputs": [
        {
          "internalType": "string",
          "name": "_username",
          "type": "string"
        },
        {
          "internalType": "string",
          "name": "_password",
          "type": "string"
        }
      ],
      "name": "login",
      "outputs": [
        {
          "internalType": "bool",
          "name": "",
          "type": "bool"
        }
      ],
      "stateMutability": "view",
      "type": "function",
      "constant": true
    },
    {
      "inputs": [
        {
          "internalType": "string",
          "name": "_username",
          "type": "string"
        },
        {
          "internalType": "string",
          "name": "_password",
          "type": "string"
        }
      ],
      "name": "createUser",
      "outputs": [
        {
          "internalType": "bool",
          "name": "",
          "type": "bool"
        }
      ],
      "stateMutability": "nonpayable",
      "type": "function"
    },
    {
      "inputs": [
        {
          "internalType": "string",
          "name": "_username",
          "type": "string"
        }
      ],
      "name": "checkUsername",
      "outputs": [
        {
          "internalType": "bool",
          "name": "",
          "type": "bool"
        }
      ],
      "stateMutability": "view",
      "type": "function",
      "constant": true
    }
  ],
  "bytecode": "0x608060405260006001553480156200001657600080fd5b50600160008154809291906200002c90620002ab565b91905055506040518060e001604052806001548152602001600181526020016040518060400160405280600a81526020017f416264756c204d6f697a0000000000000000000000000000000000000000000081525081526020016040518060400160405280600581526020017f416264756c00000000000000000000000000000000000000000000000000000081525081526020016040518060400160405280600381526020017f31323300000000000000000000000000000000000000000000000000000000008152508152602001600115158152602001600081525060008060015481526020019081526020016000206000820151816000015560208201518160010155604082015181600201908051906020019062000150929190620001c2565b5060608201518160030190805190602001906200016f929190620001c2565b5060808201518160040190805190602001906200018e929190620001c2565b5060a08201518160050160006101000a81548160ff02191690831515021790555060c082015181600601559050506200035e565b828054620001d09062000328565b90600052602060002090601f016020900481019282620001f4576000855562000240565b82601f106200020f57805160ff191683800117855562000240565b8280016001018555821562000240579182015b828111156200023f57825182559160200191906001019062000222565b5b5090506200024f919062000253565b5090565b5b808211156200026e57600081600090555060010162000254565b5090565b7f4e487b7100000000000000000000000000000000000000000000000000000000600052601160045260246000fd5b6000819050919050565b6000620002b882620002a1565b91507fffffffffffffffffffffffffffffffffffffffffffffffffffffffffffffffff821415620002ee57620002ed62000272565b5b600182019050919050565b7f4e487b7100000000000000000000000000000000000000000000000000000000600052602260045260246000fd5b600060028204905060018216806200034157607f821691505b60208210811415620003585762000357620002f9565b5b50919050565b610ccd806200036e6000396000f3fe608060405234801561001057600080fd5b50600436106100575760003560e01c80631e98fd1c1461005c57806358467dbc146100925780636ba13a82146100c257806387b162b5146100e0578063a5d87c4014610110575b600080fd5b61007660048036038101906100719190610720565b610140565b6040516100899796959493929190610810565b60405180910390f35b6100ac60048036038101906100a791906109c9565b610327565b6040516100b99190610a41565b60405180910390f35b6100ca610435565b6040516100d79190610a5c565b60405180910390f35b6100fa60048036038101906100f591906109c9565b61043b565b6040516101079190610a41565b60405180910390f35b61012a60048036038101906101259190610a77565b610591565b6040516101379190610a41565b60405180910390f35b600060205280600052604060002060009150905080600001549080600101549080600201805461016f90610aef565b80601f016020809104026020016040519081016040528092919081815260200182805461019b90610aef565b80156101e85780601f106101bd576101008083540402835291602001916101e8565b820191906000526020600020905b8154815290600101906020018083116101cb57829003601f168201915b5050505050908060030180546101fd90610aef565b80601f016020809104026020016040519081016040528092919081815260200182805461022990610aef565b80156102765780601f1061024b57610100808354040283529160200191610276565b820191906000526020600020905b81548152906001019060200180831161025957829003601f168201915b50505050509080600401805461028b90610aef565b80601f01602080910402602001604051908101604052809291908181526020018280546102b790610aef565b80156103045780601f106102d957610100808354040283529160200191610304565b820191906000526020600020905b8154815290600101906020018083116102e757829003601f168201915b5050505050908060050160009054906101000a900460ff16908060060154905087565b600080600090505b600154811015610429578360405160200161034a9190610b5d565b604051602081830303815290604052805190602001206000808381526020019081526020016000206003016040516020016103859190610c08565b604051602081830303815290604052805190602001201480156104075750826040516020016103b49190610b5d565b604051602081830303815290604052805190602001206000808381526020019081526020016000206004016040516020016103ef9190610c08565b60405160208183030381529060405280519060200120145b1561041657600191505061042f565b808061042190610c4e565b91505061032f565b50600090505b92915050565b60015481565b600061044683610591565b610586576001600081548092919061045d90610c4e565b91905055506040518060e001604052806001548152602001600181526020016040518060400160405280600a81526020017f416264756c204d6f697a0000000000000000000000000000000000000000000081525081526020018481526020018381526020016001151581526020016000815250600080600154815260200190815260200160002060008201518160000155602082015181600101556040820151816002019080519060200190610515929190610633565b506060820151816003019080519060200190610532929190610633565b50608082015181600401908051906020019061054f929190610633565b5060a08201518160050160006101000a81548160ff02191690831515021790555060c082015181600601559050506001905061058b565b600090505b92915050565b600080600090505b60015481101561062857826040516020016105b49190610b5d565b604051602081830303815290604052805190602001206000808381526020019081526020016000206003016040516020016105ef9190610c08565b60405160208183030381529060405280519060200120141561061557600191505061062e565b808061062090610c4e565b915050610599565b50600090505b919050565b82805461063f90610aef565b90600052602060002090601f01602090048101928261066157600085556106a8565b82601f1061067a57805160ff19168380011785556106a8565b828001600101855582156106a8579182015b828111156106a757825182559160200191906001019061068c565b5b5090506106b591906106b9565b5090565b5b808211156106d25760008160009055506001016106ba565b5090565b6000604051905090565b600080fd5b600080fd5b6000819050919050565b6106fd816106ea565b811461070857600080fd5b50565b60008135905061071a816106f4565b92915050565b600060208284031215610736576107356106e0565b5b60006107448482850161070b565b91505092915050565b610756816106ea565b82525050565b600081519050919050565b600082825260208201905092915050565b60005b8381101561079657808201518184015260208101905061077b565b838111156107a5576000848401525b50505050565b6000601f19601f8301169050919050565b60006107c78261075c565b6107d18185610767565b93506107e1818560208601610778565b6107ea816107ab565b840191505092915050565b60008115159050919050565b61080a816107f5565b82525050565b600060e082019050610825600083018a61074d565b610832602083018961074d565b818103604083015261084481886107bc565b9050818103606083015261085881876107bc565b9050818103608083015261086c81866107bc565b905061087b60a0830185610801565b61088860c083018461074d565b98975050505050505050565b600080fd5b600080fd5b7f4e487b7100000000000000000000000000000000000000000000000000000000600052604160045260246000fd5b6108d6826107ab565b810181811067ffffffffffffffff821117156108f5576108f461089e565b5b80604052505050565b60006109086106d6565b905061091482826108cd565b919050565b600067ffffffffffffffff8211156109345761093361089e565b5b61093d826107ab565b9050602081019050919050565b82818337600083830152505050565b600061096c61096784610919565b6108fe565b90508281526020810184848401111561098857610987610899565b5b61099384828561094a565b509392505050565b600082601f8301126109b0576109af610894565b5b81356109c0848260208601610959565b91505092915050565b600080604083850312156109e0576109df6106e0565b5b600083013567ffffffffffffffff8111156109fe576109fd6106e5565b5b610a0a8582860161099b565b925050602083013567ffffffffffffffff811115610a2b57610a2a6106e5565b5b610a378582860161099b565b9150509250929050565b6000602082019050610a566000830184610801565b92915050565b6000602082019050610a71600083018461074d565b92915050565b600060208284031215610a8d57610a8c6106e0565b5b600082013567ffffffffffffffff811115610aab57610aaa6106e5565b5b610ab78482850161099b565b91505092915050565b7f4e487b7100000000000000000000000000000000000000000000000000000000600052602260045260246000fd5b60006002820490506001821680610b0757607f821691505b60208210811415610b1b57610b1a610ac0565b5b50919050565b600081905092915050565b6000610b378261075c565b610b418185610b21565b9350610b51818560208601610778565b80840191505092915050565b6000610b698284610b2c565b915081905092915050565b60008190508160005260206000209050919050565b60008154610b9681610aef565b610ba08186610b21565b94506001821660008114610bbb5760018114610bcc57610bff565b60ff19831686528186019350610bff565b610bd585610b74565b60005b83811015610bf757815481890152600182019150602081019050610bd8565b838801955050505b50505092915050565b6000610c148284610b89565b915081905092915050565b7f4e487b7100000000000000000000000000000000000000000000000000000000600052601160045260246000fd5b6000610c59826106ea565b91507fffffffffffffffffffffffffffffffffffffffffffffffffffffffffffffffff821415610c8c57610c8b610c1f565b5b60018201905091905056fea2646970667358221220855f2be853bf14611250ce1c55e60b7ce819a9a1c41e4917c524055ff4e8a04264736f6c634300080a0033",
  "immutableReferences": {},
  "source": "// SPDX-License-Identifier: MIT\r\npragma solidity >=0.4.22 <0.9.0;\r\n\r\ncontract User {\r\n    \r\n    struct structUser{\r\n        uint id;\r\n        uint roleId;\r\n        string fullName;\r\n        string username;\r\n        string password;\r\n        bool active;\r\n        uint dateCreated;\r\n    }\r\n\r\n    mapping(uint => structUser) public Users;\r\n    //Holds user count \r\n    uint public usersCount = 0;\r\n    \r\n    constructor () {\r\n        //For testing purpose only \r\n        usersCount ++;\r\n        Users[usersCount] = structUser(usersCount,1,\"Abdul Moiz\",\"Abdul\",\"123\", true, 0);\r\n    }\r\n    // user login function\r\n    function login(string memory _username, string memory _password)  public view returns (bool)\r\n    {\r\n        for(uint i = 0; i < usersCount; i++){\r\n\r\n            if(keccak256(abi.encodePacked(Users[i].username)) == keccak256(abi.encodePacked(_username)) && \r\n               keccak256(abi.encodePacked(Users[i].password)) == keccak256(abi.encodePacked(_password)) )\r\n            {\r\n                return true;\r\n            }\r\n        }\r\n        return false;\r\n    }\r\n    function createUser(string memory _username, string memory _password) public returns (bool)\r\n    {\r\n        if(!checkUsername(_username))\r\n        {\r\n            usersCount ++;\r\n            Users[usersCount] = structUser(usersCount,1,\"Abdul Moiz\",_username,_password, true, 0);\r\n            return true;\r\n        }\r\n        else \r\n        {\r\n            return false;\r\n        }\r\n    }\r\n    function checkUsername(string memory _username) public view  returns (bool)\r\n    {\r\n        for(uint i = 0; i < usersCount; i++){\r\n\r\n            if(keccak256(abi.encodePacked(Users[i].username)) == keccak256(abi.encodePacked(_username)) )\r\n            {\r\n                return true;\r\n            }\r\n        }\r\n        return false;\r\n    }\r\n}\r\n",
  "sourcePath": "G:\\Projects\\Blockchain\\decentralized-patient-centered-health-records-and-exchange\\contracts\\User.sol",
  "compiler": {
    "name": "solc",
    "version": "0.8.10+commit.fc410830.Emscripten.clang"
  },
  "schemaVersion": "3.4.3",
  "updatedAt": "2022-01-01T14:39:16.501Z",
  "networkType": "ethereum",
  "devdoc": {
    "kind": "dev",
    "methods": {},
    "version": 1
  },
  "userdoc": {
    "kind": "user",
    "methods": {},
    "version": 1
  }
}