{
  "contractName": "User",
  "abi": [
    {
      "inputs": [],
      "stateMutability": "nonpayable",
      "type": "constructor"
    },
    {
      "inputs": [
        {
          "internalType": "uint256",
          "name": "",
          "type": "uint256"
        }
      ],
      "name": "Users",
      "outputs": [
        {
          "internalType": "address",
          "name": "id",
          "type": "address"
        },
        {
          "internalType": "uint256",
          "name": "roleId",
          "type": "uint256"
        },
        {
          "internalType": "string",
          "name": "username",
          "type": "string"
        },
        {
          "internalType": "string",
          "name": "password",
          "type": "string"
        },
        {
          "internalType": "bool",
          "name": "active",
          "type": "bool"
        },
        {
          "internalType": "uint256",
          "name": "dateCreated",
          "type": "uint256"
        }
      ],
      "stateMutability": "view",
      "type": "function",
      "constant": true
    },
    {
      "inputs": [],
      "name": "usersCount",
      "outputs": [
        {
          "internalType": "uint256",
          "name": "",
          "type": "uint256"
        }
      ],
      "stateMutability": "view",
      "type": "function",
      "constant": true
    },
    {
      "inputs": [
        {
          "internalType": "string",
          "name": "_username",
          "type": "string"
        },
        {
          "internalType": "string",
          "name": "_password",
          "type": "string"
        }
      ],
      "name": "login",
      "outputs": [
        {
          "internalType": "bool",
          "name": "",
          "type": "bool"
        }
      ],
      "stateMutability": "view",
      "type": "function",
      "constant": true
    },
    {
      "inputs": [
        {
          "internalType": "string",
          "name": "_username",
          "type": "string"
        },
        {
          "internalType": "string",
          "name": "_password",
          "type": "string"
        }
      ],
      "name": "createUser",
      "outputs": [
        {
          "internalType": "bool",
          "name": "",
          "type": "bool"
        }
      ],
      "stateMutability": "nonpayable",
      "type": "function"
    },
    {
      "inputs": [
        {
          "internalType": "string",
          "name": "_username",
          "type": "string"
        }
      ],
      "name": "checkUsername",
      "outputs": [
        {
          "internalType": "bool",
          "name": "",
          "type": "bool"
        }
      ],
      "stateMutability": "view",
      "type": "function",
      "constant": true
    },
    {
      "inputs": [],
      "name": "getAll",
      "outputs": [
        {
          "components": [
            {
              "internalType": "address",
              "name": "id",
              "type": "address"
            },
            {
              "internalType": "uint256",
              "name": "roleId",
              "type": "uint256"
            },
            {
              "internalType": "string",
              "name": "username",
              "type": "string"
            },
            {
              "internalType": "string",
              "name": "password",
              "type": "string"
            },
            {
              "internalType": "bool",
              "name": "active",
              "type": "bool"
            },
            {
              "internalType": "uint256",
              "name": "dateCreated",
              "type": "uint256"
            }
          ],
          "internalType": "struct User.structUser[]",
          "name": "",
          "type": "tuple[]"
        }
      ],
      "stateMutability": "view",
      "type": "function",
      "constant": true
    }
  ],
  "bytecode": "0x6080604052600060015534801561001557600080fd5b506111dc806100256000396000f3fe608060405234801561001057600080fd5b50600436106100625760003560e01c80631e98fd1c1461006757806353ed51431461009c57806358467dbc146100ba5780636ba13a82146100ea57806387b162b514610108578063a5d87c4014610138575b600080fd5b610081600480360381019061007c9190610993565b610168565b60405161009396959493929190610ac4565b60405180910390f35b6100a46102e1565b6040516100b19190610cfc565b60405180910390f35b6100d460048036038101906100cf9190610e53565b610553565b6040516100e19190610ecb565b60405180910390f35b6100f2610661565b6040516100ff9190610ee6565b60405180910390f35b610122600480360381019061011d9190610e53565b610667565b60405161012f9190610ecb565b60405180910390f35b610152600480360381019061014d9190610f01565b6107b6565b60405161015f9190610ecb565b60405180910390f35b60006020528060005260406000206000915090508060000160009054906101000a900473ffffffffffffffffffffffffffffffffffffffff16908060010154908060020180546101b790610f79565b80601f01602080910402602001604051908101604052809291908181526020018280546101e390610f79565b80156102305780601f1061020557610100808354040283529160200191610230565b820191906000526020600020905b81548152906001019060200180831161021357829003601f168201915b50505050509080600301805461024590610f79565b80601f016020809104026020016040519081016040528092919081815260200182805461027190610f79565b80156102be5780601f10610293576101008083540402835291602001916102be565b820191906000526020600020905b8154815290600101906020018083116102a157829003601f168201915b5050505050908060040160009054906101000a900460ff16908060050154905086565b60606000600180546102f39190610fda565b67ffffffffffffffff81111561030c5761030b610d28565b5b60405190808252806020026020018201604052801561034557816020015b610332610858565b81526020019060019003908161032a5790505b50905060005b600154811161054b576000808281526020019081526020016000206040518060c00160405290816000820160009054906101000a900473ffffffffffffffffffffffffffffffffffffffff1673ffffffffffffffffffffffffffffffffffffffff1673ffffffffffffffffffffffffffffffffffffffff168152602001600182015481526020016002820180546103e190610f79565b80601f016020809104026020016040519081016040528092919081815260200182805461040d90610f79565b801561045a5780601f1061042f5761010080835404028352916020019161045a565b820191906000526020600020905b81548152906001019060200180831161043d57829003601f168201915b5050505050815260200160038201805461047390610f79565b80601f016020809104026020016040519081016040528092919081815260200182805461049f90610f79565b80156104ec5780601f106104c1576101008083540402835291602001916104ec565b820191906000526020600020905b8154815290600101906020018083116104cf57829003601f168201915b505050505081526020016004820160009054906101000a900460ff1615151515815260200160058201548152505082828151811061052d5761052c611030565b5b602002602001018190525080806105439061105f565b91505061034b565b508091505090565b600080600090505b600154811015610655578360405160200161057691906110e4565b604051602081830303815290604052805190602001206000808381526020019081526020016000206002016040516020016105b1919061118f565b604051602081830303815290604052805190602001201480156106335750826040516020016105e091906110e4565b6040516020818303038152906040528051906020012060008083815260200190815260200160002060030160405160200161061b919061118f565b60405160208183030381529060405280519060200120145b1561064257600191505061065b565b808061064d9061105f565b91505061055b565b50600090505b92915050565b60015481565b6000610672836107b6565b6107ab576040518060c001604052803373ffffffffffffffffffffffffffffffffffffffff168152602001600181526020018481526020018381526020016001151581526020016000815250600080600154815260200190815260200160002060008201518160000160006101000a81548173ffffffffffffffffffffffffffffffffffffffff021916908373ffffffffffffffffffffffffffffffffffffffff16021790555060208201518160010155604082015181600201908051906020019061073f9291906108a6565b50606082015181600301908051906020019061075c9291906108a6565b5060808201518160040160006101000a81548160ff02191690831515021790555060a082015181600501559050506001600081548092919061079d9061105f565b9190505550600190506107b0565b600090505b92915050565b600080600090505b60015481101561084d57826040516020016107d991906110e4565b60405160208183030381529060405280519060200120600080838152602001908152602001600020600201604051602001610814919061118f565b60405160208183030381529060405280519060200120141561083a576001915050610853565b80806108459061105f565b9150506107be565b50600090505b919050565b6040518060c00160405280600073ffffffffffffffffffffffffffffffffffffffff168152602001600081526020016060815260200160608152602001600015158152602001600081525090565b8280546108b290610f79565b90600052602060002090601f0160209004810192826108d4576000855561091b565b82601f106108ed57805160ff191683800117855561091b565b8280016001018555821561091b579182015b8281111561091a5782518255916020019190600101906108ff565b5b509050610928919061092c565b5090565b5b8082111561094557600081600090555060010161092d565b5090565b6000604051905090565b600080fd5b600080fd5b6000819050919050565b6109708161095d565b811461097b57600080fd5b50565b60008135905061098d81610967565b92915050565b6000602082840312156109a9576109a8610953565b5b60006109b78482850161097e565b91505092915050565b600073ffffffffffffffffffffffffffffffffffffffff82169050919050565b60006109eb826109c0565b9050919050565b6109fb816109e0565b82525050565b610a0a8161095d565b82525050565b600081519050919050565b600082825260208201905092915050565b60005b83811015610a4a578082015181840152602081019050610a2f565b83811115610a59576000848401525b50505050565b6000601f19601f8301169050919050565b6000610a7b82610a10565b610a858185610a1b565b9350610a95818560208601610a2c565b610a9e81610a5f565b840191505092915050565b60008115159050919050565b610abe81610aa9565b82525050565b600060c082019050610ad960008301896109f2565b610ae66020830188610a01565b8181036040830152610af88187610a70565b90508181036060830152610b0c8186610a70565b9050610b1b6080830185610ab5565b610b2860a0830184610a01565b979650505050505050565b600081519050919050565b600082825260208201905092915050565b6000819050602082019050919050565b610b68816109e0565b82525050565b610b778161095d565b82525050565b600082825260208201905092915050565b6000610b9982610a10565b610ba38185610b7d565b9350610bb3818560208601610a2c565b610bbc81610a5f565b840191505092915050565b610bd081610aa9565b82525050565b600060c083016000830151610bee6000860182610b5f565b506020830151610c016020860182610b6e565b5060408301518482036040860152610c198282610b8e565b91505060608301518482036060860152610c338282610b8e565b9150506080830151610c486080860182610bc7565b5060a0830151610c5b60a0860182610b6e565b508091505092915050565b6000610c728383610bd6565b905092915050565b6000602082019050919050565b6000610c9282610b33565b610c9c8185610b3e565b935083602082028501610cae85610b4f565b8060005b85811015610cea5784840389528151610ccb8582610c66565b9450610cd683610c7a565b925060208a01995050600181019050610cb2565b50829750879550505050505092915050565b60006020820190508181036000830152610d168184610c87565b905092915050565b600080fd5b600080fd5b7f4e487b7100000000000000000000000000000000000000000000000000000000600052604160045260246000fd5b610d6082610a5f565b810181811067ffffffffffffffff82111715610d7f57610d7e610d28565b5b80604052505050565b6000610d92610949565b9050610d9e8282610d57565b919050565b600067ffffffffffffffff821115610dbe57610dbd610d28565b5b610dc782610a5f565b9050602081019050919050565b82818337600083830152505050565b6000610df6610df184610da3565b610d88565b905082815260208101848484011115610e1257610e11610d23565b5b610e1d848285610dd4565b509392505050565b600082601f830112610e3a57610e39610d1e565b5b8135610e4a848260208601610de3565b91505092915050565b60008060408385031215610e6a57610e69610953565b5b600083013567ffffffffffffffff811115610e8857610e87610958565b5b610e9485828601610e25565b925050602083013567ffffffffffffffff811115610eb557610eb4610958565b5b610ec185828601610e25565b9150509250929050565b6000602082019050610ee06000830184610ab5565b92915050565b6000602082019050610efb6000830184610a01565b92915050565b600060208284031215610f1757610f16610953565b5b600082013567ffffffffffffffff811115610f3557610f34610958565b5b610f4184828501610e25565b91505092915050565b7f4e487b7100000000000000000000000000000000000000000000000000000000600052602260045260246000fd5b60006002820490506001821680610f9157607f821691505b60208210811415610fa557610fa4610f4a565b5b50919050565b7f4e487b7100000000000000000000000000000000000000000000000000000000600052601160045260246000fd5b6000610fe58261095d565b9150610ff08361095d565b9250827fffffffffffffffffffffffffffffffffffffffffffffffffffffffffffffffff0382111561102557611024610fab565b5b828201905092915050565b7f4e487b7100000000000000000000000000000000000000000000000000000000600052603260045260246000fd5b600061106a8261095d565b91507fffffffffffffffffffffffffffffffffffffffffffffffffffffffffffffffff82141561109d5761109c610fab565b5b600182019050919050565b600081905092915050565b60006110be82610a10565b6110c881856110a8565b93506110d8818560208601610a2c565b80840191505092915050565b60006110f082846110b3565b915081905092915050565b60008190508160005260206000209050919050565b6000815461111d81610f79565b61112781866110a8565b94506001821660008114611142576001811461115357611186565b60ff19831686528186019350611186565b61115c856110fb565b60005b8381101561117e5781548189015260018201915060208101905061115f565b838801955050505b50505092915050565b600061119b8284611110565b91508190509291505056fea264697066735822122047288d2208fd1dfda913c27431dc968705d1ebe42d5b0183cfff9bf9f1085aa464736f6c634300080a0033",
  "immutableReferences": {},
  "source": "// SPDX-License-Identifier: MIT\r\npragma solidity >=0.4.22 <0.9.0;\r\n\r\ncontract User {\r\n    \r\n    struct structUser{\r\n        address id;\r\n        uint roleId;\r\n        string username;\r\n        string password;\r\n        bool active;\r\n        uint dateCreated;\r\n    }\r\n\r\n    mapping(uint => structUser) public Users;\r\n    //Holds user count \r\n    uint public usersCount = 0;\r\n    \r\n    constructor () {\r\n        //For testing purpose only \r\n        // Users[usersCount] = structUser(\"0xasdasdasd\",1,\"admin\",\"123\", true, 0);\r\n        // usersCount ++;\r\n    }\r\n    // user login function\r\n    function login(string memory _username, string memory _password)  public view returns (bool)\r\n    {\r\n        for(uint i = 0; i < usersCount; i++){\r\n\r\n            if(keccak256(abi.encodePacked(Users[i].username)) == keccak256(abi.encodePacked(_username)) && \r\n               keccak256(abi.encodePacked(Users[i].password)) == keccak256(abi.encodePacked(_password)) )\r\n            {\r\n                return true;\r\n            }\r\n        }\r\n        return false;\r\n    }\r\n    function createUser(string memory _username, string memory _password) public returns (bool)\r\n    {\r\n        if(!checkUsername(_username))\r\n        {\r\n            Users[usersCount] = structUser(msg.sender,1,_username,_password, true, 0);\r\n            usersCount ++;\r\n            return true;\r\n        }\r\n        else \r\n        {\r\n            return false;\r\n        }\r\n    }\r\n    function checkUsername(string memory _username) public view  returns (bool)\r\n    {\r\n        for(uint i = 0; i < usersCount; i++){\r\n\r\n            if(keccak256(abi.encodePacked(Users[i].username)) == keccak256(abi.encodePacked(_username)) )\r\n            {\r\n                return true;\r\n            }\r\n        }\r\n        return false;\r\n    }\r\n    function getAll() public view returns (structUser[] memory)\r\n    {\r\n        structUser[] memory UserList = new structUser[](usersCount+1);\r\n        for (uint i = 0; i <= usersCount; i++) \r\n        {\r\n            UserList[i] = Users[i];\r\n        }\r\n        return UserList;\r\n    }\r\n}\r\n",
  "sourcePath": "G:\\Projects\\Blockchain\\decentralized-patient-centered-health-records-and-exchange\\contracts\\User.sol",
  "compiler": {
    "name": "solc",
    "version": "0.8.10+commit.fc410830.Emscripten.clang"
  },
  "schemaVersion": "3.4.3",
  "updatedAt": "2022-01-16T09:48:18.433Z",
  "networkType": "ethereum",
  "devdoc": {
    "kind": "dev",
    "methods": {},
    "version": 1
  },
  "userdoc": {
    "kind": "user",
    "methods": {},
    "version": 1
  }
}