{
  "contractName": "User",
  "abi": [
    {
      "inputs": [],
      "stateMutability": "nonpayable",
      "type": "constructor"
    },
    {
      "inputs": [
        {
          "internalType": "uint256",
          "name": "",
          "type": "uint256"
        }
      ],
      "name": "Users",
      "outputs": [
        {
          "internalType": "address",
          "name": "id",
          "type": "address"
        },
        {
          "internalType": "uint256",
          "name": "roleId",
          "type": "uint256"
        },
        {
          "internalType": "string",
          "name": "username",
          "type": "string"
        },
        {
          "internalType": "string",
          "name": "password",
          "type": "string"
        },
        {
          "internalType": "bool",
          "name": "active",
          "type": "bool"
        },
        {
          "internalType": "uint256",
          "name": "dateCreated",
          "type": "uint256"
        }
      ],
      "stateMutability": "view",
      "type": "function",
      "constant": true
    },
    {
      "inputs": [],
      "name": "usersCount",
      "outputs": [
        {
          "internalType": "uint256",
          "name": "",
          "type": "uint256"
        }
      ],
      "stateMutability": "view",
      "type": "function",
      "constant": true
    },
    {
      "inputs": [
        {
          "internalType": "address",
          "name": "_connectedAccount",
          "type": "address"
        },
        {
          "internalType": "uint256[]",
          "name": "_roles",
          "type": "uint256[]"
        }
      ],
      "name": "checkUser",
      "outputs": [
        {
          "internalType": "bool",
          "name": "",
          "type": "bool"
        }
      ],
      "stateMutability": "view",
      "type": "function",
      "constant": true
    },
    {
      "inputs": [
        {
          "internalType": "address",
          "name": "_connectedAccount",
          "type": "address"
        }
      ],
      "name": "getUsername",
      "outputs": [
        {
          "internalType": "string",
          "name": "",
          "type": "string"
        }
      ],
      "stateMutability": "view",
      "type": "function",
      "constant": true
    },
    {
      "inputs": [
        {
          "internalType": "address",
          "name": "_connectedAccount",
          "type": "address"
        }
      ],
      "name": "getRoleId",
      "outputs": [
        {
          "internalType": "uint256",
          "name": "",
          "type": "uint256"
        }
      ],
      "stateMutability": "view",
      "type": "function",
      "constant": true
    },
    {
      "inputs": [
        {
          "internalType": "address",
          "name": "_id",
          "type": "address"
        },
        {
          "internalType": "uint256",
          "name": "_roleId",
          "type": "uint256"
        },
        {
          "internalType": "string",
          "name": "_username",
          "type": "string"
        },
        {
          "internalType": "string",
          "name": "_password",
          "type": "string"
        }
      ],
      "name": "createUser",
      "outputs": [
        {
          "internalType": "bool",
          "name": "",
          "type": "bool"
        }
      ],
      "stateMutability": "nonpayable",
      "type": "function"
    },
    {
      "inputs": [
        {
          "internalType": "string",
          "name": "_username",
          "type": "string"
        }
      ],
      "name": "checkUsername",
      "outputs": [
        {
          "internalType": "bool",
          "name": "",
          "type": "bool"
        }
      ],
      "stateMutability": "view",
      "type": "function",
      "constant": true
    },
    {
      "inputs": [
        {
          "internalType": "address",
          "name": "_id",
          "type": "address"
        }
      ],
      "name": "checkAddress",
      "outputs": [
        {
          "internalType": "bool",
          "name": "",
          "type": "bool"
        }
      ],
      "stateMutability": "view",
      "type": "function",
      "constant": true
    },
    {
      "inputs": [],
      "name": "getAll",
      "outputs": [
        {
          "components": [
            {
              "internalType": "address",
              "name": "id",
              "type": "address"
            },
            {
              "internalType": "uint256",
              "name": "roleId",
              "type": "uint256"
            },
            {
              "internalType": "string",
              "name": "username",
              "type": "string"
            },
            {
              "internalType": "string",
              "name": "password",
              "type": "string"
            },
            {
              "internalType": "bool",
              "name": "active",
              "type": "bool"
            },
            {
              "internalType": "uint256",
              "name": "dateCreated",
              "type": "uint256"
            }
          ],
          "internalType": "struct User.structUser[]",
          "name": "",
          "type": "tuple[]"
        }
      ],
      "stateMutability": "view",
      "type": "function",
      "constant": true
    },
    {
      "inputs": [
        {
          "internalType": "address",
          "name": "_id",
          "type": "address"
        }
      ],
      "name": "getStatus",
      "outputs": [
        {
          "internalType": "bool",
          "name": "",
          "type": "bool"
        }
      ],
      "stateMutability": "view",
      "type": "function",
      "constant": true
    }
  ],
  "bytecode": "0x608060405260006001553480156200001657600080fd5b506040518060c0016040528073e882db2cf4338ed26165106d53b573e69154a8e473ffffffffffffffffffffffffffffffffffffffff168152602001600181526020016040518060400160405280600581526020017f41646d696e00000000000000000000000000000000000000000000000000000081525081526020016040518060200160405280600081525081526020016001151581526020016000815250600080600154815260200190815260200160002060008201518160000160006101000a81548173ffffffffffffffffffffffffffffffffffffffff021916908373ffffffffffffffffffffffffffffffffffffffff1602179055506020820151816001015560408201518160020190805190602001906200013a929190620001a7565b50606082015181600301908051906020019062000159929190620001a7565b5060808201518160040160006101000a81548160ff02191690831515021790555060a08201518160050155905050600160008154809291906200019c9062000290565b919050555062000343565b828054620001b5906200030d565b90600052602060002090601f016020900481019282620001d9576000855562000225565b82601f10620001f457805160ff191683800117855562000225565b8280016001018555821562000225579182015b828111156200022457825182559160200191906001019062000207565b5b50905062000234919062000238565b5090565b5b808211156200025357600081600090555060010162000239565b5090565b7f4e487b7100000000000000000000000000000000000000000000000000000000600052601160045260246000fd5b6000819050919050565b60006200029d8262000286565b91507fffffffffffffffffffffffffffffffffffffffffffffffffffffffffffffffff821415620002d357620002d262000257565b5b600182019050919050565b7f4e487b7100000000000000000000000000000000000000000000000000000000600052602260045260246000fd5b600060028204905060018216806200032657607f821691505b602082108114156200033d576200033c620002de565b5b50919050565b61184d80620003536000396000f3fe608060405234801561001057600080fd5b506004361061009e5760003560e01c806353ed51431161006657806353ed5143146101985780636ba13a82146101b657806372102ed1146101d4578063a5d87c4014610204578063ce43c032146102345761009e565b80630ddcfe8e146100a357806318392f64146100d35780631e98fd1c1461010357806330ccebb5146101385780635112857814610168575b600080fd5b6100bd60048036038101906100b89190610e66565b610264565b6040516100ca9190610eae565b60405180910390f35b6100ed60048036038101906100e89190610e66565b610307565b6040516100fa9190610ee2565b60405180910390f35b61011d60048036038101906101189190610f29565b6103be565b60405161012f96959493929190610ffe565b60405180910390f35b610152600480360381019061014d9190610e66565b610537565b60405161015f9190610eae565b60405180910390f35b610182600480360381019061017d91906111a2565b6105fb565b60405161018f9190610eae565b60405180910390f35b6101a061074a565b6040516101ad919061140a565b60405180910390f35b6101be6109bc565b6040516101cb9190610ee2565b60405180910390f35b6101ee60048036038101906101e991906114f4565b6109c2565b6040516101fb9190610eae565b60405180910390f35b61021e60048036038101906102199190611550565b610af1565b60405161022b9190610eae565b60405180910390f35b61024e60048036038101906102499190610e66565b610b93565b60405161025b9190611599565b60405180910390f35b600080600090505b6001548110156102fc578273ffffffffffffffffffffffffffffffffffffffff1660008083815260200190815260200160002060000160009054906101000a900473ffffffffffffffffffffffffffffffffffffffff1673ffffffffffffffffffffffffffffffffffffffff1614156102e9576001915050610302565b80806102f4906115ea565b91505061026c565b50600090505b919050565b600080600090505b6001548110156103b3578273ffffffffffffffffffffffffffffffffffffffff1660008083815260200190815260200160002060000160009054906101000a900473ffffffffffffffffffffffffffffffffffffffff1673ffffffffffffffffffffffffffffffffffffffff1614156103a057600080828152602001908152602001600020600101549150506103b9565b80806103ab906115ea565b91505061030f565b50600090505b919050565b60006020528060005260406000206000915090508060000160009054906101000a900473ffffffffffffffffffffffffffffffffffffffff169080600101549080600201805461040d90611662565b80601f016020809104026020016040519081016040528092919081815260200182805461043990611662565b80156104865780601f1061045b57610100808354040283529160200191610486565b820191906000526020600020905b81548152906001019060200180831161046957829003601f168201915b50505050509080600301805461049b90611662565b80601f01602080910402602001604051908101604052809291908181526020018280546104c790611662565b80156105145780601f106104e957610100808354040283529160200191610514565b820191906000526020600020905b8154815290600101906020018083116104f757829003601f168201915b5050505050908060040160009054906101000a900460ff16908060050154905086565b600080600090505b6001548110156105f0578273ffffffffffffffffffffffffffffffffffffffff1660008083815260200190815260200160002060000160009054906101000a900473ffffffffffffffffffffffffffffffffffffffff1673ffffffffffffffffffffffffffffffffffffffff1614156105dd5760008082815260200190815260200160002060040160009054906101000a900460ff169150506105f6565b80806105e8906115ea565b91505061053f565b50600090505b919050565b600061060685610264565b61073d576040518060c001604052808673ffffffffffffffffffffffffffffffffffffffff16815260200185815260200184815260200183815260200160011515815260200142815250600080600154815260200190815260200160002060008201518160000160006101000a81548173ffffffffffffffffffffffffffffffffffffffff021916908373ffffffffffffffffffffffffffffffffffffffff1602179055506020820151816001015560408201518160020190805190602001906106d1929190610d03565b5060608201518160030190805190602001906106ee929190610d03565b5060808201518160040160006101000a81548160ff02191690831515021790555060a082015181600501559050506001600081548092919061072f906115ea565b919050555060019050610742565b600090505b949350505050565b606060006001805461075c9190611694565b67ffffffffffffffff81111561077557610774611077565b5b6040519080825280602002602001820160405280156107ae57816020015b61079b610d89565b8152602001906001900390816107935790505b50905060005b60015481116109b4576000808281526020019081526020016000206040518060c00160405290816000820160009054906101000a900473ffffffffffffffffffffffffffffffffffffffff1673ffffffffffffffffffffffffffffffffffffffff1673ffffffffffffffffffffffffffffffffffffffff1681526020016001820154815260200160028201805461084a90611662565b80601f016020809104026020016040519081016040528092919081815260200182805461087690611662565b80156108c35780601f10610898576101008083540402835291602001916108c3565b820191906000526020600020905b8154815290600101906020018083116108a657829003601f168201915b505050505081526020016003820180546108dc90611662565b80601f016020809104026020016040519081016040528092919081815260200182805461090890611662565b80156109555780601f1061092a57610100808354040283529160200191610955565b820191906000526020600020905b81548152906001019060200180831161093857829003601f168201915b505050505081526020016004820160009054906101000a900460ff16151515158152602001600582015481525050828281518110610996576109956116ea565b5b602002602001018190525080806109ac906115ea565b9150506107b4565b508091505090565b60015481565b600080600090505b600154811015610ae5578373ffffffffffffffffffffffffffffffffffffffff1660008083815260200190815260200160002060000160009054906101000a900473ffffffffffffffffffffffffffffffffffffffff1673ffffffffffffffffffffffffffffffffffffffff16148015610a6a57506001151560008083815260200190815260200160002060040160009054906101000a900460ff161515145b15610ad25760005b8351811015610ad057838181518110610a8e57610a8d6116ea565b5b6020026020010151600080848152602001908152602001600020600101541415610abd57600192505050610aeb565b8080610ac8906115ea565b915050610a72565b505b8080610add906115ea565b9150506109ca565b50600090505b92915050565b600080600090505b600154811015610b885782604051602001610b149190611755565b60405160208183030381529060405280519060200120600080838152602001908152602001600020600201604051602001610b4f9190611800565b604051602081830303815290604052805190602001201415610b75576001915050610b8e565b8080610b80906115ea565b915050610af9565b50600090505b919050565b606060005b600154811015610cc4578273ffffffffffffffffffffffffffffffffffffffff1660008083815260200190815260200160002060000160009054906101000a900473ffffffffffffffffffffffffffffffffffffffff1673ffffffffffffffffffffffffffffffffffffffff161415610cb1576000808281526020019081526020016000206002018054610c2b90611662565b80601f0160208091040260200160405190810160405280929190818152602001828054610c5790611662565b8015610ca45780601f10610c7957610100808354040283529160200191610ca4565b820191906000526020600020905b815481529060010190602001808311610c8757829003601f168201915b5050505050915050610cfe565b8080610cbc906115ea565b915050610b98565b506040518060400160405280600781526020017f756e6e616d65640000000000000000000000000000000000000000000000000081525090505b919050565b828054610d0f90611662565b90600052602060002090601f016020900481019282610d315760008555610d78565b82601f10610d4a57805160ff1916838001178555610d78565b82800160010185558215610d78579182015b82811115610d77578251825591602001919060010190610d5c565b5b509050610d859190610dd7565b5090565b6040518060c00160405280600073ffffffffffffffffffffffffffffffffffffffff168152602001600081526020016060815260200160608152602001600015158152602001600081525090565b5b80821115610df0576000816000905550600101610dd8565b5090565b6000604051905090565b600080fd5b600080fd5b600073ffffffffffffffffffffffffffffffffffffffff82169050919050565b6000610e3382610e08565b9050919050565b610e4381610e28565b8114610e4e57600080fd5b50565b600081359050610e6081610e3a565b92915050565b600060208284031215610e7c57610e7b610dfe565b5b6000610e8a84828501610e51565b91505092915050565b60008115159050919050565b610ea881610e93565b82525050565b6000602082019050610ec36000830184610e9f565b92915050565b6000819050919050565b610edc81610ec9565b82525050565b6000602082019050610ef76000830184610ed3565b92915050565b610f0681610ec9565b8114610f1157600080fd5b50565b600081359050610f2381610efd565b92915050565b600060208284031215610f3f57610f3e610dfe565b5b6000610f4d84828501610f14565b91505092915050565b610f5f81610e28565b82525050565b600081519050919050565b600082825260208201905092915050565b60005b83811015610f9f578082015181840152602081019050610f84565b83811115610fae576000848401525b50505050565b6000601f19601f8301169050919050565b6000610fd082610f65565b610fda8185610f70565b9350610fea818560208601610f81565b610ff381610fb4565b840191505092915050565b600060c0820190506110136000830189610f56565b6110206020830188610ed3565b81810360408301526110328187610fc5565b905081810360608301526110468186610fc5565b90506110556080830185610e9f565b61106260a0830184610ed3565b979650505050505050565b600080fd5b600080fd5b7f4e487b7100000000000000000000000000000000000000000000000000000000600052604160045260246000fd5b6110af82610fb4565b810181811067ffffffffffffffff821117156110ce576110cd611077565b5b80604052505050565b60006110e1610df4565b90506110ed82826110a6565b919050565b600067ffffffffffffffff82111561110d5761110c611077565b5b61111682610fb4565b9050602081019050919050565b82818337600083830152505050565b6000611145611140846110f2565b6110d7565b90508281526020810184848401111561116157611160611072565b5b61116c848285611123565b509392505050565b600082601f8301126111895761118861106d565b5b8135611199848260208601611132565b91505092915050565b600080600080608085870312156111bc576111bb610dfe565b5b60006111ca87828801610e51565b94505060206111db87828801610f14565b935050604085013567ffffffffffffffff8111156111fc576111fb610e03565b5b61120887828801611174565b925050606085013567ffffffffffffffff81111561122957611228610e03565b5b61123587828801611174565b91505092959194509250565b600081519050919050565b600082825260208201905092915050565b6000819050602082019050919050565b61127681610e28565b82525050565b61128581610ec9565b82525050565b600082825260208201905092915050565b60006112a782610f65565b6112b1818561128b565b93506112c1818560208601610f81565b6112ca81610fb4565b840191505092915050565b6112de81610e93565b82525050565b600060c0830160008301516112fc600086018261126d565b50602083015161130f602086018261127c565b5060408301518482036040860152611327828261129c565b91505060608301518482036060860152611341828261129c565b915050608083015161135660808601826112d5565b5060a083015161136960a086018261127c565b508091505092915050565b600061138083836112e4565b905092915050565b6000602082019050919050565b60006113a082611241565b6113aa818561124c565b9350836020820285016113bc8561125d565b8060005b858110156113f857848403895281516113d98582611374565b94506113e483611388565b925060208a019950506001810190506113c0565b50829750879550505050505092915050565b600060208201905081810360008301526114248184611395565b905092915050565b600067ffffffffffffffff82111561144757611446611077565b5b602082029050602081019050919050565b600080fd5b600061147061146b8461142c565b6110d7565b9050808382526020820190506020840283018581111561149357611492611458565b5b835b818110156114bc57806114a88882610f14565b845260208401935050602081019050611495565b5050509392505050565b600082601f8301126114db576114da61106d565b5b81356114eb84826020860161145d565b91505092915050565b6000806040838503121561150b5761150a610dfe565b5b600061151985828601610e51565b925050602083013567ffffffffffffffff81111561153a57611539610e03565b5b611546858286016114c6565b9150509250929050565b60006020828403121561156657611565610dfe565b5b600082013567ffffffffffffffff81111561158457611583610e03565b5b61159084828501611174565b91505092915050565b600060208201905081810360008301526115b38184610fc5565b905092915050565b7f4e487b7100000000000000000000000000000000000000000000000000000000600052601160045260246000fd5b60006115f582610ec9565b91507fffffffffffffffffffffffffffffffffffffffffffffffffffffffffffffffff821415611628576116276115bb565b5b600182019050919050565b7f4e487b7100000000000000000000000000000000000000000000000000000000600052602260045260246000fd5b6000600282049050600182168061167a57607f821691505b6020821081141561168e5761168d611633565b5b50919050565b600061169f82610ec9565b91506116aa83610ec9565b9250827fffffffffffffffffffffffffffffffffffffffffffffffffffffffffffffffff038211156116df576116de6115bb565b5b828201905092915050565b7f4e487b7100000000000000000000000000000000000000000000000000000000600052603260045260246000fd5b600081905092915050565b600061172f82610f65565b6117398185611719565b9350611749818560208601610f81565b80840191505092915050565b60006117618284611724565b915081905092915050565b60008190508160005260206000209050919050565b6000815461178e81611662565b6117988186611719565b945060018216600081146117b357600181146117c4576117f7565b60ff198316865281860193506117f7565b6117cd8561176c565b60005b838110156117ef578154818901526001820191506020810190506117d0565b838801955050505b50505092915050565b600061180c8284611781565b91508190509291505056fea264697066735822122004951bba51f0a1c1dbe8fb9fc11816963d5821d7f9aeae038a81aca928698e2464736f6c634300080a0033",
  "immutableReferences": {},
  "source": "// SPDX-License-Identifier: MIT\r\npragma solidity >=0.4.22 <0.9.0;\r\n\r\ncontract User {\r\n    \r\n    struct structUser{\r\n        address id;\r\n        uint roleId;\r\n        string username;\r\n        string password;\r\n        bool active;\r\n        uint dateCreated;\r\n    }\r\n\r\n    mapping(uint => structUser) public Users;\r\n\r\n    //Holds user count \r\n    uint public usersCount = 0;\r\n    \r\n    constructor () {\r\n        //For testing purpose only \r\n        // Users[usersCount] = structUser(\"0xasdasdasd\",1,\"admin\",\"123\", true, 0);\r\n        Users[usersCount] = structUser(0xE882dB2cF4338Ed26165106D53b573E69154a8e4, 1,\"Admin\",\"\", true, 0);\r\n        usersCount++;\r\n    }\r\n    // user login function\r\n    function checkUser(address _connectedAccount, uint[] memory _roles)  public view returns (bool)\r\n    {\r\n        for(uint i = 0; i < usersCount; i++){\r\n\r\n            // if(keccak256(abi.encodePacked(Users[i].username)) == keccak256(abi.encodePacked(_username)) && \r\n            //    keccak256(abi.encodePacked(Users[i].password)) == keccak256(abi.encodePacked(_password)) )\r\n            // {\r\n            //     return true;\r\n            // }\r\n            if (Users[i].id == _connectedAccount && Users[i].active == true) \r\n            {\r\n                for (uint j = 0; j < _roles.length; j++) \r\n                {\r\n                    if (Users[i].roleId == _roles[j])  return true;\r\n                }\r\n            }\r\n        }\r\n        return false;\r\n    }\r\n\r\n    function getUsername(address _connectedAccount) public view returns (string memory) \r\n    {\r\n        for(uint i = 0; i < usersCount; i++)\r\n        {\r\n            if (Users[i].id == _connectedAccount) \r\n            {\r\n                return Users[i].username;\r\n            }\r\n        }\r\n\r\n        return \"unnamed\";\r\n    }\r\n\r\n    function getRoleId(address _connectedAccount) public view returns (uint) \r\n    {\r\n        for(uint i = 0; i < usersCount; i++)\r\n        {\r\n            if (Users[i].id == _connectedAccount) \r\n            {\r\n                return Users[i].roleId;\r\n            }\r\n        }\r\n\r\n        return 0;\r\n    }\r\n\r\n    function createUser(address _id, uint _roleId, string memory _username, string memory _password) public returns (bool)\r\n    {\r\n        if(!checkAddress(_id))\r\n        {\r\n            Users[usersCount] = structUser(_id, _roleId, _username, _password, true, block.timestamp);\r\n            usersCount++;\r\n            return true;\r\n        }\r\n        else \r\n        {\r\n            return false;\r\n        }\r\n    }\r\n    function checkUsername(string memory _username) public view  returns (bool)\r\n    {\r\n        for(uint i = 0; i < usersCount; i++){\r\n\r\n            if(keccak256(abi.encodePacked(Users[i].username)) == keccak256(abi.encodePacked(_username)) )\r\n            {\r\n                return true;\r\n            }\r\n        }\r\n        return false;\r\n    }\r\n    function checkAddress(address _id) public view returns (bool)\r\n    {\r\n        for(uint i = 0; i < usersCount; i++){\r\n\r\n            if(Users[i].id == _id)\r\n            {\r\n                return true;\r\n            }\r\n        }\r\n        return false;\r\n    }\r\n    function getAll() public view returns (structUser[] memory)\r\n    {\r\n        structUser[] memory UserList = new structUser[](usersCount+1);\r\n        for (uint i = 0; i <= usersCount; i++) \r\n        {\r\n            UserList[i] = Users[i];\r\n        }\r\n        return UserList;\r\n    }\r\n\r\n    function getStatus(address _id) public view returns (bool)\r\n    {\r\n        for(uint i = 0; i < usersCount; i++){\r\n\r\n            if(Users[i].id == _id)\r\n            {\r\n                return Users[i].active;\r\n            }\r\n        }\r\n        return false;\r\n    }\r\n\r\n    modifier isAuthorized (address account, uint[] memory roles) {\r\n    require(checkUser(account, roles));\r\n    _;\r\n    }\r\n}\r\n",
  "sourcePath": "D:\\Documents\\Custom Office Templates\\Final Year Project\\decentralized-patient-centered-health-records-and-exchange\\decentralized-patient-centered-health-records-and-exchange\\contracts\\User.sol",
  "compiler": {
    "name": "solc",
    "version": "0.8.10+commit.fc410830.Emscripten.clang"
  },
  "schemaVersion": "3.4.3",
  "updatedAt": "2022-01-22T12:07:08.632Z",
  "networkType": "ethereum",
  "devdoc": {
    "kind": "dev",
    "methods": {},
    "version": 1
  },
  "userdoc": {
    "kind": "user",
    "methods": {},
    "version": 1
  }
}