{
  "contractName": "User",
  "abi": [
    {
      "inputs": [],
      "stateMutability": "nonpayable",
      "type": "constructor"
    },
    {
      "inputs": [
        {
          "internalType": "uint256",
          "name": "",
          "type": "uint256"
        }
      ],
      "name": "Users",
      "outputs": [
        {
          "internalType": "uint256",
          "name": "id",
          "type": "uint256"
        },
        {
          "internalType": "uint256",
          "name": "roleId",
          "type": "uint256"
        },
        {
          "internalType": "string",
          "name": "fullName",
          "type": "string"
        },
        {
          "internalType": "string",
          "name": "username",
          "type": "string"
        },
        {
          "internalType": "string",
          "name": "password",
          "type": "string"
        },
        {
          "internalType": "bool",
          "name": "active",
          "type": "bool"
        },
        {
          "internalType": "uint256",
          "name": "dateCreated",
          "type": "uint256"
        }
      ],
      "stateMutability": "view",
      "type": "function"
    },
    {
      "inputs": [],
      "name": "usersCount",
      "outputs": [
        {
          "internalType": "uint256",
          "name": "",
          "type": "uint256"
        }
      ],
      "stateMutability": "view",
      "type": "function"
    },
    {
      "inputs": [
        {
          "internalType": "string",
          "name": "_username",
          "type": "string"
        },
        {
          "internalType": "string",
          "name": "_password",
          "type": "string"
        }
      ],
      "name": "login",
      "outputs": [
        {
          "internalType": "bool",
          "name": "",
          "type": "bool"
        }
      ],
      "stateMutability": "view",
      "type": "function"
    },
    {
      "inputs": [
        {
          "internalType": "string",
          "name": "_username",
          "type": "string"
        },
        {
          "internalType": "string",
          "name": "_password",
          "type": "string"
        }
      ],
      "name": "createUser",
      "outputs": [
        {
          "internalType": "bool",
          "name": "",
          "type": "bool"
        }
      ],
      "stateMutability": "nonpayable",
      "type": "function"
    }
  ],
  "bytecode": "0x608060405234801561001057600080fd5b50610c49806100206000396000f3fe608060405234801561001057600080fd5b506004361061004c5760003560e01c80631e98fd1c1461005157806358467dbc146100875780636ba13a82146100b757806387b162b5146100d5575b600080fd5b61006b600480360381019061006691906106e5565b610105565b60405161007e97969594939291906107d5565b60405180910390f35b6100a1600480360381019061009c919061098e565b6102ec565b6040516100ae9190610a06565b60405180910390f35b6100bf6103fa565b6040516100cc9190610a21565b60405180910390f35b6100ef60048036038101906100ea919061098e565b610400565b6040516100fc9190610a06565b60405180910390f35b600060205280600052604060002060009150905080600001549080600101549080600201805461013490610a6b565b80601f016020809104026020016040519081016040528092919081815260200182805461016090610a6b565b80156101ad5780601f10610182576101008083540402835291602001916101ad565b820191906000526020600020905b81548152906001019060200180831161019057829003601f168201915b5050505050908060030180546101c290610a6b565b80601f01602080910402602001604051908101604052809291908181526020018280546101ee90610a6b565b801561023b5780601f106102105761010080835404028352916020019161023b565b820191906000526020600020905b81548152906001019060200180831161021e57829003601f168201915b50505050509080600401805461025090610a6b565b80601f016020809104026020016040519081016040528092919081815260200182805461027c90610a6b565b80156102c95780601f1061029e576101008083540402835291602001916102c9565b820191906000526020600020905b8154815290600101906020018083116102ac57829003601f168201915b5050505050908060050160009054906101000a900460ff16908060060154905087565b600080600090505b6001548110156103ee578360405160200161030f9190610ad9565b6040516020818303038152906040528051906020012060008083815260200190815260200160002060030160405160200161034a9190610b84565b604051602081830303815290604052805190602001201480156103cc5750826040516020016103799190610ad9565b604051602081830303815290604052805190602001206000808381526020019081526020016000206004016040516020016103b49190610b84565b60405160208183030381529060405280519060200120145b156103db5760019150506103f4565b80806103e690610bca565b9150506102f4565b50600090505b92915050565b60015481565b600061040b83610556565b61054b576001600081548092919061042290610bca565b91905055506040518060e001604052806001548152602001600181526020016040518060400160405280600a81526020017f416264756c204d6f697a00000000000000000000000000000000000000000000815250815260200184815260200183815260200160011515815260200160008152506000806001548152602001908152602001600020600082015181600001556020820151816001015560408201518160020190805190602001906104da9291906105f8565b5060608201518160030190805190602001906104f79291906105f8565b5060808201518160040190805190602001906105149291906105f8565b5060a08201518160050160006101000a81548160ff02191690831515021790555060c0820151816006015590505060019050610550565b600090505b92915050565b600080600090505b6001548110156105ed57826040516020016105799190610ad9565b604051602081830303815290604052805190602001206000808381526020019081526020016000206003016040516020016105b49190610b84565b6040516020818303038152906040528051906020012014156105da5760019150506105f3565b80806105e590610bca565b91505061055e565b50600090505b919050565b82805461060490610a6b565b90600052602060002090601f016020900481019282610626576000855561066d565b82601f1061063f57805160ff191683800117855561066d565b8280016001018555821561066d579182015b8281111561066c578251825591602001919060010190610651565b5b50905061067a919061067e565b5090565b5b8082111561069757600081600090555060010161067f565b5090565b6000604051905090565b600080fd5b600080fd5b6000819050919050565b6106c2816106af565b81146106cd57600080fd5b50565b6000813590506106df816106b9565b92915050565b6000602082840312156106fb576106fa6106a5565b5b6000610709848285016106d0565b91505092915050565b61071b816106af565b82525050565b600081519050919050565b600082825260208201905092915050565b60005b8381101561075b578082015181840152602081019050610740565b8381111561076a576000848401525b50505050565b6000601f19601f8301169050919050565b600061078c82610721565b610796818561072c565b93506107a681856020860161073d565b6107af81610770565b840191505092915050565b60008115159050919050565b6107cf816107ba565b82525050565b600060e0820190506107ea600083018a610712565b6107f76020830189610712565b81810360408301526108098188610781565b9050818103606083015261081d8187610781565b905081810360808301526108318186610781565b905061084060a08301856107c6565b61084d60c0830184610712565b98975050505050505050565b600080fd5b600080fd5b7f4e487b7100000000000000000000000000000000000000000000000000000000600052604160045260246000fd5b61089b82610770565b810181811067ffffffffffffffff821117156108ba576108b9610863565b5b80604052505050565b60006108cd61069b565b90506108d98282610892565b919050565b600067ffffffffffffffff8211156108f9576108f8610863565b5b61090282610770565b9050602081019050919050565b82818337600083830152505050565b600061093161092c846108de565b6108c3565b90508281526020810184848401111561094d5761094c61085e565b5b61095884828561090f565b509392505050565b600082601f83011261097557610974610859565b5b813561098584826020860161091e565b91505092915050565b600080604083850312156109a5576109a46106a5565b5b600083013567ffffffffffffffff8111156109c3576109c26106aa565b5b6109cf85828601610960565b925050602083013567ffffffffffffffff8111156109f0576109ef6106aa565b5b6109fc85828601610960565b9150509250929050565b6000602082019050610a1b60008301846107c6565b92915050565b6000602082019050610a366000830184610712565b92915050565b7f4e487b7100000000000000000000000000000000000000000000000000000000600052602260045260246000fd5b60006002820490506001821680610a8357607f821691505b60208210811415610a9757610a96610a3c565b5b50919050565b600081905092915050565b6000610ab382610721565b610abd8185610a9d565b9350610acd81856020860161073d565b80840191505092915050565b6000610ae58284610aa8565b915081905092915050565b60008190508160005260206000209050919050565b60008154610b1281610a6b565b610b1c8186610a9d565b94506001821660008114610b375760018114610b4857610b7b565b60ff19831686528186019350610b7b565b610b5185610af0565b60005b83811015610b7357815481890152600182019150602081019050610b54565b838801955050505b50505092915050565b6000610b908284610b05565b915081905092915050565b7f4e487b7100000000000000000000000000000000000000000000000000000000600052601160045260246000fd5b6000610bd5826106af565b91507fffffffffffffffffffffffffffffffffffffffffffffffffffffffffffffffff821415610c0857610c07610b9b565b5b60018201905091905056fea2646970667358221220d30b63c588ffd2eaa3028c5df1355a9e6123649c8e8d8ba9a94ccdece95d92bd64736f6c634300080a0033",
  "immutableReferences": {},
  "source": "// SPDX-License-Identifier: MIT\r\npragma solidity >=0.4.22 <0.9.0;\r\n\r\ncontract User {\r\n    \r\n    struct structUser{\r\n        uint id;\r\n        uint roleId;\r\n        string fullName;\r\n        string username;\r\n        string password;\r\n        bool active;\r\n        uint dateCreated;\r\n    }\r\n\r\n    mapping(uint => structUser) public Users;\r\n    //Holds user count \r\n    uint public usersCount;\r\n    \r\n    constructor () {\r\n    }\r\n    // user login function\r\n    function login(string memory _username, string memory _password)  public view returns (bool)\r\n    {\r\n        for(uint i = 0; i < usersCount; i++){\r\n\r\n            if(keccak256(abi.encodePacked(Users[i].username)) == keccak256(abi.encodePacked(_username)) && \r\n               keccak256(abi.encodePacked(Users[i].password)) == keccak256(abi.encodePacked(_password)) )\r\n            {\r\n                return true;\r\n            }\r\n        }\r\n        return false;\r\n    }\r\n\r\n    function createUser(string memory _username, string memory _password) public returns (bool)\r\n    {\r\n        if(!checkUsername(_username))\r\n        {\r\n            usersCount ++;\r\n            Users[usersCount] = structUser(usersCount,1,\"Abdul Moiz\",_username,_password, true, 0);\r\n            return true;\r\n        }\r\n        else \r\n        {\r\n            return false;\r\n        }\r\n    }\r\n    function checkUsername(string memory _username) private view  returns (bool)\r\n    {\r\n        for(uint i = 0; i < usersCount; i++){\r\n\r\n            if(keccak256(abi.encodePacked(Users[i].username)) == keccak256(abi.encodePacked(_username)) )\r\n            {\r\n                return true;\r\n            }\r\n        }\r\n        return false;\r\n    }\r\n\r\n}\r\n",
  "sourcePath": "G:\\Projects\\Blockchain\\decentralized-patient-centered-health-records-and-exchange\\contracts\\User.sol",
  "compiler": {
    "name": "solc",
    "version": "0.8.10+commit.fc410830.Emscripten.clang"
  },
  "schemaVersion": "3.4.3",
  "updatedAt": "2022-01-01T09:04:51.264Z",
  "devdoc": {
    "kind": "dev",
    "methods": {},
    "version": 1
  },
  "userdoc": {
    "kind": "user",
    "methods": {},
    "version": 1
  }
}